{
  "_format": "hh-sol-artifact-1",
  "contractName": "CabalNFT",
  "sourceName": "contracts/cabal/CabalNFT.sol",
  "abi": [
    {
      "inputs": [
        {
          "internalType": "address",
          "name": "initialOwner",
          "type": "address"
        }
      ],
      "stateMutability": "nonpayable",
      "type": "constructor"
    },
    {
      "inputs": [
        {
          "internalType": "address",
          "name": "sender",
          "type": "address"
        },
        {
          "internalType": "uint256",
          "name": "tokenId",
          "type": "uint256"
        },
        {
          "internalType": "address",
          "name": "owner",
          "type": "address"
        }
      ],
      "name": "ERC721IncorrectOwner",
      "type": "error"
    },
    {
      "inputs": [
        {
          "internalType": "address",
          "name": "operator",
          "type": "address"
        },
        {
          "internalType": "uint256",
          "name": "tokenId",
          "type": "uint256"
        }
      ],
      "name": "ERC721InsufficientApproval",
      "type": "error"
    },
    {
      "inputs": [
        {
          "internalType": "address",
          "name": "approver",
          "type": "address"
        }
      ],
      "name": "ERC721InvalidApprover",
      "type": "error"
    },
    {
      "inputs": [
        {
          "internalType": "address",
          "name": "operator",
          "type": "address"
        }
      ],
      "name": "ERC721InvalidOperator",
      "type": "error"
    },
    {
      "inputs": [
        {
          "internalType": "address",
          "name": "owner",
          "type": "address"
        }
      ],
      "name": "ERC721InvalidOwner",
      "type": "error"
    },
    {
      "inputs": [
        {
          "internalType": "address",
          "name": "receiver",
          "type": "address"
        }
      ],
      "name": "ERC721InvalidReceiver",
      "type": "error"
    },
    {
      "inputs": [
        {
          "internalType": "address",
          "name": "sender",
          "type": "address"
        }
      ],
      "name": "ERC721InvalidSender",
      "type": "error"
    },
    {
      "inputs": [
        {
          "internalType": "uint256",
          "name": "tokenId",
          "type": "uint256"
        }
      ],
      "name": "ERC721NonexistentToken",
      "type": "error"
    },
    {
      "inputs": [
        {
          "internalType": "address",
          "name": "owner",
          "type": "address"
        }
      ],
      "name": "OwnableInvalidOwner",
      "type": "error"
    },
    {
      "inputs": [
        {
          "internalType": "address",
          "name": "account",
          "type": "address"
        }
      ],
      "name": "OwnableUnauthorizedAccount",
      "type": "error"
    },
    {
      "anonymous": false,
      "inputs": [
        {
          "indexed": true,
          "internalType": "address",
          "name": "owner",
          "type": "address"
        },
        {
          "indexed": true,
          "internalType": "address",
          "name": "approved",
          "type": "address"
        },
        {
          "indexed": true,
          "internalType": "uint256",
          "name": "tokenId",
          "type": "uint256"
        }
      ],
      "name": "Approval",
      "type": "event"
    },
    {
      "anonymous": false,
      "inputs": [
        {
          "indexed": true,
          "internalType": "address",
          "name": "owner",
          "type": "address"
        },
        {
          "indexed": true,
          "internalType": "address",
          "name": "operator",
          "type": "address"
        },
        {
          "indexed": false,
          "internalType": "bool",
          "name": "approved",
          "type": "bool"
        }
      ],
      "name": "ApprovalForAll",
      "type": "event"
    },
    {
      "anonymous": false,
      "inputs": [
        {
          "indexed": true,
          "internalType": "address",
          "name": "previousOwner",
          "type": "address"
        },
        {
          "indexed": true,
          "internalType": "address",
          "name": "newOwner",
          "type": "address"
        }
      ],
      "name": "OwnershipTransferred",
      "type": "event"
    },
    {
      "anonymous": false,
      "inputs": [
        {
          "indexed": true,
          "internalType": "address",
          "name": "from",
          "type": "address"
        },
        {
          "indexed": true,
          "internalType": "address",
          "name": "to",
          "type": "address"
        },
        {
          "indexed": true,
          "internalType": "uint256",
          "name": "tokenId",
          "type": "uint256"
        }
      ],
      "name": "Transfer",
      "type": "event"
    },
    {
      "inputs": [
        {
          "internalType": "address",
          "name": "to",
          "type": "address"
        },
        {
          "internalType": "uint256",
          "name": "tokenId",
          "type": "uint256"
        }
      ],
      "name": "approve",
      "outputs": [],
      "stateMutability": "nonpayable",
      "type": "function"
    },
    {
      "inputs": [
        {
          "internalType": "address",
          "name": "owner",
          "type": "address"
        }
      ],
      "name": "balanceOf",
      "outputs": [
        {
          "internalType": "uint256",
          "name": "",
          "type": "uint256"
        }
      ],
      "stateMutability": "view",
      "type": "function"
    },
    {
      "inputs": [
        {
          "internalType": "uint256",
          "name": "tokenId",
          "type": "uint256"
        }
      ],
      "name": "getApproved",
      "outputs": [
        {
          "internalType": "address",
          "name": "",
          "type": "address"
        }
      ],
      "stateMutability": "view",
      "type": "function"
    },
    {
      "inputs": [
        {
          "internalType": "address",
          "name": "owner",
          "type": "address"
        },
        {
          "internalType": "address",
          "name": "operator",
          "type": "address"
        }
      ],
      "name": "isApprovedForAll",
      "outputs": [
        {
          "internalType": "bool",
          "name": "",
          "type": "bool"
        }
      ],
      "stateMutability": "view",
      "type": "function"
    },
    {
      "inputs": [
        {
          "internalType": "address",
          "name": "to",
          "type": "address"
        }
      ],
      "name": "mint",
      "outputs": [
        {
          "internalType": "uint256",
          "name": "",
          "type": "uint256"
        }
      ],
      "stateMutability": "nonpayable",
      "type": "function"
    },
    {
      "inputs": [],
      "name": "name",
      "outputs": [
        {
          "internalType": "string",
          "name": "",
          "type": "string"
        }
      ],
      "stateMutability": "view",
      "type": "function"
    },
    {
      "inputs": [],
      "name": "owner",
      "outputs": [
        {
          "internalType": "address",
          "name": "",
          "type": "address"
        }
      ],
      "stateMutability": "view",
      "type": "function"
    },
    {
      "inputs": [
        {
          "internalType": "uint256",
          "name": "tokenId",
          "type": "uint256"
        }
      ],
      "name": "ownerOf",
      "outputs": [
        {
          "internalType": "address",
          "name": "",
          "type": "address"
        }
      ],
      "stateMutability": "view",
      "type": "function"
    },
    {
      "inputs": [],
      "name": "renounceOwnership",
      "outputs": [],
      "stateMutability": "nonpayable",
      "type": "function"
    },
    {
      "inputs": [
        {
          "internalType": "address",
          "name": "from",
          "type": "address"
        },
        {
          "internalType": "address",
          "name": "to",
          "type": "address"
        },
        {
          "internalType": "uint256",
          "name": "tokenId",
          "type": "uint256"
        }
      ],
      "name": "safeTransferFrom",
      "outputs": [],
      "stateMutability": "nonpayable",
      "type": "function"
    },
    {
      "inputs": [
        {
          "internalType": "address",
          "name": "from",
          "type": "address"
        },
        {
          "internalType": "address",
          "name": "to",
          "type": "address"
        },
        {
          "internalType": "uint256",
          "name": "tokenId",
          "type": "uint256"
        },
        {
          "internalType": "bytes",
          "name": "data",
          "type": "bytes"
        }
      ],
      "name": "safeTransferFrom",
      "outputs": [],
      "stateMutability": "nonpayable",
      "type": "function"
    },
    {
      "inputs": [
        {
          "internalType": "address",
          "name": "operator",
          "type": "address"
        },
        {
          "internalType": "bool",
          "name": "approved",
          "type": "bool"
        }
      ],
      "name": "setApprovalForAll",
      "outputs": [],
      "stateMutability": "nonpayable",
      "type": "function"
    },
    {
      "inputs": [
        {
          "internalType": "uint256",
          "name": "tokenId",
          "type": "uint256"
        },
        {
          "internalType": "string",
          "name": "uri",
          "type": "string"
        }
      ],
      "name": "setTokenURI",
      "outputs": [],
      "stateMutability": "nonpayable",
      "type": "function"
    },
    {
      "inputs": [
        {
          "internalType": "bytes4",
          "name": "interfaceId",
          "type": "bytes4"
        }
      ],
      "name": "supportsInterface",
      "outputs": [
        {
          "internalType": "bool",
          "name": "",
          "type": "bool"
        }
      ],
      "stateMutability": "view",
      "type": "function"
    },
    {
      "inputs": [],
      "name": "symbol",
      "outputs": [
        {
          "internalType": "string",
          "name": "",
          "type": "string"
        }
      ],
      "stateMutability": "view",
      "type": "function"
    },
    {
      "inputs": [
        {
          "internalType": "uint256",
          "name": "tokenId",
          "type": "uint256"
        }
      ],
      "name": "tokenURI",
      "outputs": [
        {
          "internalType": "string",
          "name": "",
          "type": "string"
        }
      ],
      "stateMutability": "view",
      "type": "function"
    },
    {
      "inputs": [],
      "name": "totalSupply",
      "outputs": [
        {
          "internalType": "uint256",
          "name": "",
          "type": "uint256"
        }
      ],
      "stateMutability": "view",
      "type": "function"
    },
    {
      "inputs": [
        {
          "internalType": "address",
          "name": "from",
          "type": "address"
        },
        {
          "internalType": "address",
          "name": "to",
          "type": "address"
        },
        {
          "internalType": "uint256",
          "name": "tokenId",
          "type": "uint256"
        }
      ],
      "name": "transferFrom",
      "outputs": [],
      "stateMutability": "nonpayable",
      "type": "function"
    },
    {
      "inputs": [
        {
          "internalType": "address",
          "name": "newOwner",
          "type": "address"
        }
      ],
      "name": "transferOwnership",
      "outputs": [],
      "stateMutability": "nonpayable",
      "type": "function"
    }
  ],
  "bytecode": "0x60806040523461037d576115ee6020813803918261001c81610381565b93849283398101031261037d57516001600160a01b0381169081900361037d576100466040610381565b90600582526410d858985b60da1b60208301526100636040610381565b600581526410d050905360da1b602082015282519091906001600160401b038111610291575f54600181811c91168015610373575b602082101461027357601f8111610311575b506020601f82116001146102b057819293945f926102a5575b50508160011b915f199060031b1c1916175f555b81516001600160401b03811161029157600154600181811c91168015610287575b602082101461027357601f8111610210575b50602092601f82116001146101af57928192935f926101a4575b50508160011b915f199060031b1c1916176001555b801561019157600680546001600160a01b03198116831790915560405191906001600160a01b03167f8be0079c531659141344cd1fd0a4f28419497f9722a3daafe3b4186f6b6457e05f80a361124790816103a78239f35b631e4fbdf760e01b5f525f60045260245ffd5b015190505f80610124565b601f1982169360015f52805f20915f5b8681106101f857508360019596106101e0575b505050811b01600155610139565b01515f1960f88460031b161c191690555f80806101d2565b919260206001819286850151815501940192016101bf565b60015f527fb10e2d527612073b26eecdfd717e6a320cf44b4afac2b0732d9fcbe2b7fa0cf6601f830160051c81019160208410610269575b601f0160051c01905b81811061025e575061010a565b5f8155600101610251565b9091508190610248565b634e487b7160e01b5f52602260045260245ffd5b90607f16906100f8565b634e487b7160e01b5f52604160045260245ffd5b015190505f806100c3565b601f198216905f8052805f20915f5b8181106102f9575095836001959697106102e1575b505050811b015f556100d7565b01515f1960f88460031b161c191690555f80806102d4565b9192602060018192868b0151815501940192016102bf565b5f80527f290decd9548b62a8d60345a988386fc84ba6bc95484008f6362f93160ef3e563601f830160051c81019160208410610369575b601f0160051c01905b81811061035e57506100aa565b5f8155600101610351565b9091508190610348565b90607f1690610098565b5f80fd5b6040519190601f01601f191682016001600160401b038111838210176102915760405256fe6080806040526004361015610012575f80fd5b5f3560e01c90816301ffc9a714610acf5750806306fdde0314610a2d578063081812fc146109f0578063095ea7b314610904578063162094c41461077657806318160ddd1461075957806323b872dd1461074257806342842e0e146107135780636352211e146106e45780636a6278421461049b57806370a082311461044a578063715018a6146103f85780638da5cb5b146103d257806395d89b4114610308578063a22cb4651461026d578063b88d4fde146101ff578063c87b56dd146101c8578063e985e9c51461016f5763f2fde38b146100ed575f80fd5b3461016b57602036600319011261016b576001600160a01b0361010e610b5e565b610116610fd6565b168015610158576001600160a01b03600654828219821617600655167f8be0079c531659141344cd1fd0a4f28419497f9722a3daafe3b4186f6b6457e05f80a3005b631e4fbdf760e01b5f525f60045260245ffd5b5f80fd5b3461016b57604036600319011261016b57610188610b5e565b6001600160a01b03610198610b74565b91165f5260056020526001600160a01b0360405f2091165f52602052602060ff60405f2054166040519015158152f35b3461016b57602036600319011261016b576101fb6101e7600435610e66565b604051918291602083526020830190610b3a565b0390f35b3461016b57608036600319011261016b57610218610b5e565b610220610b74565b906044356064359267ffffffffffffffff841161016b573660238501121561016b5761025961026b943690602481600401359101610bc8565b92610265838383610cbc565b33610ffd565b005b3461016b57604036600319011261016b57610286610b5e565b6024359081151580920361016b576001600160a01b03169081156102f557335f52600560205260405f20825f5260205260405f2060ff1981541660ff83161790556040519081527f17307eab39ab6107e8899845ad3d59bd9653f200f220920489ca2b5937696c3160203392a3005b50630b61174360e31b5f5260045260245ffd5b3461016b575f36600319011261016b576040515f60015461032881610c38565b80845290600181169081156103ae5750600114610350575b6101fb836101e781850382610b8a565b91905060015f527fb10e2d527612073b26eecdfd717e6a320cf44b4afac2b0732d9fcbe2b7fa0cf6915f905b808210610394575090915081016020016101e7610340565b91926001816020925483858801015201910190929161037c565b60ff191660208086019190915291151560051b840190910191506101e79050610340565b3461016b575f36600319011261016b5760206001600160a01b0360065416604051908152f35b3461016b575f36600319011261016b57610410610fd6565b5f6001600160a01b0360065481198116600655167f8be0079c531659141344cd1fd0a4f28419497f9722a3daafe3b4186f6b6457e08280a3005b3461016b57602036600319011261016b576001600160a01b0361046b610b5e565b168015610488575f526003602052602060405f2054604051908152f35b6322718ad960e21b5f525f60045260245ffd5b3461016b57602036600319011261016b576104b4610b5e565b6104bc610fd6565b6007546104c881610e44565b6007556020906040516104db8382610b8a565b5f81526001600160a01b0384169384156106d157825f52600284526001600160a01b0360405f205416801515908161069b575b865f526003865260405f2060018154019055845f526002865260405f20876001600160a01b03198254161790558487827fddf252ad1be2c89b69c2b068fc378daa952ba7f163c4a11628f55a4df523b3ef5f80a450610688573b610576575b50604051908152f35b826105af9160405180938192630a85bd0160e11b83523360048401525f6024840152866044840152608060648401526084830190610b3a565b03815f885af15f9181610648575b506106125750503d1561060a573d906105d582610bac565b916105e36040519384610b8a565b82523d5f8284013e5b815191826106075783633250574960e11b5f5260045260245ffd5b01fd5b6060906105ec565b919290916001600160e01b03191663757a42ff60e11b01610636575081908361056d565b633250574960e11b5f5260045260245ffd5b9091508381813d8311610681575b6106608183610b8a565b8101031261016b57516001600160e01b03198116810361016b5790856105bd565b503d610656565b6339e3563760e11b5f525f60045260245ffd5b6106ba855f52600460205260405f206001600160a01b03198154169055565b805f526003865260405f205f19815401905561050e565b633250574960e11b5f525f60045260245ffd5b3461016b57602036600319011261016b576020610702600435610fa3565b6001600160a01b0360405191168152f35b3461016b5761026b61072436610bfe565b9060405192610734602085610b8a565b5f8452610265838383610cbc565b3461016b5761026b61075336610bfe565b91610cbc565b3461016b575f36600319011261016b576020600754604051908152f35b3461016b57604036600319011261016b5760043560243567ffffffffffffffff811161016b573660238201121561016b576107bb903690602481600401359101610bc8565b906107c4610fd6565b805f5260026020526107e46001600160a01b0360405f2054161515610c70565b5f52600860205260405f20815167ffffffffffffffff81116108f05761080a8254610c38565b601f81116108ab575b50602092601f821160011461084f57928192935f92610844575b50505f19600383901b1c191660019190911b179055005b01519050838061082d565b601f19821693835f52805f20915f5b868110610893575083600195961061087b575b505050811b019055005b01515f1960f88460031b161c19169055838080610871565b9192602060018192868501518155019401920161085e565b825f5260205f20601f830160051c810191602084106108e6575b601f0160051c01905b8181106108db5750610813565b5f81556001016108ce565b90915081906108c5565b634e487b7160e01b5f52604160045260245ffd5b3461016b57604036600319011261016b5761091d610b5e565b60243561092981610fa3565b331515806109dd575b806109aa575b6109975781906001600160a01b0380851691167f8c5be1e5ebec7d5bd14f71427d1e84f3dd0314c0f7b2291e5b200ac8c7c3b9255f80a45f5260046020526001600160a01b0360405f2091166001600160a01b03198254161790555f80f35b63a9fbf51f60e01b5f523360045260245ffd5b506001600160a01b0381165f52600560205260405f206001600160a01b0333165f5260205260ff60405f20541615610938565b50336001600160a01b0382161415610932565b3461016b57602036600319011261016b57600435610a0d81610fa3565b505f52600460205260206001600160a01b0360405f205416604051908152f35b3461016b575f36600319011261016b576040515f8054610a4c81610c38565b80845290600181169081156103ae5750600114610a73576101fb836101e781850382610b8a565b5f8080527f290decd9548b62a8d60345a988386fc84ba6bc95484008f6362f93160ef3e563939250905b808210610ab5575090915081016020016101e7610340565b919260018160209254838588010152019101909291610a9d565b3461016b57602036600319011261016b576004359063ffffffff60e01b821680920361016b576020916380ac58cd60e01b8114908115610b29575b8115610b18575b5015158152f35b6301ffc9a760e01b14905083610b11565b635b5e139f60e01b81149150610b0a565b805180835260209291819084018484015e5f828201840152601f01601f1916010190565b600435906001600160a01b038216820361016b57565b602435906001600160a01b038216820361016b57565b90601f8019910116810190811067ffffffffffffffff8211176108f057604052565b67ffffffffffffffff81116108f057601f01601f191660200190565b929192610bd482610bac565b91610be26040519384610b8a565b82948184528183011161016b578281602093845f960137010152565b606090600319011261016b576004356001600160a01b038116810361016b57906024356001600160a01b038116810361016b579060443590565b90600182811c92168015610c66575b6020831014610c5257565b634e487b7160e01b5f52602260045260245ffd5b91607f1691610c47565b15610c7757565b60405162461bcd60e51b815260206004820152601460248201527f546f6b656e20646f6573206e6f742065786973740000000000000000000000006044820152606490fd5b91906001600160a01b031680156106d157815f5260026020526001600160a01b0360405f20541692823315159283610da8575b6001600160a01b03935085610d71575b805f52600360205260405f2060018154019055815f52600260205260405f20818519825416179055857fddf252ad1be2c89b69c2b068fc378daa952ba7f163c4a11628f55a4df523b3ef5f80a416808303610d5957505050565b6364283d7b60e01b5f5260045260245260445260645ffd5b610d90825f52600460205260405f206001600160a01b03198154169055565b855f52600360205260405f205f198154019055610cff565b9192905080610ded575b15610dbf57828291610cef565b8284610dd757637e27328960e01b5f5260045260245ffd5b63177e802f60e01b5f523360045260245260445ffd5b503384148015610e1b575b80610db25750825f526004602052336001600160a01b0360405f20541614610db2565b50835f52600560205260405f206001600160a01b0333165f5260205260ff60405f205416610df8565b5f198114610e525760010190565b634e487b7160e01b5f52601160045260245ffd5b805f526002602052610e866001600160a01b0360405f2054161515610c70565b805f52600860205260405f2060405190815f825492610ea484610c38565b8084529360018116908115610f815750600114610f3d575b50610ec992500382610b8a565b8051610f385750610f356041610ee0602093611120565b6040519384917f68747470733a2f2f636162616c2e776f726c642f6170692f6d6574616461746182840152602f60f81b60408401528051918291018484015e81015f838201520301601f198101835282610b8a565b90565b905090565b90505f9291925260205f20905f915b818310610f65575050906020610ec9928201015f610ebc565b6020919350806001915483858801015201910190918392610f4c565b905060209250610ec994915060ff191682840152151560051b8201015f610ebc565b805f5260026020526001600160a01b0360405f205416908115610fc4575090565b637e27328960e01b5f5260045260245ffd5b6001600160a01b03600654163303610fea57565b63118cdaa760e01b5f523360045260245ffd5b93909293823b61100f575b5050505050565b6110566001600160a01b0392836020951696846040519788968796630a85bd0160e11b88521660048701521660248501526044840152608060648401526084830190610b3a565b03815f865af15f91816110db575b506110b957503d156110b2573d61107a81610bac565b906110886040519283610b8a565b81523d5f602083013e5b805190816110ad5782633250574960e11b5f5260045260245ffd5b602001fd5b6060611092565b6001600160e01b03191663757a42ff60e11b0161063657505f80808080611008565b9091506020813d602011611118575b816110f760209383610b8a565b8101031261016b57516001600160e01b03198116810361016b57905f611064565b3d91506110ea565b80156111f1575f81805b6111dd575061113881610bac565b906111466040519283610b8a565b808252601f1961115582610bac565b013660208401375b809280156111d6575f198201918211610e52578193600a82066030019283603011610e5257845111156111c257600a9260f81b7fff00000000000000000000000000000000000000000000000000000000000000165f1a908401601f0153049161115d565b634e487b7160e01b5f52603260045260245ffd5b5050905090565b906111e9600a91610e44565b91048061112a565b50604051611200604082610b8a565b60018152600360fc1b60208201529056fea26469706673582212201dafebaf8a98fd0e14f0fa6ee244e02961920fbc733a86ba2dced65acfbc78ff64736f6c634300081a0033",
  "linkReferences": {},
  "deployedLinkReferences": {}
}