{
  "_format": "hh-sol-artifact-1",
  "contractName": "SettingsFacet",
  "sourceName": "contracts/cabal/diamond/facets/SettingsFacet.sol",
  "abi": [
    {
      "inputs": [],
      "name": "CabalNotActive",
      "type": "error"
    },
    {
      "inputs": [],
      "name": "InvalidSettings",
      "type": "error"
    },
    {
      "inputs": [],
      "name": "OnlyTBA",
      "type": "error"
    },
    {
      "anonymous": false,
      "inputs": [
        {
          "indexed": false,
          "internalType": "uint256",
          "name": "previousCount",
          "type": "uint256"
        }
      ],
      "name": "AllCabalsReset",
      "type": "event"
    },
    {
      "anonymous": false,
      "inputs": [
        {
          "indexed": true,
          "internalType": "uint256",
          "name": "cabalId",
          "type": "uint256"
        }
      ],
      "name": "CabalPaused",
      "type": "event"
    },
    {
      "anonymous": false,
      "inputs": [
        {
          "indexed": true,
          "internalType": "uint256",
          "name": "cabalId",
          "type": "uint256"
        }
      ],
      "name": "CabalUnpaused",
      "type": "event"
    },
    {
      "anonymous": false,
      "inputs": [
        {
          "indexed": true,
          "internalType": "string",
          "name": "name",
          "type": "string"
        },
        {
          "indexed": false,
          "internalType": "address",
          "name": "newAddress",
          "type": "address"
        }
      ],
      "name": "ContractAddressUpdated",
      "type": "event"
    },
    {
      "anonymous": false,
      "inputs": [
        {
          "indexed": true,
          "internalType": "uint256",
          "name": "cabalId",
          "type": "uint256"
        },
        {
          "indexed": false,
          "internalType": "uint256",
          "name": "votingPeriod",
          "type": "uint256"
        },
        {
          "indexed": false,
          "internalType": "uint256",
          "name": "quorumBps",
          "type": "uint256"
        },
        {
          "indexed": false,
          "internalType": "uint256",
          "name": "majorityBps",
          "type": "uint256"
        },
        {
          "indexed": false,
          "internalType": "uint256",
          "name": "proposalThreshold",
          "type": "uint256"
        }
      ],
      "name": "GovernanceSettingsUpdated",
      "type": "event"
    },
    {
      "inputs": [],
      "name": "getClankerAddresses",
      "outputs": [
        {
          "internalType": "address",
          "name": "clankerHook",
          "type": "address"
        },
        {
          "internalType": "address",
          "name": "clankerLocker",
          "type": "address"
        },
        {
          "internalType": "address",
          "name": "clankerMevModule",
          "type": "address"
        },
        {
          "internalType": "address",
          "name": "clankerDevBuyExtension",
          "type": "address"
        }
      ],
      "stateMutability": "view",
      "type": "function"
    },
    {
      "inputs": [],
      "name": "getContractAddresses",
      "outputs": [
        {
          "internalType": "address",
          "name": "cabalNFT",
          "type": "address"
        },
        {
          "internalType": "address",
          "name": "tbaImplementation",
          "type": "address"
        },
        {
          "internalType": "address",
          "name": "erc6551Registry",
          "type": "address"
        },
        {
          "internalType": "address",
          "name": "clankerFactory",
          "type": "address"
        },
        {
          "internalType": "address",
          "name": "clankerFeeLocker",
          "type": "address"
        },
        {
          "internalType": "address",
          "name": "weth",
          "type": "address"
        }
      ],
      "stateMutability": "view",
      "type": "function"
    },
    {
      "inputs": [
        {
          "internalType": "uint256",
          "name": "cabalId",
          "type": "uint256"
        }
      ],
      "name": "getGovernanceSettings",
      "outputs": [
        {
          "components": [
            {
              "internalType": "uint256",
              "name": "votingPeriod",
              "type": "uint256"
            },
            {
              "internalType": "uint256",
              "name": "quorumBps",
              "type": "uint256"
            },
            {
              "internalType": "uint256",
              "name": "majorityBps",
              "type": "uint256"
            },
            {
              "internalType": "uint256",
              "name": "proposalThreshold",
              "type": "uint256"
            }
          ],
          "internalType": "struct GovernanceSettings",
          "name": "",
          "type": "tuple"
        }
      ],
      "stateMutability": "view",
      "type": "function"
    },
    {
      "inputs": [
        {
          "internalType": "address",
          "name": "cabalNFT",
          "type": "address"
        },
        {
          "internalType": "address",
          "name": "tbaImplementation",
          "type": "address"
        },
        {
          "internalType": "address",
          "name": "erc6551Registry",
          "type": "address"
        },
        {
          "internalType": "address",
          "name": "clankerFactory",
          "type": "address"
        },
        {
          "internalType": "address",
          "name": "clankerFeeLocker",
          "type": "address"
        },
        {
          "internalType": "address",
          "name": "weth",
          "type": "address"
        }
      ],
      "name": "initializeAddresses",
      "outputs": [],
      "stateMutability": "nonpayable",
      "type": "function"
    },
    {
      "inputs": [
        {
          "internalType": "address",
          "name": "clankerHook",
          "type": "address"
        },
        {
          "internalType": "address",
          "name": "clankerLocker",
          "type": "address"
        },
        {
          "internalType": "address",
          "name": "clankerMevModule",
          "type": "address"
        },
        {
          "internalType": "address",
          "name": "clankerDevBuyExtension",
          "type": "address"
        }
      ],
      "name": "initializeClankerAddresses",
      "outputs": [],
      "stateMutability": "nonpayable",
      "type": "function"
    },
    {
      "inputs": [
        {
          "internalType": "uint256",
          "name": "cabalId",
          "type": "uint256"
        }
      ],
      "name": "pauseCabal",
      "outputs": [],
      "stateMutability": "nonpayable",
      "type": "function"
    },
    {
      "inputs": [],
      "name": "resetAllCabals",
      "outputs": [],
      "stateMutability": "nonpayable",
      "type": "function"
    },
    {
      "inputs": [
        {
          "internalType": "uint256",
          "name": "cabalId",
          "type": "uint256"
        }
      ],
      "name": "unpauseCabal",
      "outputs": [],
      "stateMutability": "nonpayable",
      "type": "function"
    },
    {
      "inputs": [
        {
          "internalType": "string",
          "name": "name",
          "type": "string"
        },
        {
          "internalType": "address",
          "name": "newAddress",
          "type": "address"
        }
      ],
      "name": "updateContractAddress",
      "outputs": [],
      "stateMutability": "nonpayable",
      "type": "function"
    },
    {
      "inputs": [
        {
          "internalType": "uint256",
          "name": "cabalId",
          "type": "uint256"
        },
        {
          "components": [
            {
              "internalType": "uint256",
              "name": "votingPeriod",
              "type": "uint256"
            },
            {
              "internalType": "uint256",
              "name": "quorumBps",
              "type": "uint256"
            },
            {
              "internalType": "uint256",
              "name": "majorityBps",
              "type": "uint256"
            },
            {
              "internalType": "uint256",
              "name": "proposalThreshold",
              "type": "uint256"
            }
          ],
          "internalType": "struct GovernanceSettings",
          "name": "newSettings",
          "type": "tuple"
        }
      ],
      "name": "updateGovernanceSettings",
      "outputs": [],
      "stateMutability": "nonpayable",
      "type": "function"
    }
  ],
  "bytecode": "0x6080806040523460155761149d908161001a8239f35b5f80fdfe6080806040526004361015610012575f80fd5b5f3560e01c9081631c4dfeca146112015750806338aed2f714610bfe5780634d74e0d1146107e657806370318d6d1461077b5780637eaf8091146104c057806386308db81461045557806390cc14b914610340578063953874d214610209578063bfdea7c3146101785763d77154861461008a575f80fd5b346101745760a0366003190112610174576004356080366023190112610174576100b381611402565b6001600160a01b03600482015416330361016557602435801561014b5760443590612710821161014b57606435926113888410801561015a575b61014b577fdb3ca0065eec10d767f02948614eedb6f3b5b05925ff1da1fdab4979d068abd59360809382846009600c95015581600a82015582600b8201556084359384910155604051938452602084015260408301526060820152a2005b63e591f33d60e01b5f5260045ffd5b5061271084116100ed565b630b5902d160e11b5f5260045ffd5b5f80fd5b34610174576020366003190112610174575f60606040516101988161132d565b828152826020820152826040820152015260806101b6600435611402565b6040516101c28161132d565b600982015491828252600a810154602083019081526060600c600b840154936040860194855201549301928352604051938452516020840152516040830152516060820152f35b34610174575f3660031901126101745760c06001600160a01b037ff6b912f89c06d8afd06b9fa8bd742c729f30156da50b94481faddbc9d0b4e9e354166001600160a01b037ff6b912f89c06d8afd06b9fa8bd742c729f30156da50b94481faddbc9d0b4e9e454166001600160a01b037ff6b912f89c06d8afd06b9fa8bd742c729f30156da50b94481faddbc9d0b4e9e554166001600160a01b037ff6b912f89c06d8afd06b9fa8bd742c729f30156da50b94481faddbc9d0b4e9e654166001600160a01b037ff6b912f89c06d8afd06b9fa8bd742c729f30156da50b94481faddbc9d0b4e9e75416916001600160a01b037ff6b912f89c06d8afd06b9fa8bd742c729f30156da50b94481faddbc9d0b4e9e8541693604051958652602086015260408501526060840152608083015260a0820152f35b34610174575f3660031901126101745761035861137f565b7ff6b912f89c06d8afd06b9fa8bd742c729f30156da50b94481faddbc9d0b4e9ea545f7ff6b912f89c06d8afd06b9fa8bd742c729f30156da50b94481faddbc9d0b4e9ea55806103f3575b60207ff870b81512541eea84413e8520219f1c8a2a0244492715983de068312c2aaf77915f7ff6b912f89c06d8afd06b9fa8bd742c729f30156da50b94481faddbc9d0b4e9e955604051908152a1005b7ff6b912f89c06d8afd06b9fa8bd742c729f30156da50b94481faddbc9d0b4e9ea5f527f92a07e9b5c0c3259ab73db7fddb759e0795904dcdc9c62a149d91b30ac2f683e818101905b81811061044a5750506103a3565b5f815560010161043c565b346101745760203660031901126101745760043561047281611402565b6001600160a01b03600482015416330361016557600501805460ff60a01b1916600160a01b1790557f2cbefb23d4b41a5fbb04712657dbbed8ce573fb3e267f88f47ba7e4adfe86d4c5f80a2005b34610174576080366003190112610174576104d96112eb565b6104e16112d5565b6104e9611301565b906104f2611317565b926104fb61137f565b610559816001600160a01b03166001600160a01b03197f7ac3a920b579a0b08c43b9e61f5a89fbb0532d6363affc3c4bf0a0f3f8f9ad945416177f7ac3a920b579a0b08c43b9e61f5a89fbb0532d6363affc3c4bf0a0f3f8f9ad9455565b6105b7826001600160a01b03166001600160a01b03197f7ac3a920b579a0b08c43b9e61f5a89fbb0532d6363affc3c4bf0a0f3f8f9ad955416177f7ac3a920b579a0b08c43b9e61f5a89fbb0532d6363affc3c4bf0a0f3f8f9ad9555565b610615836001600160a01b03166001600160a01b03197f7ac3a920b579a0b08c43b9e61f5a89fbb0532d6363affc3c4bf0a0f3f8f9ad965416177f7ac3a920b579a0b08c43b9e61f5a89fbb0532d6363affc3c4bf0a0f3f8f9ad9655565b610673846001600160a01b03166001600160a01b03197f7ac3a920b579a0b08c43b9e61f5a89fbb0532d6363affc3c4bf0a0f3f8f9ad975416177f7ac3a920b579a0b08c43b9e61f5a89fbb0532d6363affc3c4bf0a0f3f8f9ad9755565b5f805160206114488339815191526020600b6040516a636c616e6b6572486f6f6b60a81b815220926001600160a01b0360405191168152a25f805160206114488339815191526020600d6040516c31b630b735b2b92637b1b5b2b960991b815220926001600160a01b0360405191168152a25f80516020611448833981519152602060106040517f636c616e6b65724d65764d6f64756c6500000000000000000000000000000000815220926001600160a01b0360405191168152a25f80516020611448833981519152602060166040517f636c616e6b6572446576427579457874656e73696f6e00000000000000000000815220926001600160a01b0360405191168152a2005b346101745760203660031901126101745760043561079881611402565b6001600160a01b03600482015416330361016557600501805460ff60a01b1916600160a11b1790557f5f586f44197b3b17c9368a99dcf90b4b202fbd67e905bcaf9ff7cdc0c2242cfa5f80a2005b346101745760c0366003190112610174576107ff6112eb565b6108076112d5565b90610810611301565b610818611317565b90608435936001600160a01b038516938486036101745760a435956001600160a01b0387169687810361017457610a26610a809261085461137f565b6108b2856001600160a01b03166001600160a01b03197ff6b912f89c06d8afd06b9fa8bd742c729f30156da50b94481faddbc9d0b4e9e35416177ff6b912f89c06d8afd06b9fa8bd742c729f30156da50b94481faddbc9d0b4e9e355565b610910866001600160a01b03166001600160a01b03197ff6b912f89c06d8afd06b9fa8bd742c729f30156da50b94481faddbc9d0b4e9e45416177ff6b912f89c06d8afd06b9fa8bd742c729f30156da50b94481faddbc9d0b4e9e455565b61096e876001600160a01b03166001600160a01b03197ff6b912f89c06d8afd06b9fa8bd742c729f30156da50b94481faddbc9d0b4e9e55416177ff6b912f89c06d8afd06b9fa8bd742c729f30156da50b94481faddbc9d0b4e9e555565b6109cc886001600160a01b03166001600160a01b03197ff6b912f89c06d8afd06b9fa8bd742c729f30156da50b94481faddbc9d0b4e9e65416177ff6b912f89c06d8afd06b9fa8bd742c729f30156da50b94481faddbc9d0b4e9e655565b6001600160a01b03166001600160a01b03197ff6b912f89c06d8afd06b9fa8bd742c729f30156da50b94481faddbc9d0b4e9e75416177ff6b912f89c06d8afd06b9fa8bd742c729f30156da50b94481faddbc9d0b4e9e755565b6001600160a01b03166001600160a01b03197ff6b912f89c06d8afd06b9fa8bd742c729f30156da50b94481faddbc9d0b4e9e85416177ff6b912f89c06d8afd06b9fa8bd742c729f30156da50b94481faddbc9d0b4e9e855565b5f80516020611448833981519152602060086040516718d858985b13919560c21b815220926001600160a01b0360405191168152a25f80516020611448833981519152602060116040517f746261496d706c656d656e746174696f6e000000000000000000000000000000815220926001600160a01b0360405191168152a25f805160206114488339815191526020600f6040517f6572633635353152656769737472790000000000000000000000000000000000815220926001600160a01b0360405191168152a25f805160206114488339815191526020600e6040517f636c616e6b6572466163746f7279000000000000000000000000000000000000815220926001600160a01b0360405191168152a25f80516020611448833981519152602060106040517f636c616e6b65724665654c6f636b65720000000000000000000000000000000081522092604051908152a25f8051602061144883398151915260206004604051630eecae8d60e31b81522092604051908152a2005b346101745760403660031901126101745760043567ffffffffffffffff8111610174573660238201121561017457806004013567ffffffffffffffff811161017457602482019160248236920101116101745760205f8051602061144883398151915291610c6a6112d5565b93610c7361137f565b604051610c89601f8401601f191685018261135d565b82815283810190838383375f8185018601525190207f29b05734e677bcc3133168b24020e18685c46a7bd5cc043cd7fc58331c3598658103610d485750610d24856001600160a01b03166001600160a01b03197ff6b912f89c06d8afd06b9fa8bd742c729f30156da50b94481faddbc9d0b4e9e35416177ff6b912f89c06d8afd06b9fa8bd742c729f30156da50b94481faddbc9d0b4e9e355565b81604051928392833781015f8152039020926001600160a01b0360405191168152a2005b7fefe07bcd5679ae64b25a43a445721223de26ca48d8e76d75a0477dee3c439b498103610dd35750610dce856001600160a01b03166001600160a01b03197ff6b912f89c06d8afd06b9fa8bd742c729f30156da50b94481faddbc9d0b4e9e45416177ff6b912f89c06d8afd06b9fa8bd742c729f30156da50b94481faddbc9d0b4e9e455565b610d24565b7f8d9f88ab91e7602d1ac3e196b9ddcbfc09f98512a407a3eb6e6b1794df5824dd8103610e595750610dce856001600160a01b03166001600160a01b03197ff6b912f89c06d8afd06b9fa8bd742c729f30156da50b94481faddbc9d0b4e9e55416177ff6b912f89c06d8afd06b9fa8bd742c729f30156da50b94481faddbc9d0b4e9e555565b7f07216321e0ad3124a02bfab159544db264ed6a97d28fe9b4e574e080d30144d78103610edf5750610dce856001600160a01b03166001600160a01b03197ff6b912f89c06d8afd06b9fa8bd742c729f30156da50b94481faddbc9d0b4e9e65416177ff6b912f89c06d8afd06b9fa8bd742c729f30156da50b94481faddbc9d0b4e9e655565b7fc726fbc6a1957aefa09968672b0d5ac4766c9bbc2f6e653d47fe653f662c27a68103610f655750610dce856001600160a01b03166001600160a01b03197ff6b912f89c06d8afd06b9fa8bd742c729f30156da50b94481faddbc9d0b4e9e75416177ff6b912f89c06d8afd06b9fa8bd742c729f30156da50b94481faddbc9d0b4e9e755565b7fbc66733b7ca4d12d33ae46b0875e3b042b7391ce3a863cd5d8495e3fe87fd5218103610feb5750610dce856001600160a01b03166001600160a01b03197ff6b912f89c06d8afd06b9fa8bd742c729f30156da50b94481faddbc9d0b4e9e85416177ff6b912f89c06d8afd06b9fa8bd742c729f30156da50b94481faddbc9d0b4e9e855565b7f89fbd101e5f5cbb3c4edcf9a50633ea8b152c481efcf15b1935b7ee126c5388f81036110715750610dce856001600160a01b03166001600160a01b03197f7ac3a920b579a0b08c43b9e61f5a89fbb0532d6363affc3c4bf0a0f3f8f9ad945416177f7ac3a920b579a0b08c43b9e61f5a89fbb0532d6363affc3c4bf0a0f3f8f9ad9455565b7f41ce5c4360707234d2936e857028125069bf1ea468e99b600d24c7a4640447e381036110f75750610dce856001600160a01b03166001600160a01b03197f7ac3a920b579a0b08c43b9e61f5a89fbb0532d6363affc3c4bf0a0f3f8f9ad955416177f7ac3a920b579a0b08c43b9e61f5a89fbb0532d6363affc3c4bf0a0f3f8f9ad9555565b7f9b7060cd2a2befa09791e516b0d807a0552a41c717a5f48b975afbe841e3ee90810361117d5750610dce856001600160a01b03166001600160a01b03197f7ac3a920b579a0b08c43b9e61f5a89fbb0532d6363affc3c4bf0a0f3f8f9ad965416177f7ac3a920b579a0b08c43b9e61f5a89fbb0532d6363affc3c4bf0a0f3f8f9ad9655565b7f23c2bfec6d92224a70091d8b23be305d97a411b07c4be8d696dfd2db01ae800003610dce57610dce856001600160a01b03166001600160a01b03197f7ac3a920b579a0b08c43b9e61f5a89fbb0532d6363affc3c4bf0a0f3f8f9ad975416177f7ac3a920b579a0b08c43b9e61f5a89fbb0532d6363affc3c4bf0a0f3f8f9ad9755565b34610174575f366003190112610174576080906001600160a01b037f7ac3a920b579a0b08c43b9e61f5a89fbb0532d6363affc3c4bf0a0f3f8f9ad9454166001600160a01b037f7ac3a920b579a0b08c43b9e61f5a89fbb0532d6363affc3c4bf0a0f3f8f9ad9554166001600160a01b037f7ac3a920b579a0b08c43b9e61f5a89fbb0532d6363affc3c4bf0a0f3f8f9ad965416906001600160a01b037f7ac3a920b579a0b08c43b9e61f5a89fbb0532d6363affc3c4bf0a0f3f8f9ad975416928452602084015260408301526060820152f35b602435906001600160a01b038216820361017457565b600435906001600160a01b038216820361017457565b604435906001600160a01b038216820361017457565b606435906001600160a01b038216820361017457565b6080810190811067ffffffffffffffff82111761134957604052565b634e487b7160e01b5f52604160045260245ffd5b90601f8019910116810190811067ffffffffffffffff82111761134957604052565b6001600160a01b037fc8fcad8db84d3cc18b4c41d551ea0ee66dd599cde068d998e57d5e09332c1320541633036113b257565b60405162461bcd60e51b815260206004820152602260248201527f4c69624469616d6f6e643a204d75737420626520636f6e7472616374206f776e60448201526132b960f11b6064820152608490fd5b60405160208101917fc61520f0fc87f37c054c240fb12fa829a873c4a7f3a227d3cdaf38f732a45b0d835260408201526040815261144160608261135d565b5190209056fea42de6429c1410f4470a8ff5afeeae27c734519ac1693e8eb58798a81715c947a2646970667358221220acdea764478ac06bb19409d9e0989c4fd510afdfe3f3ab4999dc89de313975a464736f6c634300081a0033",
  "linkReferences": {},
  "deployedLinkReferences": {}
}