{
  "_format": "hh-sol-artifact-1",
  "contractName": "SettingsFacet",
  "sourceName": "contracts/cabal/diamond/facets/SettingsFacet.sol",
  "abi": [
    {
      "inputs": [],
      "name": "CabalNotActive",
      "type": "error"
    },
    {
      "inputs": [],
      "name": "InvalidSettings",
      "type": "error"
    },
    {
      "inputs": [],
      "name": "OnlyTBA",
      "type": "error"
    },
    {
      "anonymous": false,
      "inputs": [
        {
          "indexed": true,
          "internalType": "uint256",
          "name": "cabalId",
          "type": "uint256"
        }
      ],
      "name": "CabalPaused",
      "type": "event"
    },
    {
      "anonymous": false,
      "inputs": [
        {
          "indexed": true,
          "internalType": "uint256",
          "name": "cabalId",
          "type": "uint256"
        }
      ],
      "name": "CabalUnpaused",
      "type": "event"
    },
    {
      "anonymous": false,
      "inputs": [
        {
          "indexed": true,
          "internalType": "string",
          "name": "name",
          "type": "string"
        },
        {
          "indexed": false,
          "internalType": "address",
          "name": "newAddress",
          "type": "address"
        }
      ],
      "name": "ContractAddressUpdated",
      "type": "event"
    },
    {
      "anonymous": false,
      "inputs": [
        {
          "indexed": true,
          "internalType": "uint256",
          "name": "cabalId",
          "type": "uint256"
        },
        {
          "indexed": false,
          "internalType": "uint256",
          "name": "votingPeriod",
          "type": "uint256"
        },
        {
          "indexed": false,
          "internalType": "uint256",
          "name": "quorumBps",
          "type": "uint256"
        },
        {
          "indexed": false,
          "internalType": "uint256",
          "name": "majorityBps",
          "type": "uint256"
        },
        {
          "indexed": false,
          "internalType": "uint256",
          "name": "proposalThreshold",
          "type": "uint256"
        }
      ],
      "name": "GovernanceSettingsUpdated",
      "type": "event"
    },
    {
      "inputs": [],
      "name": "getClankerAddresses",
      "outputs": [
        {
          "internalType": "address",
          "name": "clankerHook",
          "type": "address"
        },
        {
          "internalType": "address",
          "name": "clankerLocker",
          "type": "address"
        },
        {
          "internalType": "address",
          "name": "clankerMevModule",
          "type": "address"
        },
        {
          "internalType": "address",
          "name": "clankerDevBuyExtension",
          "type": "address"
        }
      ],
      "stateMutability": "view",
      "type": "function"
    },
    {
      "inputs": [],
      "name": "getContractAddresses",
      "outputs": [
        {
          "internalType": "address",
          "name": "cabalNFT",
          "type": "address"
        },
        {
          "internalType": "address",
          "name": "tbaImplementation",
          "type": "address"
        },
        {
          "internalType": "address",
          "name": "erc6551Registry",
          "type": "address"
        },
        {
          "internalType": "address",
          "name": "clankerFactory",
          "type": "address"
        },
        {
          "internalType": "address",
          "name": "clankerFeeLocker",
          "type": "address"
        },
        {
          "internalType": "address",
          "name": "weth",
          "type": "address"
        }
      ],
      "stateMutability": "view",
      "type": "function"
    },
    {
      "inputs": [
        {
          "internalType": "uint256",
          "name": "cabalId",
          "type": "uint256"
        }
      ],
      "name": "getGovernanceSettings",
      "outputs": [
        {
          "components": [
            {
              "internalType": "uint256",
              "name": "votingPeriod",
              "type": "uint256"
            },
            {
              "internalType": "uint256",
              "name": "quorumBps",
              "type": "uint256"
            },
            {
              "internalType": "uint256",
              "name": "majorityBps",
              "type": "uint256"
            },
            {
              "internalType": "uint256",
              "name": "proposalThreshold",
              "type": "uint256"
            }
          ],
          "internalType": "struct GovernanceSettings",
          "name": "",
          "type": "tuple"
        }
      ],
      "stateMutability": "view",
      "type": "function"
    },
    {
      "inputs": [
        {
          "internalType": "address",
          "name": "cabalNFT",
          "type": "address"
        },
        {
          "internalType": "address",
          "name": "tbaImplementation",
          "type": "address"
        },
        {
          "internalType": "address",
          "name": "erc6551Registry",
          "type": "address"
        },
        {
          "internalType": "address",
          "name": "clankerFactory",
          "type": "address"
        },
        {
          "internalType": "address",
          "name": "clankerFeeLocker",
          "type": "address"
        },
        {
          "internalType": "address",
          "name": "weth",
          "type": "address"
        }
      ],
      "name": "initializeAddresses",
      "outputs": [],
      "stateMutability": "nonpayable",
      "type": "function"
    },
    {
      "inputs": [
        {
          "internalType": "address",
          "name": "clankerHook",
          "type": "address"
        },
        {
          "internalType": "address",
          "name": "clankerLocker",
          "type": "address"
        },
        {
          "internalType": "address",
          "name": "clankerMevModule",
          "type": "address"
        },
        {
          "internalType": "address",
          "name": "clankerDevBuyExtension",
          "type": "address"
        }
      ],
      "name": "initializeClankerAddresses",
      "outputs": [],
      "stateMutability": "nonpayable",
      "type": "function"
    },
    {
      "inputs": [
        {
          "internalType": "uint256",
          "name": "cabalId",
          "type": "uint256"
        }
      ],
      "name": "pauseCabal",
      "outputs": [],
      "stateMutability": "nonpayable",
      "type": "function"
    },
    {
      "inputs": [
        {
          "internalType": "uint256",
          "name": "cabalId",
          "type": "uint256"
        }
      ],
      "name": "unpauseCabal",
      "outputs": [],
      "stateMutability": "nonpayable",
      "type": "function"
    },
    {
      "inputs": [
        {
          "internalType": "string",
          "name": "name",
          "type": "string"
        },
        {
          "internalType": "address",
          "name": "newAddress",
          "type": "address"
        }
      ],
      "name": "updateContractAddress",
      "outputs": [],
      "stateMutability": "nonpayable",
      "type": "function"
    },
    {
      "inputs": [
        {
          "internalType": "uint256",
          "name": "cabalId",
          "type": "uint256"
        },
        {
          "components": [
            {
              "internalType": "uint256",
              "name": "votingPeriod",
              "type": "uint256"
            },
            {
              "internalType": "uint256",
              "name": "quorumBps",
              "type": "uint256"
            },
            {
              "internalType": "uint256",
              "name": "majorityBps",
              "type": "uint256"
            },
            {
              "internalType": "uint256",
              "name": "proposalThreshold",
              "type": "uint256"
            }
          ],
          "internalType": "struct GovernanceSettings",
          "name": "newSettings",
          "type": "tuple"
        }
      ],
      "name": "updateGovernanceSettings",
      "outputs": [],
      "stateMutability": "nonpayable",
      "type": "function"
    }
  ],
  "bytecode": "0x6080806040523461001657611147908161001c8239f35b600080fdfe608060408181526004908136101561001657600080fd5b600092833560e01c9081631c4dfeca14610ee65750806338aed2f7146109e85780634d74e0d11461067257806370318d6d146106015780637eaf8091146103a857806386308db814610337578063953874d214610219578063bfdea7c31461018b5763d77154861461008757600080fd5b346101875760a0366003190112610187578135916080366023190112610183576100b08361103a565b818101549092906001600160a01b03163303610176576024359283156101685760443590612710938483116101505760643594611388861090811561015e575b506101505750928492600c92857fdb3ca0065eec10d767f02948614eedb6f3b5b05925ff1da1fdab4979d068abd5976009608098015581600a82015583600b8201556084359485910155815194855260208501528301526060820152a280f35b835163e591f33d60e01b8152fd5b90508511386100f0565b505163e591f33d60e01b8152fd5b51630b5902d160e11b8152fd5b8380fd5b8280fd5b509034610187576020366003190112610187576101c890608093606084516101b281611008565b828152826020820152828682015201523561103a565b908051906101d582611008565b600983015492838352600a810154602084019081526060600c600b840154938587019485520154940193845282519485525160208501525190830152516060820152f35b8382346103335781600319360112610333577ff6b912f89c06d8afd06b9fa8bd742c729f30156da50b94481faddbc9d0b4e9e3547ff6b912f89c06d8afd06b9fa8bd742c729f30156da50b94481faddbc9d0b4e9e4547ff6b912f89c06d8afd06b9fa8bd742c729f30156da50b94481faddbc9d0b4e9e5547ff6b912f89c06d8afd06b9fa8bd742c729f30156da50b94481faddbc9d0b4e9e6547ff6b912f89c06d8afd06b9fa8bd742c729f30156da50b94481faddbc9d0b4e9e7547ff6b912f89c06d8afd06b9fa8bd742c729f30156da50b94481faddbc9d0b4e9e85486516001600160a01b039687168152948616602086015292851695840195909552831660608301529282166080820152911660a082015260c090f35b5080fd5b5034610187576020366003190112610187578135916103558361103a565b818101549092906001600160a01b03163303610176575050600501805460ff60a01b1916600160a01b1790557f2cbefb23d4b41a5fbb04712657dbbed8ce573fb3e267f88f47ba7e4adfe86d4c8280a280f35b838234610333576080366003190112610333577f89fbd101e5f5cbb3c4edcf9a50633ea8b152c481efcf15b1935b7ee126c5388f60207f23c2bfec6d92224a70091d8b23be305d97a411b07c4be8d696dfd2db01ae800092610408610fc6565b610410610fab565b917f9b7060cd2a2befa09791e516b0d807a0552a41c717a5f48b975afbe841e3ee90848061043c610fdc565b7f41ce5c4360707234d2936e857028125069bf1ea468e99b600d24c7a4640447e3610465610ff2565b9761046e61108e565b7f7ac3a920b579a0b08c43b9e61f5a89fbb0532d6363affc3c4bf0a0f3f8f9ad9480546001600160a01b0319166001600160a01b038a161790557f7ac3a920b579a0b08c43b9e61f5a89fbb0532d6363affc3c4bf0a0f3f8f9ad9580546001600160a01b0319166001600160a01b0383161790557f7ac3a920b579a0b08c43b9e61f5a89fbb0532d6363affc3c4bf0a0f3f8f9ad9680546001600160a01b0319166001600160a01b0385161790557f7ac3a920b579a0b08c43b9e61f5a89fbb0532d6363affc3c4bf0a0f3f8f9ad9780546001600160a01b0319166001600160a01b038b161790556a636c616e6b6572486f6f6b60a81b8751528387519160018060a01b03809a1683527fa42de6429c1410f4470a8ff5afeeae27c734519ac1693e8eb58798a81715c9479c8d80988195a26c31b630b735b2b92637b1b5b2b960991b89515289895191168152a26f636c616e6b65724d65764d6f64756c6560801b85515285855191168152a27531b630b735b2b92232bb213abca2bc3a32b739b4b7b760511b8151525191168152a280f35b50346101875760203660031901126101875781359161061f8361103a565b818101549092906001600160a01b03163303610176575050600501805460ff60a01b1916600160a11b1790557f5f586f44197b3b17c9368a99dcf90b4b202fbd67e905bcaf9ff7cdc0c2242cfa8280a280f35b8382346103335760c03660031901126103335761068d610fc6565b90610696610fab565b9161069f610fdc565b916106a8610ff2565b608435946001600160a01b039485871692918388036109e45760a435878116988982036109e0576106d761108e565b7ff6b912f89c06d8afd06b9fa8bd742c729f30156da50b94481faddbc9d0b4e9e380546001600160a01b0319166001600160a01b038a161790557ff6b912f89c06d8afd06b9fa8bd742c729f30156da50b94481faddbc9d0b4e9e480546001600160a01b0319166001600160a01b0385161790557ff6b912f89c06d8afd06b9fa8bd742c729f30156da50b94481faddbc9d0b4e9e580546001600160a01b0319166001600160a01b0386161790557ff6b912f89c06d8afd06b9fa8bd742c729f30156da50b94481faddbc9d0b4e9e680546001600160a01b0319166001600160a01b0387161790557ff6b912f89c06d8afd06b9fa8bd742c729f30156da50b94481faddbc9d0b4e9e780546001600160a01b0319166001600160a01b039092169190911790557ff6b912f89c06d8afd06b9fa8bd742c729f30156da50b94481faddbc9d0b4e9e880546001600160a01b0319166001600160a01b0390921691909117905584516718d858985b13919560c21b9052868551961686527fa42de6429c1410f4470a8ff5afeeae27c734519ac1693e8eb58798a81715c94796879283926020988994857f29b05734e677bcc3133168b24020e18685c46a7bd5cc043cd7fc58331c35986592a28751703a3130a4b6b83632b6b2b73a30ba34b7b760791b90528484848a51931683527fefe07bcd5679ae64b25a43a445721223de26ca48d8e76d75a0477dee3c439b4992a286516e65726336353531526567697374727960881b90528383838951931683527f8d9f88ab91e7602d1ac3e196b9ddcbfc09f98512a407a3eb6e6b1794df5824dd92a285516d636c616e6b6572466163746f727960901b90528551931683527f07216321e0ad3124a02bfab159544db264ed6a97d28fe9b4e574e080d30144d792a281516f31b630b735b2b92332b2a637b1b5b2b960811b9052838383519283527fc726fbc6a1957aefa09968672b0d5ac4766c9bbc2f6e653d47fe653f662c27a692a28051630eecae8d60e31b9052519283527fbc66733b7ca4d12d33ae46b0875e3b042b7391ce3a863cd5d8495e3fe87fd52192a280f35b8a80fd5b8880fd5b50903461018757816003193601126101875767ffffffffffffffff908035828111610ee25736602382011215610ee2578082013591838311610ede5760248201916024843692010111610ede57610a3d610fab565b93610a4661108e565b855191601f8501601f19908116603f0116830191821183831017610ecb575091602093917fa42de6429c1410f4470a8ff5afeeae27c734519ac1693e8eb58798a81715c947959387528281528481019083838337888685830101525190207f29b05734e677bcc3133168b24020e18685c46a7bd5cc043cd7fc58331c3598658114600014610b2d57507ff6b912f89c06d8afd06b9fa8bd742c729f30156da50b94481faddbc9d0b4e9e380546001600160a01b0319166001600160a01b0385161790555b8186519283928337810187815203902093516001600160a01b039091168152a280f35b7fefe07bcd5679ae64b25a43a445721223de26ca48d8e76d75a0477dee3c439b498103610b9557507ff6b912f89c06d8afd06b9fa8bd742c729f30156da50b94481faddbc9d0b4e9e480546001600160a01b0319166001600160a01b0385161790555b610b0a565b7f8d9f88ab91e7602d1ac3e196b9ddcbfc09f98512a407a3eb6e6b1794df5824dd8103610bfc57507ff6b912f89c06d8afd06b9fa8bd742c729f30156da50b94481faddbc9d0b4e9e580546001600160a01b0319166001600160a01b038516179055610b0a565b7f07216321e0ad3124a02bfab159544db264ed6a97d28fe9b4e574e080d30144d78103610c6357507ff6b912f89c06d8afd06b9fa8bd742c729f30156da50b94481faddbc9d0b4e9e680546001600160a01b0319166001600160a01b038516179055610b0a565b7fc726fbc6a1957aefa09968672b0d5ac4766c9bbc2f6e653d47fe653f662c27a68103610cca57507ff6b912f89c06d8afd06b9fa8bd742c729f30156da50b94481faddbc9d0b4e9e780546001600160a01b0319166001600160a01b038516179055610b0a565b7fbc66733b7ca4d12d33ae46b0875e3b042b7391ce3a863cd5d8495e3fe87fd5218103610d3157507ff6b912f89c06d8afd06b9fa8bd742c729f30156da50b94481faddbc9d0b4e9e880546001600160a01b0319166001600160a01b038516179055610b0a565b7f89fbd101e5f5cbb3c4edcf9a50633ea8b152c481efcf15b1935b7ee126c5388f8103610d9857507f7ac3a920b579a0b08c43b9e61f5a89fbb0532d6363affc3c4bf0a0f3f8f9ad9480546001600160a01b0319166001600160a01b038516179055610b0a565b7f41ce5c4360707234d2936e857028125069bf1ea468e99b600d24c7a4640447e38103610dff57507f7ac3a920b579a0b08c43b9e61f5a89fbb0532d6363affc3c4bf0a0f3f8f9ad9580546001600160a01b0319166001600160a01b038516179055610b0a565b7f9b7060cd2a2befa09791e516b0d807a0552a41c717a5f48b975afbe841e3ee908103610e6657507f7ac3a920b579a0b08c43b9e61f5a89fbb0532d6363affc3c4bf0a0f3f8f9ad9680546001600160a01b0319166001600160a01b038516179055610b0a565b7f23c2bfec6d92224a70091d8b23be305d97a411b07c4be8d696dfd2db01ae800003610b90577f7ac3a920b579a0b08c43b9e61f5a89fbb0532d6363affc3c4bf0a0f3f8f9ad9780546001600160a01b0319166001600160a01b038516179055610b0a565b634e487b7160e01b885260419052602487fd5b8580fd5b8480fd5b925050346101875782600319360112610187577f7ac3a920b579a0b08c43b9e61f5a89fbb0532d6363affc3c4bf0a0f3f8f9ad94547f7ac3a920b579a0b08c43b9e61f5a89fbb0532d6363affc3c4bf0a0f3f8f9ad95547f7ac3a920b579a0b08c43b9e61f5a89fbb0532d6363affc3c4bf0a0f3f8f9ad96547f7ac3a920b579a0b08c43b9e61f5a89fbb0532d6363affc3c4bf0a0f3f8f9ad97546001600160a01b039384168652918316602086015282169284019290925216606082015260809150f35b602435906001600160a01b0382168203610fc157565b600080fd5b600435906001600160a01b0382168203610fc157565b604435906001600160a01b0382168203610fc157565b606435906001600160a01b0382168203610fc157565b6080810190811067ffffffffffffffff82111761102457604052565b634e487b7160e01b600052604160045260246000fd5b60405160208101917fc61520f0fc87f37c054c240fb12fa829a873c4a7f3a227d3cdaf38f732a45b0d83526040820152604081526060810181811067ffffffffffffffff8211176110245760405251902090565b7fc8fcad8db84d3cc18b4c41d551ea0ee66dd599cde068d998e57d5e09332c1320546001600160a01b031633036110c157565b60405162461bcd60e51b815260206004820152602260248201527f4c69624469616d6f6e643a204d75737420626520636f6e7472616374206f776e60448201526132b960f11b6064820152608490fdfea2646970667358221220ac885bbe2279aab749d2921cb69f203b64a098b284a9e1dd14c45aef49767c3564736f6c63430008140033",
  "linkReferences": {},
  "deployedLinkReferences": {}
}