{
  "_format": "hh-sol-artifact-1",
  "contractName": "StorageRepairFacet",
  "sourceName": "contracts/cabal/diamond/facets/StorageRepairFacet.sol",
  "abi": [
    {
      "anonymous": false,
      "inputs": [
        {
          "indexed": false,
          "internalType": "uint256",
          "name": "nextCabalId",
          "type": "uint256"
        }
      ],
      "name": "StorageRepaired",
      "type": "event"
    },
    {
      "inputs": [],
      "name": "checkStorage",
      "outputs": [
        {
          "internalType": "uint256",
          "name": "nextCabalId",
          "type": "uint256"
        },
        {
          "internalType": "uint256",
          "name": "allCabalIdsLength",
          "type": "uint256"
        }
      ],
      "stateMutability": "view",
      "type": "function"
    },
    {
      "inputs": [
        {
          "internalType": "uint256",
          "name": "correctNextCabalId",
          "type": "uint256"
        }
      ],
      "name": "repairStorage",
      "outputs": [],
      "stateMutability": "nonpayable",
      "type": "function"
    }
  ],
  "bytecode": "0x60808060405234601557610216908161001a8239f35b5f80fdfe6080806040526004361015610012575f80fd5b5f3560e01c9081631e1763d31461017f575063e06a859c14610032575f80fd5b3461017b57602036600319011261017b5760043573ffffffffffffffffffffffffffffffffffffffff7fc8fcad8db84d3cc18b4c41d551ea0ee66dd599cde068d998e57d5e09332c1320541633036100f7576020817fbca70f10f4ad08caf10d6e67cedc63d9834ce15a6d7d5e54528cebc3221f4c3d927ff6b912f89c06d8afd06b9fa8bd742c729f30156da50b94481faddbc9d0b4e9e9555f7ff6b912f89c06d8afd06b9fa8bd742c729f30156da50b94481faddbc9d0b4e9ea55604051908152a1005b60846040517f08c379a000000000000000000000000000000000000000000000000000000000815260206004820152602260248201527f4c69624469616d6f6e643a204d75737420626520636f6e7472616374206f776e60448201527f65720000000000000000000000000000000000000000000000000000000000006064820152fd5b5f80fd5b3461017b575f36600319011261017b576040907ff6b912f89c06d8afd06b9fa8bd742c729f30156da50b94481faddbc9d0b4e9e9547ff6b912f89c06d8afd06b9fa8bd742c729f30156da50b94481faddbc9d0b4e9ea549082526020820152f3fea26469706673582212207aea1ba6f9e003352158fe4512b72fafa99b62349a2eb44194fc8a7f20c0b10864736f6c634300081a0033",
  "linkReferences": {},
  "deployedLinkReferences": {}
}