{
  "_format": "hh-sol-artifact-1",
  "contractName": "StorageRepairFacet",
  "sourceName": "contracts/cabal/diamond/facets/StorageRepairFacet.sol",
  "abi": [
    {
      "anonymous": false,
      "inputs": [
        {
          "indexed": false,
          "internalType": "uint256",
          "name": "nextCabalId",
          "type": "uint256"
        }
      ],
      "name": "StorageRepaired",
      "type": "event"
    },
    {
      "inputs": [],
      "name": "checkStorage",
      "outputs": [
        {
          "internalType": "uint256",
          "name": "nextCabalId",
          "type": "uint256"
        },
        {
          "internalType": "uint256",
          "name": "allCabalIdsLength",
          "type": "uint256"
        }
      ],
      "stateMutability": "view",
      "type": "function"
    },
    {
      "inputs": [
        {
          "internalType": "uint256",
          "name": "correctNextCabalId",
          "type": "uint256"
        }
      ],
      "name": "repairStorage",
      "outputs": [],
      "stateMutability": "nonpayable",
      "type": "function"
    }
  ],
  "bytecode": "0x60808060405234610016576101e1908161001c8239f35b600080fdfe608080604052600436101561001357600080fd5b600090813560e01c9081631e1763d314610144575063e06a859c1461003757600080fd5b34610141576020366003190112610141577fc8fcad8db84d3cc18b4c41d551ea0ee66dd599cde068d998e57d5e09332c132054600435906001600160a01b031633036100f1576020817fbca70f10f4ad08caf10d6e67cedc63d9834ce15a6d7d5e54528cebc3221f4c3d927ff6b912f89c06d8afd06b9fa8bd742c729f30156da50b94481faddbc9d0b4e9e955837ff6b912f89c06d8afd06b9fa8bd742c729f30156da50b94481faddbc9d0b4e9ea55604051908152a180f35b60405162461bcd60e51b815260206004820152602260248201527f4c69624469616d6f6e643a204d75737420626520636f6e7472616374206f776e60448201526132b960f11b6064820152608490fd5b80fd5b9050346101a757816003193601126101a7576040907ff6b912f89c06d8afd06b9fa8bd742c729f30156da50b94481faddbc9d0b4e9e9547ff6b912f89c06d8afd06b9fa8bd742c729f30156da50b94481faddbc9d0b4e9ea549082526020820152f35b5080fdfea26469706673582212202b6e0efccbeaebff5db705151e7ebc4011d0b19d86f4186a84032000ca6516ee64736f6c63430008140033",
  "linkReferences": {},
  "deployedLinkReferences": {}
}