{
  "_format": "hh-sol-artifact-1",
  "contractName": "SwapFacet",
  "sourceName": "contracts/cabal/diamond/facets/SwapFacet.sol",
  "abi": [
    {
      "inputs": [],
      "name": "CabalClosed",
      "type": "error"
    },
    {
      "inputs": [],
      "name": "CabalNotActive",
      "type": "error"
    },
    {
      "inputs": [],
      "name": "InsufficientBalance",
      "type": "error"
    },
    {
      "inputs": [],
      "name": "InvalidToken",
      "type": "error"
    },
    {
      "inputs": [],
      "name": "SlippageExceeded",
      "type": "error"
    },
    {
      "inputs": [],
      "name": "ZeroAmount",
      "type": "error"
    },
    {
      "anonymous": false,
      "inputs": [
        {
          "indexed": true,
          "internalType": "uint256",
          "name": "cabalId",
          "type": "uint256"
        },
        {
          "indexed": true,
          "internalType": "address",
          "name": "buyer",
          "type": "address"
        },
        {
          "indexed": false,
          "internalType": "uint256",
          "name": "ethAmount",
          "type": "uint256"
        },
        {
          "indexed": false,
          "internalType": "uint256",
          "name": "tokensReceived",
          "type": "uint256"
        }
      ],
      "name": "TokensBought",
      "type": "event"
    },
    {
      "anonymous": false,
      "inputs": [
        {
          "indexed": true,
          "internalType": "uint256",
          "name": "cabalId",
          "type": "uint256"
        },
        {
          "indexed": true,
          "internalType": "address",
          "name": "seller",
          "type": "address"
        },
        {
          "indexed": false,
          "internalType": "uint256",
          "name": "tokenAmount",
          "type": "uint256"
        },
        {
          "indexed": false,
          "internalType": "uint256",
          "name": "ethReceived",
          "type": "uint256"
        }
      ],
      "name": "TokensSold",
      "type": "event"
    },
    {
      "inputs": [
        {
          "internalType": "uint256",
          "name": "cabalId",
          "type": "uint256"
        },
        {
          "internalType": "uint256",
          "name": "minAmountOut",
          "type": "uint256"
        }
      ],
      "name": "buyTokens",
      "outputs": [
        {
          "internalType": "uint256",
          "name": "amountOut",
          "type": "uint256"
        }
      ],
      "stateMutability": "payable",
      "type": "function"
    },
    {
      "inputs": [
        {
          "internalType": "uint256",
          "name": "cabalId",
          "type": "uint256"
        },
        {
          "internalType": "uint256",
          "name": "minAmountOut",
          "type": "uint256"
        },
        {
          "internalType": "bytes",
          "name": "hookData",
          "type": "bytes"
        }
      ],
      "name": "buyTokensWithHookData",
      "outputs": [
        {
          "internalType": "uint256",
          "name": "amountOut",
          "type": "uint256"
        }
      ],
      "stateMutability": "payable",
      "type": "function"
    },
    {
      "inputs": [
        {
          "internalType": "uint256",
          "name": "cabalId",
          "type": "uint256"
        }
      ],
      "name": "getPoolKey",
      "outputs": [
        {
          "internalType": "address",
          "name": "currency0",
          "type": "address"
        },
        {
          "internalType": "address",
          "name": "currency1",
          "type": "address"
        },
        {
          "internalType": "uint24",
          "name": "fee",
          "type": "uint24"
        },
        {
          "internalType": "int24",
          "name": "tickSpacing",
          "type": "int24"
        },
        {
          "internalType": "address",
          "name": "hooks",
          "type": "address"
        }
      ],
      "stateMutability": "view",
      "type": "function"
    },
    {
      "inputs": [
        {
          "internalType": "uint256",
          "name": "cabalId",
          "type": "uint256"
        }
      ],
      "name": "hasActivePool",
      "outputs": [
        {
          "internalType": "bool",
          "name": "",
          "type": "bool"
        }
      ],
      "stateMutability": "view",
      "type": "function"
    },
    {
      "inputs": [
        {
          "internalType": "uint256",
          "name": "",
          "type": "uint256"
        },
        {
          "internalType": "uint256",
          "name": "",
          "type": "uint256"
        }
      ],
      "name": "quoteBuy",
      "outputs": [
        {
          "internalType": "uint256",
          "name": "",
          "type": "uint256"
        }
      ],
      "stateMutability": "pure",
      "type": "function"
    },
    {
      "inputs": [
        {
          "internalType": "uint256",
          "name": "",
          "type": "uint256"
        },
        {
          "internalType": "uint256",
          "name": "",
          "type": "uint256"
        }
      ],
      "name": "quoteSell",
      "outputs": [
        {
          "internalType": "uint256",
          "name": "",
          "type": "uint256"
        }
      ],
      "stateMutability": "pure",
      "type": "function"
    },
    {
      "inputs": [
        {
          "internalType": "uint256",
          "name": "cabalId",
          "type": "uint256"
        },
        {
          "internalType": "uint256",
          "name": "tokenAmount",
          "type": "uint256"
        },
        {
          "internalType": "uint256",
          "name": "minEthOut",
          "type": "uint256"
        }
      ],
      "name": "sellTokens",
      "outputs": [
        {
          "internalType": "uint256",
          "name": "ethOut",
          "type": "uint256"
        }
      ],
      "stateMutability": "nonpayable",
      "type": "function"
    },
    {
      "inputs": [
        {
          "internalType": "uint256",
          "name": "cabalId",
          "type": "uint256"
        },
        {
          "internalType": "uint256",
          "name": "tokenAmount",
          "type": "uint256"
        },
        {
          "internalType": "uint256",
          "name": "minEthOut",
          "type": "uint256"
        },
        {
          "internalType": "bytes",
          "name": "hookData",
          "type": "bytes"
        }
      ],
      "name": "sellTokensWithHookData",
      "outputs": [
        {
          "internalType": "uint256",
          "name": "ethOut",
          "type": "uint256"
        }
      ],
      "stateMutability": "nonpayable",
      "type": "function"
    },
    {
      "inputs": [
        {
          "internalType": "uint256",
          "name": "cabalId",
          "type": "uint256"
        },
        {
          "internalType": "address",
          "name": "token",
          "type": "address"
        }
      ],
      "name": "setCabalToken",
      "outputs": [],
      "stateMutability": "nonpayable",
      "type": "function"
    },
    {
      "stateMutability": "payable",
      "type": "receive"
    }
  ],
  "bytecode": "0x60808060405234601557611537908161001a8239f35b5f80fdfe6080604052600436101561001a575b3615610018575f80fd5b005b5f3560e01c80630277dd67146100f55780631e261726146102bd578063709ef231146102895780637975ce281461026557806387768c1b1461021957806389fdf0ca146101ae578063b67e681f146100fa578063f998a865146100f55763fd0f6df40361000e57346100f15760203660031901126100f157600561009f6004356112db565b015460ff8160a01c169060048210156100dd5760016020921490816100ca575b506040519015158152f35b6001600160a01b0391501615155f6100bf565b634e487b7160e01b5f52602160045260245ffd5b5f80fd5b61030f565b346100f15760203660031901126100f15760a06001600160a01b0360056101226004356112db565b015416806006602160991b011090815f146101a7576006602160991b01915b15610199575b6001600160a01b03807f7ac3a920b579a0b08c43b9e61f5a89fbb0532d6363affc3c4bf0a0f3f8f9ad94541691816040519416845216602083015262800000604083015260c860608301526080820152f35b506006602160991b01610147565b8091610141565b346100f15760403660031901126100f1576004356024356001600160a01b03811681036100f15781610205916001600160a01b0360056101ee81966112db565b0191166001600160a01b03198254161790556112db565b01805460ff60a01b1916600160a01b179055005b346100f15760803660031901126100f15760643567ffffffffffffffff81116100f15761025d61024f6020923690600401610397565b604435602435600435610b88565b604051908152f35b602061025d610273366102f9565b604051916102818584610359565b5f8352610416565b346100f15760603660031901126100f157602061025d6040516102ac8382610359565b5f8152604435602435600435610b88565b60603660031901126100f15760443567ffffffffffffffff81116100f15761025d6102ee6020923690600401610397565b602435600435610416565b60409060031901126100f1576004359060243590565b346100f15761031d366102f9565b505060206040515f8152f35b60a0810190811067ffffffffffffffff82111761034557604052565b634e487b7160e01b5f52604160045260245ffd5b90601f8019910116810190811067ffffffffffffffff82111761034557604052565b67ffffffffffffffff811161034557601f01601f191660200190565b81601f820112156100f1578035906103ae8261037b565b926103bc6040519485610359565b828452602083830101116100f157815f926020809301838601378301015290565b919082039182116103ea57565b634e487b7160e01b5f52601160045260245ffd5b908160209103126100f1575180151581036100f15790565b929190925f913415610b7957600561042d836112db565b01805460ff8160a01c1660048110156100dd5760018103610b6a57600314610b5b576001600160a01b0316918215610b4c576040516370a0823160e01b815230600482015292602084602481845afa938415610af1575f94610b18575b506001600160a01b037f7ac3a920b579a0b08c43b9e61f5a89fbb0532d6363affc3c4bf0a0f3f8f9ad945416906001600160801b0334169061059e61062b6001600160801b038c1661059e6105ac856006602160991b011097885f14610b11576006602160991b01905b8915610afc576001600160a01b03885b816040519461051286610329565b16845216602083015262800000604083015260c86060830152608082015260405199600360f91b60208c0152600b60f81b60218c0152600f60f81b60228c015260038b5261056160238c610359565b610569611320565b996040519261057784610329565b8352602083015288604083015284606083015260808201526040519283916020830161137e565b03601f198101835282610359565b6105b587611415565b526105bf86611415565b506040516006602160991b0160208201528560408201525f6060820152606081526105eb608082610359565b6105f487611436565b526105fe86611436565b50604080516001600160a01b03861660208201526001600160801b03909216908201529182906060820190565b61063484611446565b5261063e83611446565b50604051600b60f81b6020820152600160fc1b6021820152600160fa1b60228201526003815292610670602385610359565b6106c161067b611320565b95604051600260208201528560408201526040815261069b606082610359565b6106a488611415565b526106ae87611415565b5061059e604051938492602084016114ae565b6106ca85611436565b526106d484611436565b50604051906020820152600160408201525f6060820152606081526106fa608082610359565b61070384611446565b5261070d83611446565b5061012c4201908142116103ea57736ff5693b99212da76ad316178a184ab56d299b433b156100f157610759935f9360405195869485938493630d64d59360e21b8552600485016114d3565b0391736ff5693b99212da76ad316178a184ab56d299b435af18015610af157610ad5575b50546040516370a0823160e01b81523060048201526001600160a01b0390911691602082602481865afa8015610aca578590610a96575b6107be92506103dd565b948510610a87576020839160446040518094819363a9059cbb60e01b83523360048401528a60248401525af18015610a7c57610a4f575b50604051348152846020820152817f28b5cc865e0c80dcc60884c13514fe4a294f9a622431fd1059b6078af9dbce0760403393a36040519061083682610329565b815260208101338152604082019060078252606083019034825260808401924284527fe9a1dee022580a06f80b398cb0f2690fb71e0b4cb2e78fb97d5795b2fc75e8d354600a811015610a3b5760021b9451857fe9a1dee022580a06f80b398cb0f2690fb71e0b4cb2e78fb97d5795b2fc75e8ab01556001600160a01b03807fe9a1dee022580a06f80b398cb0f2690fb71e0b4cb2e78fb97d5795b2fc75e8ac8701935116166001600160a01b031983541617825551600f811015610a2757815460ff60a01b191660a09190911b60ff60a01b16179055517fe9a1dee022580a06f80b398cb0f2690fb71e0b4cb2e78fb97d5795b2fc75e8ad830155517fe9a1dee022580a06f80b398cb0f2690fb71e0b4cb2e78fb97d5795b2fc75e8ae91909101557fe9a1dee022580a06f80b398cb0f2690fb71e0b4cb2e78fb97d5795b2fc75e8d35460018101908110610a1357600a90067fe9a1dee022580a06f80b398cb0f2690fb71e0b4cb2e78fb97d5795b2fc75e8d3557fe9a1dee022580a06f80b398cb0f2690fb71e0b4cb2e78fb97d5795b2fc75e8d454905f1982146109ff57506001017fe9a1dee022580a06f80b398cb0f2690fb71e0b4cb2e78fb97d5795b2fc75e8d455565b634e487b7160e01b81526011600452602490fd5b634e487b7160e01b82526011600452602482fd5b634e487b7160e01b86526021600452602486fd5b634e487b7160e01b87526032600452602487fd5b610a709060203d602011610a75575b610a688183610359565b8101906103fe565b6107f5565b503d610a5e565b6040513d85823e3d90fd5b638199f5f360e01b8352600483fd5b506020823d602011610ac2575b81610ab060209383610359565b810103126100f1576107be91516107b4565b3d9150610aa3565b6040513d87823e3d90fd5b610ae29194505f90610359565b5f926001600160a01b0361077d565b6040513d5f823e3d90fd5b6001600160a01b036006602160991b01610504565b86906104f4565b9093506020813d602011610b44575b81610b3460209383610359565b810103126100f15751925f61048a565b3d9150610b27565b63c1ab6dc160e01b5f5260045ffd5b631ef77b9f60e21b5f5260045ffd5b6307dab7b360e31b5f5260045ffd5b631f2a200560e01b5f5260045ffd5b90939291935f928115610b79576005610ba0846112db565b0190815460ff8160a01c1660048110156100dd5760018103610b6a57600314610b5b576001600160a01b03168015610b4c5760205f916064604051809481936323b872dd60e01b83523360048401523060248401528960448401525af18015610af1576112be575b505f60206001600160a01b0384541660446040518094819363095ea7b360e01b83526e22d473030f116ddee9f6b43ac78ba360048401528960248401525af18015610af1576112a1575b506001600160a01b038254169061012c4201918242116103ea576e22d473030f116ddee9f6b43ac78ba33b156100f157604051906387517c4560e01b82526004820152736ff5693b99212da76ad316178a184ab56d299b4360248201526001600160a01b038516604482015265ffffffffffff831660648201525f81608481836e22d473030f116ddee9f6b43ac78ba35af18015610af15761128c575b5085906001600160a01b034794541689610e4f6001600160a01b037f7ac3a920b579a0b08c43b9e61f5a89fbb0532d6363affc3c4bf0a0f3f8f9ad9454169261059e610e0a6001600160801b03808c16951695836006602160991b011097885f14611285576006602160991b01915b8915611270576001600160a01b03865b8160405195610d7c87610329565b16855216602084015262800000604084015260c8606084015260808301526040519950600360f91b60208b0152600360fa1b60218b0152600f60f81b60228b015260038a52610dcc60238b610359565b610dd4611320565b9860405192610de284610329565b835215602083015286604083015287606083015260808201526040519283916020830161137e565b610e1386611415565b52610e1d85611415565b5061059e604051938492602084019092916001600160801b036020916001600160a01b03604085019616845216910152565b610e5883611436565b52610e6282611436565b50604051906006602160991b016020830152604082015260408152610e88606082610359565b610e9182611446565b52610e9b81611446565b50604051600160fc1b6020820152600360fa1b60218201526002815290610ec3602283610359565b604051926060610ed38186610359565b60028552601f1901895b81811061125f575050610efc9061059e604051938492602084016114ae565b610f0583611415565b52610f0f82611415565b506040516001602082015287604082015260408152610f2f606082610359565b610f3883611436565b52610f4282611436565b50736ff5693b99212da76ad316178a184ab56d299b433b1561125b57908691610f7f6040519485938493630d64d59360e21b8552600485016114d3565b038183736ff5693b99212da76ad316178a184ab56d299b435af18015610aca57908591611242575b5050610fb390476103dd565b948510610a87578280808088335af13d1561123d573d610fd28161037b565b90610fe06040519283610359565b81528460203d92013e5b156111f857604051908152846020820152817fb3b5018d26b7b3764106321edeb54ab6d90aee3598f78eae1da7a2ce084e9aa960403393a36040519061102f82610329565b815260208101338152604082019060088252606083019086825260808401924284527fe9a1dee022580a06f80b398cb0f2690fb71e0b4cb2e78fb97d5795b2fc75e8d354600a811015610a3b5760021b9451857fe9a1dee022580a06f80b398cb0f2690fb71e0b4cb2e78fb97d5795b2fc75e8ab01556001600160a01b03807fe9a1dee022580a06f80b398cb0f2690fb71e0b4cb2e78fb97d5795b2fc75e8ac8701935116166001600160a01b031983541617825551600f811015610a2757815460ff60a01b191660a09190911b60ff60a01b16179055517fe9a1dee022580a06f80b398cb0f2690fb71e0b4cb2e78fb97d5795b2fc75e8ad830155517fe9a1dee022580a06f80b398cb0f2690fb71e0b4cb2e78fb97d5795b2fc75e8ae91909101557fe9a1dee022580a06f80b398cb0f2690fb71e0b4cb2e78fb97d5795b2fc75e8d35460018101908110610a1357600a90067fe9a1dee022580a06f80b398cb0f2690fb71e0b4cb2e78fb97d5795b2fc75e8d3557fe9a1dee022580a06f80b398cb0f2690fb71e0b4cb2e78fb97d5795b2fc75e8d454905f1982146109ff57506001017fe9a1dee022580a06f80b398cb0f2690fb71e0b4cb2e78fb97d5795b2fc75e8d455565b60405162461bcd60e51b815260206004820152601360248201527f455448207472616e73666572206661696c6564000000000000000000000000006044820152606490fd5b610fea565b8161124c91610359565b61125757835f610fa7565b8380fd5b8680fd5b806060602080938901015201610edd565b6001600160a01b036006602160991b01610d6e565b8491610d5e565b6112999196505f90610359565b5f945f610cef565b6112b99060203d602011610a7557610a688183610359565b610c52565b6112d69060203d602011610a7557610a688183610359565b610c08565b60405160208101917fc61520f0fc87f37c054c240fb12fa829a873c4a7f3a227d3cdaf38f732a45b0d835260408201526040815261131a606082610359565b51902090565b604051608091906113318382610359565b6003815291601f1901825f5b82811061134957505050565b80606060208093850101520161133d565b805180835260209291819084018484015e5f828201840152601f01601f1916010190565b610140608061141293602084526001600160a01b0382825182815116602088015282602082015116604088015262ffffff6040820151166060880152606081015160020b8288015201511660a08501526020810151151560c08501526001600160801b0360408201511660e08501526001600160801b0360608201511661010085015201519161012080820152019061135a565b90565b8051156114225760200190565b634e487b7160e01b5f52603260045260245ffd5b8051600110156114225760400190565b8051600210156114225760600190565b9080602083519182815201916020808360051b8301019401925f915b83831061148157505050505090565b909192939460208061149f600193601f19868203018752895161135a565b97019301930191939290611472565b90916114c56114129360408452604084019061135a565b916020818403910152611456565b9392916114fc906114ee60409360608852606088019061135a565b908682036020880152611456565b93015256fea2646970667358221220ebc6da0e51752a89d82f8042b8dd3dcdb601e84408c804af9b9b5d08af1fae9f64736f6c634300081a0033",
  "linkReferences": {},
  "deployedLinkReferences": {}
}