{
  "_format": "hh-sol-artifact-1",
  "contractName": "ReceiverFacet",
  "sourceName": "contracts/cabal/diamond/facets/ReceiverFacet.sol",
  "abi": [
    {
      "inputs": [
        {
          "internalType": "address",
          "name": "",
          "type": "address"
        },
        {
          "internalType": "address",
          "name": "",
          "type": "address"
        },
        {
          "internalType": "uint256[]",
          "name": "",
          "type": "uint256[]"
        },
        {
          "internalType": "uint256[]",
          "name": "",
          "type": "uint256[]"
        },
        {
          "internalType": "bytes",
          "name": "",
          "type": "bytes"
        }
      ],
      "name": "onERC1155BatchReceived",
      "outputs": [
        {
          "internalType": "bytes4",
          "name": "",
          "type": "bytes4"
        }
      ],
      "stateMutability": "pure",
      "type": "function"
    },
    {
      "inputs": [
        {
          "internalType": "address",
          "name": "",
          "type": "address"
        },
        {
          "internalType": "address",
          "name": "",
          "type": "address"
        },
        {
          "internalType": "uint256",
          "name": "",
          "type": "uint256"
        },
        {
          "internalType": "uint256",
          "name": "",
          "type": "uint256"
        },
        {
          "internalType": "bytes",
          "name": "",
          "type": "bytes"
        }
      ],
      "name": "onERC1155Received",
      "outputs": [
        {
          "internalType": "bytes4",
          "name": "",
          "type": "bytes4"
        }
      ],
      "stateMutability": "pure",
      "type": "function"
    },
    {
      "inputs": [
        {
          "internalType": "address",
          "name": "",
          "type": "address"
        },
        {
          "internalType": "address",
          "name": "",
          "type": "address"
        },
        {
          "internalType": "uint256",
          "name": "",
          "type": "uint256"
        },
        {
          "internalType": "bytes",
          "name": "",
          "type": "bytes"
        }
      ],
      "name": "onERC721Received",
      "outputs": [
        {
          "internalType": "bytes4",
          "name": "",
          "type": "bytes4"
        }
      ],
      "stateMutability": "pure",
      "type": "function"
    },
    {
      "inputs": [
        {
          "internalType": "bytes4",
          "name": "interfaceId",
          "type": "bytes4"
        }
      ],
      "name": "supportsInterface",
      "outputs": [
        {
          "internalType": "bool",
          "name": "",
          "type": "bool"
        }
      ],
      "stateMutability": "pure",
      "type": "function"
    }
  ],
  "bytecode": "0x60808060405234601557610324908161001a8239f35b5f80fdfe6080806040526004361015610012575f80fd5b5f3560e01c90816301ffc9a7146101c457508063150b7a021461016e578063bc197c81146100bb5763f23a6e6114610048575f80fd5b346100b75760a03660031901126100b757610061610249565b5061006a61026c565b5060843567ffffffffffffffff81116100b75761008b90369060040161028f565b505060206040517ff23a6e61000000000000000000000000000000000000000000000000000000008152f35b5f80fd5b346100b75760a03660031901126100b7576100d4610249565b506100dd61026c565b5060443567ffffffffffffffff81116100b7576100fe9036906004016102bd565b505060643567ffffffffffffffff81116100b7576101209036906004016102bd565b505060843567ffffffffffffffff81116100b75761014290369060040161028f565b505060206040517fbc197c81000000000000000000000000000000000000000000000000000000008152f35b346100b75760803660031901126100b757610187610249565b5061019061026c565b5060643567ffffffffffffffff81116100b7576101b190369060040161028f565b50506020604051630a85bd0160e11b8152f35b346100b75760203660031901126100b757600435907fffffffff0000000000000000000000000000000000000000000000000000000082168092036100b75781630a85bd0160e11b6020931490811561021f575b5015158152f35b7f4e2312e00000000000000000000000000000000000000000000000000000000091501483610218565b6004359073ffffffffffffffffffffffffffffffffffffffff821682036100b757565b6024359073ffffffffffffffffffffffffffffffffffffffff821682036100b757565b9181601f840112156100b75782359167ffffffffffffffff83116100b757602083818601950101116100b757565b9181601f840112156100b75782359167ffffffffffffffff83116100b7576020808501948460051b0101116100b75756fea2646970667358221220607011c83c6b1e54e457f9e817da449e17da24c9b75252d88efcd9d8e0888d2b64736f6c634300081a0033",
  "linkReferences": {},
  "deployedLinkReferences": {}
}