{
  "_format": "hh-sol-artifact-1",
  "contractName": "ClankerIndex",
  "sourceName": "contracts/ClankerIndex.sol",
  "abi": [
    {
      "inputs": [
        {
          "internalType": "address",
          "name": "_clankerFactory",
          "type": "address"
        }
      ],
      "stateMutability": "nonpayable",
      "type": "constructor"
    },
    {
      "inputs": [
        {
          "internalType": "address",
          "name": "owner",
          "type": "address"
        }
      ],
      "name": "OwnableInvalidOwner",
      "type": "error"
    },
    {
      "inputs": [
        {
          "internalType": "address",
          "name": "account",
          "type": "address"
        }
      ],
      "name": "OwnableUnauthorizedAccount",
      "type": "error"
    },
    {
      "anonymous": false,
      "inputs": [
        {
          "indexed": true,
          "internalType": "address",
          "name": "previousOwner",
          "type": "address"
        },
        {
          "indexed": true,
          "internalType": "address",
          "name": "newOwner",
          "type": "address"
        }
      ],
      "name": "OwnershipTransferred",
      "type": "event"
    },
    {
      "anonymous": false,
      "inputs": [
        {
          "indexed": true,
          "internalType": "address",
          "name": "deployer",
          "type": "address"
        },
        {
          "indexed": true,
          "internalType": "address",
          "name": "tokenAddress",
          "type": "address"
        },
        {
          "indexed": false,
          "internalType": "string",
          "name": "name",
          "type": "string"
        },
        {
          "indexed": false,
          "internalType": "string",
          "name": "symbol",
          "type": "string"
        },
        {
          "indexed": false,
          "internalType": "uint256",
          "name": "timestamp",
          "type": "uint256"
        }
      ],
      "name": "TokenDeployed",
      "type": "event"
    },
    {
      "inputs": [
        {
          "internalType": "address",
          "name": "tokenAddress",
          "type": "address"
        },
        {
          "internalType": "string",
          "name": "name",
          "type": "string"
        },
        {
          "internalType": "string",
          "name": "symbol",
          "type": "string"
        },
        {
          "internalType": "string",
          "name": "image",
          "type": "string"
        },
        {
          "internalType": "address",
          "name": "deployer",
          "type": "address"
        }
      ],
      "name": "addDeployment",
      "outputs": [],
      "stateMutability": "nonpayable",
      "type": "function"
    },
    {
      "inputs": [
        {
          "internalType": "uint256",
          "name": "",
          "type": "uint256"
        }
      ],
      "name": "allDeployments",
      "outputs": [
        {
          "internalType": "address",
          "name": "tokenAddress",
          "type": "address"
        },
        {
          "internalType": "string",
          "name": "name",
          "type": "string"
        },
        {
          "internalType": "string",
          "name": "symbol",
          "type": "string"
        },
        {
          "internalType": "string",
          "name": "image",
          "type": "string"
        },
        {
          "internalType": "uint256",
          "name": "timestamp",
          "type": "uint256"
        }
      ],
      "stateMutability": "view",
      "type": "function"
    },
    {
      "inputs": [],
      "name": "clankerFactory",
      "outputs": [
        {
          "internalType": "contract IClankerFactory",
          "name": "",
          "type": "address"
        }
      ],
      "stateMutability": "view",
      "type": "function"
    },
    {
      "inputs": [
        {
          "components": [
            {
              "components": [
                {
                  "internalType": "address",
                  "name": "tokenAdmin",
                  "type": "address"
                },
                {
                  "internalType": "string",
                  "name": "name",
                  "type": "string"
                },
                {
                  "internalType": "string",
                  "name": "symbol",
                  "type": "string"
                },
                {
                  "internalType": "bytes32",
                  "name": "salt",
                  "type": "bytes32"
                },
                {
                  "internalType": "string",
                  "name": "image",
                  "type": "string"
                },
                {
                  "internalType": "string",
                  "name": "metadata",
                  "type": "string"
                },
                {
                  "internalType": "string",
                  "name": "context",
                  "type": "string"
                },
                {
                  "internalType": "uint256",
                  "name": "originatingChainId",
                  "type": "uint256"
                }
              ],
              "internalType": "struct IClankerFactory.TokenConfig",
              "name": "tokenConfig",
              "type": "tuple"
            },
            {
              "components": [
                {
                  "internalType": "address",
                  "name": "hook",
                  "type": "address"
                },
                {
                  "internalType": "address",
                  "name": "pairedToken",
                  "type": "address"
                },
                {
                  "internalType": "int24",
                  "name": "tickIfToken0IsClanker",
                  "type": "int24"
                },
                {
                  "internalType": "int24",
                  "name": "tickSpacing",
                  "type": "int24"
                },
                {
                  "internalType": "bytes",
                  "name": "poolData",
                  "type": "bytes"
                }
              ],
              "internalType": "struct IClankerFactory.PoolConfig",
              "name": "poolConfig",
              "type": "tuple"
            },
            {
              "components": [
                {
                  "internalType": "address",
                  "name": "locker",
                  "type": "address"
                },
                {
                  "internalType": "address[]",
                  "name": "rewardAdmins",
                  "type": "address[]"
                },
                {
                  "internalType": "address[]",
                  "name": "rewardRecipients",
                  "type": "address[]"
                },
                {
                  "internalType": "uint16[]",
                  "name": "rewardBps",
                  "type": "uint16[]"
                },
                {
                  "internalType": "int24[]",
                  "name": "tickLower",
                  "type": "int24[]"
                },
                {
                  "internalType": "int24[]",
                  "name": "tickUpper",
                  "type": "int24[]"
                },
                {
                  "internalType": "uint16[]",
                  "name": "positionBps",
                  "type": "uint16[]"
                },
                {
                  "internalType": "bytes",
                  "name": "lockerData",
                  "type": "bytes"
                }
              ],
              "internalType": "struct IClankerFactory.LockerConfig",
              "name": "lockerConfig",
              "type": "tuple"
            },
            {
              "components": [
                {
                  "internalType": "address",
                  "name": "mevModule",
                  "type": "address"
                },
                {
                  "internalType": "bytes",
                  "name": "mevModuleData",
                  "type": "bytes"
                }
              ],
              "internalType": "struct IClankerFactory.MevModuleConfig",
              "name": "mevModuleConfig",
              "type": "tuple"
            },
            {
              "components": [
                {
                  "internalType": "address",
                  "name": "extension",
                  "type": "address"
                },
                {
                  "internalType": "uint256",
                  "name": "msgValue",
                  "type": "uint256"
                },
                {
                  "internalType": "uint16",
                  "name": "extensionBps",
                  "type": "uint16"
                },
                {
                  "internalType": "bytes",
                  "name": "extensionData",
                  "type": "bytes"
                }
              ],
              "internalType": "struct IClankerFactory.ExtensionConfig[]",
              "name": "extensionConfigs",
              "type": "tuple[]"
            }
          ],
          "internalType": "struct IClankerFactory.DeploymentConfig",
          "name": "config",
          "type": "tuple"
        }
      ],
      "name": "deployToken",
      "outputs": [
        {
          "internalType": "address",
          "name": "",
          "type": "address"
        }
      ],
      "stateMutability": "payable",
      "type": "function"
    },
    {
      "inputs": [],
      "name": "getAllDeployments",
      "outputs": [
        {
          "components": [
            {
              "internalType": "address",
              "name": "tokenAddress",
              "type": "address"
            },
            {
              "internalType": "string",
              "name": "name",
              "type": "string"
            },
            {
              "internalType": "string",
              "name": "symbol",
              "type": "string"
            },
            {
              "internalType": "string",
              "name": "image",
              "type": "string"
            },
            {
              "internalType": "uint256",
              "name": "timestamp",
              "type": "uint256"
            }
          ],
          "internalType": "struct ClankerIndex.Deployment[]",
          "name": "",
          "type": "tuple[]"
        }
      ],
      "stateMutability": "view",
      "type": "function"
    },
    {
      "inputs": [],
      "name": "getTotalDeployments",
      "outputs": [
        {
          "internalType": "uint256",
          "name": "",
          "type": "uint256"
        }
      ],
      "stateMutability": "view",
      "type": "function"
    },
    {
      "inputs": [
        {
          "internalType": "address",
          "name": "user",
          "type": "address"
        }
      ],
      "name": "getUserDeploymentCount",
      "outputs": [
        {
          "internalType": "uint256",
          "name": "",
          "type": "uint256"
        }
      ],
      "stateMutability": "view",
      "type": "function"
    },
    {
      "inputs": [
        {
          "internalType": "address",
          "name": "user",
          "type": "address"
        }
      ],
      "name": "getUserDeployments",
      "outputs": [
        {
          "components": [
            {
              "internalType": "address",
              "name": "tokenAddress",
              "type": "address"
            },
            {
              "internalType": "string",
              "name": "name",
              "type": "string"
            },
            {
              "internalType": "string",
              "name": "symbol",
              "type": "string"
            },
            {
              "internalType": "string",
              "name": "image",
              "type": "string"
            },
            {
              "internalType": "uint256",
              "name": "timestamp",
              "type": "uint256"
            }
          ],
          "internalType": "struct ClankerIndex.Deployment[]",
          "name": "",
          "type": "tuple[]"
        }
      ],
      "stateMutability": "view",
      "type": "function"
    },
    {
      "inputs": [],
      "name": "owner",
      "outputs": [
        {
          "internalType": "address",
          "name": "",
          "type": "address"
        }
      ],
      "stateMutability": "view",
      "type": "function"
    },
    {
      "inputs": [],
      "name": "renounceOwnership",
      "outputs": [],
      "stateMutability": "nonpayable",
      "type": "function"
    },
    {
      "inputs": [
        {
          "internalType": "address",
          "name": "newOwner",
          "type": "address"
        }
      ],
      "name": "transferOwnership",
      "outputs": [],
      "stateMutability": "nonpayable",
      "type": "function"
    },
    {
      "inputs": [
        {
          "internalType": "address",
          "name": "_newFactory",
          "type": "address"
        }
      ],
      "name": "updateFactory",
      "outputs": [],
      "stateMutability": "nonpayable",
      "type": "function"
    },
    {
      "inputs": [
        {
          "internalType": "address",
          "name": "",
          "type": "address"
        },
        {
          "internalType": "uint256",
          "name": "",
          "type": "uint256"
        }
      ],
      "name": "userDeployments",
      "outputs": [
        {
          "internalType": "address",
          "name": "tokenAddress",
          "type": "address"
        },
        {
          "internalType": "string",
          "name": "name",
          "type": "string"
        },
        {
          "internalType": "string",
          "name": "symbol",
          "type": "string"
        },
        {
          "internalType": "string",
          "name": "image",
          "type": "string"
        },
        {
          "internalType": "uint256",
          "name": "timestamp",
          "type": "uint256"
        }
      ],
      "stateMutability": "view",
      "type": "function"
    }
  ],
  "bytecode": "0x60803460cd57601f61194238819003918201601f19168301916001600160401b0383118484101760d15780849260209460405283398101031260cd57516001600160a01b0381169081900360cd57331560ba575f8054336001600160a01b0319821681178355604051939290916001600160a01b0316907f8be0079c531659141344cd1fd0a4f28419497f9722a3daafe3b4186f6b6457e09080a3600180546001600160a01b03191691909117905561185c90816100e68239f35b631e4fbdf760e01b5f525f60045260245ffd5b5f80fd5b634e487b7160e01b5f52604160045260245ffdfe60806040526004361015610011575f80fd5b5f3560e01c806316e3878314610aec57806316f3dd1314610a5d578063246c751f14610a4057806325c596cc14610a085780632c08670a146109e2578063630bdfac14610901578063715018a6146108aa5780638da5cb5b146108855780638eec00b81461078a578063afed6445146106c1578063d9f165dc14610682578063df40224a146101485763f2fde38b146100a8575f80fd5b34610144576020366003190112610144576001600160a01b036100c9610b4b565b6100d1610ff2565b168015610118576001600160a01b035f54826001600160a01b03198216175f55167f8be0079c531659141344cd1fd0a4f28419497f9722a3daafe3b4186f6b6457e05f80a3005b7f1e4fbdf7000000000000000000000000000000000000000000000000000000005f525f60045260245ffd5b5f80fd5b60203660031901126101445760043567ffffffffffffffff81116101445780600401908036039060a0600319830112610144576001600160a01b036001541690604051927fdf40224a000000000000000000000000000000000000000000000000000000008452602060048501526101c08580610e3a565b60a060248601526001600160a01b036101d882610b61565b1660c486015260e061029d61027d61025d6102326102128a60e461010061020260208b018b610e4e565b92909301526101c48d0191610e80565b61021f6040880188610e4e565b8c830360c319016101048e015290610e80565b60608601356101248b015261024a6080870187610e4e565b8b830360c319016101448d015290610e80565b61026a60a0860186610e4e565b8a830360c319016101648c015290610e80565b61028a60c0850185610e4e565b89830360c319016101848b015290610e80565b9101356101a4860152602483013560a2198301811215610144576104499160a0610336866103469401608460048201916023198c87030160448d01526001600160a01b036102ea84610b61565b1686526001600160a01b0361030160248301610b61565b16602087015261031360448201610ea0565b60020b604087015261032760648201610ea0565b60020b60608701520190610e4e565b9190928160808201520191610e80565b6103536044850188610e3a565b868203602319016064880152906001600160a01b0361037183610b61565b16815261043b6104306104156103fa6103df6103c46103a961039660208a018a610eae565b61010060208b01526101008a0191610ee3565b6103b660408a018a610eae565b9089830360408b0152610ee3565b6103d16060890189610eae565b9088830360608a0152610f33565b6103ec6080880188610eae565b908783036080890152610f6f565b61040760a0870187610eae565b9086830360a0880152610f6f565b61042260c0860186610eae565b9085830360c0870152610f33565b9260e0810190610e4e565b9160e0818503910152610e80565b606483013591604219018212156101445760846104aa6104b292604061049a878a989701602460048201916023198b870301888c01526001600160a01b0361049084610b61565b1686520190610e4e565b9190928160208201520191610e80565b920186610eae565b916023198482030160a4850152828152602081019260208160051b83010193835f91607e1982360301945b8484106105f7578b896020818d81808e039134905af19081156105ec575f916105aa575b5061051961050f8380610faa565b6020810190610fbf565b909261055861053561052b8380610faa565b6040810190610fbf565b91909361054f6105458580610faa565b6080810190610fbf565b92909480610faa565b35936001600160a01b03851685036101445761058a6105999661058260209a610592953691610df4565b953691610df4565b923691610df4565b9185611031565b6001600160a01b0360405191168152f35b90506020813d6020116105e4575b816105c560209383610be2565b8101031261014457516001600160a01b03811681036101445782610501565b3d91506105b8565b6040513d5f823e3d90fd5b9193959750919395601f1982820301835287358781121561014457602061066e600193608061065e898596016001600160a01b0361063482610b61565b168452858101358685015261ffff61064e60408301610f24565b1660408501526060810190610e4e565b9190928160608201520191610e80565b9901930194019194929093899796946104dd565b34610144576020366003190112610144576001600160a01b036106a3610b4b565b6106ab610ff2565b166001600160a01b031960015416176001555f80f35b346101445760a0366003190112610144576106da610b4b565b60243567ffffffffffffffff8111610144576106fa903690600401610dc6565b9160443567ffffffffffffffff81116101445761071b903690600401610dc6565b60649491943567ffffffffffffffff81116101445761073e903690600401610dc6565b9290608435956001600160a01b0387168703610144576107889761077261077a926107829561076b610ff2565b3691610df4565b943691610df4565b933691610df4565b92611031565b005b34610144575f3660031901126101445760035467ffffffffffffffff811161087157604051906107c060208260051b0183610be2565b8082526020820160035f527fc2575a0e9e593c00f959f8c92f12db2869c3395a3b0502d05e2516446f71f85b5f915b83831061080857604051806108048782610d17565b0390f35b6005602060019260405161081b81610bc6565b6001600160a01b038654168152610833858701610c04565b8382015261084360028701610c04565b604082015261085460038701610c04565b6060820152600486015460808201528152019201920191906107ef565b634e487b7160e01b5f52604160045260245ffd5b34610144575f3660031901126101445760206001600160a01b035f5416604051908152f35b34610144575f366003190112610144576108c2610ff2565b5f6001600160a01b0381546001600160a01b031981168355167f8be0079c531659141344cd1fd0a4f28419497f9722a3daafe3b4186f6b6457e08280a3005b34610144576020366003190112610144576001600160a01b03610922610b4b565b165f52600260205260405f20805467ffffffffffffffff8111610871576040519161095360208360051b0184610be2565b81835260208301905f5260205f205f915b83831061097957604051806108048782610d17565b6005602060019260405161098c81610bc6565b6001600160a01b0386541681526109a4858701610c04565b838201526109b460028701610c04565b60408201526109c560038701610c04565b606082015260048601546080820152815201920192019190610964565b34610144575f3660031901126101445760206001600160a01b0360015416604051908152f35b34610144576020366003190112610144576001600160a01b03610a29610b4b565b165f526002602052602060405f2054604051908152f35b34610144575f366003190112610144576020600354604051908152f35b346101445760203660031901126101445760043560035481101561014457600354811015610ad85760035f52600560205f209102016001600160a01b03815416610804610aac60018401610c04565b92610ab960028201610c04565b906004610ac860038301610c04565b9101549160405195869586610cc8565b634e487b7160e01b5f52603260045260245ffd5b3461014457604036600319011261014457610b05610b4b565b6001600160a01b0360243591165f52600260205260405f2090815481101561014457610b3091610b75565b506001600160a01b03815416610804610aac60018401610c04565b600435906001600160a01b038216820361014457565b35906001600160a01b038216820361014457565b8054821015610ad8575f52600560205f20910201905f90565b90600182811c92168015610bbc575b6020831014610ba857565b634e487b7160e01b5f52602260045260245ffd5b91607f1691610b9d565b60a0810190811067ffffffffffffffff82111761087157604052565b90601f8019910116810190811067ffffffffffffffff82111761087157604052565b9060405191825f825492610c1784610b8e565b8084529360018116908115610c825750600114610c3e575b50610c3c92500383610be2565b565b90505f9291925260205f20905f915b818310610c66575050906020610c3c928201015f610c2f565b6020919350806001915483858901015201910190918492610c4d565b905060209250610c3c94915060ff191682840152151560051b8201015f610c2f565b805180835260209291819084018484015e5f828201840152601f01601f1916010190565b95949390608093610cf6610d12946001600160a01b03610d0494168a5260a060208b015260a08a0190610ca4565b9088820360408a0152610ca4565b908682036060880152610ca4565b930152565b602081016020825282518091526040820191602060408360051b8301019401925f915b838310610d4957505050505090565b9091929394602080600192603f198582030186528851906001600160a01b038251168152608080610db1610d9f610d8d8787015160a08988015260a0870190610ca4565b60408701518682036040880152610ca4565b60608601518582036060870152610ca4565b93015191015297019301930191939290610d3a565b9181601f840112156101445782359167ffffffffffffffff8311610144576020838186019501011161014457565b92919267ffffffffffffffff82116108715760405191610e1e601f8201601f191660200184610be2565b829481845281830111610144578281602093845f960137010152565b903560fe1982360301811215610144570190565b9035601e198236030181121561014457016020813591019167ffffffffffffffff821161014457813603831361014457565b908060209392818452848401375f828201840152601f01601f1916010190565b35908160020b820361014457565b9035601e198236030181121561014457016020813591019167ffffffffffffffff8211610144578160051b3603831361014457565b916020908281520191905f5b818110610efc5750505090565b9091926020806001926001600160a01b03610f1688610b61565b168152019401929101610eef565b359061ffff8216820361014457565b916020908281520191905f5b818110610f4c5750505090565b90919260208060019261ffff610f6188610f24565b168152019401929101610f3f565b916020908281520191905f5b818110610f885750505090565b909192602080600192610f9a87610ea0565b60020b8152019401929101610f7b565b90359060fe1981360301821215610144570190565b903590601e1981360301821215610144570180359067ffffffffffffffff82116101445760200191813603831361014457565b6001600160a01b035f5416330361100557565b7f118cdaa7000000000000000000000000000000000000000000000000000000005f523360045260245ffd5b9190916001600160a01b036040519161104983610bc6565b1694858252602082019484865260408301848152606084019182526001600160a01b0360808501934285521696875f52600260205260405f20805468010000000000000000811015610871576110a491600182018155610b75565b6115d9576001600160a01b0380875116166001600160a01b031982541617815560018101825180519067ffffffffffffffff82116108715781906110e88454610b8e565b601f81116117d6575b50602090601f8311600114611773575f92611768575b50508160011b915f199060031b1c19161790555b60028101835180519067ffffffffffffffff821161087157819061113f8454610b8e565b601f8111611718575b50602090601f83116001146116b5575f926116aa575b50508160011b915f199060031b1c19161790555b60038101845180519067ffffffffffffffff82116108715781906111968454610b8e565b601f811161165a575b50602090601f83116001146115f7575f926115ec575b50508160011b915f199060031b1c19161790555b6004855191015560035468010000000000000000811015610871578060016111f692016003556003610b75565b9590956115d9575185546001600160a01b0319166001600160a01b0391909116178555518051600186019167ffffffffffffffff821161087157819061123c8454610b8e565b601f8111611589575b50602090601f8311600114611526575f9261151b575b50508160011b915f199060031b1c19161790555b518051600285019167ffffffffffffffff82116108715781906112928454610b8e565b601f81116114cb575b50602090601f8311600114611468575f9261145d575b50508160011b915f199060031b1c19161790555b518051600384019167ffffffffffffffff8211610871576112e68354610b8e565b601f8111611418575b50602090601f831160011461138757936113639693837fafab02be1fad1d0d43ad198ee814f1c60ef1d1143fea62cb87cc7a65b71af122999794600494611371985f9261137c575b50508160011b915f199060031b1c19161790555b51910155604051938493606085526060850190610ca4565b908382036020850152610ca4565b4260408301520390a3565b015190505f80611337565b90601f19831691845f52815f20925f5b81811061140057508460049461137198946113639b98947fafab02be1fad1d0d43ad198ee814f1c60ef1d1143fea62cb87cc7a65b71af1229d9b98600195106113e8575b505050811b01905561134b565b01515f1960f88460031b161c191690555f80806113db565b92936020600181928786015181550195019301611397565b835f5260205f20601f840160051c81019160208510611453575b601f0160051c01905b81811061144857506112ef565b5f815560010161143b565b9091508190611432565b015190505f806112b1565b5f8581528281209350601f198516905b8181106114b3575090846001959493921061149b575b505050811b0190556112c5565b01515f1960f88460031b161c191690555f808061148e565b92936020600181928786015181550195019301611478565b909150835f5260205f20601f840160051c81019160208510611511575b90601f859493920160051c01905b818110611503575061129b565b5f81558493506001016114f6565b90915081906114e8565b015190505f8061125b565b5f8581528281209350601f198516905b8181106115715750908460019594939210611559575b505050811b01905561126f565b01515f1960f88460031b161c191690555f808061154c565b92936020600181928786015181550195019301611536565b909150835f5260205f20601f840160051c810191602085106115cf575b90601f859493920160051c01905b8181106115c15750611245565b5f81558493506001016115b4565b90915081906115a6565b634e487b7160e01b5f525f60045260245ffd5b015190505f806111b5565b5f8581528281209350601f198516905b818110611642575090846001959493921061162a575b505050811b0190556111c9565b01515f1960f88460031b161c191690555f808061161d565b92936020600181928786015181550195019301611607565b909150835f5260205f20601f840160051c810191602085106116a0575b90601f859493920160051c01905b818110611692575061119f565b5f8155849350600101611685565b9091508190611677565b015190505f8061115e565b5f8581528281209350601f198516905b81811061170057509084600195949392106116e8575b505050811b019055611172565b01515f1960f88460031b161c191690555f80806116db565b929360206001819287860151815501950193016116c5565b909150835f5260205f20601f840160051c8101916020851061175e575b90601f859493920160051c01905b8181106117505750611148565b5f8155849350600101611743565b9091508190611735565b015190505f80611107565b5f8581528281209350601f198516905b8181106117be57509084600195949392106117a6575b505050811b01905561111b565b01515f1960f88460031b161c191690555f8080611799565b92936020600181928786015181550195019301611783565b909150835f5260205f20601f840160051c8101916020851061181c575b90601f859493920160051c01905b81811061180e57506110f1565b5f8155849350600101611801565b90915081906117f356fea264697066735822122097e11f6de10a7dbadf8f5ef135cb0ba8531c995c5fcfa028df386cc9ad7c824564736f6c634300081a0033",
  "linkReferences": {},
  "deployedLinkReferences": {}
}