{
  "_format": "hh-sol-artifact-1",
  "contractName": "CabalCreationFacet",
  "sourceName": "contracts/cabal/diamond/facets/CabalCreationFacet.sol",
  "abi": [
    {
      "inputs": [],
      "name": "AlreadyClaimed",
      "type": "error"
    },
    {
      "inputs": [],
      "name": "CabalNotActive",
      "type": "error"
    },
    {
      "inputs": [],
      "name": "CabalNotInPresale",
      "type": "error"
    },
    {
      "inputs": [],
      "name": "DeploymentFailed",
      "type": "error"
    },
    {
      "inputs": [],
      "name": "NoContribution",
      "type": "error"
    },
    {
      "inputs": [],
      "name": "NotCabalCreator",
      "type": "error"
    },
    {
      "inputs": [],
      "name": "TransferFailed",
      "type": "error"
    },
    {
      "inputs": [],
      "name": "ZeroContribution",
      "type": "error"
    },
    {
      "anonymous": false,
      "inputs": [
        {
          "indexed": true,
          "internalType": "uint256",
          "name": "cabalId",
          "type": "uint256"
        },
        {
          "indexed": true,
          "internalType": "address",
          "name": "creator",
          "type": "address"
        },
        {
          "indexed": false,
          "internalType": "string",
          "name": "name",
          "type": "string"
        },
        {
          "indexed": false,
          "internalType": "string",
          "name": "symbol",
          "type": "string"
        },
        {
          "indexed": false,
          "internalType": "address",
          "name": "tbaAddress",
          "type": "address"
        }
      ],
      "name": "CabalCreated",
      "type": "event"
    },
    {
      "anonymous": false,
      "inputs": [
        {
          "indexed": true,
          "internalType": "uint256",
          "name": "cabalId",
          "type": "uint256"
        },
        {
          "indexed": false,
          "internalType": "address",
          "name": "tokenAddress",
          "type": "address"
        },
        {
          "indexed": false,
          "internalType": "uint256",
          "name": "totalRaised",
          "type": "uint256"
        },
        {
          "indexed": false,
          "internalType": "uint256",
          "name": "titheAmount",
          "type": "uint256"
        },
        {
          "indexed": false,
          "internalType": "uint256",
          "name": "devBuyAmount",
          "type": "uint256"
        }
      ],
      "name": "CabalFinalized",
      "type": "event"
    },
    {
      "anonymous": false,
      "inputs": [
        {
          "indexed": true,
          "internalType": "uint256",
          "name": "cabalId",
          "type": "uint256"
        },
        {
          "indexed": true,
          "internalType": "address",
          "name": "contributor",
          "type": "address"
        },
        {
          "indexed": false,
          "internalType": "uint256",
          "name": "amount",
          "type": "uint256"
        },
        {
          "indexed": false,
          "internalType": "uint256",
          "name": "totalRaised",
          "type": "uint256"
        }
      ],
      "name": "Contributed",
      "type": "event"
    },
    {
      "anonymous": false,
      "inputs": [
        {
          "indexed": true,
          "internalType": "uint256",
          "name": "cabalId",
          "type": "uint256"
        },
        {
          "indexed": true,
          "internalType": "address",
          "name": "claimant",
          "type": "address"
        },
        {
          "indexed": false,
          "internalType": "uint256",
          "name": "amount",
          "type": "uint256"
        }
      ],
      "name": "TokensClaimed",
      "type": "event"
    },
    {
      "inputs": [
        {
          "internalType": "uint256",
          "name": "cabalId",
          "type": "uint256"
        }
      ],
      "name": "claimTokens",
      "outputs": [],
      "stateMutability": "nonpayable",
      "type": "function"
    },
    {
      "inputs": [
        {
          "internalType": "uint256",
          "name": "cabalId",
          "type": "uint256"
        }
      ],
      "name": "contribute",
      "outputs": [],
      "stateMutability": "payable",
      "type": "function"
    },
    {
      "inputs": [
        {
          "internalType": "string",
          "name": "name",
          "type": "string"
        },
        {
          "internalType": "string",
          "name": "symbol",
          "type": "string"
        },
        {
          "internalType": "string",
          "name": "image",
          "type": "string"
        },
        {
          "components": [
            {
              "internalType": "uint256",
              "name": "votingPeriod",
              "type": "uint256"
            },
            {
              "internalType": "uint256",
              "name": "quorumBps",
              "type": "uint256"
            },
            {
              "internalType": "uint256",
              "name": "majorityBps",
              "type": "uint256"
            },
            {
              "internalType": "uint256",
              "name": "proposalThreshold",
              "type": "uint256"
            }
          ],
          "internalType": "struct GovernanceSettings",
          "name": "settings",
          "type": "tuple"
        }
      ],
      "name": "createCabal",
      "outputs": [
        {
          "internalType": "uint256",
          "name": "cabalId",
          "type": "uint256"
        }
      ],
      "stateMutability": "nonpayable",
      "type": "function"
    },
    {
      "inputs": [
        {
          "internalType": "uint256",
          "name": "cabalId",
          "type": "uint256"
        }
      ],
      "name": "finalizeCabal",
      "outputs": [],
      "stateMutability": "nonpayable",
      "type": "function"
    },
    {
      "inputs": [
        {
          "internalType": "uint256",
          "name": "cabalId",
          "type": "uint256"
        },
        {
          "internalType": "address",
          "name": "user",
          "type": "address"
        }
      ],
      "name": "getClaimable",
      "outputs": [
        {
          "internalType": "uint256",
          "name": "",
          "type": "uint256"
        }
      ],
      "stateMutability": "view",
      "type": "function"
    },
    {
      "inputs": [
        {
          "internalType": "uint256",
          "name": "cabalId",
          "type": "uint256"
        }
      ],
      "name": "getContributors",
      "outputs": [
        {
          "internalType": "address[]",
          "name": "",
          "type": "address[]"
        }
      ],
      "stateMutability": "view",
      "type": "function"
    }
  ],
  "bytecode": "0x6080806040523461001657611de5908161001c8239f35b600080fdfe6080604052600436101561001257600080fd5b60003560e01c80633c1ab00f1461176557806343a77aac14610bad57806346e04a2f146109e0578063b961cbe1146109a6578063c1cbbca7146107e25763fcf133281461005e57600080fd5b346107955760e0366003190112610795576004356001600160401b0381116107955761008e90369060040161181c565b6024356001600160401b038111610795576100ad90369060040161181c565b92906044356001600160401b038111610795576100ce90369060040161181c565b9290936080606319360112610795577ff6b912f89c06d8afd06b9fa8bd742c729f30156da50b94481faddbc9d0b4e9e3546040516335313c2160e11b81523060048201529590602090879060249082906000906001600160a01b03165af19586156107a2576000966107ae575b507ff6b912f89c06d8afd06b9fa8bd742c729f30156da50b94481faddbc9d0b4e9e5547ff6b912f89c06d8afd06b9fa8bd742c729f30156da50b94481faddbc9d0b4e9e4547ff6b912f89c06d8afd06b9fa8bd742c729f30156da50b94481faddbc9d0b4e9e354604051638a54c52f60e01b81526001600160a01b0392831660048201526000602482018190524660448301529183166064820152608481018a90529792602092899260a4928492165af19586156107a257600096610759575b5061020587611cad565b80546001600160a01b03191633178155916001600160401b0384116104c8576102316001840154611928565b601f8111610712575b50836000601f82116001146106a457600091610699575b508460011b906000198660031b1c19161760018401555b6001600160401b0389116104c8576102836002840154611928565b601f8111610652575b50886000601f82116001146105e4576000916105d9575b508960011b906000198b60031b1c19161760028401555b6001600160401b0382116104c85781906102d76003850154611928565b601f8111610586575b50600090601f83116001146105155760009261050a575b50508160011b916000199060031b1c19161760038201555b6004810180546001600160a01b0319166001600160a01b03909616958617905560058101805460ff60a01b191690556064356009820155608435600a82015560a435600b82015560c435600c90910155600185018086116104f4577ff6b912f89c06d8afd06b9fa8bd742c729f30156da50b94481faddbc9d0b4e9e9557ff6b912f89c06d8afd06b9fa8bd742c729f30156da50b94481faddbc9d0b4e9ea92835493600160401b94858110156104c857600181018083558110156104de5787916000527f92a07e9b5c0c3259ab73db7fddb759e0795904dcdc9c62a149d91b30ac2f683e015560405160208101907fd1261fcbdec2818395983d1051c30776b763075dd8066c02ad3ddcf362b02de282523360601b604082015260348152610436816118ec565b519020908154948510156104c8576020976104a77f76313775c5c834f71f842309b410b354b07c7054a261364f1d8ee887ce52ab6095610480886104b49660018d9b01815561196f565b81549060031b908a821b91600019901b191617905560405195606087526060870191611987565b918483038a860152611987565b9360408201528033940390a3604051908152f35b634e487b7160e01b600052604160045260246000fd5b634e487b7160e01b600052603260045260246000fd5b634e487b7160e01b600052601160045260246000fd5b0135905038806102f7565b909150601f198316916003850160005260206000209260005b81811061056e5750908460019594939210610554575b505050811b01600382015561030f565b0135600019600384901b60f8161c19169055388080610544565b9193602060018192878701358155019501920161052e565b909150600384016000526020600020601f840160051c8101602085106105d2575b90849392915b601f830160051c820181106105c35750506102e0565b600081558594506001016105ad565b50806105a7565b9050860135386102a3565b90506002840160005260206000209060005b601f198c16811061063a57508a601f19811610610620575b5050600189811b0160028401556102ba565b87013560001960038c901b60f8161c19169055388061060e565b9091602060018192858c0135815501930191016105f6565b600284016000526020600020601f8b0160051c810160208c10610692575b601f830160051c8201811061068657505061028c565b60008155600101610670565b5080610670565b905085013538610251565b90506001840160005260206000209060005b601f19871681106106fa575085601f198116106106e0575b5050600184811b016001840155610268565b860135600019600387901b60f8161c1916905538806106ce565b9091602060018192858b0135815501930191016106b6565b600184016000526020600020601f860160051c810160208710610752575b601f830160051c8201811061074657505061023a565b60008155600101610730565b5080610730565b9095506020813d60201161079a575b8161077560209383611907565b8101031261079557516001600160a01b03811681036107955794386101fb565b600080fd5b3d9150610768565b6040513d6000823e3d90fd5b9095506020813d6020116107da575b816107ca60209383611907565b810103126107955751943861013b565b3d91506107bd565b60203660031901126107955760043534156109945761080081611cad565b60ff600582015460a01c16600381101561097e5761096c576108223383611cf0565b8015610922575b610834903490611962565b60405160208101907ff9cb95d6bcd70b8f41deb63f6a0973398a369f058485501ab1645d87ca42354282528460408201523360601b60608201526054815261087b8161189b565b5190205560008080806006850194610894348754611962565b86556004015434906001600160a01b03165af13d1561091d573d6108b7816119a8565b906108c56040519283611907565b8152600060203d92013e5b1561090b5754906040519134835260208301527fdcfa71ee125a676f843733d9d39dce2c918ecf9e92f96db4f24bdb5244ed68a060403393a3005b6040516312171d8360e31b8152600490fd5b6108d0565b6008820190815491600160401b8310156104c857826109499160016108349501815561196f565b81546001600160a01b0360039290921b91821b19163390911b1790559050610829565b6040516306e154bd60e01b8152600490fd5b634e487b7160e01b600052602160045260246000fd5b604051631570544960e31b8152600490fd5b34610795576040366003190112610795576024356001600160a01b0381168103610795576109d8602091600435611bf1565b604051908152f35b34610795576020366003190112610795576004356109fd81611cad565b90600582019160ff835460a01c16600381101561097e57600103610b9b57610a253383611d4e565b610b8957610a333383611cf0565b8015610b775781610a5c610a516000936007610b16960154906119c3565b6006830154906119d6565b94600160405160208101907ffa7666f901d98d7ddb6dca66654a4b44590f640f4803ecfa6cdcb1bcf243032b82528760408201523360601b606082015260548152610aa68161189b565b5190205560046040519263a9059cbb60e01b602085015233602485015287604485015260448452610ad68461189b565b60018060a01b0391829101541691541683604051809681958294639e5d4c4960e01b84526004840152836024840152606060448401526064830190611abf565b03925af180156107a257610b54575b506040519182527f880f2ef2613b092f1a0a819f294155c98667eb294b7e6bf7a3810278142c1a1c60203393a3005b610b70903d806000833e610b688183611907565b810190611b90565b5082610b25565b604051631971fbf360e21b8152600490fd5b604051630c8d9eab60e31b8152600490fd5b6040516307dab7b360e31b8152600490fd5b3461079557602036600319011261079557610bc9600435611cad565b60ff600582015460a01c16600381101561097e5761096c5780546001600160a01b031633036117535760068101546103e88102918183046103e814821517156104f4578161271084048103116104f45760048101546001600160a01b0316610c33600183016119f6565b90610c40600284016119f6565b610c4c600385016119f6565b9060606080604051610c5d81611849565b604051610c6981611864565b6000815283602082015283604082015260008482015283838201528360a08201528360c0820152600060e08201528152604051610ca581611849565b60008152600060208201526000604082015260008482015283838201526020820152604051610cd381611864565b60008152836020820152836040820152838082015283838201528360a08201528360c08201528360e08201526040820152604051610d1081611880565b6000815283602082015283820152015260405193610d2d85611864565b83855260208501526040840152600060608401526080830152604051610d52816118b6565b6000815260a0830152604051610d6781611880565b60158152747b22696e74657266616365223a22434142414c227d60581b602082015260c08301524660e08301527f7ac3a920b579a0b08c43b9e61f5a89fbb0532d6363affc3c4bf0a0f3f8f9ad94547ff6b912f89c06d8afd06b9fa8bd742c729f30156da50b94481faddbc9d0b4e9e854604051916001600160a01b039182169116610df283611849565b82526020820152620383ff19604082015260c86060820152604051806101208101106001600160401b03610120830111176104c8576101208101604052610100815260208082015260006040820152606080820152608080820152600060a0820152604060c082015261271060e08201526127106101008201526080820152604051610e7d81611880565b600181526020368183013782610e9282611c60565b52604051610e9f81611880565b600181526020368183013783610eb482611c60565b52604051610ec181611880565b6001815260203681830137612710610ed882611c60565b52604051610ee5816118d1565b6005815260a036602083013760405191610efe836118d1565b6005835260a036602085013760405193610f17856118d1565b6005855260a0366020870137620383ff19610f3184611c60565b52620343ef1980610f4186611c60565b526103e8610f4e87611c60565b52610f5884611c6d565b5262025d771980610f6886611c6d565b52611388610f7587611c6d565b526203150f19610f8485611c7d565b5280610f8f86611c7d565b526105dc610f9c87611c7d565b52610fa684611c8d565b526201d4bf1980610fb686611c8d565b526107d0610fc387611c8d565b52620226c719610fd285611c9d565b52610fdc85611c9d565b526101f4610fe986611c9d565b527f7ac3a920b579a0b08c43b9e61f5a89fbb0532d6363affc3c4bf0a0f3f8f9ad955460405196906001600160a01b031661102388611864565b8752602087015260408601526060850152608084015260a083015260c082015260405161104f81611849565b6080815260208082015260206040820152600160608201526001608082015260e082015260018060a01b037f7ac3a920b579a0b08c43b9e61f5a89fbb0532d6363affc3c4bf0a0f3f8f9ad96541690604051916110ab83611880565b82526040516110b98161189b565b60608152620a2c99602082015261a2c96040820152600f60608201526020830152612710880487141580611720575b1561170a57604051926110fa84611880565b6001845260005b602081106116d857506040518461111782611849565b60008252600060208301526000604083015260006060830152600060808301526040518060608101106001600160401b036060830111176104c85760608181016040908152848352600060208085019182529382018b81527f7ac3a920b579a0b08c43b9e61f5a89fbb0532d6363affc3c4bf0a0f3f8f9ad9754835188516001600160a01b0390811682890152968901518716818601529388015162ffffff16848601529387015160020b60808085019190915290960151841660a0830152516fffffffffffffffffffffffffffffffff1660c08201529351821660e08086019190915284526112439391169061120d81611864565b6040519161121a8361189b565b82526127108d048c03602083015260006040830152606082015261123d82611c60565b52611c60565b505b6040519561125287611849565b8652602086015260408501526060840152608083015260405191636fa0112560e11b602084015260206024840152608061147d611449611396845160a0604489015260018060a01b0381511660e489015260e06113348961131e6113096112e76112ce60208801516101006101048701526101e4860190611abf565b604088015160e319956101248782850301910152611abf565b8d61014460608901519101528d8b880151906101648682850301910152611abf565b60a08601518d820384016101848f0152611abf565b9060c0850151908c8303016101a48d0152611abf565b9101516101c489015260a08560208801516043198b85030160648c0152600180841b038151168452600180841b036020820151166020850152604081015160020b6040850152606081015160020b606085015201519181878201520190611abf565b60408501519060431988820301608489015260018060a01b03825116815260e06114386114266114146114046113f26113e0602089015161010060208a0152610100890190611ae4565b604089015188820360408a0152611ae4565b60608801518782036060890152611b21565b898701518682038b880152611b59565b60a086015185820360a0870152611b59565b60c085015184820360c0860152611b21565b9201519060e0818403910152611abf565b60608401518682036043190160a488015280516001600160a01b031682526020908101516040918301829052910190611abf565b910151906043198482030160c4850152815180825260208201916020808360051b8301019401926000915b83831061167b578a8a8a61152c60008c8c6114cc828e03601f198101845283611907565b60018060a01b037ff6b912f89c06d8afd06b9fa8bd742c729f30156da50b94481faddbc9d0b4e9e6541683604051809681958294639e5d4c4960e01b845260048401526127108c048b036024840152606060448401526064830190611abf565b03925af19081156107a257600091611660575b50602081511061164e5760208180518101031261079557602001516001600160a01b03811693908490036107955760018060a01b0360048301541691604051926370a0823160e01b84526004840152602083602481885afa9283156107a257600093611619575b506005612710938183015490600784015586600160a01b916affffffffffffffffffffff60a81b161717910155604051938452826020850152818104604085015204900360608201527f9990228011b491290cdf9e698b471337d5c98a9cc561021ba3bbf72b5a75d27c608060043592a2005b92506020833d602011611646575b8161163460209383611907565b810103126107955791519160056115a6565b3d9150611627565b604051633011642560e01b8152600490fd5b61167591503d806000833e610b688183611907565b8461153f565b90919293946020806116c9600193601f19868203018752608060608b51878060a01b038151168452858101518685015261ffff60408201511660408501520151918160608201520190611abf565b970193019301919392906114a8565b6020906040516116e78161189b565b600081526000838201526000604082015260608082015282828801015201611101565b604051611716816118b6565b6000815292611245565b507f7ac3a920b579a0b08c43b9e61f5a89fbb0532d6363affc3c4bf0a0f3f8f9ad97546001600160a01b031615156110e8565b604051632b818e8760e11b8152600490fd5b3461079557602080600319360112610795576008611784600435611cad565b0160405190818382549182815201908192600052846000209060005b868282106117ff5786866117b682880383611907565b604051928392818401908285525180915260408401929160005b8281106117df57505050500390f35b83516001600160a01b0316855286955093810193928101926001016117d0565b83546001600160a01b0316855290930192600192830192016117a0565b9181601f84011215610795578235916001600160401b038311610795576020838186019501011161079557565b60a081019081106001600160401b038211176104c857604052565b61010081019081106001600160401b038211176104c857604052565b604081019081106001600160401b038211176104c857604052565b608081019081106001600160401b038211176104c857604052565b602081019081106001600160401b038211176104c857604052565b60c081019081106001600160401b038211176104c857604052565b606081019081106001600160401b038211176104c857604052565b90601f801991011681019081106001600160401b038211176104c857604052565b90600182811c92168015611958575b602083101461194257565b634e487b7160e01b600052602260045260246000fd5b91607f1691611937565b919082018092116104f457565b80548210156104de5760005260206000200190600090565b908060209392818452848401376000828201840152601f01601f1916010190565b6001600160401b0381116104c857601f01601f191660200190565b818102929181159184041417156104f457565b81156119e0570490565b634e487b7160e01b600052601260045260246000fd5b9060405191826000825492611a0a84611928565b908184526001948581169081600014611a795750600114611a36575b5050611a3492500383611907565b565b9093915060005260209081600020936000915b818310611a61575050611a3493508201013880611a26565b85548884018501529485019487945091830191611a49565b915050611a3494506020925060ff191682840152151560051b8201013880611a26565b60005b838110611aaf5750506000910152565b8181015183820152602001611a9f565b90602091611ad881518092818552858086019101611a9c565b601f01601f1916010190565b90815180825260208080930193019160005b828110611b04575050505090565b83516001600160a01b031685529381019392810192600101611af6565b90815180825260208080930193019160005b828110611b41575050505090565b835161ffff1685529381019392810192600101611b33565b90815180825260208080930193019160005b828110611b79575050505090565b835160020b85529381019392810192600101611b6b565b602081830312610795578051906001600160401b038211610795570181601f82011215610795578051611bc2816119a8565b92611bd06040519485611907565b8184526020828401011161079557611bee9160208085019101611a9c565b90565b611bfa81611cad565b9160ff600584015460a01c16600381101561097e57600103611c5857611c208183611d4e565b611c5857611c2d91611cf0565b908115611c51576006611c48611bee936007840154906119c3565b910154906119d6565b5050600090565b505050600090565b8051156104de5760200190565b8051600110156104de5760400190565b8051600210156104de5760600190565b8051600310156104de5760800190565b8051600410156104de5760a00190565b60405160208101917fc61520f0fc87f37c054c240fb12fa829a873c4a7f3a227d3cdaf38f732a45b0d8352604082015260408152611cea816118ec565b51902090565b906040519060208201927ff9cb95d6bcd70b8f41deb63f6a0973398a369f058485501ab1645d87ca423542845260408301526bffffffffffffffffffffffff199060601b16606082015260548152611d478161189b565b5190205490565b6001916040519060208201927ffa7666f901d98d7ddb6dca66654a4b44590f640f4803ecfa6cdcb1bcf243032b845260408301526bffffffffffffffffffffffff199060601b16606082015260548152611da78161189b565b51902054149056fea2646970667358221220c934bf6d6eab5b361ba16db58591534f4848b7e19707906e677068dbd682327864736f6c63430008140033",
  "linkReferences": {},
  "deployedLinkReferences": {}
}