{"contracts/cabal/diamond/facets/SwapFacet.sol":{"SwapFacet":{"abi":[{"inputs":[],"name":"CabalNotActive","type":"error"},{"inputs":[],"name":"InsufficientBalance","type":"error"},{"inputs":[],"name":"InvalidToken","type":"error"},{"inputs":[],"name":"SlippageExceeded","type":"error"},{"inputs":[],"name":"ZeroAmount","type":"error"},{"anonymous":false,"inputs":[{"indexed":true,"internalType":"uint256","name":"cabalId","type":"uint256"},{"indexed":true,"internalType":"address","name":"buyer","type":"address"},{"indexed":false,"internalType":"uint256","name":"ethAmount","type":"uint256"},{"indexed":false,"internalType":"uint256","name":"tokensReceived","type":"uint256"}],"name":"TokensBought","type":"event"},{"anonymous":false,"inputs":[{"indexed":true,"internalType":"uint256","name":"cabalId","type":"uint256"},{"indexed":true,"internalType":"address","name":"seller","type":"address"},{"indexed":false,"internalType":"uint256","name":"tokenAmount","type":"uint256"},{"indexed":false,"internalType":"uint256","name":"ethReceived","type":"uint256"}],"name":"TokensSold","type":"event"},{"inputs":[{"internalType":"uint256","name":"cabalId","type":"uint256"},{"internalType":"uint256","name":"minAmountOut","type":"uint256"}],"name":"buyTokens","outputs":[{"internalType":"uint256","name":"amountOut","type":"uint256"}],"stateMutability":"payable","type":"function"},{"inputs":[{"internalType":"uint256","name":"cabalId","type":"uint256"},{"internalType":"uint256","name":"minAmountOut","type":"uint256"},{"internalType":"bytes","name":"hookData","type":"bytes"}],"name":"buyTokensWithHookData","outputs":[{"internalType":"uint256","name":"amountOut","type":"uint256"}],"stateMutability":"payable","type":"function"},{"inputs":[{"internalType":"uint256","name":"cabalId","type":"uint256"}],"name":"getPoolKey","outputs":[{"internalType":"address","name":"currency0","type":"address"},{"internalType":"address","name":"currency1","type":"address"},{"internalType":"uint24","name":"fee","type":"uint24"},{"internalType":"int24","name":"tickSpacing","type":"int24"},{"internalType":"address","name":"hooks","type":"address"}],"stateMutability":"view","type":"function"},{"inputs":[{"internalType":"uint256","name":"cabalId","type":"uint256"}],"name":"hasActivePool","outputs":[{"internalType":"bool","name":"","type":"bool"}],"stateMutability":"view","type":"function"},{"inputs":[{"internalType":"uint256","name":"","type":"uint256"},{"internalType":"uint256","name":"","type":"uint256"}],"name":"quoteBuy","outputs":[{"internalType":"uint256","name":"","type":"uint256"}],"stateMutability":"pure","type":"function"},{"inputs":[{"internalType":"uint256","name":"","type":"uint256"},{"internalType":"uint256","name":"","type":"uint256"}],"name":"quoteSell","outputs":[{"internalType":"uint256","name":"","type":"uint256"}],"stateMutability":"pure","type":"function"},{"inputs":[{"internalType":"uint256","name":"cabalId","type":"uint256"},{"internalType":"uint256","name":"tokenAmount","type":"uint256"},{"internalType":"uint256","name":"minEthOut","type":"uint256"}],"name":"sellTokens","outputs":[{"internalType":"uint256","name":"ethOut","type":"uint256"}],"stateMutability":"nonpayable","type":"function"},{"inputs":[{"internalType":"uint256","name":"cabalId","type":"uint256"},{"internalType":"uint256","name":"tokenAmount","type":"uint256"},{"internalType":"uint256","name":"minEthOut","type":"uint256"},{"internalType":"bytes","name":"hookData","type":"bytes"}],"name":"sellTokensWithHookData","outputs":[{"internalType":"uint256","name":"ethOut","type":"uint256"}],"stateMutability":"nonpayable","type":"function"},{"inputs":[{"internalType":"uint256","name":"cabalId","type":"uint256"},{"internalType":"address","name":"token","type":"address"}],"name":"setCabalToken","outputs":[],"stateMutability":"nonpayable","type":"function"},{"stateMutability":"payable","type":"receive"}],"evm":{"bytecode":{"linkReferences":{},"object":"60808060405234601557611243908161001a8239f35b5f80fdfe6080604052600436101561001a575b3615610018575f80fd5b005b5f3560e01c80630277dd67146100f55780631e261726146102f9578063709ef231146102c55780637975ce28146102a157806387768c1b1461025557806389fdf0ca146101ae578063b67e681f146100fa578063f998a865146100f55763fd0f6df40361000e57346100f15760203660031901126100f157600561009f600435610fe7565b015460ff8160a01c169060038210156100dd5760016020921490816100ca575b506040519015158152f35b6001600160a01b0391501615155f6100bf565b634e487b7160e01b5f52602160045260245ffd5b5f80fd5b61034b565b346100f15760203660031901126100f15760a06001600160a01b036005610122600435610fe7565b015416806006602160991b011090815f146101a7576006602160991b01915b15610199575b6001600160a01b03807f7ac3a920b579a0b08c43b9e61f5a89fbb0532d6363affc3c4bf0a0f3f8f9ad94541691816040519416845216602083015262800000604083015260c860608301526080820152f35b506006602160991b01610147565b8091610141565b346100f15760403660031901126100f1576004356024356001600160a01b0381168091036100f157816102159160056101e78195610fe7565b01907fffffffffffffffffffffffff0000000000000000000000000000000000000000825416179055610fe7565b0180547fffffffffffffffffffffff00ffffffffffffffffffffffffffffffffffffffff1674010000000000000000000000000000000000000000179055005b346100f15760803660031901126100f15760643567ffffffffffffffff81116100f15761029961028b60209236906004016103d3565b604435602435600435610a5e565b604051908152f35b60206102996102af36610335565b604051916102bd8584610395565b5f8352610452565b346100f15760603660031901126100f15760206102996040516102e88382610395565b5f8152604435602435600435610a5e565b60603660031901126100f15760443567ffffffffffffffff81116100f15761029961032a60209236906004016103d3565b602435600435610452565b60409060031901126100f1576004359060243590565b346100f15761035936610335565b505060206040515f8152f35b60a0810190811067ffffffffffffffff82111761038157604052565b634e487b7160e01b5f52604160045260245ffd5b90601f8019910116810190811067ffffffffffffffff82111761038157604052565b67ffffffffffffffff811161038157601f01601f191660200190565b81601f820112156100f1578035906103ea826103b7565b926103f86040519485610395565b828452602083830101116100f157815f926020809301838601378301015290565b9190820391821161042657565b634e487b7160e01b5f52601160045260245ffd5b908160209103126100f1575180151581036100f15790565b9092915f3415610a3657600561046784610fe7565b01805460ff8160a01c1660038110156100dd57600103610a0e576001600160a01b031680156109e657604051936370a0823160e01b8552306004860152602085602481855afa94851561097d575f956109b2575b506001600160a01b037f7ac3a920b579a0b08c43b9e61f5a89fbb0532d6363affc3c4bf0a0f3f8f9ad945416916001600160801b033416916001600160801b038a1661068e6001600160a01b03846006602160991b011096875f146109ac576006602160991b015b881561099e5786915b836040519261053a84610365565b16825283602083019316835262800000604083015260c8606083015260808201526040519861059a8a61058c60208201600390600360f91b8152600b60f81b6001820152600760f91b60028201520190565b03601f1981018c528b610395565b6105df6105ed6105a861102c565b98604051906105b682610365565b8582528460208301528c604083015289606083015260808201526040519283916020830161108a565b03601f198101835282610395565b6105f688611121565b5261060087611121565b5080156109915788610641858451165b6105df604051938492602084019092916001600160801b036020916001600160a01b03604085019616845216910152565b61064a88611142565b5261065487611142565b5015610988575051166105df604051938492602084019092916001600160801b036020916001600160a01b03604085019616845216910152565b61069782611152565b526106a181611152565b506107066106ad61102c565b9460405173198ef79f1f515f02dfe9e3115ed9fc07183f02fc6020820152856040820152604081526106e0606082610395565b6106e987611121565b526106f386611121565b506105df604051938492602084016111ba565b61070f84611142565b5261071983611142565b506040519060208201523060408201525f60608201526060815261073e608082610395565b61074783611152565b5261075182611152565b50604051600b60f81b6020820152600160fc1b60218201527f04000000000000000000000000000000000000000000000000000000000000006022820152600381529061079f602383610395565b61012c4201908142116104265773198ef79f1f515f02dfe9e3115ed9fc07183f02fc3b156100f1576107ea935f9360405195869485938493630d64d59360e21b8552600485016111df565b039173198ef79f1f515f02dfe9e3115ed9fc07183f02fc5af1801561097d57610961575b506001600160a01b0390541691604051906370a0823160e01b8252306004830152602082602481875afa8015610956578390610922575b61084f9250610419565b9485106108fa576020604051809363a9059cbb60e01b82523360048301528760248301528184604482800301925af19081156108ee57506108c1575b50604051903482528360208301527f28b5cc865e0c80dcc60884c13514fe4a294f9a622431fd1059b6078af9dbce0760403393a3565b6108e29060203d6020116108e7575b6108da8183610395565b81019061043a565b61088b565b503d6108d0565b604051903d90823e3d90fd5b807f8199f5f30000000000000000000000000000000000000000000000000000000060049252fd5b506020823d60201161094e575b8161093c60209383610395565b810103126100f15761084f9151610845565b3d915061092f565b6040513d85823e3d90fd5b61096e9192505f90610395565b5f906001600160a01b0361080e565b6040513d5f823e3d90fd5b90505116610610565b8861064185855116610610565b6006602160991b019161052c565b85610523565b9094506020813d6020116109de575b816109ce60209383610395565b810103126100f15751935f6104bb565b3d91506109c1565b7fc1ab6dc1000000000000000000000000000000000000000000000000000000005f5260045ffd5b7f3ed5bd98000000000000000000000000000000000000000000000000000000005f5260045ffd5b7f1f2a2005000000000000000000000000000000000000000000000000000000005f5260045ffd5b909193925f948315610a36576005610a7584610fe7565b0191825460ff8160a01c1660038110156100dd57600103610a0e576001600160a01b031680156109e6576040516370a0823160e01b8152336004820152602081602481855afa801561097d5787915f91610fb2575b5010610f8a574793602060405180937f23b872dd000000000000000000000000000000000000000000000000000000008252336004830152306024830152896044830152815f606482800301925af191821561097d575f92610f6d575b5060206001600160a01b0382541660446040518095819363a9059cbb60e01b835273198ef79f1f515f02dfe9e3115ed9fc07183f02fc60048401528c60248401525af191821561097d576001600160a01b0392610f50575b505416610cea6001600160a01b03807f7ac3a920b579a0b08c43b9e61f5a89fbb0532d6363affc3c4bf0a0f3f8f9ad9454166001600160801b03808a16961693806006602160991b011090811590825f14610f49576006602160991b01925b15610f3a57925b8460405193610bf385610365565b16835284602084019416845262800000604084015260c86060840152608083015260405197610c5389610c4560208201600390600360f91b8152600b60f81b6001820152600760f91b60028201520190565b03601f1981018b528a610395565b6105df610c98610c6161102c565b9960405190610c6f82610365565b8682528560208301528460408301528a606083015260808201526040519283916020830161108a565b610ca189611121565b52610cab88611121565b508115610f2e57610641858451166105df604051938492602084019092916001600160801b036020916001600160a01b03604085019616845216910152565b610cf382611152565b52610cfd81611152565b50604051916060610d0e8185610395565b60028452601f19015f5b818110610f1d575050610d37906105df604051938492602084016111ba565b610d4082611121565b52610d4a81611121565b506040513060208201525f604082015260408152610d69606082610395565b610d7282611142565b52610d7c81611142565b50604051600160fc1b60208201527f0c00000000000000000000000000000000000000000000000000000000000000602182015260028152610dbf602282610395565b61012c4201918242116104265773198ef79f1f515f02dfe9e3115ed9fc07183f02fc3b156100f1575f91610e076040519485938493630d64d59360e21b8552600485016111df565b03818373198ef79f1f515f02dfe9e3115ed9fc07183f02fc5af1801561097d57610f06575b50610e379047610419565b938080808088335af1903d15610f00573d90610e52826103b7565b91610e606040519384610395565b825260203d92013e5b15610ea2576040519182528360208301527fb3b5018d26b7b3764106321edeb54ab6d90aee3598f78eae1da7a2ce084e9aa960403393a3565b60646040517f08c379a000000000000000000000000000000000000000000000000000000000815260206004820152601360248201527f455448207472616e73666572206661696c6564000000000000000000000000006044820152fd5b50610e69565b610f139195505f90610395565b5f93610e37610e2c565b806060602080938801015201610d18565b61064185855116610610565b506006602160991b0192610be5565b8092610bde565b610f689060203d6020116108e7576108da8183610395565b610b7f565b610f859060203d6020116108e7576108da8183610395565b610b27565b7ff4d678b8000000000000000000000000000000000000000000000000000000005f5260045ffd5b9150506020813d602011610fdf575b81610fce60209383610395565b810103126100f1578690515f610aca565b3d9150610fc1565b60405160208101917fc61520f0fc87f37c054c240fb12fa829a873c4a7f3a227d3cdaf38f732a45b0d8352604082015260408152611026606082610395565b51902090565b6040516080919061103d8382610395565b6003815291601f1901825f5b82811061105557505050565b806060602080938501015201611049565b805180835260209291819084018484015e5f828201840152601f01601f1916010190565b610140608061111e93602084526001600160a01b0382825182815116602088015282602082015116604088015262ffffff6040820151166060880152606081015160020b8288015201511660a08501526020810151151560c08501526001600160801b0360408201511660e08501526001600160801b03606082015116610100850152015191610120808201520190611066565b90565b80511561112e5760200190565b634e487b7160e01b5f52603260045260245ffd5b80516001101561112e5760400190565b80516002101561112e5760600190565b9080602083519182815201916020808360051b8301019401925f915b83831061118d57505050505090565b90919293946020806111ab600193601f198682030187528951611066565b9701930193019193929061117e565b90916111d161111e93604084526040840190611066565b916020818403910152611162565b939291611208906111fa604093606088526060880190611066565b908682036020880152611162565b93015256fea2646970667358221220d8ca8036edfe92cd5c80514f5e088555ff018e984d18ba1bcceb3b320d23d43564736f6c634300081a0033","opcodes":"PUSH1 0x80 DUP1 PUSH1 0x40 MSTORE CALLVALUE PUSH1 0x15 JUMPI PUSH2 0x1243 SWAP1 DUP2 PUSH2 0x1A DUP3 CODECOPY RETURN JUMPDEST PUSH0 DUP1 REVERT INVALID PUSH1 0x80 PUSH1 0x40 MSTORE PUSH1 0x4 CALLDATASIZE LT ISZERO PUSH2 0x1A JUMPI JUMPDEST CALLDATASIZE ISZERO PUSH2 0x18 JUMPI PUSH0 DUP1 REVERT JUMPDEST STOP JUMPDEST PUSH0 CALLDATALOAD PUSH1 0xE0 SHR DUP1 PUSH4 0x277DD67 EQ PUSH2 0xF5 JUMPI DUP1 PUSH4 0x1E261726 EQ PUSH2 0x2F9 JUMPI DUP1 PUSH4 0x709EF231 EQ PUSH2 0x2C5 JUMPI DUP1 PUSH4 0x7975CE28 EQ PUSH2 0x2A1 JUMPI DUP1 PUSH4 0x87768C1B EQ PUSH2 0x255 JUMPI DUP1 PUSH4 0x89FDF0CA EQ PUSH2 0x1AE JUMPI DUP1 PUSH4 0xB67E681F EQ PUSH2 0xFA JUMPI DUP1 PUSH4 0xF998A865 EQ PUSH2 0xF5 JUMPI PUSH4 0xFD0F6DF4 SUB PUSH2 0xE JUMPI CALLVALUE PUSH2 0xF1 JUMPI PUSH1 0x20 CALLDATASIZE PUSH1 0x3 NOT ADD SLT PUSH2 0xF1 JUMPI PUSH1 0x5 PUSH2 0x9F PUSH1 0x4 CALLDATALOAD PUSH2 0xFE7 JUMP JUMPDEST ADD SLOAD PUSH1 0xFF DUP2 PUSH1 0xA0 SHR AND SWAP1 PUSH1 0x3 DUP3 LT ISZERO PUSH2 0xDD JUMPI PUSH1 0x1 PUSH1 0x20 SWAP3 EQ SWAP1 DUP2 PUSH2 0xCA JUMPI JUMPDEST POP PUSH1 0x40 MLOAD SWAP1 ISZERO ISZERO DUP2 MSTORE RETURN JUMPDEST PUSH1 0x1 PUSH1 0x1 PUSH1 0xA0 SHL SUB SWAP2 POP AND ISZERO ISZERO PUSH0 PUSH2 0xBF JUMP JUMPDEST PUSH4 0x4E487B71 PUSH1 0xE0 SHL PUSH0 MSTORE PUSH1 0x21 PUSH1 0x4 MSTORE PUSH1 0x24 PUSH0 REVERT JUMPDEST PUSH0 DUP1 REVERT JUMPDEST PUSH2 0x34B JUMP JUMPDEST CALLVALUE PUSH2 0xF1 JUMPI PUSH1 0x20 CALLDATASIZE PUSH1 0x3 NOT ADD SLT PUSH2 0xF1 JUMPI PUSH1 0xA0 PUSH1 0x1 PUSH1 0x1 PUSH1 0xA0 SHL SUB PUSH1 0x5 PUSH2 0x122 PUSH1 0x4 CALLDATALOAD PUSH2 0xFE7 JUMP JUMPDEST ADD SLOAD AND DUP1 PUSH1 0x6 PUSH1 0x21 PUSH1 0x99 SHL ADD LT SWAP1 DUP2 PUSH0 EQ PUSH2 0x1A7 JUMPI PUSH1 0x6 PUSH1 0x21 PUSH1 0x99 SHL ADD SWAP2 JUMPDEST ISZERO PUSH2 0x199 JUMPI JUMPDEST PUSH1 0x1 PUSH1 0x1 PUSH1 0xA0 SHL SUB DUP1 PUSH32 0x7AC3A920B579A0B08C43B9E61F5A89FBB0532D6363AFFC3C4BF0A0F3F8F9AD94 SLOAD AND SWAP2 DUP2 PUSH1 0x40 MLOAD SWAP5 AND DUP5 MSTORE AND PUSH1 0x20 DUP4 ADD MSTORE PUSH3 0x800000 PUSH1 0x40 DUP4 ADD MSTORE PUSH1 0xC8 PUSH1 0x60 DUP4 ADD MSTORE PUSH1 0x80 DUP3 ADD MSTORE RETURN JUMPDEST POP PUSH1 0x6 PUSH1 0x21 PUSH1 0x99 SHL ADD PUSH2 0x147 JUMP JUMPDEST DUP1 SWAP2 PUSH2 0x141 JUMP JUMPDEST CALLVALUE PUSH2 0xF1 JUMPI PUSH1 0x40 CALLDATASIZE PUSH1 0x3 NOT ADD SLT PUSH2 0xF1 JUMPI PUSH1 0x4 CALLDATALOAD PUSH1 0x24 CALLDATALOAD PUSH1 0x1 PUSH1 0x1 PUSH1 0xA0 SHL SUB DUP2 AND DUP1 SWAP2 SUB PUSH2 0xF1 JUMPI DUP2 PUSH2 0x215 SWAP2 PUSH1 0x5 PUSH2 0x1E7 DUP2 SWAP6 PUSH2 0xFE7 JUMP JUMPDEST ADD SWAP1 PUSH32 0xFFFFFFFFFFFFFFFFFFFFFFFF0000000000000000000000000000000000000000 DUP3 SLOAD AND OR SWAP1 SSTORE PUSH2 0xFE7 JUMP JUMPDEST ADD DUP1 SLOAD PUSH32 0xFFFFFFFFFFFFFFFFFFFFFF00FFFFFFFFFFFFFFFFFFFFFFFFFFFFFFFFFFFFFFFF AND PUSH21 0x10000000000000000000000000000000000000000 OR SWAP1 SSTORE STOP JUMPDEST CALLVALUE PUSH2 0xF1 JUMPI PUSH1 0x80 CALLDATASIZE PUSH1 0x3 NOT ADD SLT PUSH2 0xF1 JUMPI PUSH1 0x64 CALLDATALOAD PUSH8 0xFFFFFFFFFFFFFFFF DUP2 GT PUSH2 0xF1 JUMPI PUSH2 0x299 PUSH2 0x28B PUSH1 0x20 SWAP3 CALLDATASIZE SWAP1 PUSH1 0x4 ADD PUSH2 0x3D3 JUMP JUMPDEST PUSH1 0x44 CALLDATALOAD PUSH1 0x24 CALLDATALOAD PUSH1 0x4 CALLDATALOAD PUSH2 0xA5E JUMP JUMPDEST PUSH1 0x40 MLOAD SWAP1 DUP2 MSTORE RETURN JUMPDEST PUSH1 0x20 PUSH2 0x299 PUSH2 0x2AF CALLDATASIZE PUSH2 0x335 JUMP JUMPDEST PUSH1 0x40 MLOAD SWAP2 PUSH2 0x2BD DUP6 DUP5 PUSH2 0x395 JUMP JUMPDEST PUSH0 DUP4 MSTORE PUSH2 0x452 JUMP JUMPDEST CALLVALUE PUSH2 0xF1 JUMPI PUSH1 0x60 CALLDATASIZE PUSH1 0x3 NOT ADD SLT PUSH2 0xF1 JUMPI PUSH1 0x20 PUSH2 0x299 PUSH1 0x40 MLOAD PUSH2 0x2E8 DUP4 DUP3 PUSH2 0x395 JUMP JUMPDEST PUSH0 DUP2 MSTORE PUSH1 0x44 CALLDATALOAD PUSH1 0x24 CALLDATALOAD PUSH1 0x4 CALLDATALOAD PUSH2 0xA5E JUMP JUMPDEST PUSH1 0x60 CALLDATASIZE PUSH1 0x3 NOT ADD SLT PUSH2 0xF1 JUMPI PUSH1 0x44 CALLDATALOAD PUSH8 0xFFFFFFFFFFFFFFFF DUP2 GT PUSH2 0xF1 JUMPI PUSH2 0x299 PUSH2 0x32A PUSH1 0x20 SWAP3 CALLDATASIZE SWAP1 PUSH1 0x4 ADD PUSH2 0x3D3 JUMP JUMPDEST PUSH1 0x24 CALLDATALOAD PUSH1 0x4 CALLDATALOAD PUSH2 0x452 JUMP JUMPDEST PUSH1 0x40 SWAP1 PUSH1 0x3 NOT ADD SLT PUSH2 0xF1 JUMPI PUSH1 0x4 CALLDATALOAD SWAP1 PUSH1 0x24 CALLDATALOAD SWAP1 JUMP JUMPDEST CALLVALUE PUSH2 0xF1 JUMPI PUSH2 0x359 CALLDATASIZE PUSH2 0x335 JUMP JUMPDEST POP POP PUSH1 0x20 PUSH1 0x40 MLOAD PUSH0 DUP2 MSTORE RETURN JUMPDEST PUSH1 0xA0 DUP2 ADD SWAP1 DUP2 LT PUSH8 0xFFFFFFFFFFFFFFFF DUP3 GT OR PUSH2 0x381 JUMPI PUSH1 0x40 MSTORE JUMP JUMPDEST PUSH4 0x4E487B71 PUSH1 0xE0 SHL PUSH0 MSTORE PUSH1 0x41 PUSH1 0x4 MSTORE PUSH1 0x24 PUSH0 REVERT JUMPDEST SWAP1 PUSH1 0x1F DUP1 NOT SWAP2 ADD AND DUP2 ADD SWAP1 DUP2 LT PUSH8 0xFFFFFFFFFFFFFFFF DUP3 GT OR PUSH2 0x381 JUMPI PUSH1 0x40 MSTORE JUMP JUMPDEST PUSH8 0xFFFFFFFFFFFFFFFF DUP2 GT PUSH2 0x381 JUMPI PUSH1 0x1F ADD PUSH1 0x1F NOT AND PUSH1 0x20 ADD SWAP1 JUMP JUMPDEST DUP2 PUSH1 0x1F DUP3 ADD SLT ISZERO PUSH2 0xF1 JUMPI DUP1 CALLDATALOAD SWAP1 PUSH2 0x3EA DUP3 PUSH2 0x3B7 JUMP JUMPDEST SWAP3 PUSH2 0x3F8 PUSH1 0x40 MLOAD SWAP5 DUP6 PUSH2 0x395 JUMP JUMPDEST DUP3 DUP5 MSTORE PUSH1 0x20 DUP4 DUP4 ADD ADD GT PUSH2 0xF1 JUMPI DUP2 PUSH0 SWAP3 PUSH1 0x20 DUP1 SWAP4 ADD DUP4 DUP7 ADD CALLDATACOPY DUP4 ADD ADD MSTORE SWAP1 JUMP JUMPDEST SWAP2 SWAP1 DUP3 SUB SWAP2 DUP3 GT PUSH2 0x426 JUMPI JUMP JUMPDEST PUSH4 0x4E487B71 PUSH1 0xE0 SHL PUSH0 MSTORE PUSH1 0x11 PUSH1 0x4 MSTORE PUSH1 0x24 PUSH0 REVERT JUMPDEST SWAP1 DUP2 PUSH1 0x20 SWAP2 SUB SLT PUSH2 0xF1 JUMPI MLOAD DUP1 ISZERO ISZERO DUP2 SUB PUSH2 0xF1 JUMPI SWAP1 JUMP JUMPDEST SWAP1 SWAP3 SWAP2 PUSH0 CALLVALUE ISZERO PUSH2 0xA36 JUMPI PUSH1 0x5 PUSH2 0x467 DUP5 PUSH2 0xFE7 JUMP JUMPDEST ADD DUP1 SLOAD PUSH1 0xFF DUP2 PUSH1 0xA0 SHR AND PUSH1 0x3 DUP2 LT ISZERO PUSH2 0xDD JUMPI PUSH1 0x1 SUB PUSH2 0xA0E JUMPI PUSH1 0x1 PUSH1 0x1 PUSH1 0xA0 SHL SUB AND DUP1 ISZERO PUSH2 0x9E6 JUMPI PUSH1 0x40 MLOAD SWAP4 PUSH4 0x70A08231 PUSH1 0xE0 SHL DUP6 MSTORE ADDRESS PUSH1 0x4 DUP7 ADD MSTORE PUSH1 0x20 DUP6 PUSH1 0x24 DUP2 DUP6 GAS STATICCALL SWAP5 DUP6 ISZERO PUSH2 0x97D JUMPI PUSH0 SWAP6 PUSH2 0x9B2 JUMPI JUMPDEST POP PUSH1 0x1 PUSH1 0x1 PUSH1 0xA0 SHL SUB PUSH32 0x7AC3A920B579A0B08C43B9E61F5A89FBB0532D6363AFFC3C4BF0A0F3F8F9AD94 SLOAD AND SWAP2 PUSH1 0x1 PUSH1 0x1 PUSH1 0x80 SHL SUB CALLVALUE AND SWAP2 PUSH1 0x1 PUSH1 0x1 PUSH1 0x80 SHL SUB DUP11 AND PUSH2 0x68E PUSH1 0x1 PUSH1 0x1 PUSH1 0xA0 SHL SUB DUP5 PUSH1 0x6 PUSH1 0x21 PUSH1 0x99 SHL ADD LT SWAP7 DUP8 PUSH0 EQ PUSH2 0x9AC JUMPI PUSH1 0x6 PUSH1 0x21 PUSH1 0x99 SHL ADD JUMPDEST DUP9 ISZERO PUSH2 0x99E JUMPI DUP7 SWAP2 JUMPDEST DUP4 PUSH1 0x40 MLOAD SWAP3 PUSH2 0x53A DUP5 PUSH2 0x365 JUMP JUMPDEST AND DUP3 MSTORE DUP4 PUSH1 0x20 DUP4 ADD SWAP4 AND DUP4 MSTORE PUSH3 0x800000 PUSH1 0x40 DUP4 ADD MSTORE PUSH1 0xC8 PUSH1 0x60 DUP4 ADD MSTORE PUSH1 0x80 DUP3 ADD MSTORE PUSH1 0x40 MLOAD SWAP9 PUSH2 0x59A DUP11 PUSH2 0x58C PUSH1 0x20 DUP3 ADD PUSH1 0x3 SWAP1 PUSH1 0x3 PUSH1 0xF9 SHL DUP2 MSTORE PUSH1 0xB PUSH1 0xF8 SHL PUSH1 0x1 DUP3 ADD MSTORE PUSH1 0x7 PUSH1 0xF9 SHL PUSH1 0x2 DUP3 ADD MSTORE ADD SWAP1 JUMP JUMPDEST SUB PUSH1 0x1F NOT DUP2 ADD DUP13 MSTORE DUP12 PUSH2 0x395 JUMP JUMPDEST PUSH2 0x5DF PUSH2 0x5ED PUSH2 0x5A8 PUSH2 0x102C JUMP JUMPDEST SWAP9 PUSH1 0x40 MLOAD SWAP1 PUSH2 0x5B6 DUP3 PUSH2 0x365 JUMP JUMPDEST DUP6 DUP3 MSTORE DUP5 PUSH1 0x20 DUP4 ADD MSTORE DUP13 PUSH1 0x40 DUP4 ADD MSTORE DUP10 PUSH1 0x60 DUP4 ADD MSTORE PUSH1 0x80 DUP3 ADD MSTORE PUSH1 0x40 MLOAD SWAP3 DUP4 SWAP2 PUSH1 0x20 DUP4 ADD PUSH2 0x108A JUMP JUMPDEST SUB PUSH1 0x1F NOT DUP2 ADD DUP4 MSTORE DUP3 PUSH2 0x395 JUMP JUMPDEST PUSH2 0x5F6 DUP9 PUSH2 0x1121 JUMP JUMPDEST MSTORE PUSH2 0x600 DUP8 PUSH2 0x1121 JUMP JUMPDEST POP DUP1 ISZERO PUSH2 0x991 JUMPI DUP9 PUSH2 0x641 DUP6 DUP5 MLOAD AND JUMPDEST PUSH2 0x5DF PUSH1 0x40 MLOAD SWAP4 DUP5 SWAP3 PUSH1 0x20 DUP5 ADD SWAP1 SWAP3 SWAP2 PUSH1 0x1 PUSH1 0x1 PUSH1 0x80 SHL SUB PUSH1 0x20 SWAP2 PUSH1 0x1 PUSH1 0x1 PUSH1 0xA0 SHL SUB PUSH1 0x40 DUP6 ADD SWAP7 AND DUP5 MSTORE AND SWAP2 ADD MSTORE JUMP JUMPDEST PUSH2 0x64A DUP9 PUSH2 0x1142 JUMP JUMPDEST MSTORE PUSH2 0x654 DUP8 PUSH2 0x1142 JUMP JUMPDEST POP ISZERO PUSH2 0x988 JUMPI POP MLOAD AND PUSH2 0x5DF PUSH1 0x40 MLOAD SWAP4 DUP5 SWAP3 PUSH1 0x20 DUP5 ADD SWAP1 SWAP3 SWAP2 PUSH1 0x1 PUSH1 0x1 PUSH1 0x80 SHL SUB PUSH1 0x20 SWAP2 PUSH1 0x1 PUSH1 0x1 PUSH1 0xA0 SHL SUB PUSH1 0x40 DUP6 ADD SWAP7 AND DUP5 MSTORE AND SWAP2 ADD MSTORE JUMP JUMPDEST PUSH2 0x697 DUP3 PUSH2 0x1152 JUMP JUMPDEST MSTORE PUSH2 0x6A1 DUP2 PUSH2 0x1152 JUMP JUMPDEST POP PUSH2 0x706 PUSH2 0x6AD PUSH2 0x102C JUMP JUMPDEST SWAP5 PUSH1 0x40 MLOAD PUSH20 0x198EF79F1F515F02DFE9E3115ED9FC07183F02FC PUSH1 0x20 DUP3 ADD MSTORE DUP6 PUSH1 0x40 DUP3 ADD MSTORE PUSH1 0x40 DUP2 MSTORE PUSH2 0x6E0 PUSH1 0x60 DUP3 PUSH2 0x395 JUMP JUMPDEST PUSH2 0x6E9 DUP8 PUSH2 0x1121 JUMP JUMPDEST MSTORE PUSH2 0x6F3 DUP7 PUSH2 0x1121 JUMP JUMPDEST POP PUSH2 0x5DF PUSH1 0x40 MLOAD SWAP4 DUP5 SWAP3 PUSH1 0x20 DUP5 ADD PUSH2 0x11BA JUMP JUMPDEST PUSH2 0x70F DUP5 PUSH2 0x1142 JUMP JUMPDEST MSTORE PUSH2 0x719 DUP4 PUSH2 0x1142 JUMP JUMPDEST POP PUSH1 0x40 MLOAD SWAP1 PUSH1 0x20 DUP3 ADD MSTORE ADDRESS PUSH1 0x40 DUP3 ADD MSTORE PUSH0 PUSH1 0x60 DUP3 ADD MSTORE PUSH1 0x60 DUP2 MSTORE PUSH2 0x73E PUSH1 0x80 DUP3 PUSH2 0x395 JUMP JUMPDEST PUSH2 0x747 DUP4 PUSH2 0x1152 JUMP JUMPDEST MSTORE PUSH2 0x751 DUP3 PUSH2 0x1152 JUMP JUMPDEST POP PUSH1 0x40 MLOAD PUSH1 0xB PUSH1 0xF8 SHL PUSH1 0x20 DUP3 ADD MSTORE PUSH1 0x1 PUSH1 0xFC SHL PUSH1 0x21 DUP3 ADD MSTORE PUSH32 0x400000000000000000000000000000000000000000000000000000000000000 PUSH1 0x22 DUP3 ADD MSTORE PUSH1 0x3 DUP2 MSTORE SWAP1 PUSH2 0x79F PUSH1 0x23 DUP4 PUSH2 0x395 JUMP JUMPDEST PUSH2 0x12C TIMESTAMP ADD SWAP1 DUP2 TIMESTAMP GT PUSH2 0x426 JUMPI PUSH20 0x198EF79F1F515F02DFE9E3115ED9FC07183F02FC EXTCODESIZE ISZERO PUSH2 0xF1 JUMPI PUSH2 0x7EA SWAP4 PUSH0 SWAP4 PUSH1 0x40 MLOAD SWAP6 DUP7 SWAP5 DUP6 SWAP4 DUP5 SWAP4 PUSH4 0xD64D593 PUSH1 0xE2 SHL DUP6 MSTORE PUSH1 0x4 DUP6 ADD PUSH2 0x11DF JUMP JUMPDEST SUB SWAP2 PUSH20 0x198EF79F1F515F02DFE9E3115ED9FC07183F02FC GAS CALL DUP1 ISZERO PUSH2 0x97D JUMPI PUSH2 0x961 JUMPI JUMPDEST POP PUSH1 0x1 PUSH1 0x1 PUSH1 0xA0 SHL SUB SWAP1 SLOAD AND SWAP2 PUSH1 0x40 MLOAD SWAP1 PUSH4 0x70A08231 PUSH1 0xE0 SHL DUP3 MSTORE ADDRESS PUSH1 0x4 DUP4 ADD MSTORE PUSH1 0x20 DUP3 PUSH1 0x24 DUP2 DUP8 GAS STATICCALL DUP1 ISZERO PUSH2 0x956 JUMPI DUP4 SWAP1 PUSH2 0x922 JUMPI JUMPDEST PUSH2 0x84F SWAP3 POP PUSH2 0x419 JUMP JUMPDEST SWAP5 DUP6 LT PUSH2 0x8FA JUMPI PUSH1 0x20 PUSH1 0x40 MLOAD DUP1 SWAP4 PUSH4 0xA9059CBB PUSH1 0xE0 SHL DUP3 MSTORE CALLER PUSH1 0x4 DUP4 ADD MSTORE DUP8 PUSH1 0x24 DUP4 ADD MSTORE DUP2 DUP5 PUSH1 0x44 DUP3 DUP1 SUB ADD SWAP3 GAS CALL SWAP1 DUP2 ISZERO PUSH2 0x8EE JUMPI POP PUSH2 0x8C1 JUMPI JUMPDEST POP PUSH1 0x40 MLOAD SWAP1 CALLVALUE DUP3 MSTORE DUP4 PUSH1 0x20 DUP4 ADD MSTORE PUSH32 0x28B5CC865E0C80DCC60884C13514FE4A294F9A622431FD1059B6078AF9DBCE07 PUSH1 0x40 CALLER SWAP4 LOG3 JUMP JUMPDEST PUSH2 0x8E2 SWAP1 PUSH1 0x20 RETURNDATASIZE PUSH1 0x20 GT PUSH2 0x8E7 JUMPI JUMPDEST PUSH2 0x8DA DUP2 DUP4 PUSH2 0x395 JUMP JUMPDEST DUP2 ADD SWAP1 PUSH2 0x43A JUMP JUMPDEST PUSH2 0x88B JUMP JUMPDEST POP RETURNDATASIZE PUSH2 0x8D0 JUMP JUMPDEST PUSH1 0x40 MLOAD SWAP1 RETURNDATASIZE SWAP1 DUP3 RETURNDATACOPY RETURNDATASIZE SWAP1 REVERT JUMPDEST DUP1 PUSH32 0x8199F5F300000000000000000000000000000000000000000000000000000000 PUSH1 0x4 SWAP3 MSTORE REVERT JUMPDEST POP PUSH1 0x20 DUP3 RETURNDATASIZE PUSH1 0x20 GT PUSH2 0x94E JUMPI JUMPDEST DUP2 PUSH2 0x93C PUSH1 0x20 SWAP4 DUP4 PUSH2 0x395 JUMP JUMPDEST DUP2 ADD SUB SLT PUSH2 0xF1 JUMPI PUSH2 0x84F SWAP2 MLOAD PUSH2 0x845 JUMP JUMPDEST RETURNDATASIZE SWAP2 POP PUSH2 0x92F JUMP JUMPDEST PUSH1 0x40 MLOAD RETURNDATASIZE DUP6 DUP3 RETURNDATACOPY RETURNDATASIZE SWAP1 REVERT JUMPDEST PUSH2 0x96E SWAP2 SWAP3 POP PUSH0 SWAP1 PUSH2 0x395 JUMP JUMPDEST PUSH0 SWAP1 PUSH1 0x1 PUSH1 0x1 PUSH1 0xA0 SHL SUB PUSH2 0x80E JUMP JUMPDEST PUSH1 0x40 MLOAD RETURNDATASIZE PUSH0 DUP3 RETURNDATACOPY RETURNDATASIZE SWAP1 REVERT JUMPDEST SWAP1 POP MLOAD AND PUSH2 0x610 JUMP JUMPDEST DUP9 PUSH2 0x641 DUP6 DUP6 MLOAD AND PUSH2 0x610 JUMP JUMPDEST PUSH1 0x6 PUSH1 0x21 PUSH1 0x99 SHL ADD SWAP2 PUSH2 0x52C JUMP JUMPDEST DUP6 PUSH2 0x523 JUMP JUMPDEST SWAP1 SWAP5 POP PUSH1 0x20 DUP2 RETURNDATASIZE PUSH1 0x20 GT PUSH2 0x9DE JUMPI JUMPDEST DUP2 PUSH2 0x9CE PUSH1 0x20 SWAP4 DUP4 PUSH2 0x395 JUMP JUMPDEST DUP2 ADD SUB SLT PUSH2 0xF1 JUMPI MLOAD SWAP4 PUSH0 PUSH2 0x4BB JUMP JUMPDEST RETURNDATASIZE SWAP2 POP PUSH2 0x9C1 JUMP JUMPDEST PUSH32 0xC1AB6DC100000000000000000000000000000000000000000000000000000000 PUSH0 MSTORE PUSH1 0x4 PUSH0 REVERT JUMPDEST PUSH32 0x3ED5BD9800000000000000000000000000000000000000000000000000000000 PUSH0 MSTORE PUSH1 0x4 PUSH0 REVERT JUMPDEST PUSH32 0x1F2A200500000000000000000000000000000000000000000000000000000000 PUSH0 MSTORE PUSH1 0x4 PUSH0 REVERT JUMPDEST SWAP1 SWAP2 SWAP4 SWAP3 PUSH0 SWAP5 DUP4 ISZERO PUSH2 0xA36 JUMPI PUSH1 0x5 PUSH2 0xA75 DUP5 PUSH2 0xFE7 JUMP JUMPDEST ADD SWAP2 DUP3 SLOAD PUSH1 0xFF DUP2 PUSH1 0xA0 SHR AND PUSH1 0x3 DUP2 LT ISZERO PUSH2 0xDD JUMPI PUSH1 0x1 SUB PUSH2 0xA0E JUMPI PUSH1 0x1 PUSH1 0x1 PUSH1 0xA0 SHL SUB AND DUP1 ISZERO PUSH2 0x9E6 JUMPI PUSH1 0x40 MLOAD PUSH4 0x70A08231 PUSH1 0xE0 SHL DUP2 MSTORE CALLER PUSH1 0x4 DUP3 ADD MSTORE PUSH1 0x20 DUP2 PUSH1 0x24 DUP2 DUP6 GAS STATICCALL DUP1 ISZERO PUSH2 0x97D JUMPI DUP8 SWAP2 PUSH0 SWAP2 PUSH2 0xFB2 JUMPI JUMPDEST POP LT PUSH2 0xF8A JUMPI SELFBALANCE SWAP4 PUSH1 0x20 PUSH1 0x40 MLOAD DUP1 SWAP4 PUSH32 0x23B872DD00000000000000000000000000000000000000000000000000000000 DUP3 MSTORE CALLER PUSH1 0x4 DUP4 ADD MSTORE ADDRESS PUSH1 0x24 DUP4 ADD MSTORE DUP10 PUSH1 0x44 DUP4 ADD MSTORE DUP2 PUSH0 PUSH1 0x64 DUP3 DUP1 SUB ADD SWAP3 GAS CALL SWAP2 DUP3 ISZERO PUSH2 0x97D JUMPI PUSH0 SWAP3 PUSH2 0xF6D JUMPI JUMPDEST POP PUSH1 0x20 PUSH1 0x1 PUSH1 0x1 PUSH1 0xA0 SHL SUB DUP3 SLOAD AND PUSH1 0x44 PUSH1 0x40 MLOAD DUP1 SWAP6 DUP2 SWAP4 PUSH4 0xA9059CBB PUSH1 0xE0 SHL DUP4 MSTORE PUSH20 0x198EF79F1F515F02DFE9E3115ED9FC07183F02FC PUSH1 0x4 DUP5 ADD MSTORE DUP13 PUSH1 0x24 DUP5 ADD MSTORE GAS CALL SWAP2 DUP3 ISZERO PUSH2 0x97D JUMPI PUSH1 0x1 PUSH1 0x1 PUSH1 0xA0 SHL SUB SWAP3 PUSH2 0xF50 JUMPI JUMPDEST POP SLOAD AND PUSH2 0xCEA PUSH1 0x1 PUSH1 0x1 PUSH1 0xA0 SHL SUB DUP1 PUSH32 0x7AC3A920B579A0B08C43B9E61F5A89FBB0532D6363AFFC3C4BF0A0F3F8F9AD94 SLOAD AND PUSH1 0x1 PUSH1 0x1 PUSH1 0x80 SHL SUB DUP1 DUP11 AND SWAP7 AND SWAP4 DUP1 PUSH1 0x6 PUSH1 0x21 PUSH1 0x99 SHL ADD LT SWAP1 DUP2 ISZERO SWAP1 DUP3 PUSH0 EQ PUSH2 0xF49 JUMPI PUSH1 0x6 PUSH1 0x21 PUSH1 0x99 SHL ADD SWAP3 JUMPDEST ISZERO PUSH2 0xF3A JUMPI SWAP3 JUMPDEST DUP5 PUSH1 0x40 MLOAD SWAP4 PUSH2 0xBF3 DUP6 PUSH2 0x365 JUMP JUMPDEST AND DUP4 MSTORE DUP5 PUSH1 0x20 DUP5 ADD SWAP5 AND DUP5 MSTORE PUSH3 0x800000 PUSH1 0x40 DUP5 ADD MSTORE PUSH1 0xC8 PUSH1 0x60 DUP5 ADD MSTORE PUSH1 0x80 DUP4 ADD MSTORE PUSH1 0x40 MLOAD SWAP8 PUSH2 0xC53 DUP10 PUSH2 0xC45 PUSH1 0x20 DUP3 ADD PUSH1 0x3 SWAP1 PUSH1 0x3 PUSH1 0xF9 SHL DUP2 MSTORE PUSH1 0xB PUSH1 0xF8 SHL PUSH1 0x1 DUP3 ADD MSTORE PUSH1 0x7 PUSH1 0xF9 SHL PUSH1 0x2 DUP3 ADD MSTORE ADD SWAP1 JUMP JUMPDEST SUB PUSH1 0x1F NOT DUP2 ADD DUP12 MSTORE DUP11 PUSH2 0x395 JUMP JUMPDEST PUSH2 0x5DF PUSH2 0xC98 PUSH2 0xC61 PUSH2 0x102C JUMP JUMPDEST SWAP10 PUSH1 0x40 MLOAD SWAP1 PUSH2 0xC6F DUP3 PUSH2 0x365 JUMP JUMPDEST DUP7 DUP3 MSTORE DUP6 PUSH1 0x20 DUP4 ADD MSTORE DUP5 PUSH1 0x40 DUP4 ADD MSTORE DUP11 PUSH1 0x60 DUP4 ADD MSTORE PUSH1 0x80 DUP3 ADD MSTORE PUSH1 0x40 MLOAD SWAP3 DUP4 SWAP2 PUSH1 0x20 DUP4 ADD PUSH2 0x108A JUMP JUMPDEST PUSH2 0xCA1 DUP10 PUSH2 0x1121 JUMP JUMPDEST MSTORE PUSH2 0xCAB DUP9 PUSH2 0x1121 JUMP JUMPDEST POP DUP2 ISZERO PUSH2 0xF2E JUMPI PUSH2 0x641 DUP6 DUP5 MLOAD AND PUSH2 0x5DF PUSH1 0x40 MLOAD SWAP4 DUP5 SWAP3 PUSH1 0x20 DUP5 ADD SWAP1 SWAP3 SWAP2 PUSH1 0x1 PUSH1 0x1 PUSH1 0x80 SHL SUB PUSH1 0x20 SWAP2 PUSH1 0x1 PUSH1 0x1 PUSH1 0xA0 SHL SUB PUSH1 0x40 DUP6 ADD SWAP7 AND DUP5 MSTORE AND SWAP2 ADD MSTORE JUMP JUMPDEST PUSH2 0xCF3 DUP3 PUSH2 0x1152 JUMP JUMPDEST MSTORE PUSH2 0xCFD DUP2 PUSH2 0x1152 JUMP JUMPDEST POP PUSH1 0x40 MLOAD SWAP2 PUSH1 0x60 PUSH2 0xD0E DUP2 DUP6 PUSH2 0x395 JUMP JUMPDEST PUSH1 0x2 DUP5 MSTORE PUSH1 0x1F NOT ADD PUSH0 JUMPDEST DUP2 DUP2 LT PUSH2 0xF1D JUMPI POP POP PUSH2 0xD37 SWAP1 PUSH2 0x5DF PUSH1 0x40 MLOAD SWAP4 DUP5 SWAP3 PUSH1 0x20 DUP5 ADD PUSH2 0x11BA JUMP JUMPDEST PUSH2 0xD40 DUP3 PUSH2 0x1121 JUMP JUMPDEST MSTORE PUSH2 0xD4A DUP2 PUSH2 0x1121 JUMP JUMPDEST POP PUSH1 0x40 MLOAD ADDRESS PUSH1 0x20 DUP3 ADD MSTORE PUSH0 PUSH1 0x40 DUP3 ADD MSTORE PUSH1 0x40 DUP2 MSTORE PUSH2 0xD69 PUSH1 0x60 DUP3 PUSH2 0x395 JUMP JUMPDEST PUSH2 0xD72 DUP3 PUSH2 0x1142 JUMP JUMPDEST MSTORE PUSH2 0xD7C DUP2 PUSH2 0x1142 JUMP JUMPDEST POP PUSH1 0x40 MLOAD PUSH1 0x1 PUSH1 0xFC SHL PUSH1 0x20 DUP3 ADD MSTORE PUSH32 0xC00000000000000000000000000000000000000000000000000000000000000 PUSH1 0x21 DUP3 ADD MSTORE PUSH1 0x2 DUP2 MSTORE PUSH2 0xDBF PUSH1 0x22 DUP3 PUSH2 0x395 JUMP JUMPDEST PUSH2 0x12C TIMESTAMP ADD SWAP2 DUP3 TIMESTAMP GT PUSH2 0x426 JUMPI PUSH20 0x198EF79F1F515F02DFE9E3115ED9FC07183F02FC EXTCODESIZE ISZERO PUSH2 0xF1 JUMPI PUSH0 SWAP2 PUSH2 0xE07 PUSH1 0x40 MLOAD SWAP5 DUP6 SWAP4 DUP5 SWAP4 PUSH4 0xD64D593 PUSH1 0xE2 SHL DUP6 MSTORE PUSH1 0x4 DUP6 ADD PUSH2 0x11DF JUMP JUMPDEST SUB DUP2 DUP4 PUSH20 0x198EF79F1F515F02DFE9E3115ED9FC07183F02FC GAS CALL DUP1 ISZERO PUSH2 0x97D JUMPI PUSH2 0xF06 JUMPI JUMPDEST POP PUSH2 0xE37 SWAP1 SELFBALANCE PUSH2 0x419 JUMP JUMPDEST SWAP4 DUP1 DUP1 DUP1 DUP1 DUP9 CALLER GAS CALL SWAP1 RETURNDATASIZE ISZERO PUSH2 0xF00 JUMPI RETURNDATASIZE SWAP1 PUSH2 0xE52 DUP3 PUSH2 0x3B7 JUMP JUMPDEST SWAP2 PUSH2 0xE60 PUSH1 0x40 MLOAD SWAP4 DUP5 PUSH2 0x395 JUMP JUMPDEST DUP3 MSTORE PUSH1 0x20 RETURNDATASIZE SWAP3 ADD RETURNDATACOPY JUMPDEST ISZERO PUSH2 0xEA2 JUMPI PUSH1 0x40 MLOAD SWAP2 DUP3 MSTORE DUP4 PUSH1 0x20 DUP4 ADD MSTORE PUSH32 0xB3B5018D26B7B3764106321EDEB54AB6D90AEE3598F78EAE1DA7A2CE084E9AA9 PUSH1 0x40 CALLER SWAP4 LOG3 JUMP JUMPDEST PUSH1 0x64 PUSH1 0x40 MLOAD PUSH32 0x8C379A000000000000000000000000000000000000000000000000000000000 DUP2 MSTORE PUSH1 0x20 PUSH1 0x4 DUP3 ADD MSTORE PUSH1 0x13 PUSH1 0x24 DUP3 ADD MSTORE PUSH32 0x455448207472616E73666572206661696C656400000000000000000000000000 PUSH1 0x44 DUP3 ADD MSTORE REVERT JUMPDEST POP PUSH2 0xE69 JUMP JUMPDEST PUSH2 0xF13 SWAP2 SWAP6 POP PUSH0 SWAP1 PUSH2 0x395 JUMP JUMPDEST PUSH0 SWAP4 PUSH2 0xE37 PUSH2 0xE2C JUMP JUMPDEST DUP1 PUSH1 0x60 PUSH1 0x20 DUP1 SWAP4 DUP9 ADD ADD MSTORE ADD PUSH2 0xD18 JUMP JUMPDEST PUSH2 0x641 DUP6 DUP6 MLOAD AND PUSH2 0x610 JUMP JUMPDEST POP PUSH1 0x6 PUSH1 0x21 PUSH1 0x99 SHL ADD SWAP3 PUSH2 0xBE5 JUMP JUMPDEST DUP1 SWAP3 PUSH2 0xBDE JUMP JUMPDEST PUSH2 0xF68 SWAP1 PUSH1 0x20 RETURNDATASIZE PUSH1 0x20 GT PUSH2 0x8E7 JUMPI PUSH2 0x8DA DUP2 DUP4 PUSH2 0x395 JUMP JUMPDEST PUSH2 0xB7F JUMP JUMPDEST PUSH2 0xF85 SWAP1 PUSH1 0x20 RETURNDATASIZE PUSH1 0x20 GT PUSH2 0x8E7 JUMPI PUSH2 0x8DA DUP2 DUP4 PUSH2 0x395 JUMP JUMPDEST PUSH2 0xB27 JUMP JUMPDEST PUSH32 0xF4D678B800000000000000000000000000000000000000000000000000000000 PUSH0 MSTORE PUSH1 0x4 PUSH0 REVERT JUMPDEST SWAP2 POP POP PUSH1 0x20 DUP2 RETURNDATASIZE PUSH1 0x20 GT PUSH2 0xFDF JUMPI JUMPDEST DUP2 PUSH2 0xFCE PUSH1 0x20 SWAP4 DUP4 PUSH2 0x395 JUMP JUMPDEST DUP2 ADD SUB SLT PUSH2 0xF1 JUMPI DUP7 SWAP1 MLOAD PUSH0 PUSH2 0xACA JUMP JUMPDEST RETURNDATASIZE SWAP2 POP PUSH2 0xFC1 JUMP JUMPDEST PUSH1 0x40 MLOAD PUSH1 0x20 DUP2 ADD SWAP2 PUSH32 0xC61520F0FC87F37C054C240FB12FA829A873C4A7F3A227D3CDAF38F732A45B0D DUP4 MSTORE PUSH1 0x40 DUP3 ADD MSTORE PUSH1 0x40 DUP2 MSTORE PUSH2 0x1026 PUSH1 0x60 DUP3 PUSH2 0x395 JUMP JUMPDEST MLOAD SWAP1 KECCAK256 SWAP1 JUMP JUMPDEST PUSH1 0x40 MLOAD PUSH1 0x80 SWAP2 SWAP1 PUSH2 0x103D DUP4 DUP3 PUSH2 0x395 JUMP JUMPDEST PUSH1 0x3 DUP2 MSTORE SWAP2 PUSH1 0x1F NOT ADD DUP3 PUSH0 JUMPDEST DUP3 DUP2 LT PUSH2 0x1055 JUMPI POP POP POP JUMP JUMPDEST DUP1 PUSH1 0x60 PUSH1 0x20 DUP1 SWAP4 DUP6 ADD ADD MSTORE ADD PUSH2 0x1049 JUMP JUMPDEST DUP1 MLOAD DUP1 DUP4 MSTORE PUSH1 0x20 SWAP3 SWAP2 DUP2 SWAP1 DUP5 ADD DUP5 DUP5 ADD MCOPY PUSH0 DUP3 DUP3 ADD DUP5 ADD MSTORE PUSH1 0x1F ADD PUSH1 0x1F NOT AND ADD ADD SWAP1 JUMP JUMPDEST PUSH2 0x140 PUSH1 0x80 PUSH2 0x111E SWAP4 PUSH1 0x20 DUP5 MSTORE PUSH1 0x1 PUSH1 0x1 PUSH1 0xA0 SHL SUB DUP3 DUP3 MLOAD DUP3 DUP2 MLOAD AND PUSH1 0x20 DUP9 ADD MSTORE DUP3 PUSH1 0x20 DUP3 ADD MLOAD AND PUSH1 0x40 DUP9 ADD MSTORE PUSH3 0xFFFFFF PUSH1 0x40 DUP3 ADD MLOAD AND PUSH1 0x60 DUP9 ADD MSTORE PUSH1 0x60 DUP2 ADD MLOAD PUSH1 0x2 SIGNEXTEND DUP3 DUP9 ADD MSTORE ADD MLOAD AND PUSH1 0xA0 DUP6 ADD MSTORE PUSH1 0x20 DUP2 ADD MLOAD ISZERO ISZERO PUSH1 0xC0 DUP6 ADD MSTORE PUSH1 0x1 PUSH1 0x1 PUSH1 0x80 SHL SUB PUSH1 0x40 DUP3 ADD MLOAD AND PUSH1 0xE0 DUP6 ADD MSTORE PUSH1 0x1 PUSH1 0x1 PUSH1 0x80 SHL SUB PUSH1 0x60 DUP3 ADD MLOAD AND PUSH2 0x100 DUP6 ADD MSTORE ADD MLOAD SWAP2 PUSH2 0x120 DUP1 DUP3 ADD MSTORE ADD SWAP1 PUSH2 0x1066 JUMP JUMPDEST SWAP1 JUMP JUMPDEST DUP1 MLOAD ISZERO PUSH2 0x112E JUMPI PUSH1 0x20 ADD SWAP1 JUMP JUMPDEST PUSH4 0x4E487B71 PUSH1 0xE0 SHL PUSH0 MSTORE PUSH1 0x32 PUSH1 0x4 MSTORE PUSH1 0x24 PUSH0 REVERT JUMPDEST DUP1 MLOAD PUSH1 0x1 LT ISZERO PUSH2 0x112E JUMPI PUSH1 0x40 ADD SWAP1 JUMP JUMPDEST DUP1 MLOAD PUSH1 0x2 LT ISZERO PUSH2 0x112E JUMPI PUSH1 0x60 ADD SWAP1 JUMP JUMPDEST SWAP1 DUP1 PUSH1 0x20 DUP4 MLOAD SWAP2 DUP3 DUP2 MSTORE ADD SWAP2 PUSH1 0x20 DUP1 DUP4 PUSH1 0x5 SHL DUP4 ADD ADD SWAP5 ADD SWAP3 PUSH0 SWAP2 JUMPDEST DUP4 DUP4 LT PUSH2 0x118D JUMPI POP POP POP POP POP SWAP1 JUMP JUMPDEST SWAP1 SWAP2 SWAP3 SWAP4 SWAP5 PUSH1 0x20 DUP1 PUSH2 0x11AB PUSH1 0x1 SWAP4 PUSH1 0x1F NOT DUP7 DUP3 SUB ADD DUP8 MSTORE DUP10 MLOAD PUSH2 0x1066 JUMP JUMPDEST SWAP8 ADD SWAP4 ADD SWAP4 ADD SWAP2 SWAP4 SWAP3 SWAP1 PUSH2 0x117E JUMP JUMPDEST SWAP1 SWAP2 PUSH2 0x11D1 PUSH2 0x111E SWAP4 PUSH1 0x40 DUP5 MSTORE PUSH1 0x40 DUP5 ADD SWAP1 PUSH2 0x1066 JUMP JUMPDEST SWAP2 PUSH1 0x20 DUP2 DUP5 SUB SWAP2 ADD MSTORE PUSH2 0x1162 JUMP JUMPDEST SWAP4 SWAP3 SWAP2 PUSH2 0x1208 SWAP1 PUSH2 0x11FA PUSH1 0x40 SWAP4 PUSH1 0x60 DUP9 MSTORE PUSH1 0x60 DUP9 ADD SWAP1 PUSH2 0x1066 JUMP JUMPDEST SWAP1 DUP7 DUP3 SUB PUSH1 0x20 DUP9 ADD MSTORE PUSH2 0x1162 JUMP JUMPDEST SWAP4 ADD MSTORE JUMP INVALID LOG2 PUSH5 0x6970667358 0x22 SLT KECCAK256 0xD8 0xCA DUP1 CALLDATASIZE 0xED INVALID SWAP3 0xCD TLOAD DUP1 MLOAD 0x4F MCOPY ADDMOD DUP6 SSTORE SELFDESTRUCT ADD DUP15 SWAP9 0x4D XOR 0xBA SHL 0xCC 0xEB EXTCODESIZE ORIGIN 0xD 0x23 0xD4 CALLDATALOAD PUSH5 0x736F6C6343 STOP ADDMOD BYTE STOP CALLER "},"methodIdentifiers":{"buyTokens(uint256,uint256)":"7975ce28","buyTokensWithHookData(uint256,uint256,bytes)":"1e261726","getPoolKey(uint256)":"b67e681f","hasActivePool(uint256)":"fd0f6df4","quoteBuy(uint256,uint256)":"f998a865","quoteSell(uint256,uint256)":"0277dd67","sellTokens(uint256,uint256,uint256)":"709ef231","sellTokensWithHookData(uint256,uint256,uint256,bytes)":"87768c1b","setCabalToken(uint256,address)":"89fdf0ca"}}}}}