{"contracts/cabal/diamond/facets/DissolutionFacet.sol":{"DissolutionFacet":{"abi":[{"inputs":[],"name":"CabalAlreadyClosed","type":"error"},{"inputs":[],"name":"CannotDissolveRootCabal","type":"error"},{"inputs":[],"name":"InvalidParentCabal","type":"error"},{"inputs":[],"name":"NoStakers","type":"error"},{"inputs":[],"name":"NotCalledViaDiamond","type":"error"},{"inputs":[],"name":"TransferFailed","type":"error"},{"anonymous":false,"inputs":[{"indexed":true,"internalType":"uint256","name":"cabalId","type":"uint256"},{"indexed":false,"internalType":"uint256","name":"totalStakers","type":"uint256"},{"indexed":false,"internalType":"uint256","name":"ethDistributed","type":"uint256"},{"indexed":false,"internalType":"uint256","name":"tokensDistributed","type":"uint256"}],"name":"CabalDissolved","type":"event"},{"anonymous":false,"inputs":[{"indexed":true,"internalType":"uint256","name":"cabalId","type":"uint256"},{"indexed":true,"internalType":"uint256","name":"parentCabalId","type":"uint256"}],"name":"DissolutionStarted","type":"event"},{"anonymous":false,"inputs":[{"indexed":true,"internalType":"uint256","name":"cabalId","type":"uint256"},{"indexed":true,"internalType":"address","name":"staker","type":"address"},{"indexed":false,"internalType":"uint256","name":"ethAmount","type":"uint256"},{"indexed":false,"internalType":"uint256","name":"tokenAmount","type":"uint256"}],"name":"StakerPayout","type":"event"},{"inputs":[{"internalType":"uint256","name":"cabalId","type":"uint256"}],"name":"canDissolve","outputs":[{"internalType":"bool","name":"canDo","type":"bool"},{"internalType":"string","name":"reason","type":"string"}],"stateMutability":"view","type":"function"},{"inputs":[{"internalType":"uint256","name":"childCabalId","type":"uint256"}],"name":"dissolveChild","outputs":[],"stateMutability":"nonpayable","type":"function"},{"inputs":[{"internalType":"uint256","name":"cabalId","type":"uint256"}],"name":"getDissolutionInfo","outputs":[{"internalType":"uint256","name":"parentId","type":"uint256"},{"internalType":"uint256","name":"childCount","type":"uint256"},{"internalType":"uint256","name":"totalStaked","type":"uint256"},{"internalType":"uint256","name":"ethBalance","type":"uint256"},{"internalType":"uint256","name":"tokenBalance","type":"uint256"}],"stateMutability":"view","type":"function"}],"evm":{"bytecode":{"linkReferences":{},"object":"60808060405234601557610b0a908161001a8239f35b5f80fdfe60806040526004361015610011575f80fd5b5f3560e01c80630c15de96146101685780638a69c8081461007d5763a91c17b21461003a575f80fd5b34610079576020366003190112610079576100566004356102a9565b9061007560405192839215158352604060208401526040830190610231565b0390f35b5f80fd5b34610079576020366003190112610079575f61009a6004356103d7565b90601482015490601583015492600e8101546001600160a01b03600483015416946001600160a01b03600587319401541695866100f3575b5060a095506040519485526020850152604084015260608301526080820152f35b60209194506024604051809881936370a0823160e01b835260048301525afa801561015d575f9061012a575b60a0955092866100d2565b506020853d602011610155575b8161014460209383610273565b810103126100795760a0945161011f565b3d9150610137565b6040513d5f823e3d90fd5b34610079576020366003190112610079576004353033036102225761018c816103d7565b907f0940b07e82ace5a9b6369ad035ede2cefb9eed2f364c533ae2a2a33c58f5ce5854811461021357600360ff600584015460a01c166101cb81610255565b14610204576014610202920154817f6a6848428448754eadefd6bb2a3c7595a6c0b09e7c1db3218998d6947d9111a65f80a3610444565b005b6336c6fc9960e11b5f5260045ffd5b632ef81fbb60e21b5f5260045ffd5b63c9c22f2760e01b5f5260045ffd5b805180835260209291819084018484015e5f828201840152601f01601f1916010190565b6004111561025f57565b634e487b7160e01b5f52602160045260245ffd5b90601f8019910116810190811067ffffffffffffffff82111761029557604052565b634e487b7160e01b5f52604160045260245ffd5b7f0940b07e82ace5a9b6369ad035ede2cefb9eed2f364c533ae2a2a33c58f5ce58548114610399576102da906103d7565b60ff600582015460a01c16600481101561025f5760031461035b57600401546001600160a01b03161561031e57600190604051610318602082610273565b5f815290565b5f9060405161032e604082610273565b601481527f436162616c20646f6573206e6f74206578697374000000000000000000000000602082015290565b505f9060405161036c604082610273565b600e81527f416c726561647920636c6f736564000000000000000000000000000000000000602082015290565b505f906040516103aa604082610273565b601a81527f43616e6e6f7420646973736f6c766520726f6f7420636162616c000000000000602082015290565b60405160208101917fc61520f0fc87f37c054c240fb12fa829a873c4a7f3a227d3cdaf38f732a45b0d8352604082015260408152610416606082610273565b51902090565b80518210156104305760209160051b010190565b634e487b7160e01b5f52603260045260245ffd5b9061044e826103d7565b90600360ff600584015460a01c1661046581610255565b146104eb576015820191604051928381549182825260208201905f5260205f20925f5b8181106104d257505061049d92500384610273565b5f5b83518110156104c3576104bb6104b5828661041c565b51610444565b60010161049f565b5090926104d092506105a8565b565b8454835260019485019488945060209093019201610488565b915050565b6020818303126100795780519067ffffffffffffffff8211610079570181601f820112156100795780519067ffffffffffffffff82116102955760405192610542601f8401601f191660200185610273565b8284526020838301011161007957815f9260208093018386015e8301015290565b8181029291811591840414171561057657565b634e487b7160e01b5f52601160045260245ffd5b8115610594570490565b634e487b7160e01b5f52601260045260245ffd5b906001600160a01b03600482015416600582016001600160a01b03815416928231918415155f14610acd576040516370a0823160e01b815260048101859052602081602481895afa90811561015d575f91610a9b575b50935b6040516370a0823160e01b8152600481018290526020816024817342000000000000000000000000000000000000065afa90811561015d575f91610a69575b50806109c1575b50600e830154955f96806106ad575b5050815460ff60a01b1916600360a01b17909155505f600e91909101556040805193845260208401919091528201527f4c3246c0eba3bfc41bb958bf0dc3ccad549808d410ff330dfa52c6605593b74f90606090a2565b91949297969860088592950191604051808460208296549384815201905f5260205f20925f5b81811061099f5750506106e892500384610273565b5f5b8351811015610987576106fd818561041c565b5160405160208101907f8558c73f0b9098e6be43e479b1cf30236e7e64287529940c5fdd38ab47be3e0982528c60408201526bffffffffffffffffffffffff198360601b16606082015260548152610756607482610273565b51902054908161076b575b50506001016106ea565b909c91905f1983146105765760018c93019d878c8161078a848d610563565b906107949161058a565b9261079e91610563565b906107a89161058a565b8161091d575b80151580610914575b610861575b91600194915f936040519182526020820152827f9d0185031fcf21e45493a0a2d6eeca8766b899cc49fa15874995c85a3a73fbaa60406001600160a01b03851693a36040519060208201927f8558c73f0b9098e6be43e479b1cf30236e7e64287529940c5fdd38ab47be3e09845260408301526bffffffffffffffffffffffff199060601b16606082015260548152610856607482610273565b51902055905f610761565b93506108ce915f60405163a9059cbb60e01b60208201526001600160a01b03831660248201528660448201526044815261089c606482610273565b8d8d83604051809881958294639e5d4c4960e01b84526004840152836024840152606060448401526064830190610231565b03925af191821561015d576001958f93945f956108f2575b509193509194506107bc565b61090d903d8088833e6109058183610273565b8101906104f0565b505f6108e6565b508a15156107b7565b5f8095508c608460405180988193639e5d4c4960e01b83526001600160a01b0389166004840152876024840152606060448401528160648401525af194851561015d578e9561096d575b506107ae565b610980903d805f833e6109058183610273565b505f610967565b509099979893955093505f9150600e90506060610656565b84546001600160a01b03168352600194850194889450602090930192016106d3565b610a2f5f604096939651632e1a7d4d60e01b6020820152836024820152602481526109ed604482610273565b60405180938192639e5d4c4960e01b83527342000000000000000000000000000000000000066004840152846024840152606060448401526064830190610231565b0381838a5af1801561015d57610a51575b50810180911161057657925f610647565b610a64903d805f833e6109058183610273565b610a40565b90506020813d602011610a93575b81610a8460209383610273565b8101031261007957515f610640565b3d9150610a77565b90506020813d602011610ac5575b81610ab660209383610273565b8101031261007957515f6105fe565b3d9150610aa9565b5f9361060156fea2646970667358221220ec84fb7b4e31ed5184ecd9e217abf7a465b297fc95d439fa4730b470c4f2341064736f6c634300081a0033","opcodes":"PUSH1 0x80 DUP1 PUSH1 0x40 MSTORE CALLVALUE PUSH1 0x15 JUMPI PUSH2 0xB0A SWAP1 DUP2 PUSH2 0x1A DUP3 CODECOPY RETURN JUMPDEST PUSH0 DUP1 REVERT INVALID PUSH1 0x80 PUSH1 0x40 MSTORE PUSH1 0x4 CALLDATASIZE LT ISZERO PUSH2 0x11 JUMPI PUSH0 DUP1 REVERT JUMPDEST PUSH0 CALLDATALOAD PUSH1 0xE0 SHR DUP1 PUSH4 0xC15DE96 EQ PUSH2 0x168 JUMPI DUP1 PUSH4 0x8A69C808 EQ PUSH2 0x7D JUMPI PUSH4 0xA91C17B2 EQ PUSH2 0x3A JUMPI PUSH0 DUP1 REVERT JUMPDEST CALLVALUE PUSH2 0x79 JUMPI PUSH1 0x20 CALLDATASIZE PUSH1 0x3 NOT ADD SLT PUSH2 0x79 JUMPI PUSH2 0x56 PUSH1 0x4 CALLDATALOAD PUSH2 0x2A9 JUMP JUMPDEST SWAP1 PUSH2 0x75 PUSH1 0x40 MLOAD SWAP3 DUP4 SWAP3 ISZERO ISZERO DUP4 MSTORE PUSH1 0x40 PUSH1 0x20 DUP5 ADD MSTORE PUSH1 0x40 DUP4 ADD SWAP1 PUSH2 0x231 JUMP JUMPDEST SUB SWAP1 RETURN JUMPDEST PUSH0 DUP1 REVERT JUMPDEST CALLVALUE PUSH2 0x79 JUMPI PUSH1 0x20 CALLDATASIZE PUSH1 0x3 NOT ADD SLT PUSH2 0x79 JUMPI PUSH0 PUSH2 0x9A PUSH1 0x4 CALLDATALOAD PUSH2 0x3D7 JUMP JUMPDEST SWAP1 PUSH1 0x14 DUP3 ADD SLOAD SWAP1 PUSH1 0x15 DUP4 ADD SLOAD SWAP3 PUSH1 0xE DUP2 ADD SLOAD PUSH1 0x1 PUSH1 0x1 PUSH1 0xA0 SHL SUB PUSH1 0x4 DUP4 ADD SLOAD AND SWAP5 PUSH1 0x1 PUSH1 0x1 PUSH1 0xA0 SHL SUB PUSH1 0x5 DUP8 BALANCE SWAP5 ADD SLOAD AND SWAP6 DUP7 PUSH2 0xF3 JUMPI JUMPDEST POP PUSH1 0xA0 SWAP6 POP PUSH1 0x40 MLOAD SWAP5 DUP6 MSTORE PUSH1 0x20 DUP6 ADD MSTORE PUSH1 0x40 DUP5 ADD MSTORE PUSH1 0x60 DUP4 ADD MSTORE PUSH1 0x80 DUP3 ADD MSTORE RETURN JUMPDEST PUSH1 0x20 SWAP2 SWAP5 POP PUSH1 0x24 PUSH1 0x40 MLOAD DUP1 SWAP9 DUP2 SWAP4 PUSH4 0x70A08231 PUSH1 0xE0 SHL DUP4 MSTORE PUSH1 0x4 DUP4 ADD MSTORE GAS STATICCALL DUP1 ISZERO PUSH2 0x15D JUMPI PUSH0 SWAP1 PUSH2 0x12A JUMPI JUMPDEST PUSH1 0xA0 SWAP6 POP SWAP3 DUP7 PUSH2 0xD2 JUMP JUMPDEST POP PUSH1 0x20 DUP6 RETURNDATASIZE PUSH1 0x20 GT PUSH2 0x155 JUMPI JUMPDEST DUP2 PUSH2 0x144 PUSH1 0x20 SWAP4 DUP4 PUSH2 0x273 JUMP JUMPDEST DUP2 ADD SUB SLT PUSH2 0x79 JUMPI PUSH1 0xA0 SWAP5 MLOAD PUSH2 0x11F JUMP JUMPDEST RETURNDATASIZE SWAP2 POP PUSH2 0x137 JUMP JUMPDEST PUSH1 0x40 MLOAD RETURNDATASIZE PUSH0 DUP3 RETURNDATACOPY RETURNDATASIZE SWAP1 REVERT JUMPDEST CALLVALUE PUSH2 0x79 JUMPI PUSH1 0x20 CALLDATASIZE PUSH1 0x3 NOT ADD SLT PUSH2 0x79 JUMPI PUSH1 0x4 CALLDATALOAD ADDRESS CALLER SUB PUSH2 0x222 JUMPI PUSH2 0x18C DUP2 PUSH2 0x3D7 JUMP JUMPDEST SWAP1 PUSH32 0x940B07E82ACE5A9B6369AD035EDE2CEFB9EED2F364C533AE2A2A33C58F5CE58 SLOAD DUP2 EQ PUSH2 0x213 JUMPI PUSH1 0x3 PUSH1 0xFF PUSH1 0x5 DUP5 ADD SLOAD PUSH1 0xA0 SHR AND PUSH2 0x1CB DUP2 PUSH2 0x255 JUMP JUMPDEST EQ PUSH2 0x204 JUMPI PUSH1 0x14 PUSH2 0x202 SWAP3 ADD SLOAD DUP2 PUSH32 0x6A6848428448754EADEFD6BB2A3C7595A6C0B09E7C1DB3218998D6947D9111A6 PUSH0 DUP1 LOG3 PUSH2 0x444 JUMP JUMPDEST STOP JUMPDEST PUSH4 0x36C6FC99 PUSH1 0xE1 SHL PUSH0 MSTORE PUSH1 0x4 PUSH0 REVERT JUMPDEST PUSH4 0x2EF81FBB PUSH1 0xE2 SHL PUSH0 MSTORE PUSH1 0x4 PUSH0 REVERT JUMPDEST PUSH4 0xC9C22F27 PUSH1 0xE0 SHL PUSH0 MSTORE PUSH1 0x4 PUSH0 REVERT JUMPDEST DUP1 MLOAD DUP1 DUP4 MSTORE PUSH1 0x20 SWAP3 SWAP2 DUP2 SWAP1 DUP5 ADD DUP5 DUP5 ADD MCOPY PUSH0 DUP3 DUP3 ADD DUP5 ADD MSTORE PUSH1 0x1F ADD PUSH1 0x1F NOT AND ADD ADD SWAP1 JUMP JUMPDEST PUSH1 0x4 GT ISZERO PUSH2 0x25F JUMPI JUMP JUMPDEST PUSH4 0x4E487B71 PUSH1 0xE0 SHL PUSH0 MSTORE PUSH1 0x21 PUSH1 0x4 MSTORE PUSH1 0x24 PUSH0 REVERT JUMPDEST SWAP1 PUSH1 0x1F DUP1 NOT SWAP2 ADD AND DUP2 ADD SWAP1 DUP2 LT PUSH8 0xFFFFFFFFFFFFFFFF DUP3 GT OR PUSH2 0x295 JUMPI PUSH1 0x40 MSTORE JUMP JUMPDEST PUSH4 0x4E487B71 PUSH1 0xE0 SHL PUSH0 MSTORE PUSH1 0x41 PUSH1 0x4 MSTORE PUSH1 0x24 PUSH0 REVERT JUMPDEST PUSH32 0x940B07E82ACE5A9B6369AD035EDE2CEFB9EED2F364C533AE2A2A33C58F5CE58 SLOAD DUP2 EQ PUSH2 0x399 JUMPI PUSH2 0x2DA SWAP1 PUSH2 0x3D7 JUMP JUMPDEST PUSH1 0xFF PUSH1 0x5 DUP3 ADD SLOAD PUSH1 0xA0 SHR AND PUSH1 0x4 DUP2 LT ISZERO PUSH2 0x25F JUMPI PUSH1 0x3 EQ PUSH2 0x35B JUMPI PUSH1 0x4 ADD SLOAD PUSH1 0x1 PUSH1 0x1 PUSH1 0xA0 SHL SUB AND ISZERO PUSH2 0x31E JUMPI PUSH1 0x1 SWAP1 PUSH1 0x40 MLOAD PUSH2 0x318 PUSH1 0x20 DUP3 PUSH2 0x273 JUMP JUMPDEST PUSH0 DUP2 MSTORE SWAP1 JUMP JUMPDEST PUSH0 SWAP1 PUSH1 0x40 MLOAD PUSH2 0x32E PUSH1 0x40 DUP3 PUSH2 0x273 JUMP JUMPDEST PUSH1 0x14 DUP2 MSTORE PUSH32 0x436162616C20646F6573206E6F74206578697374000000000000000000000000 PUSH1 0x20 DUP3 ADD MSTORE SWAP1 JUMP JUMPDEST POP PUSH0 SWAP1 PUSH1 0x40 MLOAD PUSH2 0x36C PUSH1 0x40 DUP3 PUSH2 0x273 JUMP JUMPDEST PUSH1 0xE DUP2 MSTORE PUSH32 0x416C726561647920636C6F736564000000000000000000000000000000000000 PUSH1 0x20 DUP3 ADD MSTORE SWAP1 JUMP JUMPDEST POP PUSH0 SWAP1 PUSH1 0x40 MLOAD PUSH2 0x3AA PUSH1 0x40 DUP3 PUSH2 0x273 JUMP JUMPDEST PUSH1 0x1A DUP2 MSTORE PUSH32 0x43616E6E6F7420646973736F6C766520726F6F7420636162616C000000000000 PUSH1 0x20 DUP3 ADD MSTORE SWAP1 JUMP JUMPDEST PUSH1 0x40 MLOAD PUSH1 0x20 DUP2 ADD SWAP2 PUSH32 0xC61520F0FC87F37C054C240FB12FA829A873C4A7F3A227D3CDAF38F732A45B0D DUP4 MSTORE PUSH1 0x40 DUP3 ADD MSTORE PUSH1 0x40 DUP2 MSTORE PUSH2 0x416 PUSH1 0x60 DUP3 PUSH2 0x273 JUMP JUMPDEST MLOAD SWAP1 KECCAK256 SWAP1 JUMP JUMPDEST DUP1 MLOAD DUP3 LT ISZERO PUSH2 0x430 JUMPI PUSH1 0x20 SWAP2 PUSH1 0x5 SHL ADD ADD SWAP1 JUMP JUMPDEST PUSH4 0x4E487B71 PUSH1 0xE0 SHL PUSH0 MSTORE PUSH1 0x32 PUSH1 0x4 MSTORE PUSH1 0x24 PUSH0 REVERT JUMPDEST SWAP1 PUSH2 0x44E DUP3 PUSH2 0x3D7 JUMP JUMPDEST SWAP1 PUSH1 0x3 PUSH1 0xFF PUSH1 0x5 DUP5 ADD SLOAD PUSH1 0xA0 SHR AND PUSH2 0x465 DUP2 PUSH2 0x255 JUMP JUMPDEST EQ PUSH2 0x4EB JUMPI PUSH1 0x15 DUP3 ADD SWAP2 PUSH1 0x40 MLOAD SWAP3 DUP4 DUP2 SLOAD SWAP2 DUP3 DUP3 MSTORE PUSH1 0x20 DUP3 ADD SWAP1 PUSH0 MSTORE PUSH1 0x20 PUSH0 KECCAK256 SWAP3 PUSH0 JUMPDEST DUP2 DUP2 LT PUSH2 0x4D2 JUMPI POP POP PUSH2 0x49D SWAP3 POP SUB DUP5 PUSH2 0x273 JUMP JUMPDEST PUSH0 JUMPDEST DUP4 MLOAD DUP2 LT ISZERO PUSH2 0x4C3 JUMPI PUSH2 0x4BB PUSH2 0x4B5 DUP3 DUP7 PUSH2 0x41C JUMP JUMPDEST MLOAD PUSH2 0x444 JUMP JUMPDEST PUSH1 0x1 ADD PUSH2 0x49F JUMP JUMPDEST POP SWAP1 SWAP3 PUSH2 0x4D0 SWAP3 POP PUSH2 0x5A8 JUMP JUMPDEST JUMP JUMPDEST DUP5 SLOAD DUP4 MSTORE PUSH1 0x1 SWAP5 DUP6 ADD SWAP5 DUP9 SWAP5 POP PUSH1 0x20 SWAP1 SWAP4 ADD SWAP3 ADD PUSH2 0x488 JUMP JUMPDEST SWAP2 POP POP JUMP JUMPDEST PUSH1 0x20 DUP2 DUP4 SUB SLT PUSH2 0x79 JUMPI DUP1 MLOAD SWAP1 PUSH8 0xFFFFFFFFFFFFFFFF DUP3 GT PUSH2 0x79 JUMPI ADD DUP2 PUSH1 0x1F DUP3 ADD SLT ISZERO PUSH2 0x79 JUMPI DUP1 MLOAD SWAP1 PUSH8 0xFFFFFFFFFFFFFFFF DUP3 GT PUSH2 0x295 JUMPI PUSH1 0x40 MLOAD SWAP3 PUSH2 0x542 PUSH1 0x1F DUP5 ADD PUSH1 0x1F NOT AND PUSH1 0x20 ADD DUP6 PUSH2 0x273 JUMP JUMPDEST DUP3 DUP5 MSTORE PUSH1 0x20 DUP4 DUP4 ADD ADD GT PUSH2 0x79 JUMPI DUP2 PUSH0 SWAP3 PUSH1 0x20 DUP1 SWAP4 ADD DUP4 DUP7 ADD MCOPY DUP4 ADD ADD MSTORE SWAP1 JUMP JUMPDEST DUP2 DUP2 MUL SWAP3 SWAP2 DUP2 ISZERO SWAP2 DUP5 DIV EQ OR ISZERO PUSH2 0x576 JUMPI JUMP JUMPDEST PUSH4 0x4E487B71 PUSH1 0xE0 SHL PUSH0 MSTORE PUSH1 0x11 PUSH1 0x4 MSTORE PUSH1 0x24 PUSH0 REVERT JUMPDEST DUP2 ISZERO PUSH2 0x594 JUMPI DIV SWAP1 JUMP JUMPDEST PUSH4 0x4E487B71 PUSH1 0xE0 SHL PUSH0 MSTORE PUSH1 0x12 PUSH1 0x4 MSTORE PUSH1 0x24 PUSH0 REVERT JUMPDEST SWAP1 PUSH1 0x1 PUSH1 0x1 PUSH1 0xA0 SHL SUB PUSH1 0x4 DUP3 ADD SLOAD AND PUSH1 0x5 DUP3 ADD PUSH1 0x1 PUSH1 0x1 PUSH1 0xA0 SHL SUB DUP2 SLOAD AND SWAP3 DUP3 BALANCE SWAP2 DUP5 ISZERO ISZERO PUSH0 EQ PUSH2 0xACD JUMPI PUSH1 0x40 MLOAD PUSH4 0x70A08231 PUSH1 0xE0 SHL DUP2 MSTORE PUSH1 0x4 DUP2 ADD DUP6 SWAP1 MSTORE PUSH1 0x20 DUP2 PUSH1 0x24 DUP2 DUP10 GAS STATICCALL SWAP1 DUP2 ISZERO PUSH2 0x15D JUMPI PUSH0 SWAP2 PUSH2 0xA9B JUMPI JUMPDEST POP SWAP4 JUMPDEST PUSH1 0x40 MLOAD PUSH4 0x70A08231 PUSH1 0xE0 SHL DUP2 MSTORE PUSH1 0x4 DUP2 ADD DUP3 SWAP1 MSTORE PUSH1 0x20 DUP2 PUSH1 0x24 DUP2 PUSH20 0x4200000000000000000000000000000000000006 GAS STATICCALL SWAP1 DUP2 ISZERO PUSH2 0x15D JUMPI PUSH0 SWAP2 PUSH2 0xA69 JUMPI JUMPDEST POP DUP1 PUSH2 0x9C1 JUMPI JUMPDEST POP PUSH1 0xE DUP4 ADD SLOAD SWAP6 PUSH0 SWAP7 DUP1 PUSH2 0x6AD JUMPI JUMPDEST POP POP DUP2 SLOAD PUSH1 0xFF PUSH1 0xA0 SHL NOT AND PUSH1 0x3 PUSH1 0xA0 SHL OR SWAP1 SWAP2 SSTORE POP PUSH0 PUSH1 0xE SWAP2 SWAP1 SWAP2 ADD SSTORE PUSH1 0x40 DUP1 MLOAD SWAP4 DUP5 MSTORE PUSH1 0x20 DUP5 ADD SWAP2 SWAP1 SWAP2 MSTORE DUP3 ADD MSTORE PUSH32 0x4C3246C0EBA3BFC41BB958BF0DC3CCAD549808D410FF330DFA52C6605593B74F SWAP1 PUSH1 0x60 SWAP1 LOG2 JUMP JUMPDEST SWAP2 SWAP5 SWAP3 SWAP8 SWAP7 SWAP9 PUSH1 0x8 DUP6 SWAP3 SWAP6 ADD SWAP2 PUSH1 0x40 MLOAD DUP1 DUP5 PUSH1 0x20 DUP3 SWAP7 SLOAD SWAP4 DUP5 DUP2 MSTORE ADD SWAP1 PUSH0 MSTORE PUSH1 0x20 PUSH0 KECCAK256 SWAP3 PUSH0 JUMPDEST DUP2 DUP2 LT PUSH2 0x99F JUMPI POP POP PUSH2 0x6E8 SWAP3 POP SUB DUP5 PUSH2 0x273 JUMP JUMPDEST PUSH0 JUMPDEST DUP4 MLOAD DUP2 LT ISZERO PUSH2 0x987 JUMPI PUSH2 0x6FD DUP2 DUP6 PUSH2 0x41C JUMP JUMPDEST MLOAD PUSH1 0x40 MLOAD PUSH1 0x20 DUP2 ADD SWAP1 PUSH32 0x8558C73F0B9098E6BE43E479B1CF30236E7E64287529940C5FDD38AB47BE3E09 DUP3 MSTORE DUP13 PUSH1 0x40 DUP3 ADD MSTORE PUSH12 0xFFFFFFFFFFFFFFFFFFFFFFFF NOT DUP4 PUSH1 0x60 SHL AND PUSH1 0x60 DUP3 ADD MSTORE PUSH1 0x54 DUP2 MSTORE PUSH2 0x756 PUSH1 0x74 DUP3 PUSH2 0x273 JUMP JUMPDEST MLOAD SWAP1 KECCAK256 SLOAD SWAP1 DUP2 PUSH2 0x76B JUMPI JUMPDEST POP POP PUSH1 0x1 ADD PUSH2 0x6EA JUMP JUMPDEST SWAP1 SWAP13 SWAP2 SWAP1 PUSH0 NOT DUP4 EQ PUSH2 0x576 JUMPI PUSH1 0x1 DUP13 SWAP4 ADD SWAP14 DUP8 DUP13 DUP2 PUSH2 0x78A DUP5 DUP14 PUSH2 0x563 JUMP JUMPDEST SWAP1 PUSH2 0x794 SWAP2 PUSH2 0x58A JUMP JUMPDEST SWAP3 PUSH2 0x79E SWAP2 PUSH2 0x563 JUMP JUMPDEST SWAP1 PUSH2 0x7A8 SWAP2 PUSH2 0x58A JUMP JUMPDEST DUP2 PUSH2 0x91D JUMPI JUMPDEST DUP1 ISZERO ISZERO DUP1 PUSH2 0x914 JUMPI JUMPDEST PUSH2 0x861 JUMPI JUMPDEST SWAP2 PUSH1 0x1 SWAP5 SWAP2 PUSH0 SWAP4 PUSH1 0x40 MLOAD SWAP2 DUP3 MSTORE PUSH1 0x20 DUP3 ADD MSTORE DUP3 PUSH32 0x9D0185031FCF21E45493A0A2D6EECA8766B899CC49FA15874995C85A3A73FBAA PUSH1 0x40 PUSH1 0x1 PUSH1 0x1 PUSH1 0xA0 SHL SUB DUP6 AND SWAP4 LOG3 PUSH1 0x40 MLOAD SWAP1 PUSH1 0x20 DUP3 ADD SWAP3 PUSH32 0x8558C73F0B9098E6BE43E479B1CF30236E7E64287529940C5FDD38AB47BE3E09 DUP5 MSTORE PUSH1 0x40 DUP4 ADD MSTORE PUSH12 0xFFFFFFFFFFFFFFFFFFFFFFFF NOT SWAP1 PUSH1 0x60 SHL AND PUSH1 0x60 DUP3 ADD MSTORE PUSH1 0x54 DUP2 MSTORE PUSH2 0x856 PUSH1 0x74 DUP3 PUSH2 0x273 JUMP JUMPDEST MLOAD SWAP1 KECCAK256 SSTORE SWAP1 PUSH0 PUSH2 0x761 JUMP JUMPDEST SWAP4 POP PUSH2 0x8CE SWAP2 PUSH0 PUSH1 0x40 MLOAD PUSH4 0xA9059CBB PUSH1 0xE0 SHL PUSH1 0x20 DUP3 ADD MSTORE PUSH1 0x1 PUSH1 0x1 PUSH1 0xA0 SHL SUB DUP4 AND PUSH1 0x24 DUP3 ADD MSTORE DUP7 PUSH1 0x44 DUP3 ADD MSTORE PUSH1 0x44 DUP2 MSTORE PUSH2 0x89C PUSH1 0x64 DUP3 PUSH2 0x273 JUMP JUMPDEST DUP14 DUP14 DUP4 PUSH1 0x40 MLOAD DUP1 SWAP9 DUP2 SWAP6 DUP3 SWAP5 PUSH4 0x9E5D4C49 PUSH1 0xE0 SHL DUP5 MSTORE PUSH1 0x4 DUP5 ADD MSTORE DUP4 PUSH1 0x24 DUP5 ADD MSTORE PUSH1 0x60 PUSH1 0x44 DUP5 ADD MSTORE PUSH1 0x64 DUP4 ADD SWAP1 PUSH2 0x231 JUMP JUMPDEST SUB SWAP3 GAS CALL SWAP2 DUP3 ISZERO PUSH2 0x15D JUMPI PUSH1 0x1 SWAP6 DUP16 SWAP4 SWAP5 PUSH0 SWAP6 PUSH2 0x8F2 JUMPI JUMPDEST POP SWAP2 SWAP4 POP SWAP2 SWAP5 POP PUSH2 0x7BC JUMP JUMPDEST PUSH2 0x90D SWAP1 RETURNDATASIZE DUP1 DUP9 DUP4 RETURNDATACOPY PUSH2 0x905 DUP2 DUP4 PUSH2 0x273 JUMP JUMPDEST DUP2 ADD SWAP1 PUSH2 0x4F0 JUMP JUMPDEST POP PUSH0 PUSH2 0x8E6 JUMP JUMPDEST POP DUP11 ISZERO ISZERO PUSH2 0x7B7 JUMP JUMPDEST PUSH0 DUP1 SWAP6 POP DUP13 PUSH1 0x84 PUSH1 0x40 MLOAD DUP1 SWAP9 DUP2 SWAP4 PUSH4 0x9E5D4C49 PUSH1 0xE0 SHL DUP4 MSTORE PUSH1 0x1 PUSH1 0x1 PUSH1 0xA0 SHL SUB DUP10 AND PUSH1 0x4 DUP5 ADD MSTORE DUP8 PUSH1 0x24 DUP5 ADD MSTORE PUSH1 0x60 PUSH1 0x44 DUP5 ADD MSTORE DUP2 PUSH1 0x64 DUP5 ADD MSTORE GAS CALL SWAP5 DUP6 ISZERO PUSH2 0x15D JUMPI DUP15 SWAP6 PUSH2 0x96D JUMPI JUMPDEST POP PUSH2 0x7AE JUMP JUMPDEST PUSH2 0x980 SWAP1 RETURNDATASIZE DUP1 PUSH0 DUP4 RETURNDATACOPY PUSH2 0x905 DUP2 DUP4 PUSH2 0x273 JUMP JUMPDEST POP PUSH0 PUSH2 0x967 JUMP JUMPDEST POP SWAP1 SWAP10 SWAP8 SWAP9 SWAP4 SWAP6 POP SWAP4 POP PUSH0 SWAP2 POP PUSH1 0xE SWAP1 POP PUSH1 0x60 PUSH2 0x656 JUMP JUMPDEST DUP5 SLOAD PUSH1 0x1 PUSH1 0x1 PUSH1 0xA0 SHL SUB AND DUP4 MSTORE PUSH1 0x1 SWAP5 DUP6 ADD SWAP5 DUP9 SWAP5 POP PUSH1 0x20 SWAP1 SWAP4 ADD SWAP3 ADD PUSH2 0x6D3 JUMP JUMPDEST PUSH2 0xA2F PUSH0 PUSH1 0x40 SWAP7 SWAP4 SWAP7 MLOAD PUSH4 0x2E1A7D4D PUSH1 0xE0 SHL PUSH1 0x20 DUP3 ADD MSTORE DUP4 PUSH1 0x24 DUP3 ADD MSTORE PUSH1 0x24 DUP2 MSTORE PUSH2 0x9ED PUSH1 0x44 DUP3 PUSH2 0x273 JUMP JUMPDEST PUSH1 0x40 MLOAD DUP1 SWAP4 DUP2 SWAP3 PUSH4 0x9E5D4C49 PUSH1 0xE0 SHL DUP4 MSTORE PUSH20 0x4200000000000000000000000000000000000006 PUSH1 0x4 DUP5 ADD MSTORE DUP5 PUSH1 0x24 DUP5 ADD MSTORE PUSH1 0x60 PUSH1 0x44 DUP5 ADD MSTORE PUSH1 0x64 DUP4 ADD SWAP1 PUSH2 0x231 JUMP JUMPDEST SUB DUP2 DUP4 DUP11 GAS CALL DUP1 ISZERO PUSH2 0x15D JUMPI PUSH2 0xA51 JUMPI JUMPDEST POP DUP2 ADD DUP1 SWAP2 GT PUSH2 0x576 JUMPI SWAP3 PUSH0 PUSH2 0x647 JUMP JUMPDEST PUSH2 0xA64 SWAP1 RETURNDATASIZE DUP1 PUSH0 DUP4 RETURNDATACOPY PUSH2 0x905 DUP2 DUP4 PUSH2 0x273 JUMP JUMPDEST PUSH2 0xA40 JUMP JUMPDEST SWAP1 POP PUSH1 0x20 DUP2 RETURNDATASIZE PUSH1 0x20 GT PUSH2 0xA93 JUMPI JUMPDEST DUP2 PUSH2 0xA84 PUSH1 0x20 SWAP4 DUP4 PUSH2 0x273 JUMP JUMPDEST DUP2 ADD SUB SLT PUSH2 0x79 JUMPI MLOAD PUSH0 PUSH2 0x640 JUMP JUMPDEST RETURNDATASIZE SWAP2 POP PUSH2 0xA77 JUMP JUMPDEST SWAP1 POP PUSH1 0x20 DUP2 RETURNDATASIZE PUSH1 0x20 GT PUSH2 0xAC5 JUMPI JUMPDEST DUP2 PUSH2 0xAB6 PUSH1 0x20 SWAP4 DUP4 PUSH2 0x273 JUMP JUMPDEST DUP2 ADD SUB SLT PUSH2 0x79 JUMPI MLOAD PUSH0 PUSH2 0x5FE JUMP JUMPDEST RETURNDATASIZE SWAP2 POP PUSH2 0xAA9 JUMP JUMPDEST PUSH0 SWAP4 PUSH2 0x601 JUMP INVALID LOG2 PUSH5 0x6970667358 0x22 SLT KECCAK256 0xEC DUP5 0xFB PUSH28 0x4E31ED5184ECD9E217ABF7A465B297FC95D439FA4730B470C4F23410 PUSH5 0x736F6C6343 STOP ADDMOD BYTE STOP CALLER "},"methodIdentifiers":{"canDissolve(uint256)":"a91c17b2","dissolveChild(uint256)":"0c15de96","getDissolutionInfo(uint256)":"8a69c808"}}}}}