{"contracts/cabal/diamond/facets/ViewFacet.sol":{"ViewFacet":{"abi":[{"inputs":[],"name":"getAllCabals","outputs":[{"internalType":"uint256[]","name":"","type":"uint256[]"}],"stateMutability":"view","type":"function"},{"inputs":[{"internalType":"uint256","name":"cabalId","type":"uint256"}],"name":"getCabal","outputs":[{"components":[{"internalType":"uint256","name":"id","type":"uint256"},{"internalType":"address","name":"creator","type":"address"},{"internalType":"string","name":"name","type":"string"},{"internalType":"string","name":"symbol","type":"string"},{"internalType":"string","name":"image","type":"string"},{"internalType":"address","name":"tbaAddress","type":"address"},{"internalType":"address","name":"tokenAddress","type":"address"},{"internalType":"enum CabalPhase","name":"phase","type":"uint8"},{"internalType":"uint256","name":"createdAt","type":"uint256"},{"internalType":"uint256","name":"launchedAt","type":"uint256"},{"internalType":"uint256","name":"totalRaised","type":"uint256"},{"internalType":"uint256","name":"totalTokensReceived","type":"uint256"},{"internalType":"uint256","name":"totalStaked","type":"uint256"},{"internalType":"uint256","name":"contributorCount","type":"uint256"},{"components":[{"internalType":"uint256","name":"votingPeriod","type":"uint256"},{"internalType":"uint256","name":"quorumBps","type":"uint256"},{"internalType":"uint256","name":"majorityBps","type":"uint256"},{"internalType":"uint256","name":"proposalThreshold","type":"uint256"}],"internalType":"struct GovernanceSettings","name":"settings","type":"tuple"},{"internalType":"uint256","name":"parentCabalId","type":"uint256"}],"internalType":"struct ViewFacet.CabalInfo","name":"","type":"tuple"}],"stateMutability":"view","type":"function"},{"inputs":[{"internalType":"uint256","name":"cabalId","type":"uint256"}],"name":"getCabalHierarchy","outputs":[{"components":[{"internalType":"uint256","name":"cabalId","type":"uint256"},{"internalType":"uint256","name":"parentId","type":"uint256"},{"internalType":"uint256[]","name":"childIds","type":"uint256[]"},{"internalType":"enum CabalPhase","name":"phase","type":"uint8"},{"internalType":"string","name":"symbol","type":"string"}],"internalType":"struct ViewFacet.CabalHierarchy","name":"hierarchy","type":"tuple"}],"stateMutability":"view","type":"function"},{"inputs":[{"internalType":"uint256[]","name":"cabalIds","type":"uint256[]"}],"name":"getCabals","outputs":[{"components":[{"internalType":"uint256","name":"id","type":"uint256"},{"internalType":"address","name":"creator","type":"address"},{"internalType":"string","name":"name","type":"string"},{"internalType":"string","name":"symbol","type":"string"},{"internalType":"string","name":"image","type":"string"},{"internalType":"address","name":"tbaAddress","type":"address"},{"internalType":"address","name":"tokenAddress","type":"address"},{"internalType":"enum CabalPhase","name":"phase","type":"uint8"},{"internalType":"uint256","name":"createdAt","type":"uint256"},{"internalType":"uint256","name":"launchedAt","type":"uint256"},{"internalType":"uint256","name":"totalRaised","type":"uint256"},{"internalType":"uint256","name":"totalTokensReceived","type":"uint256"},{"internalType":"uint256","name":"totalStaked","type":"uint256"},{"internalType":"uint256","name":"contributorCount","type":"uint256"},{"components":[{"internalType":"uint256","name":"votingPeriod","type":"uint256"},{"internalType":"uint256","name":"quorumBps","type":"uint256"},{"internalType":"uint256","name":"majorityBps","type":"uint256"},{"internalType":"uint256","name":"proposalThreshold","type":"uint256"}],"internalType":"struct GovernanceSettings","name":"settings","type":"tuple"},{"internalType":"uint256","name":"parentCabalId","type":"uint256"}],"internalType":"struct ViewFacet.CabalInfo[]","name":"","type":"tuple[]"}],"stateMutability":"view","type":"function"},{"inputs":[{"internalType":"address","name":"creator","type":"address"}],"name":"getCabalsByCreator","outputs":[{"internalType":"uint256[]","name":"","type":"uint256[]"}],"stateMutability":"view","type":"function"},{"inputs":[{"internalType":"address","name":"staker","type":"address"}],"name":"getCabalsByStaker","outputs":[{"internalType":"uint256[]","name":"","type":"uint256[]"}],"stateMutability":"view","type":"function"},{"inputs":[{"internalType":"uint256","name":"offset","type":"uint256"},{"internalType":"uint256","name":"limit","type":"uint256"}],"name":"getCabalsPaginated","outputs":[{"components":[{"internalType":"uint256","name":"id","type":"uint256"},{"internalType":"address","name":"creator","type":"address"},{"internalType":"string","name":"name","type":"string"},{"internalType":"string","name":"symbol","type":"string"},{"internalType":"string","name":"image","type":"string"},{"internalType":"address","name":"tbaAddress","type":"address"},{"internalType":"address","name":"tokenAddress","type":"address"},{"internalType":"enum CabalPhase","name":"phase","type":"uint8"},{"internalType":"uint256","name":"createdAt","type":"uint256"},{"internalType":"uint256","name":"launchedAt","type":"uint256"},{"internalType":"uint256","name":"totalRaised","type":"uint256"},{"internalType":"uint256","name":"totalTokensReceived","type":"uint256"},{"internalType":"uint256","name":"totalStaked","type":"uint256"},{"internalType":"uint256","name":"contributorCount","type":"uint256"},{"components":[{"internalType":"uint256","name":"votingPeriod","type":"uint256"},{"internalType":"uint256","name":"quorumBps","type":"uint256"},{"internalType":"uint256","name":"majorityBps","type":"uint256"},{"internalType":"uint256","name":"proposalThreshold","type":"uint256"}],"internalType":"struct GovernanceSettings","name":"settings","type":"tuple"},{"internalType":"uint256","name":"parentCabalId","type":"uint256"}],"internalType":"struct ViewFacet.CabalInfo[]","name":"cabals","type":"tuple[]"},{"internalType":"uint256","name":"total","type":"uint256"}],"stateMutability":"view","type":"function"},{"inputs":[{"internalType":"uint256","name":"cabalId","type":"uint256"}],"name":"getChildCabals","outputs":[{"internalType":"uint256[]","name":"childIds","type":"uint256[]"}],"stateMutability":"view","type":"function"},{"inputs":[{"internalType":"uint256","name":"cabalId","type":"uint256"},{"internalType":"address","name":"user","type":"address"}],"name":"getContribution","outputs":[{"internalType":"uint256","name":"","type":"uint256"}],"stateMutability":"view","type":"function"},{"inputs":[],"name":"getFullTree","outputs":[{"components":[{"internalType":"uint256","name":"cabalId","type":"uint256"},{"internalType":"uint256","name":"parentId","type":"uint256"}],"internalType":"struct ViewFacet.TreeNode[]","name":"nodes","type":"tuple[]"}],"stateMutability":"view","type":"function"},{"inputs":[],"name":"getHierarchicalCabalIds","outputs":[{"internalType":"uint256[]","name":"ids","type":"uint256[]"}],"stateMutability":"view","type":"function"},{"inputs":[{"internalType":"uint256","name":"cabalId","type":"uint256"}],"name":"getParentCabal","outputs":[{"internalType":"uint256","name":"parentId","type":"uint256"}],"stateMutability":"view","type":"function"},{"inputs":[],"name":"getProtocolTreasury","outputs":[{"internalType":"address","name":"","type":"address"}],"stateMutability":"view","type":"function"},{"inputs":[],"name":"getRootCabalId","outputs":[{"internalType":"uint256","name":"","type":"uint256"}],"stateMutability":"view","type":"function"},{"inputs":[],"name":"getTotalCabals","outputs":[{"internalType":"uint256","name":"","type":"uint256"}],"stateMutability":"view","type":"function"},{"inputs":[{"internalType":"address","name":"user","type":"address"},{"internalType":"uint256[]","name":"cabalIds","type":"uint256[]"}],"name":"getUserPositions","outputs":[{"internalType":"uint256[]","name":"contributions","type":"uint256[]"},{"internalType":"uint256[]","name":"stakedBalances","type":"uint256[]"},{"internalType":"uint256[]","name":"votingPowers","type":"uint256[]"},{"internalType":"bool[]","name":"claimed","type":"bool[]"}],"stateMutability":"view","type":"function"},{"inputs":[{"internalType":"uint256","name":"cabalId","type":"uint256"},{"internalType":"address","name":"user","type":"address"}],"name":"hasClaimed","outputs":[{"internalType":"bool","name":"","type":"bool"}],"stateMutability":"view","type":"function"},{"inputs":[],"name":"isGenesisInitialized","outputs":[{"internalType":"bool","name":"","type":"bool"}],"stateMutability":"view","type":"function"}],"evm":{"bytecode":{"linkReferences":{},"object":"60808060405234601557611748908161001a8239f35b5f80fdfe6080806040526004361015610012575f80fd5b5f3560e01c9081630272d82a14610c095750806313af8c4114610bc9578063356213d614610b465780635278c39214610ac65780635c32e52f14610998578063633a080f1461097d578063873f6f9e1461094d5780639063ca86146108285780639611f3d9146107fd578063b31a8a07146106df578063b3b4435814610553578063ce70b5f714610514578063d0ac5563146104d8578063d29c4e07146101ba578063d71aa10414610190578063d98af84a14610167578063e081dbf9146101395763ea1a4545146100e2575f80fd5b346101355760203660031901126101355761013161011661011d60156101096004356115ea565b0160405192838092610ec1565b0382610f7d565b604051918291602083526020830190610ca8565b0390f35b5f80fd5b3461013557604036600319011261013557602061015f610157610c92565b600435611692565b604051908152f35b34610135575f3660031901126101355760205f805160206116f383398151915254604051908152f35b3461013557602036600319011261013557602060146101b06004356115ea565b0154604051908152f35b34610135576040366003190112610135576101d3610c7c565b60243567ffffffffffffffff8111610135576101f3903690600401610e90565b6101ff819392936113dd565b92610209826113dd565b610212836113dd565b9161021c84610f9f565b9361022a6040519586610f7d565b80855261023681610f9f565b602086019690601f1901368837606081901b6bffffffffffffffffffffffff1916915f5b8181106102dc576102858a8a8a60206102a08c6102928d60405198899860808a5260808a0190610ca8565b90888203868a0152610ca8565b908682036040880152610ca8565b91848303606086015251918281520191905f5b8181106102c1575050500390f35b825115158452859450602093840193909201916001016102b3565b6102e78183876115cd565b35906102f2826115ea565b918b610308836103028885611692565b926111f7565b5260405160208101907f8558c73f0b9098e6be43e479b1cf30236e7e64287529940c5fdd38ab47be3e0982528260408201528760608201526054815261034f607482610f7d565b5190205461035d838a6111f7565b52610368858261162f565b610372838c6111f7565b90151590525f610382838c6111f7565b5115806104cb575b61046d575b6001935061039d838a6111f7565b51906001600160a01b0360405160208101907f0d5b18ea51234f5557964678168b512e7844d6b8406c15c9ac0ae675917d830f82528560408201528a6060820152605481526103ed607482610f7d565b519020549360405160208101917fc3de27a01aa54ffcb04f207e8a4f4a16b583945f9cf1c6868757ca4e0e693152835260408201528a606082015260548152610437607482610f7d565b5190205416156104555750505b61044e828a6111f7565b520161025a565b6104689291610463916115dd565b6115dd565b610444565b50610478828d6111f7565b51926007810154938481029481860414901517156104b7576006015480156104a3576001930461038f565b634e487b7160e01b5f52601260045260245ffd5b634e487b7160e01b5f52601160045260245ffd5b506006840154151561038a565b34610135575f3660031901126101355760207f0940b07e82ace5a9b6369ad035ede2cefb9eed2f364c533ae2a2a33c58f5ce5854604051908152f35b34610135575f36600319011261013557602060017f126ccc9c13b1c6ea6090e51049cd401cf6411009b75480e3934f8663e5d7e1a65414604051908152f35b346101355760203660031901126101355760043567ffffffffffffffff811161013557610584903690600401610e90565b61058d8161104d565b905f5b8181106105ad576040516020808252819061013190820186610e38565b6105b88183866115cd565b356105c2906115ea565b6105cd8284876115cd565b359080546001600160a01b03169060048101546001600160a01b03166005820154600f8301546010840154600685015490600786015492600e870154946008880154966014890154996040519b6106238d610ef8565b8c5260208c015261063660018a016110ed565b60408c015261064760028a016110ed565b60608c015261065860038a016110ed565b60808c015260a08b01526001600160a01b03811660c08b015260a01c60ff1660e08a0190610685916111b9565b6101008901526101208801526101408701526101608601526101808501526101a08401526009016106b5906111c5565b6101c08301526101e08201526106cb82856111f7565b526106d681846111f7565b50600101610590565b34610135575f366003190112610135575f805160206116f38339815191525461070781610f9f565b906107156040519283610f7d565b808252601f1961072482610f9f565b015f5b8181106107da5750505f5b81811061078a57826040518091602082016020835281518091526020604084019201905f5b818110610765575050500390f35b8251805185526020908101518186015286955060409094019390920191600101610757565b806107966001926110a9565b90549060031b1c60146107a8826115ea565b0154604051916107b783610f45565b825260208201526107c882866111f7565b526107d381856111f7565b5001610732565b6020906040516107e981610f45565b5f81525f8382015282828701015201610727565b34610135575f366003190112610135576020610817611566565b6001600160a01b0360405191168152f35b34610135576020366003190112610135576004356060608060405161084c81610f29565b5f81525f60208201528260408201525f83820152015261086b816115ea565b60148101549060ff600582015460a01c166040519361088985610f29565b8452602084019283526108ce6002604051936108b3856108ac8160158501610ec1565b0386610f7d565b604087019485526108c86060880194856111b9565b016110ed565b9160808501928352604051936020855260c0850195516020860152516040850152519360a060608501528451809152602060e085019501905f5b818110610937578580610131898861092589516080860190610cff565b51838203601f190160a0850152610cdb565b8251875260209687019690920191600101610908565b3461013557604036600319011261013557602061097361096b610c92565b60043561162f565b6040519015158152f35b34610135575f3660031901126101355761013161011d61141d565b34610135576020366003190112610135576004356109b4610fb7565b506109be816115ea565b80546001600160a01b03169060048101546001600160a01b03166005820154600f8301546010840154600685015490600786015492600e870154946008880154966014890154996040519b610a128d610ef8565b8c5260208c0152610a2560018a016110ed565b60408c0152610a3660028a016110ed565b60608c0152610a4760038a016110ed565b60808c015260a08b01526001600160a01b03811660c08b015260a01c60ff1660e08a0190610a74916111b9565b6101008901526101208801526101408701526101608601526101808501526101a0840152600901610aa4906111c5565b6101c08301526101e08201526040518091602082526020820161013191610d20565b34610135575f366003190112610135576040515f805160206116f383398151915280548083525f91825260208301917f92a07e9b5c0c3259ab73db7fddb759e0795904dcdc9c62a149d91b30ac2f683e91905b818110610b30576101318561011d81870382610f7d565b8254845260209093019260019283019201610b19565b346101355760203660031901126101355761013161011661011d610b68610c7c565b60405160208101917fd1261fcbdec2818395983d1051c30776b763075dd8066c02ad3ddcf362b02de283526bffffffffffffffffffffffff199060601b16604082015260348152610bba605482610f7d565b51902060405192838092610ec1565b3461013557604036600319011261013557610bff610beb60243560043561120b565b604051928392604084526040840190610e38565b9060208301520390f35b346101355760203660031901126101355761011661011d61013192610c2c610c7c565b9060208101917f286c44e1adb37baad1a43e591cf328daa08f091c9031a161720cadffabab900383526bffffffffffffffffffffffff199060601b16604082015260348152610bba605482610f7d565b600435906001600160a01b038216820361013557565b602435906001600160a01b038216820361013557565b90602080835192838152019201905f5b818110610cc55750505090565b8251845260209384019390920191600101610cb8565b805180835260209291819084018484015e5f828201840152601f01601f1916010190565b906004821015610d0c5752565b634e487b7160e01b5f52602160045260245ffd5b90815181526001600160a01b0360208301511660208201526102406101e0610d83610d71610d5f60408701516102606040880152610260870190610cdb565b60608701518682036060880152610cdb565b60808601518582036080870152610cdb565b936001600160a01b0360a08201511660a08501526001600160a01b0360c08201511660c0850152610dbc60e082015160e0860190610cff565b6101008101516101008501526101208101516101208501526101408101516101408501526101608101516101608501526101808101516101808501526101a08101516101a085015260606101c082015180516101c087015260208101518487015260408101516102008701520151610220850152015191015290565b9080602083519182815201916020808360051b8301019401925f915b838310610e6357505050505090565b9091929394602080610e81600193601f198682030187528951610d20565b97019301930191939290610e54565b9181601f840112156101355782359167ffffffffffffffff8311610135576020808501948460051b01011161013557565b90602082549182815201915f5260205f20905f5b818110610ee25750505090565b8254845260209093019260019283019201610ed5565b610200810190811067ffffffffffffffff821117610f1557604052565b634e487b7160e01b5f52604160045260245ffd5b60a0810190811067ffffffffffffffff821117610f1557604052565b6040810190811067ffffffffffffffff821117610f1557604052565b6080810190811067ffffffffffffffff821117610f1557604052565b90601f8019910116810190811067ffffffffffffffff821117610f1557604052565b67ffffffffffffffff8111610f155760051b60200190565b60405190610fc482610ef8565b5f6101e08382815282602082015260606040820152606080820152606060808201528260a08201528260c08201528260e08201528261010082015282610120820152826101408201528261016082015282610180820152826101a082015260405161102e81610f61565b8381528360208201528360408201528360608201526101c08201520152565b9061105782610f9f565b6110646040519182610f7d565b8281528092611075601f1991610f9f565b01905f5b82811061108557505050565b602090611090610fb7565b82828501015201611079565b919082039182116104b757565b5f805160206116f3833981519152548110156110d9575f805160206116f38339815191525f5260205f2001905f90565b634e487b7160e01b5f52603260045260245ffd5b90604051915f8154908160011c92600183169283156111af575b60208510841461119b5784875286939081156111795750600114611135575b5061113392500383610f7d565b565b90505f9291925260205f20905f915b81831061115d575050906020611133928201015f611126565b6020919350806001915483858901015201910190918492611144565b90506020925061113394915060ff191682840152151560051b8201015f611126565b634e487b7160e01b5f52602260045260245ffd5b93607f1693611107565b6004821015610d0c5752565b906040516111d281610f61565b6060600382948054845260018101546020850152600281015460408501520154910152565b80518210156110d95760209160051b010190565b915f805160206116f38339815191525491828410156113a15761122e848461109c565b908082101561139a57505b6112428161104d565b935f5b82811061125157505050565b5f1985018581116104b75761126783839261109c565b906112719161109c565b61127a906110a9565b90549060031b1c61128a816115ea565b80546001600160a01b03169060048101546001600160a01b03166005820154600f8301546010840154600685015490600786015492600e870154946008880154966014890154996040519b6112de8d610ef8565b8c5260208c01526112f160018a016110ed565b60408c015261130260028a016110ed565b60608c015261131360038a016110ed565b60808c015260a08b01526001600160a01b03811660c08b015260a01c60ff1660e08a0190611340916111b9565b6101008901526101208801526101408701526101608601526101808501526101a0840152600901611370906111c5565b6101c08301526101e082015261138682886111f7565b5261139181876111f7565b50600101611245565b9050611239565b509091506040516113b3602082610f7d565b5f81525f805b8181106113c65750509190565b6020906113d1610fb7565b828286010152016113b9565b906113e782610f9f565b6113f46040519182610f7d565b8281528092611405601f1991610f9f565b0190602036910137565b5f1981146104b75760010190565b60017f126ccc9c13b1c6ea6090e51049cd401cf6411009b75480e3934f8663e5d7e1a6540361154e577f0940b07e82ace5a9b6369ad035ede2cefb9eed2f364c533ae2a2a33c58f5ce5854905f805f805160206116f383398151915254915b8281106114fa575061148d906113dd565b925f805b83811061149e5750505050565b806114aa6001926110a9565b90549060031b1c6114ba816115ea565b8582149081156114ec575b506114d2575b5001611491565b6114e56114de8561140f565b94896111f7565b525f6114cb565b60149150015415155f6114c5565b611503816110a9565b90549060031b1c85611514826115ea565b9114908115611540575b5061152c575b60010161147c565b9061153860019161140f565b919050611524565b60149150015415155f61151e565b60405161155c602082610f7d565b5f81525f36813790565b60017f126ccc9c13b1c6ea6090e51049cd401cf6411009b75480e3934f8663e5d7e1a654036115c9576001600160a01b0360046115c37f0940b07e82ace5a9b6369ad035ede2cefb9eed2f364c533ae2a2a33c58f5ce58546115ea565b01541690565b5f90565b91908110156110d95760051b0190565b919082018092116104b757565b60405160208101917fc61520f0fc87f37c054c240fb12fa829a873c4a7f3a227d3cdaf38f732a45b0d8352604082015260408152611629606082610f7d565b51902090565b6001916040519060208201927ffa7666f901d98d7ddb6dca66654a4b44590f640f4803ecfa6cdcb1bcf243032b845260408301526bffffffffffffffffffffffff199060601b1660608201526054815261168a607482610f7d565b519020541490565b906040519060208201927ff9cb95d6bcd70b8f41deb63f6a0973398a369f058485501ab1645d87ca423542845260408301526bffffffffffffffffffffffff199060601b166060820152605481526116eb607482610f7d565b519020549056fef6b912f89c06d8afd06b9fa8bd742c729f30156da50b94481faddbc9d0b4e9eaa26469706673582212203da36fa455a5686fa0bcf4d4cbf5e8585f56d7ff4f94dcd736e399311e9e4f9964736f6c634300081a0033","opcodes":"PUSH1 0x80 DUP1 PUSH1 0x40 MSTORE CALLVALUE PUSH1 0x15 JUMPI PUSH2 0x1748 SWAP1 DUP2 PUSH2 0x1A DUP3 CODECOPY RETURN JUMPDEST PUSH0 DUP1 REVERT INVALID PUSH1 0x80 DUP1 PUSH1 0x40 MSTORE PUSH1 0x4 CALLDATASIZE LT ISZERO PUSH2 0x12 JUMPI PUSH0 DUP1 REVERT JUMPDEST PUSH0 CALLDATALOAD PUSH1 0xE0 SHR SWAP1 DUP2 PUSH4 0x272D82A EQ PUSH2 0xC09 JUMPI POP DUP1 PUSH4 0x13AF8C41 EQ PUSH2 0xBC9 JUMPI DUP1 PUSH4 0x356213D6 EQ PUSH2 0xB46 JUMPI DUP1 PUSH4 0x5278C392 EQ PUSH2 0xAC6 JUMPI DUP1 PUSH4 0x5C32E52F EQ PUSH2 0x998 JUMPI DUP1 PUSH4 0x633A080F EQ PUSH2 0x97D JUMPI DUP1 PUSH4 0x873F6F9E EQ PUSH2 0x94D JUMPI DUP1 PUSH4 0x9063CA86 EQ PUSH2 0x828 JUMPI DUP1 PUSH4 0x9611F3D9 EQ PUSH2 0x7FD JUMPI DUP1 PUSH4 0xB31A8A07 EQ PUSH2 0x6DF JUMPI DUP1 PUSH4 0xB3B44358 EQ PUSH2 0x553 JUMPI DUP1 PUSH4 0xCE70B5F7 EQ PUSH2 0x514 JUMPI DUP1 PUSH4 0xD0AC5563 EQ PUSH2 0x4D8 JUMPI DUP1 PUSH4 0xD29C4E07 EQ PUSH2 0x1BA JUMPI DUP1 PUSH4 0xD71AA104 EQ PUSH2 0x190 JUMPI DUP1 PUSH4 0xD98AF84A EQ PUSH2 0x167 JUMPI DUP1 PUSH4 0xE081DBF9 EQ PUSH2 0x139 JUMPI PUSH4 0xEA1A4545 EQ PUSH2 0xE2 JUMPI PUSH0 DUP1 REVERT JUMPDEST CALLVALUE PUSH2 0x135 JUMPI PUSH1 0x20 CALLDATASIZE PUSH1 0x3 NOT ADD SLT PUSH2 0x135 JUMPI PUSH2 0x131 PUSH2 0x116 PUSH2 0x11D PUSH1 0x15 PUSH2 0x109 PUSH1 0x4 CALLDATALOAD PUSH2 0x15EA JUMP JUMPDEST ADD PUSH1 0x40 MLOAD SWAP3 DUP4 DUP1 SWAP3 PUSH2 0xEC1 JUMP JUMPDEST SUB DUP3 PUSH2 0xF7D JUMP JUMPDEST PUSH1 0x40 MLOAD SWAP2 DUP3 SWAP2 PUSH1 0x20 DUP4 MSTORE PUSH1 0x20 DUP4 ADD SWAP1 PUSH2 0xCA8 JUMP JUMPDEST SUB SWAP1 RETURN JUMPDEST PUSH0 DUP1 REVERT JUMPDEST CALLVALUE PUSH2 0x135 JUMPI PUSH1 0x40 CALLDATASIZE PUSH1 0x3 NOT ADD SLT PUSH2 0x135 JUMPI PUSH1 0x20 PUSH2 0x15F PUSH2 0x157 PUSH2 0xC92 JUMP JUMPDEST PUSH1 0x4 CALLDATALOAD PUSH2 0x1692 JUMP JUMPDEST PUSH1 0x40 MLOAD SWAP1 DUP2 MSTORE RETURN JUMPDEST CALLVALUE PUSH2 0x135 JUMPI PUSH0 CALLDATASIZE PUSH1 0x3 NOT ADD SLT PUSH2 0x135 JUMPI PUSH1 0x20 PUSH0 DUP1 MLOAD PUSH1 0x20 PUSH2 0x16F3 DUP4 CODECOPY DUP2 MLOAD SWAP2 MSTORE SLOAD PUSH1 0x40 MLOAD SWAP1 DUP2 MSTORE RETURN JUMPDEST CALLVALUE PUSH2 0x135 JUMPI PUSH1 0x20 CALLDATASIZE PUSH1 0x3 NOT ADD SLT PUSH2 0x135 JUMPI PUSH1 0x20 PUSH1 0x14 PUSH2 0x1B0 PUSH1 0x4 CALLDATALOAD PUSH2 0x15EA JUMP JUMPDEST ADD SLOAD PUSH1 0x40 MLOAD SWAP1 DUP2 MSTORE RETURN JUMPDEST CALLVALUE PUSH2 0x135 JUMPI PUSH1 0x40 CALLDATASIZE PUSH1 0x3 NOT ADD SLT PUSH2 0x135 JUMPI PUSH2 0x1D3 PUSH2 0xC7C JUMP JUMPDEST PUSH1 0x24 CALLDATALOAD PUSH8 0xFFFFFFFFFFFFFFFF DUP2 GT PUSH2 0x135 JUMPI PUSH2 0x1F3 SWAP1 CALLDATASIZE SWAP1 PUSH1 0x4 ADD PUSH2 0xE90 JUMP JUMPDEST PUSH2 0x1FF DUP2 SWAP4 SWAP3 SWAP4 PUSH2 0x13DD JUMP JUMPDEST SWAP3 PUSH2 0x209 DUP3 PUSH2 0x13DD JUMP JUMPDEST PUSH2 0x212 DUP4 PUSH2 0x13DD JUMP JUMPDEST SWAP2 PUSH2 0x21C DUP5 PUSH2 0xF9F JUMP JUMPDEST SWAP4 PUSH2 0x22A PUSH1 0x40 MLOAD SWAP6 DUP7 PUSH2 0xF7D JUMP JUMPDEST DUP1 DUP6 MSTORE PUSH2 0x236 DUP2 PUSH2 0xF9F JUMP JUMPDEST PUSH1 0x20 DUP7 ADD SWAP7 SWAP1 PUSH1 0x1F NOT ADD CALLDATASIZE DUP9 CALLDATACOPY PUSH1 0x60 DUP2 SWAP1 SHL PUSH12 0xFFFFFFFFFFFFFFFFFFFFFFFF NOT AND SWAP2 PUSH0 JUMPDEST DUP2 DUP2 LT PUSH2 0x2DC JUMPI PUSH2 0x285 DUP11 DUP11 DUP11 PUSH1 0x20 PUSH2 0x2A0 DUP13 PUSH2 0x292 DUP14 PUSH1 0x40 MLOAD SWAP9 DUP10 SWAP9 PUSH1 0x80 DUP11 MSTORE PUSH1 0x80 DUP11 ADD SWAP1 PUSH2 0xCA8 JUMP JUMPDEST SWAP1 DUP9 DUP3 SUB DUP7 DUP11 ADD MSTORE PUSH2 0xCA8 JUMP JUMPDEST SWAP1 DUP7 DUP3 SUB PUSH1 0x40 DUP9 ADD MSTORE PUSH2 0xCA8 JUMP JUMPDEST SWAP2 DUP5 DUP4 SUB PUSH1 0x60 DUP7 ADD MSTORE MLOAD SWAP2 DUP3 DUP2 MSTORE ADD SWAP2 SWAP1 PUSH0 JUMPDEST DUP2 DUP2 LT PUSH2 0x2C1 JUMPI POP POP POP SUB SWAP1 RETURN JUMPDEST DUP3 MLOAD ISZERO ISZERO DUP5 MSTORE DUP6 SWAP5 POP PUSH1 0x20 SWAP4 DUP5 ADD SWAP4 SWAP1 SWAP3 ADD SWAP2 PUSH1 0x1 ADD PUSH2 0x2B3 JUMP JUMPDEST PUSH2 0x2E7 DUP2 DUP4 DUP8 PUSH2 0x15CD JUMP JUMPDEST CALLDATALOAD SWAP1 PUSH2 0x2F2 DUP3 PUSH2 0x15EA JUMP JUMPDEST SWAP2 DUP12 PUSH2 0x308 DUP4 PUSH2 0x302 DUP9 DUP6 PUSH2 0x1692 JUMP JUMPDEST SWAP3 PUSH2 0x11F7 JUMP JUMPDEST MSTORE PUSH1 0x40 MLOAD PUSH1 0x20 DUP2 ADD SWAP1 PUSH32 0x8558C73F0B9098E6BE43E479B1CF30236E7E64287529940C5FDD38AB47BE3E09 DUP3 MSTORE DUP3 PUSH1 0x40 DUP3 ADD MSTORE DUP8 PUSH1 0x60 DUP3 ADD MSTORE PUSH1 0x54 DUP2 MSTORE PUSH2 0x34F PUSH1 0x74 DUP3 PUSH2 0xF7D JUMP JUMPDEST MLOAD SWAP1 KECCAK256 SLOAD PUSH2 0x35D DUP4 DUP11 PUSH2 0x11F7 JUMP JUMPDEST MSTORE PUSH2 0x368 DUP6 DUP3 PUSH2 0x162F JUMP JUMPDEST PUSH2 0x372 DUP4 DUP13 PUSH2 0x11F7 JUMP JUMPDEST SWAP1 ISZERO ISZERO SWAP1 MSTORE PUSH0 PUSH2 0x382 DUP4 DUP13 PUSH2 0x11F7 JUMP JUMPDEST MLOAD ISZERO DUP1 PUSH2 0x4CB JUMPI JUMPDEST PUSH2 0x46D JUMPI JUMPDEST PUSH1 0x1 SWAP4 POP PUSH2 0x39D DUP4 DUP11 PUSH2 0x11F7 JUMP JUMPDEST MLOAD SWAP1 PUSH1 0x1 PUSH1 0x1 PUSH1 0xA0 SHL SUB PUSH1 0x40 MLOAD PUSH1 0x20 DUP2 ADD SWAP1 PUSH32 0xD5B18EA51234F5557964678168B512E7844D6B8406C15C9AC0AE675917D830F DUP3 MSTORE DUP6 PUSH1 0x40 DUP3 ADD MSTORE DUP11 PUSH1 0x60 DUP3 ADD MSTORE PUSH1 0x54 DUP2 MSTORE PUSH2 0x3ED PUSH1 0x74 DUP3 PUSH2 0xF7D JUMP JUMPDEST MLOAD SWAP1 KECCAK256 SLOAD SWAP4 PUSH1 0x40 MLOAD PUSH1 0x20 DUP2 ADD SWAP2 PUSH32 0xC3DE27A01AA54FFCB04F207E8A4F4A16B583945F9CF1C6868757CA4E0E693152 DUP4 MSTORE PUSH1 0x40 DUP3 ADD MSTORE DUP11 PUSH1 0x60 DUP3 ADD MSTORE PUSH1 0x54 DUP2 MSTORE PUSH2 0x437 PUSH1 0x74 DUP3 PUSH2 0xF7D JUMP JUMPDEST MLOAD SWAP1 KECCAK256 SLOAD AND ISZERO PUSH2 0x455 JUMPI POP POP JUMPDEST PUSH2 0x44E DUP3 DUP11 PUSH2 0x11F7 JUMP JUMPDEST MSTORE ADD PUSH2 0x25A JUMP JUMPDEST PUSH2 0x468 SWAP3 SWAP2 PUSH2 0x463 SWAP2 PUSH2 0x15DD JUMP JUMPDEST PUSH2 0x15DD JUMP JUMPDEST PUSH2 0x444 JUMP JUMPDEST POP PUSH2 0x478 DUP3 DUP14 PUSH2 0x11F7 JUMP JUMPDEST MLOAD SWAP3 PUSH1 0x7 DUP2 ADD SLOAD SWAP4 DUP5 DUP2 MUL SWAP5 DUP2 DUP7 DIV EQ SWAP1 ISZERO OR ISZERO PUSH2 0x4B7 JUMPI PUSH1 0x6 ADD SLOAD DUP1 ISZERO PUSH2 0x4A3 JUMPI PUSH1 0x1 SWAP4 DIV PUSH2 0x38F JUMP JUMPDEST PUSH4 0x4E487B71 PUSH1 0xE0 SHL PUSH0 MSTORE PUSH1 0x12 PUSH1 0x4 MSTORE PUSH1 0x24 PUSH0 REVERT JUMPDEST PUSH4 0x4E487B71 PUSH1 0xE0 SHL PUSH0 MSTORE PUSH1 0x11 PUSH1 0x4 MSTORE PUSH1 0x24 PUSH0 REVERT JUMPDEST POP PUSH1 0x6 DUP5 ADD SLOAD ISZERO ISZERO PUSH2 0x38A JUMP JUMPDEST CALLVALUE PUSH2 0x135 JUMPI PUSH0 CALLDATASIZE PUSH1 0x3 NOT ADD SLT PUSH2 0x135 JUMPI PUSH1 0x20 PUSH32 0x940B07E82ACE5A9B6369AD035EDE2CEFB9EED2F364C533AE2A2A33C58F5CE58 SLOAD PUSH1 0x40 MLOAD SWAP1 DUP2 MSTORE RETURN JUMPDEST CALLVALUE PUSH2 0x135 JUMPI PUSH0 CALLDATASIZE PUSH1 0x3 NOT ADD SLT PUSH2 0x135 JUMPI PUSH1 0x20 PUSH1 0x1 PUSH32 0x126CCC9C13B1C6EA6090E51049CD401CF6411009B75480E3934F8663E5D7E1A6 SLOAD EQ PUSH1 0x40 MLOAD SWAP1 DUP2 MSTORE RETURN JUMPDEST CALLVALUE PUSH2 0x135 JUMPI PUSH1 0x20 CALLDATASIZE PUSH1 0x3 NOT ADD SLT PUSH2 0x135 JUMPI PUSH1 0x4 CALLDATALOAD PUSH8 0xFFFFFFFFFFFFFFFF DUP2 GT PUSH2 0x135 JUMPI PUSH2 0x584 SWAP1 CALLDATASIZE SWAP1 PUSH1 0x4 ADD PUSH2 0xE90 JUMP JUMPDEST PUSH2 0x58D DUP2 PUSH2 0x104D JUMP JUMPDEST SWAP1 PUSH0 JUMPDEST DUP2 DUP2 LT PUSH2 0x5AD JUMPI PUSH1 0x40 MLOAD PUSH1 0x20 DUP1 DUP3 MSTORE DUP2 SWAP1 PUSH2 0x131 SWAP1 DUP3 ADD DUP7 PUSH2 0xE38 JUMP JUMPDEST PUSH2 0x5B8 DUP2 DUP4 DUP7 PUSH2 0x15CD JUMP JUMPDEST CALLDATALOAD PUSH2 0x5C2 SWAP1 PUSH2 0x15EA JUMP JUMPDEST PUSH2 0x5CD DUP3 DUP5 DUP8 PUSH2 0x15CD JUMP JUMPDEST CALLDATALOAD SWAP1 DUP1 SLOAD PUSH1 0x1 PUSH1 0x1 PUSH1 0xA0 SHL SUB AND SWAP1 PUSH1 0x4 DUP2 ADD SLOAD PUSH1 0x1 PUSH1 0x1 PUSH1 0xA0 SHL SUB AND PUSH1 0x5 DUP3 ADD SLOAD PUSH1 0xF DUP4 ADD SLOAD PUSH1 0x10 DUP5 ADD SLOAD PUSH1 0x6 DUP6 ADD SLOAD SWAP1 PUSH1 0x7 DUP7 ADD SLOAD SWAP3 PUSH1 0xE DUP8 ADD SLOAD SWAP5 PUSH1 0x8 DUP9 ADD SLOAD SWAP7 PUSH1 0x14 DUP10 ADD SLOAD SWAP10 PUSH1 0x40 MLOAD SWAP12 PUSH2 0x623 DUP14 PUSH2 0xEF8 JUMP JUMPDEST DUP13 MSTORE PUSH1 0x20 DUP13 ADD MSTORE PUSH2 0x636 PUSH1 0x1 DUP11 ADD PUSH2 0x10ED JUMP JUMPDEST PUSH1 0x40 DUP13 ADD MSTORE PUSH2 0x647 PUSH1 0x2 DUP11 ADD PUSH2 0x10ED JUMP JUMPDEST PUSH1 0x60 DUP13 ADD MSTORE PUSH2 0x658 PUSH1 0x3 DUP11 ADD PUSH2 0x10ED JUMP JUMPDEST PUSH1 0x80 DUP13 ADD MSTORE PUSH1 0xA0 DUP12 ADD MSTORE PUSH1 0x1 PUSH1 0x1 PUSH1 0xA0 SHL SUB DUP2 AND PUSH1 0xC0 DUP12 ADD MSTORE PUSH1 0xA0 SHR PUSH1 0xFF AND PUSH1 0xE0 DUP11 ADD SWAP1 PUSH2 0x685 SWAP2 PUSH2 0x11B9 JUMP JUMPDEST PUSH2 0x100 DUP10 ADD MSTORE PUSH2 0x120 DUP9 ADD MSTORE PUSH2 0x140 DUP8 ADD MSTORE PUSH2 0x160 DUP7 ADD MSTORE PUSH2 0x180 DUP6 ADD MSTORE PUSH2 0x1A0 DUP5 ADD MSTORE PUSH1 0x9 ADD PUSH2 0x6B5 SWAP1 PUSH2 0x11C5 JUMP JUMPDEST PUSH2 0x1C0 DUP4 ADD MSTORE PUSH2 0x1E0 DUP3 ADD MSTORE PUSH2 0x6CB DUP3 DUP6 PUSH2 0x11F7 JUMP JUMPDEST MSTORE PUSH2 0x6D6 DUP2 DUP5 PUSH2 0x11F7 JUMP JUMPDEST POP PUSH1 0x1 ADD PUSH2 0x590 JUMP JUMPDEST CALLVALUE PUSH2 0x135 JUMPI PUSH0 CALLDATASIZE PUSH1 0x3 NOT ADD SLT PUSH2 0x135 JUMPI PUSH0 DUP1 MLOAD PUSH1 0x20 PUSH2 0x16F3 DUP4 CODECOPY DUP2 MLOAD SWAP2 MSTORE SLOAD PUSH2 0x707 DUP2 PUSH2 0xF9F JUMP JUMPDEST SWAP1 PUSH2 0x715 PUSH1 0x40 MLOAD SWAP3 DUP4 PUSH2 0xF7D JUMP JUMPDEST DUP1 DUP3 MSTORE PUSH1 0x1F NOT PUSH2 0x724 DUP3 PUSH2 0xF9F JUMP JUMPDEST ADD PUSH0 JUMPDEST DUP2 DUP2 LT PUSH2 0x7DA JUMPI POP POP PUSH0 JUMPDEST DUP2 DUP2 LT PUSH2 0x78A JUMPI DUP3 PUSH1 0x40 MLOAD DUP1 SWAP2 PUSH1 0x20 DUP3 ADD PUSH1 0x20 DUP4 MSTORE DUP2 MLOAD DUP1 SWAP2 MSTORE PUSH1 0x20 PUSH1 0x40 DUP5 ADD SWAP3 ADD SWAP1 PUSH0 JUMPDEST DUP2 DUP2 LT PUSH2 0x765 JUMPI POP POP POP SUB SWAP1 RETURN JUMPDEST DUP3 MLOAD DUP1 MLOAD DUP6 MSTORE PUSH1 0x20 SWAP1 DUP2 ADD MLOAD DUP2 DUP7 ADD MSTORE DUP7 SWAP6 POP PUSH1 0x40 SWAP1 SWAP5 ADD SWAP4 SWAP1 SWAP3 ADD SWAP2 PUSH1 0x1 ADD PUSH2 0x757 JUMP JUMPDEST DUP1 PUSH2 0x796 PUSH1 0x1 SWAP3 PUSH2 0x10A9 JUMP JUMPDEST SWAP1 SLOAD SWAP1 PUSH1 0x3 SHL SHR PUSH1 0x14 PUSH2 0x7A8 DUP3 PUSH2 0x15EA JUMP JUMPDEST ADD SLOAD PUSH1 0x40 MLOAD SWAP2 PUSH2 0x7B7 DUP4 PUSH2 0xF45 JUMP JUMPDEST DUP3 MSTORE PUSH1 0x20 DUP3 ADD MSTORE PUSH2 0x7C8 DUP3 DUP7 PUSH2 0x11F7 JUMP JUMPDEST MSTORE PUSH2 0x7D3 DUP2 DUP6 PUSH2 0x11F7 JUMP JUMPDEST POP ADD PUSH2 0x732 JUMP JUMPDEST PUSH1 0x20 SWAP1 PUSH1 0x40 MLOAD PUSH2 0x7E9 DUP2 PUSH2 0xF45 JUMP JUMPDEST PUSH0 DUP2 MSTORE PUSH0 DUP4 DUP3 ADD MSTORE DUP3 DUP3 DUP8 ADD ADD MSTORE ADD PUSH2 0x727 JUMP JUMPDEST CALLVALUE PUSH2 0x135 JUMPI PUSH0 CALLDATASIZE PUSH1 0x3 NOT ADD SLT PUSH2 0x135 JUMPI PUSH1 0x20 PUSH2 0x817 PUSH2 0x1566 JUMP JUMPDEST PUSH1 0x1 PUSH1 0x1 PUSH1 0xA0 SHL SUB PUSH1 0x40 MLOAD SWAP2 AND DUP2 MSTORE RETURN JUMPDEST CALLVALUE PUSH2 0x135 JUMPI PUSH1 0x20 CALLDATASIZE PUSH1 0x3 NOT ADD SLT PUSH2 0x135 JUMPI PUSH1 0x4 CALLDATALOAD PUSH1 0x60 PUSH1 0x80 PUSH1 0x40 MLOAD PUSH2 0x84C DUP2 PUSH2 0xF29 JUMP JUMPDEST PUSH0 DUP2 MSTORE PUSH0 PUSH1 0x20 DUP3 ADD MSTORE DUP3 PUSH1 0x40 DUP3 ADD MSTORE PUSH0 DUP4 DUP3 ADD MSTORE ADD MSTORE PUSH2 0x86B DUP2 PUSH2 0x15EA JUMP JUMPDEST PUSH1 0x14 DUP2 ADD SLOAD SWAP1 PUSH1 0xFF PUSH1 0x5 DUP3 ADD SLOAD PUSH1 0xA0 SHR AND PUSH1 0x40 MLOAD SWAP4 PUSH2 0x889 DUP6 PUSH2 0xF29 JUMP JUMPDEST DUP5 MSTORE PUSH1 0x20 DUP5 ADD SWAP3 DUP4 MSTORE PUSH2 0x8CE PUSH1 0x2 PUSH1 0x40 MLOAD SWAP4 PUSH2 0x8B3 DUP6 PUSH2 0x8AC DUP2 PUSH1 0x15 DUP6 ADD PUSH2 0xEC1 JUMP JUMPDEST SUB DUP7 PUSH2 0xF7D JUMP JUMPDEST PUSH1 0x40 DUP8 ADD SWAP5 DUP6 MSTORE PUSH2 0x8C8 PUSH1 0x60 DUP9 ADD SWAP5 DUP6 PUSH2 0x11B9 JUMP JUMPDEST ADD PUSH2 0x10ED JUMP JUMPDEST SWAP2 PUSH1 0x80 DUP6 ADD SWAP3 DUP4 MSTORE PUSH1 0x40 MLOAD SWAP4 PUSH1 0x20 DUP6 MSTORE PUSH1 0xC0 DUP6 ADD SWAP6 MLOAD PUSH1 0x20 DUP7 ADD MSTORE MLOAD PUSH1 0x40 DUP6 ADD MSTORE MLOAD SWAP4 PUSH1 0xA0 PUSH1 0x60 DUP6 ADD MSTORE DUP5 MLOAD DUP1 SWAP2 MSTORE PUSH1 0x20 PUSH1 0xE0 DUP6 ADD SWAP6 ADD SWAP1 PUSH0 JUMPDEST DUP2 DUP2 LT PUSH2 0x937 JUMPI DUP6 DUP1 PUSH2 0x131 DUP10 DUP9 PUSH2 0x925 DUP10 MLOAD PUSH1 0x80 DUP7 ADD SWAP1 PUSH2 0xCFF JUMP JUMPDEST MLOAD DUP4 DUP3 SUB PUSH1 0x1F NOT ADD PUSH1 0xA0 DUP6 ADD MSTORE PUSH2 0xCDB JUMP JUMPDEST DUP3 MLOAD DUP8 MSTORE PUSH1 0x20 SWAP7 DUP8 ADD SWAP7 SWAP1 SWAP3 ADD SWAP2 PUSH1 0x1 ADD PUSH2 0x908 JUMP JUMPDEST CALLVALUE PUSH2 0x135 JUMPI PUSH1 0x40 CALLDATASIZE PUSH1 0x3 NOT ADD SLT PUSH2 0x135 JUMPI PUSH1 0x20 PUSH2 0x973 PUSH2 0x96B PUSH2 0xC92 JUMP JUMPDEST PUSH1 0x4 CALLDATALOAD PUSH2 0x162F JUMP JUMPDEST PUSH1 0x40 MLOAD SWAP1 ISZERO ISZERO DUP2 MSTORE RETURN JUMPDEST CALLVALUE PUSH2 0x135 JUMPI PUSH0 CALLDATASIZE PUSH1 0x3 NOT ADD SLT PUSH2 0x135 JUMPI PUSH2 0x131 PUSH2 0x11D PUSH2 0x141D JUMP JUMPDEST CALLVALUE PUSH2 0x135 JUMPI PUSH1 0x20 CALLDATASIZE PUSH1 0x3 NOT ADD SLT PUSH2 0x135 JUMPI PUSH1 0x4 CALLDATALOAD PUSH2 0x9B4 PUSH2 0xFB7 JUMP JUMPDEST POP PUSH2 0x9BE DUP2 PUSH2 0x15EA JUMP JUMPDEST DUP1 SLOAD PUSH1 0x1 PUSH1 0x1 PUSH1 0xA0 SHL SUB AND SWAP1 PUSH1 0x4 DUP2 ADD SLOAD PUSH1 0x1 PUSH1 0x1 PUSH1 0xA0 SHL SUB AND PUSH1 0x5 DUP3 ADD SLOAD PUSH1 0xF DUP4 ADD SLOAD PUSH1 0x10 DUP5 ADD SLOAD PUSH1 0x6 DUP6 ADD SLOAD SWAP1 PUSH1 0x7 DUP7 ADD SLOAD SWAP3 PUSH1 0xE DUP8 ADD SLOAD SWAP5 PUSH1 0x8 DUP9 ADD SLOAD SWAP7 PUSH1 0x14 DUP10 ADD SLOAD SWAP10 PUSH1 0x40 MLOAD SWAP12 PUSH2 0xA12 DUP14 PUSH2 0xEF8 JUMP JUMPDEST DUP13 MSTORE PUSH1 0x20 DUP13 ADD MSTORE PUSH2 0xA25 PUSH1 0x1 DUP11 ADD PUSH2 0x10ED JUMP JUMPDEST PUSH1 0x40 DUP13 ADD MSTORE PUSH2 0xA36 PUSH1 0x2 DUP11 ADD PUSH2 0x10ED JUMP JUMPDEST PUSH1 0x60 DUP13 ADD MSTORE PUSH2 0xA47 PUSH1 0x3 DUP11 ADD PUSH2 0x10ED JUMP JUMPDEST PUSH1 0x80 DUP13 ADD MSTORE PUSH1 0xA0 DUP12 ADD MSTORE PUSH1 0x1 PUSH1 0x1 PUSH1 0xA0 SHL SUB DUP2 AND PUSH1 0xC0 DUP12 ADD MSTORE PUSH1 0xA0 SHR PUSH1 0xFF AND PUSH1 0xE0 DUP11 ADD SWAP1 PUSH2 0xA74 SWAP2 PUSH2 0x11B9 JUMP JUMPDEST PUSH2 0x100 DUP10 ADD MSTORE PUSH2 0x120 DUP9 ADD MSTORE PUSH2 0x140 DUP8 ADD MSTORE PUSH2 0x160 DUP7 ADD MSTORE PUSH2 0x180 DUP6 ADD MSTORE PUSH2 0x1A0 DUP5 ADD MSTORE PUSH1 0x9 ADD PUSH2 0xAA4 SWAP1 PUSH2 0x11C5 JUMP JUMPDEST PUSH2 0x1C0 DUP4 ADD MSTORE PUSH2 0x1E0 DUP3 ADD MSTORE PUSH1 0x40 MLOAD DUP1 SWAP2 PUSH1 0x20 DUP3 MSTORE PUSH1 0x20 DUP3 ADD PUSH2 0x131 SWAP2 PUSH2 0xD20 JUMP JUMPDEST CALLVALUE PUSH2 0x135 JUMPI PUSH0 CALLDATASIZE PUSH1 0x3 NOT ADD SLT PUSH2 0x135 JUMPI PUSH1 0x40 MLOAD PUSH0 DUP1 MLOAD PUSH1 0x20 PUSH2 0x16F3 DUP4 CODECOPY DUP2 MLOAD SWAP2 MSTORE DUP1 SLOAD DUP1 DUP4 MSTORE PUSH0 SWAP2 DUP3 MSTORE PUSH1 0x20 DUP4 ADD SWAP2 PUSH32 0x92A07E9B5C0C3259AB73DB7FDDB759E0795904DCDC9C62A149D91B30AC2F683E SWAP2 SWAP1 JUMPDEST DUP2 DUP2 LT PUSH2 0xB30 JUMPI PUSH2 0x131 DUP6 PUSH2 0x11D DUP2 DUP8 SUB DUP3 PUSH2 0xF7D JUMP JUMPDEST DUP3 SLOAD DUP5 MSTORE PUSH1 0x20 SWAP1 SWAP4 ADD SWAP3 PUSH1 0x1 SWAP3 DUP4 ADD SWAP3 ADD PUSH2 0xB19 JUMP JUMPDEST CALLVALUE PUSH2 0x135 JUMPI PUSH1 0x20 CALLDATASIZE PUSH1 0x3 NOT ADD SLT PUSH2 0x135 JUMPI PUSH2 0x131 PUSH2 0x116 PUSH2 0x11D PUSH2 0xB68 PUSH2 0xC7C JUMP JUMPDEST PUSH1 0x40 MLOAD PUSH1 0x20 DUP2 ADD SWAP2 PUSH32 0xD1261FCBDEC2818395983D1051C30776B763075DD8066C02AD3DDCF362B02DE2 DUP4 MSTORE PUSH12 0xFFFFFFFFFFFFFFFFFFFFFFFF NOT SWAP1 PUSH1 0x60 SHL AND PUSH1 0x40 DUP3 ADD MSTORE PUSH1 0x34 DUP2 MSTORE PUSH2 0xBBA PUSH1 0x54 DUP3 PUSH2 0xF7D JUMP JUMPDEST MLOAD SWAP1 KECCAK256 PUSH1 0x40 MLOAD SWAP3 DUP4 DUP1 SWAP3 PUSH2 0xEC1 JUMP JUMPDEST CALLVALUE PUSH2 0x135 JUMPI PUSH1 0x40 CALLDATASIZE PUSH1 0x3 NOT ADD SLT PUSH2 0x135 JUMPI PUSH2 0xBFF PUSH2 0xBEB PUSH1 0x24 CALLDATALOAD PUSH1 0x4 CALLDATALOAD PUSH2 0x120B JUMP JUMPDEST PUSH1 0x40 MLOAD SWAP3 DUP4 SWAP3 PUSH1 0x40 DUP5 MSTORE PUSH1 0x40 DUP5 ADD SWAP1 PUSH2 0xE38 JUMP JUMPDEST SWAP1 PUSH1 0x20 DUP4 ADD MSTORE SUB SWAP1 RETURN JUMPDEST CALLVALUE PUSH2 0x135 JUMPI PUSH1 0x20 CALLDATASIZE PUSH1 0x3 NOT ADD SLT PUSH2 0x135 JUMPI PUSH2 0x116 PUSH2 0x11D PUSH2 0x131 SWAP3 PUSH2 0xC2C PUSH2 0xC7C JUMP JUMPDEST SWAP1 PUSH1 0x20 DUP2 ADD SWAP2 PUSH32 0x286C44E1ADB37BAAD1A43E591CF328DAA08F091C9031A161720CADFFABAB9003 DUP4 MSTORE PUSH12 0xFFFFFFFFFFFFFFFFFFFFFFFF NOT SWAP1 PUSH1 0x60 SHL AND PUSH1 0x40 DUP3 ADD MSTORE PUSH1 0x34 DUP2 MSTORE PUSH2 0xBBA PUSH1 0x54 DUP3 PUSH2 0xF7D JUMP JUMPDEST PUSH1 0x4 CALLDATALOAD SWAP1 PUSH1 0x1 PUSH1 0x1 PUSH1 0xA0 SHL SUB DUP3 AND DUP3 SUB PUSH2 0x135 JUMPI JUMP JUMPDEST PUSH1 0x24 CALLDATALOAD SWAP1 PUSH1 0x1 PUSH1 0x1 PUSH1 0xA0 SHL SUB DUP3 AND DUP3 SUB PUSH2 0x135 JUMPI JUMP JUMPDEST SWAP1 PUSH1 0x20 DUP1 DUP4 MLOAD SWAP3 DUP4 DUP2 MSTORE ADD SWAP3 ADD SWAP1 PUSH0 JUMPDEST DUP2 DUP2 LT PUSH2 0xCC5 JUMPI POP POP POP SWAP1 JUMP JUMPDEST DUP3 MLOAD DUP5 MSTORE PUSH1 0x20 SWAP4 DUP5 ADD SWAP4 SWAP1 SWAP3 ADD SWAP2 PUSH1 0x1 ADD PUSH2 0xCB8 JUMP JUMPDEST DUP1 MLOAD DUP1 DUP4 MSTORE PUSH1 0x20 SWAP3 SWAP2 DUP2 SWAP1 DUP5 ADD DUP5 DUP5 ADD MCOPY PUSH0 DUP3 DUP3 ADD DUP5 ADD MSTORE PUSH1 0x1F ADD PUSH1 0x1F NOT AND ADD ADD SWAP1 JUMP JUMPDEST SWAP1 PUSH1 0x4 DUP3 LT ISZERO PUSH2 0xD0C JUMPI MSTORE JUMP JUMPDEST PUSH4 0x4E487B71 PUSH1 0xE0 SHL PUSH0 MSTORE PUSH1 0x21 PUSH1 0x4 MSTORE PUSH1 0x24 PUSH0 REVERT JUMPDEST SWAP1 DUP2 MLOAD DUP2 MSTORE PUSH1 0x1 PUSH1 0x1 PUSH1 0xA0 SHL SUB PUSH1 0x20 DUP4 ADD MLOAD AND PUSH1 0x20 DUP3 ADD MSTORE PUSH2 0x240 PUSH2 0x1E0 PUSH2 0xD83 PUSH2 0xD71 PUSH2 0xD5F PUSH1 0x40 DUP8 ADD MLOAD PUSH2 0x260 PUSH1 0x40 DUP9 ADD MSTORE PUSH2 0x260 DUP8 ADD SWAP1 PUSH2 0xCDB JUMP JUMPDEST PUSH1 0x60 DUP8 ADD MLOAD DUP7 DUP3 SUB PUSH1 0x60 DUP9 ADD MSTORE PUSH2 0xCDB JUMP JUMPDEST PUSH1 0x80 DUP7 ADD MLOAD DUP6 DUP3 SUB PUSH1 0x80 DUP8 ADD MSTORE PUSH2 0xCDB JUMP JUMPDEST SWAP4 PUSH1 0x1 PUSH1 0x1 PUSH1 0xA0 SHL SUB PUSH1 0xA0 DUP3 ADD MLOAD AND PUSH1 0xA0 DUP6 ADD MSTORE PUSH1 0x1 PUSH1 0x1 PUSH1 0xA0 SHL SUB PUSH1 0xC0 DUP3 ADD MLOAD AND PUSH1 0xC0 DUP6 ADD MSTORE PUSH2 0xDBC PUSH1 0xE0 DUP3 ADD MLOAD PUSH1 0xE0 DUP7 ADD SWAP1 PUSH2 0xCFF JUMP JUMPDEST PUSH2 0x100 DUP2 ADD MLOAD PUSH2 0x100 DUP6 ADD MSTORE PUSH2 0x120 DUP2 ADD MLOAD PUSH2 0x120 DUP6 ADD MSTORE PUSH2 0x140 DUP2 ADD MLOAD PUSH2 0x140 DUP6 ADD MSTORE PUSH2 0x160 DUP2 ADD MLOAD PUSH2 0x160 DUP6 ADD MSTORE PUSH2 0x180 DUP2 ADD MLOAD PUSH2 0x180 DUP6 ADD MSTORE PUSH2 0x1A0 DUP2 ADD MLOAD PUSH2 0x1A0 DUP6 ADD MSTORE PUSH1 0x60 PUSH2 0x1C0 DUP3 ADD MLOAD DUP1 MLOAD PUSH2 0x1C0 DUP8 ADD MSTORE PUSH1 0x20 DUP2 ADD MLOAD DUP5 DUP8 ADD MSTORE PUSH1 0x40 DUP2 ADD MLOAD PUSH2 0x200 DUP8 ADD MSTORE ADD MLOAD PUSH2 0x220 DUP6 ADD MSTORE ADD MLOAD SWAP2 ADD MSTORE SWAP1 JUMP JUMPDEST SWAP1 DUP1 PUSH1 0x20 DUP4 MLOAD SWAP2 DUP3 DUP2 MSTORE ADD SWAP2 PUSH1 0x20 DUP1 DUP4 PUSH1 0x5 SHL DUP4 ADD ADD SWAP5 ADD SWAP3 PUSH0 SWAP2 JUMPDEST DUP4 DUP4 LT PUSH2 0xE63 JUMPI POP POP POP POP POP SWAP1 JUMP JUMPDEST SWAP1 SWAP2 SWAP3 SWAP4 SWAP5 PUSH1 0x20 DUP1 PUSH2 0xE81 PUSH1 0x1 SWAP4 PUSH1 0x1F NOT DUP7 DUP3 SUB ADD DUP8 MSTORE DUP10 MLOAD PUSH2 0xD20 JUMP JUMPDEST SWAP8 ADD SWAP4 ADD SWAP4 ADD SWAP2 SWAP4 SWAP3 SWAP1 PUSH2 0xE54 JUMP JUMPDEST SWAP2 DUP2 PUSH1 0x1F DUP5 ADD SLT ISZERO PUSH2 0x135 JUMPI DUP3 CALLDATALOAD SWAP2 PUSH8 0xFFFFFFFFFFFFFFFF DUP4 GT PUSH2 0x135 JUMPI PUSH1 0x20 DUP1 DUP6 ADD SWAP5 DUP5 PUSH1 0x5 SHL ADD ADD GT PUSH2 0x135 JUMPI JUMP JUMPDEST SWAP1 PUSH1 0x20 DUP3 SLOAD SWAP2 DUP3 DUP2 MSTORE ADD SWAP2 PUSH0 MSTORE PUSH1 0x20 PUSH0 KECCAK256 SWAP1 PUSH0 JUMPDEST DUP2 DUP2 LT PUSH2 0xEE2 JUMPI POP POP POP SWAP1 JUMP JUMPDEST DUP3 SLOAD DUP5 MSTORE PUSH1 0x20 SWAP1 SWAP4 ADD SWAP3 PUSH1 0x1 SWAP3 DUP4 ADD SWAP3 ADD PUSH2 0xED5 JUMP JUMPDEST PUSH2 0x200 DUP2 ADD SWAP1 DUP2 LT PUSH8 0xFFFFFFFFFFFFFFFF DUP3 GT OR PUSH2 0xF15 JUMPI PUSH1 0x40 MSTORE JUMP JUMPDEST PUSH4 0x4E487B71 PUSH1 0xE0 SHL PUSH0 MSTORE PUSH1 0x41 PUSH1 0x4 MSTORE PUSH1 0x24 PUSH0 REVERT JUMPDEST PUSH1 0xA0 DUP2 ADD SWAP1 DUP2 LT PUSH8 0xFFFFFFFFFFFFFFFF DUP3 GT OR PUSH2 0xF15 JUMPI PUSH1 0x40 MSTORE JUMP JUMPDEST PUSH1 0x40 DUP2 ADD SWAP1 DUP2 LT PUSH8 0xFFFFFFFFFFFFFFFF DUP3 GT OR PUSH2 0xF15 JUMPI PUSH1 0x40 MSTORE JUMP JUMPDEST PUSH1 0x80 DUP2 ADD SWAP1 DUP2 LT PUSH8 0xFFFFFFFFFFFFFFFF DUP3 GT OR PUSH2 0xF15 JUMPI PUSH1 0x40 MSTORE JUMP JUMPDEST SWAP1 PUSH1 0x1F DUP1 NOT SWAP2 ADD AND DUP2 ADD SWAP1 DUP2 LT PUSH8 0xFFFFFFFFFFFFFFFF DUP3 GT OR PUSH2 0xF15 JUMPI PUSH1 0x40 MSTORE JUMP JUMPDEST PUSH8 0xFFFFFFFFFFFFFFFF DUP2 GT PUSH2 0xF15 JUMPI PUSH1 0x5 SHL PUSH1 0x20 ADD SWAP1 JUMP JUMPDEST PUSH1 0x40 MLOAD SWAP1 PUSH2 0xFC4 DUP3 PUSH2 0xEF8 JUMP JUMPDEST PUSH0 PUSH2 0x1E0 DUP4 DUP3 DUP2 MSTORE DUP3 PUSH1 0x20 DUP3 ADD MSTORE PUSH1 0x60 PUSH1 0x40 DUP3 ADD MSTORE PUSH1 0x60 DUP1 DUP3 ADD MSTORE PUSH1 0x60 PUSH1 0x80 DUP3 ADD MSTORE DUP3 PUSH1 0xA0 DUP3 ADD MSTORE DUP3 PUSH1 0xC0 DUP3 ADD MSTORE DUP3 PUSH1 0xE0 DUP3 ADD MSTORE DUP3 PUSH2 0x100 DUP3 ADD MSTORE DUP3 PUSH2 0x120 DUP3 ADD MSTORE DUP3 PUSH2 0x140 DUP3 ADD MSTORE DUP3 PUSH2 0x160 DUP3 ADD MSTORE DUP3 PUSH2 0x180 DUP3 ADD MSTORE DUP3 PUSH2 0x1A0 DUP3 ADD MSTORE PUSH1 0x40 MLOAD PUSH2 0x102E DUP2 PUSH2 0xF61 JUMP JUMPDEST DUP4 DUP2 MSTORE DUP4 PUSH1 0x20 DUP3 ADD MSTORE DUP4 PUSH1 0x40 DUP3 ADD MSTORE DUP4 PUSH1 0x60 DUP3 ADD MSTORE PUSH2 0x1C0 DUP3 ADD MSTORE ADD MSTORE JUMP JUMPDEST SWAP1 PUSH2 0x1057 DUP3 PUSH2 0xF9F JUMP JUMPDEST PUSH2 0x1064 PUSH1 0x40 MLOAD SWAP2 DUP3 PUSH2 0xF7D JUMP JUMPDEST DUP3 DUP2 MSTORE DUP1 SWAP3 PUSH2 0x1075 PUSH1 0x1F NOT SWAP2 PUSH2 0xF9F JUMP JUMPDEST ADD SWAP1 PUSH0 JUMPDEST DUP3 DUP2 LT PUSH2 0x1085 JUMPI POP POP POP JUMP JUMPDEST PUSH1 0x20 SWAP1 PUSH2 0x1090 PUSH2 0xFB7 JUMP JUMPDEST DUP3 DUP3 DUP6 ADD ADD MSTORE ADD PUSH2 0x1079 JUMP JUMPDEST SWAP2 SWAP1 DUP3 SUB SWAP2 DUP3 GT PUSH2 0x4B7 JUMPI JUMP JUMPDEST PUSH0 DUP1 MLOAD PUSH1 0x20 PUSH2 0x16F3 DUP4 CODECOPY DUP2 MLOAD SWAP2 MSTORE SLOAD DUP2 LT ISZERO PUSH2 0x10D9 JUMPI PUSH0 DUP1 MLOAD PUSH1 0x20 PUSH2 0x16F3 DUP4 CODECOPY DUP2 MLOAD SWAP2 MSTORE PUSH0 MSTORE PUSH1 0x20 PUSH0 KECCAK256 ADD SWAP1 PUSH0 SWAP1 JUMP JUMPDEST PUSH4 0x4E487B71 PUSH1 0xE0 SHL PUSH0 MSTORE PUSH1 0x32 PUSH1 0x4 MSTORE PUSH1 0x24 PUSH0 REVERT JUMPDEST SWAP1 PUSH1 0x40 MLOAD SWAP2 PUSH0 DUP2 SLOAD SWAP1 DUP2 PUSH1 0x1 SHR SWAP3 PUSH1 0x1 DUP4 AND SWAP3 DUP4 ISZERO PUSH2 0x11AF JUMPI JUMPDEST PUSH1 0x20 DUP6 LT DUP5 EQ PUSH2 0x119B JUMPI DUP5 DUP8 MSTORE DUP7 SWAP4 SWAP1 DUP2 ISZERO PUSH2 0x1179 JUMPI POP PUSH1 0x1 EQ PUSH2 0x1135 JUMPI JUMPDEST POP PUSH2 0x1133 SWAP3 POP SUB DUP4 PUSH2 0xF7D JUMP JUMPDEST JUMP JUMPDEST SWAP1 POP PUSH0 SWAP3 SWAP2 SWAP3 MSTORE PUSH1 0x20 PUSH0 KECCAK256 SWAP1 PUSH0 SWAP2 JUMPDEST DUP2 DUP4 LT PUSH2 0x115D JUMPI POP POP SWAP1 PUSH1 0x20 PUSH2 0x1133 SWAP3 DUP3 ADD ADD PUSH0 PUSH2 0x1126 JUMP JUMPDEST PUSH1 0x20 SWAP2 SWAP4 POP DUP1 PUSH1 0x1 SWAP2 SLOAD DUP4 DUP6 DUP10 ADD ADD MSTORE ADD SWAP2 ADD SWAP1 SWAP2 DUP5 SWAP3 PUSH2 0x1144 JUMP JUMPDEST SWAP1 POP PUSH1 0x20 SWAP3 POP PUSH2 0x1133 SWAP5 SWAP2 POP PUSH1 0xFF NOT AND DUP3 DUP5 ADD MSTORE ISZERO ISZERO PUSH1 0x5 SHL DUP3 ADD ADD PUSH0 PUSH2 0x1126 JUMP JUMPDEST PUSH4 0x4E487B71 PUSH1 0xE0 SHL PUSH0 MSTORE PUSH1 0x22 PUSH1 0x4 MSTORE PUSH1 0x24 PUSH0 REVERT JUMPDEST SWAP4 PUSH1 0x7F AND SWAP4 PUSH2 0x1107 JUMP JUMPDEST PUSH1 0x4 DUP3 LT ISZERO PUSH2 0xD0C JUMPI MSTORE JUMP JUMPDEST SWAP1 PUSH1 0x40 MLOAD PUSH2 0x11D2 DUP2 PUSH2 0xF61 JUMP JUMPDEST PUSH1 0x60 PUSH1 0x3 DUP3 SWAP5 DUP1 SLOAD DUP5 MSTORE PUSH1 0x1 DUP2 ADD SLOAD PUSH1 0x20 DUP6 ADD MSTORE PUSH1 0x2 DUP2 ADD SLOAD PUSH1 0x40 DUP6 ADD MSTORE ADD SLOAD SWAP2 ADD MSTORE JUMP JUMPDEST DUP1 MLOAD DUP3 LT ISZERO PUSH2 0x10D9 JUMPI PUSH1 0x20 SWAP2 PUSH1 0x5 SHL ADD ADD SWAP1 JUMP JUMPDEST SWAP2 PUSH0 DUP1 MLOAD PUSH1 0x20 PUSH2 0x16F3 DUP4 CODECOPY DUP2 MLOAD SWAP2 MSTORE SLOAD SWAP2 DUP3 DUP5 LT ISZERO PUSH2 0x13A1 JUMPI PUSH2 0x122E DUP5 DUP5 PUSH2 0x109C JUMP JUMPDEST SWAP1 DUP1 DUP3 LT ISZERO PUSH2 0x139A JUMPI POP JUMPDEST PUSH2 0x1242 DUP2 PUSH2 0x104D JUMP JUMPDEST SWAP4 PUSH0 JUMPDEST DUP3 DUP2 LT PUSH2 0x1251 JUMPI POP POP POP JUMP JUMPDEST PUSH0 NOT DUP6 ADD DUP6 DUP2 GT PUSH2 0x4B7 JUMPI PUSH2 0x1267 DUP4 DUP4 SWAP3 PUSH2 0x109C JUMP JUMPDEST SWAP1 PUSH2 0x1271 SWAP2 PUSH2 0x109C JUMP JUMPDEST PUSH2 0x127A SWAP1 PUSH2 0x10A9 JUMP JUMPDEST SWAP1 SLOAD SWAP1 PUSH1 0x3 SHL SHR PUSH2 0x128A DUP2 PUSH2 0x15EA JUMP JUMPDEST DUP1 SLOAD PUSH1 0x1 PUSH1 0x1 PUSH1 0xA0 SHL SUB AND SWAP1 PUSH1 0x4 DUP2 ADD SLOAD PUSH1 0x1 PUSH1 0x1 PUSH1 0xA0 SHL SUB AND PUSH1 0x5 DUP3 ADD SLOAD PUSH1 0xF DUP4 ADD SLOAD PUSH1 0x10 DUP5 ADD SLOAD PUSH1 0x6 DUP6 ADD SLOAD SWAP1 PUSH1 0x7 DUP7 ADD SLOAD SWAP3 PUSH1 0xE DUP8 ADD SLOAD SWAP5 PUSH1 0x8 DUP9 ADD SLOAD SWAP7 PUSH1 0x14 DUP10 ADD SLOAD SWAP10 PUSH1 0x40 MLOAD SWAP12 PUSH2 0x12DE DUP14 PUSH2 0xEF8 JUMP JUMPDEST DUP13 MSTORE PUSH1 0x20 DUP13 ADD MSTORE PUSH2 0x12F1 PUSH1 0x1 DUP11 ADD PUSH2 0x10ED JUMP JUMPDEST PUSH1 0x40 DUP13 ADD MSTORE PUSH2 0x1302 PUSH1 0x2 DUP11 ADD PUSH2 0x10ED JUMP JUMPDEST PUSH1 0x60 DUP13 ADD MSTORE PUSH2 0x1313 PUSH1 0x3 DUP11 ADD PUSH2 0x10ED JUMP JUMPDEST PUSH1 0x80 DUP13 ADD MSTORE PUSH1 0xA0 DUP12 ADD MSTORE PUSH1 0x1 PUSH1 0x1 PUSH1 0xA0 SHL SUB DUP2 AND PUSH1 0xC0 DUP12 ADD MSTORE PUSH1 0xA0 SHR PUSH1 0xFF AND PUSH1 0xE0 DUP11 ADD SWAP1 PUSH2 0x1340 SWAP2 PUSH2 0x11B9 JUMP JUMPDEST PUSH2 0x100 DUP10 ADD MSTORE PUSH2 0x120 DUP9 ADD MSTORE PUSH2 0x140 DUP8 ADD MSTORE PUSH2 0x160 DUP7 ADD MSTORE PUSH2 0x180 DUP6 ADD MSTORE PUSH2 0x1A0 DUP5 ADD MSTORE PUSH1 0x9 ADD PUSH2 0x1370 SWAP1 PUSH2 0x11C5 JUMP JUMPDEST PUSH2 0x1C0 DUP4 ADD MSTORE PUSH2 0x1E0 DUP3 ADD MSTORE PUSH2 0x1386 DUP3 DUP9 PUSH2 0x11F7 JUMP JUMPDEST MSTORE PUSH2 0x1391 DUP2 DUP8 PUSH2 0x11F7 JUMP JUMPDEST POP PUSH1 0x1 ADD PUSH2 0x1245 JUMP JUMPDEST SWAP1 POP PUSH2 0x1239 JUMP JUMPDEST POP SWAP1 SWAP2 POP PUSH1 0x40 MLOAD PUSH2 0x13B3 PUSH1 0x20 DUP3 PUSH2 0xF7D JUMP JUMPDEST PUSH0 DUP2 MSTORE PUSH0 DUP1 JUMPDEST DUP2 DUP2 LT PUSH2 0x13C6 JUMPI POP POP SWAP2 SWAP1 JUMP JUMPDEST PUSH1 0x20 SWAP1 PUSH2 0x13D1 PUSH2 0xFB7 JUMP JUMPDEST DUP3 DUP3 DUP7 ADD ADD MSTORE ADD PUSH2 0x13B9 JUMP JUMPDEST SWAP1 PUSH2 0x13E7 DUP3 PUSH2 0xF9F JUMP JUMPDEST PUSH2 0x13F4 PUSH1 0x40 MLOAD SWAP2 DUP3 PUSH2 0xF7D JUMP JUMPDEST DUP3 DUP2 MSTORE DUP1 SWAP3 PUSH2 0x1405 PUSH1 0x1F NOT SWAP2 PUSH2 0xF9F JUMP JUMPDEST ADD SWAP1 PUSH1 0x20 CALLDATASIZE SWAP2 ADD CALLDATACOPY JUMP JUMPDEST PUSH0 NOT DUP2 EQ PUSH2 0x4B7 JUMPI PUSH1 0x1 ADD SWAP1 JUMP JUMPDEST PUSH1 0x1 PUSH32 0x126CCC9C13B1C6EA6090E51049CD401CF6411009B75480E3934F8663E5D7E1A6 SLOAD SUB PUSH2 0x154E JUMPI PUSH32 0x940B07E82ACE5A9B6369AD035EDE2CEFB9EED2F364C533AE2A2A33C58F5CE58 SLOAD SWAP1 PUSH0 DUP1 PUSH0 DUP1 MLOAD PUSH1 0x20 PUSH2 0x16F3 DUP4 CODECOPY DUP2 MLOAD SWAP2 MSTORE SLOAD SWAP2 JUMPDEST DUP3 DUP2 LT PUSH2 0x14FA JUMPI POP PUSH2 0x148D SWAP1 PUSH2 0x13DD JUMP JUMPDEST SWAP3 PUSH0 DUP1 JUMPDEST DUP4 DUP2 LT PUSH2 0x149E JUMPI POP POP POP POP JUMP JUMPDEST DUP1 PUSH2 0x14AA PUSH1 0x1 SWAP3 PUSH2 0x10A9 JUMP JUMPDEST SWAP1 SLOAD SWAP1 PUSH1 0x3 SHL SHR PUSH2 0x14BA DUP2 PUSH2 0x15EA JUMP JUMPDEST DUP6 DUP3 EQ SWAP1 DUP2 ISZERO PUSH2 0x14EC JUMPI JUMPDEST POP PUSH2 0x14D2 JUMPI JUMPDEST POP ADD PUSH2 0x1491 JUMP JUMPDEST PUSH2 0x14E5 PUSH2 0x14DE DUP6 PUSH2 0x140F JUMP JUMPDEST SWAP5 DUP10 PUSH2 0x11F7 JUMP JUMPDEST MSTORE PUSH0 PUSH2 0x14CB JUMP JUMPDEST PUSH1 0x14 SWAP2 POP ADD SLOAD ISZERO ISZERO PUSH0 PUSH2 0x14C5 JUMP JUMPDEST PUSH2 0x1503 DUP2 PUSH2 0x10A9 JUMP JUMPDEST SWAP1 SLOAD SWAP1 PUSH1 0x3 SHL SHR DUP6 PUSH2 0x1514 DUP3 PUSH2 0x15EA JUMP JUMPDEST SWAP2 EQ SWAP1 DUP2 ISZERO PUSH2 0x1540 JUMPI JUMPDEST POP PUSH2 0x152C JUMPI JUMPDEST PUSH1 0x1 ADD PUSH2 0x147C JUMP JUMPDEST SWAP1 PUSH2 0x1538 PUSH1 0x1 SWAP2 PUSH2 0x140F JUMP JUMPDEST SWAP2 SWAP1 POP PUSH2 0x1524 JUMP JUMPDEST PUSH1 0x14 SWAP2 POP ADD SLOAD ISZERO ISZERO PUSH0 PUSH2 0x151E JUMP JUMPDEST PUSH1 0x40 MLOAD PUSH2 0x155C PUSH1 0x20 DUP3 PUSH2 0xF7D JUMP JUMPDEST PUSH0 DUP2 MSTORE PUSH0 CALLDATASIZE DUP2 CALLDATACOPY SWAP1 JUMP JUMPDEST PUSH1 0x1 PUSH32 0x126CCC9C13B1C6EA6090E51049CD401CF6411009B75480E3934F8663E5D7E1A6 SLOAD SUB PUSH2 0x15C9 JUMPI PUSH1 0x1 PUSH1 0x1 PUSH1 0xA0 SHL SUB PUSH1 0x4 PUSH2 0x15C3 PUSH32 0x940B07E82ACE5A9B6369AD035EDE2CEFB9EED2F364C533AE2A2A33C58F5CE58 SLOAD PUSH2 0x15EA JUMP JUMPDEST ADD SLOAD AND SWAP1 JUMP JUMPDEST PUSH0 SWAP1 JUMP JUMPDEST SWAP2 SWAP1 DUP2 LT ISZERO PUSH2 0x10D9 JUMPI PUSH1 0x5 SHL ADD SWAP1 JUMP JUMPDEST SWAP2 SWAP1 DUP3 ADD DUP1 SWAP3 GT PUSH2 0x4B7 JUMPI JUMP JUMPDEST PUSH1 0x40 MLOAD PUSH1 0x20 DUP2 ADD SWAP2 PUSH32 0xC61520F0FC87F37C054C240FB12FA829A873C4A7F3A227D3CDAF38F732A45B0D DUP4 MSTORE PUSH1 0x40 DUP3 ADD MSTORE PUSH1 0x40 DUP2 MSTORE PUSH2 0x1629 PUSH1 0x60 DUP3 PUSH2 0xF7D JUMP JUMPDEST MLOAD SWAP1 KECCAK256 SWAP1 JUMP JUMPDEST PUSH1 0x1 SWAP2 PUSH1 0x40 MLOAD SWAP1 PUSH1 0x20 DUP3 ADD SWAP3 PUSH32 0xFA7666F901D98D7DDB6DCA66654A4B44590F640F4803ECFA6CDCB1BCF243032B DUP5 MSTORE PUSH1 0x40 DUP4 ADD MSTORE PUSH12 0xFFFFFFFFFFFFFFFFFFFFFFFF NOT SWAP1 PUSH1 0x60 SHL AND PUSH1 0x60 DUP3 ADD MSTORE PUSH1 0x54 DUP2 MSTORE PUSH2 0x168A PUSH1 0x74 DUP3 PUSH2 0xF7D JUMP JUMPDEST MLOAD SWAP1 KECCAK256 SLOAD EQ SWAP1 JUMP JUMPDEST SWAP1 PUSH1 0x40 MLOAD SWAP1 PUSH1 0x20 DUP3 ADD SWAP3 PUSH32 0xF9CB95D6BCD70B8F41DEB63F6A0973398A369F058485501AB1645D87CA423542 DUP5 MSTORE PUSH1 0x40 DUP4 ADD MSTORE PUSH12 0xFFFFFFFFFFFFFFFFFFFFFFFF NOT SWAP1 PUSH1 0x60 SHL AND PUSH1 0x60 DUP3 ADD MSTORE PUSH1 0x54 DUP2 MSTORE PUSH2 0x16EB PUSH1 0x74 DUP3 PUSH2 0xF7D JUMP JUMPDEST MLOAD SWAP1 KECCAK256 SLOAD SWAP1 JUMP INVALID 0xF6 0xB9 SLT 0xF8 SWAP13 MOD 0xD8 0xAF 0xD0 PUSH12 0x9FA8BD742C729F30156DA50B SWAP5 BASEFEE 0x1F 0xAD 0xDB 0xC9 0xD0 0xB4 0xE9 0xEA LOG2 PUSH5 0x6970667358 0x22 SLT KECCAK256 RETURNDATASIZE LOG3 PUSH16 0xA455A5686FA0BCF4D4CBF5E8585F56D7 SELFDESTRUCT 0x4F SWAP5 0xDC 0xD7 CALLDATASIZE 0xE3 SWAP10 BALANCE 0x1E SWAP15 0x4F SWAP10 PUSH5 0x736F6C6343 STOP ADDMOD BYTE STOP CALLER "},"methodIdentifiers":{"getAllCabals()":"5278c392","getCabal(uint256)":"5c32e52f","getCabalHierarchy(uint256)":"9063ca86","getCabals(uint256[])":"b3b44358","getCabalsByCreator(address)":"356213d6","getCabalsByStaker(address)":"0272d82a","getCabalsPaginated(uint256,uint256)":"13af8c41","getChildCabals(uint256)":"ea1a4545","getContribution(uint256,address)":"e081dbf9","getFullTree()":"b31a8a07","getHierarchicalCabalIds()":"633a080f","getParentCabal(uint256)":"d71aa104","getProtocolTreasury()":"9611f3d9","getRootCabalId()":"d0ac5563","getTotalCabals()":"d98af84a","getUserPositions(address,uint256[])":"d29c4e07","hasClaimed(uint256,address)":"873f6f9e","isGenesisInitialized()":"ce70b5f7"}}}}}