{"contracts/cabal/diamond/facets/ViewFacet.sol":{"ViewFacet":{"abi":[{"inputs":[],"name":"getAllCabals","outputs":[{"internalType":"uint256[]","name":"","type":"uint256[]"}],"stateMutability":"view","type":"function"},{"inputs":[{"internalType":"uint256","name":"cabalId","type":"uint256"}],"name":"getCabal","outputs":[{"components":[{"internalType":"uint256","name":"id","type":"uint256"},{"internalType":"address","name":"creator","type":"address"},{"internalType":"string","name":"name","type":"string"},{"internalType":"string","name":"symbol","type":"string"},{"internalType":"string","name":"image","type":"string"},{"internalType":"address","name":"tbaAddress","type":"address"},{"internalType":"address","name":"tokenAddress","type":"address"},{"internalType":"enum CabalPhase","name":"phase","type":"uint8"},{"internalType":"uint256","name":"createdAt","type":"uint256"},{"internalType":"uint256","name":"launchedAt","type":"uint256"},{"internalType":"uint256","name":"totalRaised","type":"uint256"},{"internalType":"uint256","name":"totalTokensReceived","type":"uint256"},{"internalType":"uint256","name":"totalStaked","type":"uint256"},{"internalType":"uint256","name":"contributorCount","type":"uint256"},{"components":[{"internalType":"uint256","name":"votingPeriod","type":"uint256"},{"internalType":"uint256","name":"quorumBps","type":"uint256"},{"internalType":"uint256","name":"majorityBps","type":"uint256"},{"internalType":"uint256","name":"proposalThreshold","type":"uint256"}],"internalType":"struct GovernanceSettings","name":"settings","type":"tuple"}],"internalType":"struct ViewFacet.CabalInfo","name":"","type":"tuple"}],"stateMutability":"view","type":"function"},{"inputs":[{"internalType":"uint256[]","name":"cabalIds","type":"uint256[]"}],"name":"getCabals","outputs":[{"components":[{"internalType":"uint256","name":"id","type":"uint256"},{"internalType":"address","name":"creator","type":"address"},{"internalType":"string","name":"name","type":"string"},{"internalType":"string","name":"symbol","type":"string"},{"internalType":"string","name":"image","type":"string"},{"internalType":"address","name":"tbaAddress","type":"address"},{"internalType":"address","name":"tokenAddress","type":"address"},{"internalType":"enum CabalPhase","name":"phase","type":"uint8"},{"internalType":"uint256","name":"createdAt","type":"uint256"},{"internalType":"uint256","name":"launchedAt","type":"uint256"},{"internalType":"uint256","name":"totalRaised","type":"uint256"},{"internalType":"uint256","name":"totalTokensReceived","type":"uint256"},{"internalType":"uint256","name":"totalStaked","type":"uint256"},{"internalType":"uint256","name":"contributorCount","type":"uint256"},{"components":[{"internalType":"uint256","name":"votingPeriod","type":"uint256"},{"internalType":"uint256","name":"quorumBps","type":"uint256"},{"internalType":"uint256","name":"majorityBps","type":"uint256"},{"internalType":"uint256","name":"proposalThreshold","type":"uint256"}],"internalType":"struct GovernanceSettings","name":"settings","type":"tuple"}],"internalType":"struct ViewFacet.CabalInfo[]","name":"","type":"tuple[]"}],"stateMutability":"view","type":"function"},{"inputs":[{"internalType":"address","name":"creator","type":"address"}],"name":"getCabalsByCreator","outputs":[{"internalType":"uint256[]","name":"","type":"uint256[]"}],"stateMutability":"view","type":"function"},{"inputs":[{"internalType":"address","name":"staker","type":"address"}],"name":"getCabalsByStaker","outputs":[{"internalType":"uint256[]","name":"","type":"uint256[]"}],"stateMutability":"view","type":"function"},{"inputs":[{"internalType":"uint256","name":"offset","type":"uint256"},{"internalType":"uint256","name":"limit","type":"uint256"}],"name":"getCabalsPaginated","outputs":[{"components":[{"internalType":"uint256","name":"id","type":"uint256"},{"internalType":"address","name":"creator","type":"address"},{"internalType":"string","name":"name","type":"string"},{"internalType":"string","name":"symbol","type":"string"},{"internalType":"string","name":"image","type":"string"},{"internalType":"address","name":"tbaAddress","type":"address"},{"internalType":"address","name":"tokenAddress","type":"address"},{"internalType":"enum CabalPhase","name":"phase","type":"uint8"},{"internalType":"uint256","name":"createdAt","type":"uint256"},{"internalType":"uint256","name":"launchedAt","type":"uint256"},{"internalType":"uint256","name":"totalRaised","type":"uint256"},{"internalType":"uint256","name":"totalTokensReceived","type":"uint256"},{"internalType":"uint256","name":"totalStaked","type":"uint256"},{"internalType":"uint256","name":"contributorCount","type":"uint256"},{"components":[{"internalType":"uint256","name":"votingPeriod","type":"uint256"},{"internalType":"uint256","name":"quorumBps","type":"uint256"},{"internalType":"uint256","name":"majorityBps","type":"uint256"},{"internalType":"uint256","name":"proposalThreshold","type":"uint256"}],"internalType":"struct GovernanceSettings","name":"settings","type":"tuple"}],"internalType":"struct ViewFacet.CabalInfo[]","name":"cabals","type":"tuple[]"},{"internalType":"uint256","name":"total","type":"uint256"}],"stateMutability":"view","type":"function"},{"inputs":[{"internalType":"uint256","name":"cabalId","type":"uint256"},{"internalType":"address","name":"user","type":"address"}],"name":"getContribution","outputs":[{"internalType":"uint256","name":"","type":"uint256"}],"stateMutability":"view","type":"function"},{"inputs":[],"name":"getTotalCabals","outputs":[{"internalType":"uint256","name":"","type":"uint256"}],"stateMutability":"view","type":"function"},{"inputs":[{"internalType":"address","name":"user","type":"address"},{"internalType":"uint256[]","name":"cabalIds","type":"uint256[]"}],"name":"getUserPositions","outputs":[{"internalType":"uint256[]","name":"contributions","type":"uint256[]"},{"internalType":"uint256[]","name":"stakedBalances","type":"uint256[]"},{"internalType":"uint256[]","name":"votingPowers","type":"uint256[]"},{"internalType":"bool[]","name":"claimed","type":"bool[]"}],"stateMutability":"view","type":"function"},{"inputs":[{"internalType":"uint256","name":"cabalId","type":"uint256"},{"internalType":"address","name":"user","type":"address"}],"name":"hasClaimed","outputs":[{"internalType":"bool","name":"","type":"bool"}],"stateMutability":"view","type":"function"}],"evm":{"bytecode":{"linkReferences":{},"object":"608080604052346015576110fb908161001a8239f35b5f80fdfe6080806040526004361015610012575f80fd5b5f3560e01c9081630272d82a146107df5750806313af8c411461079f578063356213d6146107155780635278c3921461066e5780635c32e52f1461054d578063873f6f9e1461051d578063b3b443581461039a578063d29c4e07146100f8578063d98af84a146100bc5763e081dbf91461008a575f80fd5b346100b85760403660031901126100b85760206100b06100a8610868565b600435611065565b604051908152f35b5f80fd5b346100b8575f3660031901126100b85760207ff6b912f89c06d8afd06b9fa8bd742c729f30156da50b94481faddbc9d0b4e9ea54604051908152f35b346100b85760403660031901126100b857610111610852565b60243567ffffffffffffffff81116100b857610131903690600401610a53565b9061013b82610f8b565b9261014583610f8b565b61014e84610f8b565b9161015885610b2a565b936101666040519586610b08565b85855261017286610b2a565b602086019690601f1901368837606083901b6bffffffffffffffffffffffff1916905f5b818110610218576101c18a8a8a60206101dc8c6101ce8d60405198899860808a5260808a019061087e565b90888203868a015261087e565b90868203604088015261087e565b91848303606086015251918281520191905f5b8181106101fd575050500390f35b825115158452859450602093840193909201916001016101ef565b8061022586928487610f7b565b358b61023b836102358685611065565b92610d38565b5260405160208101907f8558c73f0b9098e6be43e479b1cf30236e7e64287529940c5fdd38ab47be3e09825282604082015286606082015260548152610282607482610b08565b51902054610290838a610d38565b5261029b8289610d38565b5160405160208101907f0d5b18ea51234f5557964678168b512e7844d6b8406c15c9ac0ae675917d830f8252836040820152876060820152605481526102e2607482610b08565b51902054906001600160a01b0360405160208101907fc3de27a01aa54ffcb04f207e8a4f4a16b583945f9cf1c6868757ca4e0e693152825285604082015289606082015260548152610335607482610b08565b51902054161561036e575092610359916001945b610353858d610d38565b52611002565b610363828b610d38565b901515905201610196565b80945001809311610386578661035991600194610349565b634e487b7160e01b5f52601160045260245ffd5b346100b85760203660031901126100b85760043567ffffffffffffffff81116100b8576103cb903690600401610a53565b6103d481610bd2565b905f5b8181106103f857604051602080825281906103f4908201866109fb565b0390f35b610403818386610f7b565b3561040d90610fbd565b610418828487610f7b565b359080546001600160a01b031660048201546001600160a01b03166005830154600f8401546010850154600686015491600787015493600e880154956008890154976040519a6104678c610abb565b8b5260208b015261047a60018a01610c2e565b60408b015261048b60028a01610c2e565b60608b015261049c60038a01610c2e565b60808b015260a08a01526001600160a01b03811660c08a015260a01c60ff1660e08901906104c991610cfa565b6101008801526101208701526101408601526101608501526101808401526101a08301526009016104f990610d06565b6101c08201526105098285610d38565b526105148184610d38565b506001016103d7565b346100b85760403660031901126100b857602061054361053b610868565b600435611002565b6040519015158152f35b346100b85760203660031901126100b857600435610569610b42565b5061057381610fbd565b80546001600160a01b031660048201546001600160a01b03166005830154600f8401546010850154600686015491600787015493600e880154956008890154976040519a6105c08c610abb565b8b5260208b01526105d360018a01610c2e565b60408b01526105e460028a01610c2e565b60608b01526105f560038a01610c2e565b60808b015260a08a01526001600160a01b03811660c08a015260a01c60ff1660e089019061062291610cfa565b6101008801526101208701526101408601526101608501526101808401526101a083015260090161065290610d06565b6101c0820152604051809160208252602082016103f4916108d5565b346100b8575f3660031901126100b8576040517ff6b912f89c06d8afd06b9fa8bd742c729f30156da50b94481faddbc9d0b4e9ea80548083525f91825260208301917f92a07e9b5c0c3259ab73db7fddb759e0795904dcdc9c62a149d91b30ac2f683e91905b8181106106ff576103f4856106eb81870382610b08565b60405191829160208352602083019061087e565b82548452602090930192600192830192016106d4565b346100b85760203660031901126100b8576103f46107986106eb610737610852565b60405160208101917fd1261fcbdec2818395983d1051c30776b763075dd8066c02ad3ddcf362b02de283526bffffffffffffffffffffffff199060601b16604082015260348152610789605482610b08565b51902060405192838092610a84565b0382610b08565b346100b85760403660031901126100b8576107d56107c1602435600435610d60565b6040519283926040845260408401906109fb565b9060208301520390f35b346100b85760203660031901126100b8576107986106eb6103f492610802610852565b9060208101917f286c44e1adb37baad1a43e591cf328daa08f091c9031a161720cadffabab900383526bffffffffffffffffffffffff199060601b16604082015260348152610789605482610b08565b600435906001600160a01b03821682036100b857565b602435906001600160a01b03821682036100b857565b90602080835192838152019201905f5b81811061089b5750505090565b825184526020938401939092019160010161088e565b805180835260209291819084018484015e5f828201840152601f01601f1916010190565b90815181526001600160a01b03602083015116602082015261093261092061090e604085015161024060408601526102408501906108b1565b606085015184820360608601526108b1565b608084015183820360808501526108b1565b916001600160a01b0360a08201511660a08301526001600160a01b0360c08201511660c083015260e08101519060038210156109e7576101c06060916102209360e08601526101008101516101008601526101208101516101208601526101408101516101408601526101608101516101608601526101808101516101808601526101a08101516101a0860152015180516101c085015260208101516101e08501526040810151610200850152015191015290565b634e487b7160e01b5f52602160045260245ffd5b9080602083519182815201916020808360051b8301019401925f915b838310610a2657505050505090565b9091929394602080610a44600193601f1986820301875289516108d5565b97019301930191939290610a17565b9181601f840112156100b85782359167ffffffffffffffff83116100b8576020808501948460051b0101116100b857565b90602082549182815201915f5260205f20905f5b818110610aa55750505090565b8254845260209093019260019283019201610a98565b6101e0810190811067ffffffffffffffff821117610ad857604052565b634e487b7160e01b5f52604160045260245ffd5b6080810190811067ffffffffffffffff821117610ad857604052565b90601f8019910116810190811067ffffffffffffffff821117610ad857604052565b67ffffffffffffffff8111610ad85760051b60200190565b60405190610b4f82610abb565b815f81525f602082015260606040820152606080820152606060808201525f60a08201525f60c08201525f60e08201525f6101008201525f6101208201525f6101408201525f6101608201525f6101808201525f6101a08201526101c060405191610bb983610aec565b5f83525f60208401525f60408401525f60608401520152565b90610bdc82610b2a565b610be96040519182610b08565b8281528092610bfa601f1991610b2a565b01905f5b828110610c0a57505050565b602090610c15610b42565b82828501015201610bfe565b9190820391821161038657565b90604051915f8154908160011c9260018316928315610cf0575b602085108414610cdc578487528693908115610cba5750600114610c76575b50610c7492500383610b08565b565b90505f9291925260205f20905f915b818310610c9e575050906020610c74928201015f610c67565b6020919350806001915483858901015201910190918492610c85565b905060209250610c7494915060ff191682840152151560051b8201015f610c67565b634e487b7160e01b5f52602260045260245ffd5b93607f1693610c48565b60038210156109e75752565b90604051610d1381610aec565b6060600382948054845260018101546020850152600281015460408501520154910152565b8051821015610d4c5760209160051b010190565b634e487b7160e01b5f52603260045260245ffd5b917ff6b912f89c06d8afd06b9fa8bd742c729f30156da50b94481faddbc9d0b4e9ea5491829083851015610f3d57610d988585610c21565b9080821015610f355750905b610dad82610bd2565b945f5b838110610dbd5750505050565b5f1986018681116103865781610dd684610ddb93610c21565b610c21565b83811015610d4c577ff6b912f89c06d8afd06b9fa8bd742c729f30156da50b94481faddbc9d0b4e9ea5f527f92a07e9b5c0c3259ab73db7fddb759e0795904dcdc9c62a149d91b30ac2f683e0154610e3281610fbd565b80546001600160a01b031660048201546001600160a01b03166005830154600f8401546010850154600686015491600787015493600e880154956008890154976040519a610e7f8c610abb565b8b5260208b0152610e9260018a01610c2e565b60408b0152610ea360028a01610c2e565b60608b0152610eb460038a01610c2e565b60808b015260a08a01526001600160a01b03811660c08a015260a01c60ff1660e0890190610ee191610cfa565b6101008801526101208701526101408601526101608501526101808401526101a0830152600901610f1190610d06565b6101c0820152610f218289610d38565b52610f2c8188610d38565b50600101610db0565b905090610da4565b509192509050604051610f51602082610b08565b5f81525f805b818110610f645750509190565b602090610f6f610b42565b82828601015201610f57565b9190811015610d4c5760051b0190565b90610f9582610b2a565b610fa26040519182610b08565b8281528092610fb3601f1991610b2a565b0190602036910137565b60405160208101917fc61520f0fc87f37c054c240fb12fa829a873c4a7f3a227d3cdaf38f732a45b0d8352604082015260408152610ffc606082610b08565b51902090565b6001916040519060208201927ffa7666f901d98d7ddb6dca66654a4b44590f640f4803ecfa6cdcb1bcf243032b845260408301526bffffffffffffffffffffffff199060601b1660608201526054815261105d607482610b08565b519020541490565b906040519060208201927ff9cb95d6bcd70b8f41deb63f6a0973398a369f058485501ab1645d87ca423542845260408301526bffffffffffffffffffffffff199060601b166060820152605481526110be607482610b08565b519020549056fea26469706673582212204f6cdf2bd868a99e7d081352a673613522347baf30e01642a0b7ffd218a72b9564736f6c634300081a0033","opcodes":"PUSH1 0x80 DUP1 PUSH1 0x40 MSTORE CALLVALUE PUSH1 0x15 JUMPI PUSH2 0x10FB SWAP1 DUP2 PUSH2 0x1A DUP3 CODECOPY RETURN JUMPDEST PUSH0 DUP1 REVERT INVALID PUSH1 0x80 DUP1 PUSH1 0x40 MSTORE PUSH1 0x4 CALLDATASIZE LT ISZERO PUSH2 0x12 JUMPI PUSH0 DUP1 REVERT JUMPDEST PUSH0 CALLDATALOAD PUSH1 0xE0 SHR SWAP1 DUP2 PUSH4 0x272D82A EQ PUSH2 0x7DF JUMPI POP DUP1 PUSH4 0x13AF8C41 EQ PUSH2 0x79F JUMPI DUP1 PUSH4 0x356213D6 EQ PUSH2 0x715 JUMPI DUP1 PUSH4 0x5278C392 EQ PUSH2 0x66E JUMPI DUP1 PUSH4 0x5C32E52F EQ PUSH2 0x54D JUMPI DUP1 PUSH4 0x873F6F9E EQ PUSH2 0x51D JUMPI DUP1 PUSH4 0xB3B44358 EQ PUSH2 0x39A JUMPI DUP1 PUSH4 0xD29C4E07 EQ PUSH2 0xF8 JUMPI DUP1 PUSH4 0xD98AF84A EQ PUSH2 0xBC JUMPI PUSH4 0xE081DBF9 EQ PUSH2 0x8A JUMPI PUSH0 DUP1 REVERT JUMPDEST CALLVALUE PUSH2 0xB8 JUMPI PUSH1 0x40 CALLDATASIZE PUSH1 0x3 NOT ADD SLT PUSH2 0xB8 JUMPI PUSH1 0x20 PUSH2 0xB0 PUSH2 0xA8 PUSH2 0x868 JUMP JUMPDEST PUSH1 0x4 CALLDATALOAD PUSH2 0x1065 JUMP JUMPDEST PUSH1 0x40 MLOAD SWAP1 DUP2 MSTORE RETURN JUMPDEST PUSH0 DUP1 REVERT JUMPDEST CALLVALUE PUSH2 0xB8 JUMPI PUSH0 CALLDATASIZE PUSH1 0x3 NOT ADD SLT PUSH2 0xB8 JUMPI PUSH1 0x20 PUSH32 0xF6B912F89C06D8AFD06B9FA8BD742C729F30156DA50B94481FADDBC9D0B4E9EA SLOAD PUSH1 0x40 MLOAD SWAP1 DUP2 MSTORE RETURN JUMPDEST CALLVALUE PUSH2 0xB8 JUMPI PUSH1 0x40 CALLDATASIZE PUSH1 0x3 NOT ADD SLT PUSH2 0xB8 JUMPI PUSH2 0x111 PUSH2 0x852 JUMP JUMPDEST PUSH1 0x24 CALLDATALOAD PUSH8 0xFFFFFFFFFFFFFFFF DUP2 GT PUSH2 0xB8 JUMPI PUSH2 0x131 SWAP1 CALLDATASIZE SWAP1 PUSH1 0x4 ADD PUSH2 0xA53 JUMP JUMPDEST SWAP1 PUSH2 0x13B DUP3 PUSH2 0xF8B JUMP JUMPDEST SWAP3 PUSH2 0x145 DUP4 PUSH2 0xF8B JUMP JUMPDEST PUSH2 0x14E DUP5 PUSH2 0xF8B JUMP JUMPDEST SWAP2 PUSH2 0x158 DUP6 PUSH2 0xB2A JUMP JUMPDEST SWAP4 PUSH2 0x166 PUSH1 0x40 MLOAD SWAP6 DUP7 PUSH2 0xB08 JUMP JUMPDEST DUP6 DUP6 MSTORE PUSH2 0x172 DUP7 PUSH2 0xB2A JUMP JUMPDEST PUSH1 0x20 DUP7 ADD SWAP7 SWAP1 PUSH1 0x1F NOT ADD CALLDATASIZE DUP9 CALLDATACOPY PUSH1 0x60 DUP4 SWAP1 SHL PUSH12 0xFFFFFFFFFFFFFFFFFFFFFFFF NOT AND SWAP1 PUSH0 JUMPDEST DUP2 DUP2 LT PUSH2 0x218 JUMPI PUSH2 0x1C1 DUP11 DUP11 DUP11 PUSH1 0x20 PUSH2 0x1DC DUP13 PUSH2 0x1CE DUP14 PUSH1 0x40 MLOAD SWAP9 DUP10 SWAP9 PUSH1 0x80 DUP11 MSTORE PUSH1 0x80 DUP11 ADD SWAP1 PUSH2 0x87E JUMP JUMPDEST SWAP1 DUP9 DUP3 SUB DUP7 DUP11 ADD MSTORE PUSH2 0x87E JUMP JUMPDEST SWAP1 DUP7 DUP3 SUB PUSH1 0x40 DUP9 ADD MSTORE PUSH2 0x87E JUMP JUMPDEST SWAP2 DUP5 DUP4 SUB PUSH1 0x60 DUP7 ADD MSTORE MLOAD SWAP2 DUP3 DUP2 MSTORE ADD SWAP2 SWAP1 PUSH0 JUMPDEST DUP2 DUP2 LT PUSH2 0x1FD JUMPI POP POP POP SUB SWAP1 RETURN JUMPDEST DUP3 MLOAD ISZERO ISZERO DUP5 MSTORE DUP6 SWAP5 POP PUSH1 0x20 SWAP4 DUP5 ADD SWAP4 SWAP1 SWAP3 ADD SWAP2 PUSH1 0x1 ADD PUSH2 0x1EF JUMP JUMPDEST DUP1 PUSH2 0x225 DUP7 SWAP3 DUP5 DUP8 PUSH2 0xF7B JUMP JUMPDEST CALLDATALOAD DUP12 PUSH2 0x23B DUP4 PUSH2 0x235 DUP7 DUP6 PUSH2 0x1065 JUMP JUMPDEST SWAP3 PUSH2 0xD38 JUMP JUMPDEST MSTORE PUSH1 0x40 MLOAD PUSH1 0x20 DUP2 ADD SWAP1 PUSH32 0x8558C73F0B9098E6BE43E479B1CF30236E7E64287529940C5FDD38AB47BE3E09 DUP3 MSTORE DUP3 PUSH1 0x40 DUP3 ADD MSTORE DUP7 PUSH1 0x60 DUP3 ADD MSTORE PUSH1 0x54 DUP2 MSTORE PUSH2 0x282 PUSH1 0x74 DUP3 PUSH2 0xB08 JUMP JUMPDEST MLOAD SWAP1 KECCAK256 SLOAD PUSH2 0x290 DUP4 DUP11 PUSH2 0xD38 JUMP JUMPDEST MSTORE PUSH2 0x29B DUP3 DUP10 PUSH2 0xD38 JUMP JUMPDEST MLOAD PUSH1 0x40 MLOAD PUSH1 0x20 DUP2 ADD SWAP1 PUSH32 0xD5B18EA51234F5557964678168B512E7844D6B8406C15C9AC0AE675917D830F DUP3 MSTORE DUP4 PUSH1 0x40 DUP3 ADD MSTORE DUP8 PUSH1 0x60 DUP3 ADD MSTORE PUSH1 0x54 DUP2 MSTORE PUSH2 0x2E2 PUSH1 0x74 DUP3 PUSH2 0xB08 JUMP JUMPDEST MLOAD SWAP1 KECCAK256 SLOAD SWAP1 PUSH1 0x1 PUSH1 0x1 PUSH1 0xA0 SHL SUB PUSH1 0x40 MLOAD PUSH1 0x20 DUP2 ADD SWAP1 PUSH32 0xC3DE27A01AA54FFCB04F207E8A4F4A16B583945F9CF1C6868757CA4E0E693152 DUP3 MSTORE DUP6 PUSH1 0x40 DUP3 ADD MSTORE DUP10 PUSH1 0x60 DUP3 ADD MSTORE PUSH1 0x54 DUP2 MSTORE PUSH2 0x335 PUSH1 0x74 DUP3 PUSH2 0xB08 JUMP JUMPDEST MLOAD SWAP1 KECCAK256 SLOAD AND ISZERO PUSH2 0x36E JUMPI POP SWAP3 PUSH2 0x359 SWAP2 PUSH1 0x1 SWAP5 JUMPDEST PUSH2 0x353 DUP6 DUP14 PUSH2 0xD38 JUMP JUMPDEST MSTORE PUSH2 0x1002 JUMP JUMPDEST PUSH2 0x363 DUP3 DUP12 PUSH2 0xD38 JUMP JUMPDEST SWAP1 ISZERO ISZERO SWAP1 MSTORE ADD PUSH2 0x196 JUMP JUMPDEST DUP1 SWAP5 POP ADD DUP1 SWAP4 GT PUSH2 0x386 JUMPI DUP7 PUSH2 0x359 SWAP2 PUSH1 0x1 SWAP5 PUSH2 0x349 JUMP JUMPDEST PUSH4 0x4E487B71 PUSH1 0xE0 SHL PUSH0 MSTORE PUSH1 0x11 PUSH1 0x4 MSTORE PUSH1 0x24 PUSH0 REVERT JUMPDEST CALLVALUE PUSH2 0xB8 JUMPI PUSH1 0x20 CALLDATASIZE PUSH1 0x3 NOT ADD SLT PUSH2 0xB8 JUMPI PUSH1 0x4 CALLDATALOAD PUSH8 0xFFFFFFFFFFFFFFFF DUP2 GT PUSH2 0xB8 JUMPI PUSH2 0x3CB SWAP1 CALLDATASIZE SWAP1 PUSH1 0x4 ADD PUSH2 0xA53 JUMP JUMPDEST PUSH2 0x3D4 DUP2 PUSH2 0xBD2 JUMP JUMPDEST SWAP1 PUSH0 JUMPDEST DUP2 DUP2 LT PUSH2 0x3F8 JUMPI PUSH1 0x40 MLOAD PUSH1 0x20 DUP1 DUP3 MSTORE DUP2 SWAP1 PUSH2 0x3F4 SWAP1 DUP3 ADD DUP7 PUSH2 0x9FB JUMP JUMPDEST SUB SWAP1 RETURN JUMPDEST PUSH2 0x403 DUP2 DUP4 DUP7 PUSH2 0xF7B JUMP JUMPDEST CALLDATALOAD PUSH2 0x40D SWAP1 PUSH2 0xFBD JUMP JUMPDEST PUSH2 0x418 DUP3 DUP5 DUP8 PUSH2 0xF7B JUMP JUMPDEST CALLDATALOAD SWAP1 DUP1 SLOAD PUSH1 0x1 PUSH1 0x1 PUSH1 0xA0 SHL SUB AND PUSH1 0x4 DUP3 ADD SLOAD PUSH1 0x1 PUSH1 0x1 PUSH1 0xA0 SHL SUB AND PUSH1 0x5 DUP4 ADD SLOAD PUSH1 0xF DUP5 ADD SLOAD PUSH1 0x10 DUP6 ADD SLOAD PUSH1 0x6 DUP7 ADD SLOAD SWAP2 PUSH1 0x7 DUP8 ADD SLOAD SWAP4 PUSH1 0xE DUP9 ADD SLOAD SWAP6 PUSH1 0x8 DUP10 ADD SLOAD SWAP8 PUSH1 0x40 MLOAD SWAP11 PUSH2 0x467 DUP13 PUSH2 0xABB JUMP JUMPDEST DUP12 MSTORE PUSH1 0x20 DUP12 ADD MSTORE PUSH2 0x47A PUSH1 0x1 DUP11 ADD PUSH2 0xC2E JUMP JUMPDEST PUSH1 0x40 DUP12 ADD MSTORE PUSH2 0x48B PUSH1 0x2 DUP11 ADD PUSH2 0xC2E JUMP JUMPDEST PUSH1 0x60 DUP12 ADD MSTORE PUSH2 0x49C PUSH1 0x3 DUP11 ADD PUSH2 0xC2E JUMP JUMPDEST PUSH1 0x80 DUP12 ADD MSTORE PUSH1 0xA0 DUP11 ADD MSTORE PUSH1 0x1 PUSH1 0x1 PUSH1 0xA0 SHL SUB DUP2 AND PUSH1 0xC0 DUP11 ADD MSTORE PUSH1 0xA0 SHR PUSH1 0xFF AND PUSH1 0xE0 DUP10 ADD SWAP1 PUSH2 0x4C9 SWAP2 PUSH2 0xCFA JUMP JUMPDEST PUSH2 0x100 DUP9 ADD MSTORE PUSH2 0x120 DUP8 ADD MSTORE PUSH2 0x140 DUP7 ADD MSTORE PUSH2 0x160 DUP6 ADD MSTORE PUSH2 0x180 DUP5 ADD MSTORE PUSH2 0x1A0 DUP4 ADD MSTORE PUSH1 0x9 ADD PUSH2 0x4F9 SWAP1 PUSH2 0xD06 JUMP JUMPDEST PUSH2 0x1C0 DUP3 ADD MSTORE PUSH2 0x509 DUP3 DUP6 PUSH2 0xD38 JUMP JUMPDEST MSTORE PUSH2 0x514 DUP2 DUP5 PUSH2 0xD38 JUMP JUMPDEST POP PUSH1 0x1 ADD PUSH2 0x3D7 JUMP JUMPDEST CALLVALUE PUSH2 0xB8 JUMPI PUSH1 0x40 CALLDATASIZE PUSH1 0x3 NOT ADD SLT PUSH2 0xB8 JUMPI PUSH1 0x20 PUSH2 0x543 PUSH2 0x53B PUSH2 0x868 JUMP JUMPDEST PUSH1 0x4 CALLDATALOAD PUSH2 0x1002 JUMP JUMPDEST PUSH1 0x40 MLOAD SWAP1 ISZERO ISZERO DUP2 MSTORE RETURN JUMPDEST CALLVALUE PUSH2 0xB8 JUMPI PUSH1 0x20 CALLDATASIZE PUSH1 0x3 NOT ADD SLT PUSH2 0xB8 JUMPI PUSH1 0x4 CALLDATALOAD PUSH2 0x569 PUSH2 0xB42 JUMP JUMPDEST POP PUSH2 0x573 DUP2 PUSH2 0xFBD JUMP JUMPDEST DUP1 SLOAD PUSH1 0x1 PUSH1 0x1 PUSH1 0xA0 SHL SUB AND PUSH1 0x4 DUP3 ADD SLOAD PUSH1 0x1 PUSH1 0x1 PUSH1 0xA0 SHL SUB AND PUSH1 0x5 DUP4 ADD SLOAD PUSH1 0xF DUP5 ADD SLOAD PUSH1 0x10 DUP6 ADD SLOAD PUSH1 0x6 DUP7 ADD SLOAD SWAP2 PUSH1 0x7 DUP8 ADD SLOAD SWAP4 PUSH1 0xE DUP9 ADD SLOAD SWAP6 PUSH1 0x8 DUP10 ADD SLOAD SWAP8 PUSH1 0x40 MLOAD SWAP11 PUSH2 0x5C0 DUP13 PUSH2 0xABB JUMP JUMPDEST DUP12 MSTORE PUSH1 0x20 DUP12 ADD MSTORE PUSH2 0x5D3 PUSH1 0x1 DUP11 ADD PUSH2 0xC2E JUMP JUMPDEST PUSH1 0x40 DUP12 ADD MSTORE PUSH2 0x5E4 PUSH1 0x2 DUP11 ADD PUSH2 0xC2E JUMP JUMPDEST PUSH1 0x60 DUP12 ADD MSTORE PUSH2 0x5F5 PUSH1 0x3 DUP11 ADD PUSH2 0xC2E JUMP JUMPDEST PUSH1 0x80 DUP12 ADD MSTORE PUSH1 0xA0 DUP11 ADD MSTORE PUSH1 0x1 PUSH1 0x1 PUSH1 0xA0 SHL SUB DUP2 AND PUSH1 0xC0 DUP11 ADD MSTORE PUSH1 0xA0 SHR PUSH1 0xFF AND PUSH1 0xE0 DUP10 ADD SWAP1 PUSH2 0x622 SWAP2 PUSH2 0xCFA JUMP JUMPDEST PUSH2 0x100 DUP9 ADD MSTORE PUSH2 0x120 DUP8 ADD MSTORE PUSH2 0x140 DUP7 ADD MSTORE PUSH2 0x160 DUP6 ADD MSTORE PUSH2 0x180 DUP5 ADD MSTORE PUSH2 0x1A0 DUP4 ADD MSTORE PUSH1 0x9 ADD PUSH2 0x652 SWAP1 PUSH2 0xD06 JUMP JUMPDEST PUSH2 0x1C0 DUP3 ADD MSTORE PUSH1 0x40 MLOAD DUP1 SWAP2 PUSH1 0x20 DUP3 MSTORE PUSH1 0x20 DUP3 ADD PUSH2 0x3F4 SWAP2 PUSH2 0x8D5 JUMP JUMPDEST CALLVALUE PUSH2 0xB8 JUMPI PUSH0 CALLDATASIZE PUSH1 0x3 NOT ADD SLT PUSH2 0xB8 JUMPI PUSH1 0x40 MLOAD PUSH32 0xF6B912F89C06D8AFD06B9FA8BD742C729F30156DA50B94481FADDBC9D0B4E9EA DUP1 SLOAD DUP1 DUP4 MSTORE PUSH0 SWAP2 DUP3 MSTORE PUSH1 0x20 DUP4 ADD SWAP2 PUSH32 0x92A07E9B5C0C3259AB73DB7FDDB759E0795904DCDC9C62A149D91B30AC2F683E SWAP2 SWAP1 JUMPDEST DUP2 DUP2 LT PUSH2 0x6FF JUMPI PUSH2 0x3F4 DUP6 PUSH2 0x6EB DUP2 DUP8 SUB DUP3 PUSH2 0xB08 JUMP JUMPDEST PUSH1 0x40 MLOAD SWAP2 DUP3 SWAP2 PUSH1 0x20 DUP4 MSTORE PUSH1 0x20 DUP4 ADD SWAP1 PUSH2 0x87E JUMP JUMPDEST DUP3 SLOAD DUP5 MSTORE PUSH1 0x20 SWAP1 SWAP4 ADD SWAP3 PUSH1 0x1 SWAP3 DUP4 ADD SWAP3 ADD PUSH2 0x6D4 JUMP JUMPDEST CALLVALUE PUSH2 0xB8 JUMPI PUSH1 0x20 CALLDATASIZE PUSH1 0x3 NOT ADD SLT PUSH2 0xB8 JUMPI PUSH2 0x3F4 PUSH2 0x798 PUSH2 0x6EB PUSH2 0x737 PUSH2 0x852 JUMP JUMPDEST PUSH1 0x40 MLOAD PUSH1 0x20 DUP2 ADD SWAP2 PUSH32 0xD1261FCBDEC2818395983D1051C30776B763075DD8066C02AD3DDCF362B02DE2 DUP4 MSTORE PUSH12 0xFFFFFFFFFFFFFFFFFFFFFFFF NOT SWAP1 PUSH1 0x60 SHL AND PUSH1 0x40 DUP3 ADD MSTORE PUSH1 0x34 DUP2 MSTORE PUSH2 0x789 PUSH1 0x54 DUP3 PUSH2 0xB08 JUMP JUMPDEST MLOAD SWAP1 KECCAK256 PUSH1 0x40 MLOAD SWAP3 DUP4 DUP1 SWAP3 PUSH2 0xA84 JUMP JUMPDEST SUB DUP3 PUSH2 0xB08 JUMP JUMPDEST CALLVALUE PUSH2 0xB8 JUMPI PUSH1 0x40 CALLDATASIZE PUSH1 0x3 NOT ADD SLT PUSH2 0xB8 JUMPI PUSH2 0x7D5 PUSH2 0x7C1 PUSH1 0x24 CALLDATALOAD PUSH1 0x4 CALLDATALOAD PUSH2 0xD60 JUMP JUMPDEST PUSH1 0x40 MLOAD SWAP3 DUP4 SWAP3 PUSH1 0x40 DUP5 MSTORE PUSH1 0x40 DUP5 ADD SWAP1 PUSH2 0x9FB JUMP JUMPDEST SWAP1 PUSH1 0x20 DUP4 ADD MSTORE SUB SWAP1 RETURN JUMPDEST CALLVALUE PUSH2 0xB8 JUMPI PUSH1 0x20 CALLDATASIZE PUSH1 0x3 NOT ADD SLT PUSH2 0xB8 JUMPI PUSH2 0x798 PUSH2 0x6EB PUSH2 0x3F4 SWAP3 PUSH2 0x802 PUSH2 0x852 JUMP JUMPDEST SWAP1 PUSH1 0x20 DUP2 ADD SWAP2 PUSH32 0x286C44E1ADB37BAAD1A43E591CF328DAA08F091C9031A161720CADFFABAB9003 DUP4 MSTORE PUSH12 0xFFFFFFFFFFFFFFFFFFFFFFFF NOT SWAP1 PUSH1 0x60 SHL AND PUSH1 0x40 DUP3 ADD MSTORE PUSH1 0x34 DUP2 MSTORE PUSH2 0x789 PUSH1 0x54 DUP3 PUSH2 0xB08 JUMP JUMPDEST PUSH1 0x4 CALLDATALOAD SWAP1 PUSH1 0x1 PUSH1 0x1 PUSH1 0xA0 SHL SUB DUP3 AND DUP3 SUB PUSH2 0xB8 JUMPI JUMP JUMPDEST PUSH1 0x24 CALLDATALOAD SWAP1 PUSH1 0x1 PUSH1 0x1 PUSH1 0xA0 SHL SUB DUP3 AND DUP3 SUB PUSH2 0xB8 JUMPI JUMP JUMPDEST SWAP1 PUSH1 0x20 DUP1 DUP4 MLOAD SWAP3 DUP4 DUP2 MSTORE ADD SWAP3 ADD SWAP1 PUSH0 JUMPDEST DUP2 DUP2 LT PUSH2 0x89B JUMPI POP POP POP SWAP1 JUMP JUMPDEST DUP3 MLOAD DUP5 MSTORE PUSH1 0x20 SWAP4 DUP5 ADD SWAP4 SWAP1 SWAP3 ADD SWAP2 PUSH1 0x1 ADD PUSH2 0x88E JUMP JUMPDEST DUP1 MLOAD DUP1 DUP4 MSTORE PUSH1 0x20 SWAP3 SWAP2 DUP2 SWAP1 DUP5 ADD DUP5 DUP5 ADD MCOPY PUSH0 DUP3 DUP3 ADD DUP5 ADD MSTORE PUSH1 0x1F ADD PUSH1 0x1F NOT AND ADD ADD SWAP1 JUMP JUMPDEST SWAP1 DUP2 MLOAD DUP2 MSTORE PUSH1 0x1 PUSH1 0x1 PUSH1 0xA0 SHL SUB PUSH1 0x20 DUP4 ADD MLOAD AND PUSH1 0x20 DUP3 ADD MSTORE PUSH2 0x932 PUSH2 0x920 PUSH2 0x90E PUSH1 0x40 DUP6 ADD MLOAD PUSH2 0x240 PUSH1 0x40 DUP7 ADD MSTORE PUSH2 0x240 DUP6 ADD SWAP1 PUSH2 0x8B1 JUMP JUMPDEST PUSH1 0x60 DUP6 ADD MLOAD DUP5 DUP3 SUB PUSH1 0x60 DUP7 ADD MSTORE PUSH2 0x8B1 JUMP JUMPDEST PUSH1 0x80 DUP5 ADD MLOAD DUP4 DUP3 SUB PUSH1 0x80 DUP6 ADD MSTORE PUSH2 0x8B1 JUMP JUMPDEST SWAP2 PUSH1 0x1 PUSH1 0x1 PUSH1 0xA0 SHL SUB PUSH1 0xA0 DUP3 ADD MLOAD AND PUSH1 0xA0 DUP4 ADD MSTORE PUSH1 0x1 PUSH1 0x1 PUSH1 0xA0 SHL SUB PUSH1 0xC0 DUP3 ADD MLOAD AND PUSH1 0xC0 DUP4 ADD MSTORE PUSH1 0xE0 DUP2 ADD MLOAD SWAP1 PUSH1 0x3 DUP3 LT ISZERO PUSH2 0x9E7 JUMPI PUSH2 0x1C0 PUSH1 0x60 SWAP2 PUSH2 0x220 SWAP4 PUSH1 0xE0 DUP7 ADD MSTORE PUSH2 0x100 DUP2 ADD MLOAD PUSH2 0x100 DUP7 ADD MSTORE PUSH2 0x120 DUP2 ADD MLOAD PUSH2 0x120 DUP7 ADD MSTORE PUSH2 0x140 DUP2 ADD MLOAD PUSH2 0x140 DUP7 ADD MSTORE PUSH2 0x160 DUP2 ADD MLOAD PUSH2 0x160 DUP7 ADD MSTORE PUSH2 0x180 DUP2 ADD MLOAD PUSH2 0x180 DUP7 ADD MSTORE PUSH2 0x1A0 DUP2 ADD MLOAD PUSH2 0x1A0 DUP7 ADD MSTORE ADD MLOAD DUP1 MLOAD PUSH2 0x1C0 DUP6 ADD MSTORE PUSH1 0x20 DUP2 ADD MLOAD PUSH2 0x1E0 DUP6 ADD MSTORE PUSH1 0x40 DUP2 ADD MLOAD PUSH2 0x200 DUP6 ADD MSTORE ADD MLOAD SWAP2 ADD MSTORE SWAP1 JUMP JUMPDEST PUSH4 0x4E487B71 PUSH1 0xE0 SHL PUSH0 MSTORE PUSH1 0x21 PUSH1 0x4 MSTORE PUSH1 0x24 PUSH0 REVERT JUMPDEST SWAP1 DUP1 PUSH1 0x20 DUP4 MLOAD SWAP2 DUP3 DUP2 MSTORE ADD SWAP2 PUSH1 0x20 DUP1 DUP4 PUSH1 0x5 SHL DUP4 ADD ADD SWAP5 ADD SWAP3 PUSH0 SWAP2 JUMPDEST DUP4 DUP4 LT PUSH2 0xA26 JUMPI POP POP POP POP POP SWAP1 JUMP JUMPDEST SWAP1 SWAP2 SWAP3 SWAP4 SWAP5 PUSH1 0x20 DUP1 PUSH2 0xA44 PUSH1 0x1 SWAP4 PUSH1 0x1F NOT DUP7 DUP3 SUB ADD DUP8 MSTORE DUP10 MLOAD PUSH2 0x8D5 JUMP JUMPDEST SWAP8 ADD SWAP4 ADD SWAP4 ADD SWAP2 SWAP4 SWAP3 SWAP1 PUSH2 0xA17 JUMP JUMPDEST SWAP2 DUP2 PUSH1 0x1F DUP5 ADD SLT ISZERO PUSH2 0xB8 JUMPI DUP3 CALLDATALOAD SWAP2 PUSH8 0xFFFFFFFFFFFFFFFF DUP4 GT PUSH2 0xB8 JUMPI PUSH1 0x20 DUP1 DUP6 ADD SWAP5 DUP5 PUSH1 0x5 SHL ADD ADD GT PUSH2 0xB8 JUMPI JUMP JUMPDEST SWAP1 PUSH1 0x20 DUP3 SLOAD SWAP2 DUP3 DUP2 MSTORE ADD SWAP2 PUSH0 MSTORE PUSH1 0x20 PUSH0 KECCAK256 SWAP1 PUSH0 JUMPDEST DUP2 DUP2 LT PUSH2 0xAA5 JUMPI POP POP POP SWAP1 JUMP JUMPDEST DUP3 SLOAD DUP5 MSTORE PUSH1 0x20 SWAP1 SWAP4 ADD SWAP3 PUSH1 0x1 SWAP3 DUP4 ADD SWAP3 ADD PUSH2 0xA98 JUMP JUMPDEST PUSH2 0x1E0 DUP2 ADD SWAP1 DUP2 LT PUSH8 0xFFFFFFFFFFFFFFFF DUP3 GT OR PUSH2 0xAD8 JUMPI PUSH1 0x40 MSTORE JUMP JUMPDEST PUSH4 0x4E487B71 PUSH1 0xE0 SHL PUSH0 MSTORE PUSH1 0x41 PUSH1 0x4 MSTORE PUSH1 0x24 PUSH0 REVERT JUMPDEST PUSH1 0x80 DUP2 ADD SWAP1 DUP2 LT PUSH8 0xFFFFFFFFFFFFFFFF DUP3 GT OR PUSH2 0xAD8 JUMPI PUSH1 0x40 MSTORE JUMP JUMPDEST SWAP1 PUSH1 0x1F DUP1 NOT SWAP2 ADD AND DUP2 ADD SWAP1 DUP2 LT PUSH8 0xFFFFFFFFFFFFFFFF DUP3 GT OR PUSH2 0xAD8 JUMPI PUSH1 0x40 MSTORE JUMP JUMPDEST PUSH8 0xFFFFFFFFFFFFFFFF DUP2 GT PUSH2 0xAD8 JUMPI PUSH1 0x5 SHL PUSH1 0x20 ADD SWAP1 JUMP JUMPDEST PUSH1 0x40 MLOAD SWAP1 PUSH2 0xB4F DUP3 PUSH2 0xABB JUMP JUMPDEST DUP2 PUSH0 DUP2 MSTORE PUSH0 PUSH1 0x20 DUP3 ADD MSTORE PUSH1 0x60 PUSH1 0x40 DUP3 ADD MSTORE PUSH1 0x60 DUP1 DUP3 ADD MSTORE PUSH1 0x60 PUSH1 0x80 DUP3 ADD MSTORE PUSH0 PUSH1 0xA0 DUP3 ADD MSTORE PUSH0 PUSH1 0xC0 DUP3 ADD MSTORE PUSH0 PUSH1 0xE0 DUP3 ADD MSTORE PUSH0 PUSH2 0x100 DUP3 ADD MSTORE PUSH0 PUSH2 0x120 DUP3 ADD MSTORE PUSH0 PUSH2 0x140 DUP3 ADD MSTORE PUSH0 PUSH2 0x160 DUP3 ADD MSTORE PUSH0 PUSH2 0x180 DUP3 ADD MSTORE PUSH0 PUSH2 0x1A0 DUP3 ADD MSTORE PUSH2 0x1C0 PUSH1 0x40 MLOAD SWAP2 PUSH2 0xBB9 DUP4 PUSH2 0xAEC JUMP JUMPDEST PUSH0 DUP4 MSTORE PUSH0 PUSH1 0x20 DUP5 ADD MSTORE PUSH0 PUSH1 0x40 DUP5 ADD MSTORE PUSH0 PUSH1 0x60 DUP5 ADD MSTORE ADD MSTORE JUMP JUMPDEST SWAP1 PUSH2 0xBDC DUP3 PUSH2 0xB2A JUMP JUMPDEST PUSH2 0xBE9 PUSH1 0x40 MLOAD SWAP2 DUP3 PUSH2 0xB08 JUMP JUMPDEST DUP3 DUP2 MSTORE DUP1 SWAP3 PUSH2 0xBFA PUSH1 0x1F NOT SWAP2 PUSH2 0xB2A JUMP JUMPDEST ADD SWAP1 PUSH0 JUMPDEST DUP3 DUP2 LT PUSH2 0xC0A JUMPI POP POP POP JUMP JUMPDEST PUSH1 0x20 SWAP1 PUSH2 0xC15 PUSH2 0xB42 JUMP JUMPDEST DUP3 DUP3 DUP6 ADD ADD MSTORE ADD PUSH2 0xBFE JUMP JUMPDEST SWAP2 SWAP1 DUP3 SUB SWAP2 DUP3 GT PUSH2 0x386 JUMPI JUMP JUMPDEST SWAP1 PUSH1 0x40 MLOAD SWAP2 PUSH0 DUP2 SLOAD SWAP1 DUP2 PUSH1 0x1 SHR SWAP3 PUSH1 0x1 DUP4 AND SWAP3 DUP4 ISZERO PUSH2 0xCF0 JUMPI JUMPDEST PUSH1 0x20 DUP6 LT DUP5 EQ PUSH2 0xCDC JUMPI DUP5 DUP8 MSTORE DUP7 SWAP4 SWAP1 DUP2 ISZERO PUSH2 0xCBA JUMPI POP PUSH1 0x1 EQ PUSH2 0xC76 JUMPI JUMPDEST POP PUSH2 0xC74 SWAP3 POP SUB DUP4 PUSH2 0xB08 JUMP JUMPDEST JUMP JUMPDEST SWAP1 POP PUSH0 SWAP3 SWAP2 SWAP3 MSTORE PUSH1 0x20 PUSH0 KECCAK256 SWAP1 PUSH0 SWAP2 JUMPDEST DUP2 DUP4 LT PUSH2 0xC9E JUMPI POP POP SWAP1 PUSH1 0x20 PUSH2 0xC74 SWAP3 DUP3 ADD ADD PUSH0 PUSH2 0xC67 JUMP JUMPDEST PUSH1 0x20 SWAP2 SWAP4 POP DUP1 PUSH1 0x1 SWAP2 SLOAD DUP4 DUP6 DUP10 ADD ADD MSTORE ADD SWAP2 ADD SWAP1 SWAP2 DUP5 SWAP3 PUSH2 0xC85 JUMP JUMPDEST SWAP1 POP PUSH1 0x20 SWAP3 POP PUSH2 0xC74 SWAP5 SWAP2 POP PUSH1 0xFF NOT AND DUP3 DUP5 ADD MSTORE ISZERO ISZERO PUSH1 0x5 SHL DUP3 ADD ADD PUSH0 PUSH2 0xC67 JUMP JUMPDEST PUSH4 0x4E487B71 PUSH1 0xE0 SHL PUSH0 MSTORE PUSH1 0x22 PUSH1 0x4 MSTORE PUSH1 0x24 PUSH0 REVERT JUMPDEST SWAP4 PUSH1 0x7F AND SWAP4 PUSH2 0xC48 JUMP JUMPDEST PUSH1 0x3 DUP3 LT ISZERO PUSH2 0x9E7 JUMPI MSTORE JUMP JUMPDEST SWAP1 PUSH1 0x40 MLOAD PUSH2 0xD13 DUP2 PUSH2 0xAEC JUMP JUMPDEST PUSH1 0x60 PUSH1 0x3 DUP3 SWAP5 DUP1 SLOAD DUP5 MSTORE PUSH1 0x1 DUP2 ADD SLOAD PUSH1 0x20 DUP6 ADD MSTORE PUSH1 0x2 DUP2 ADD SLOAD PUSH1 0x40 DUP6 ADD MSTORE ADD SLOAD SWAP2 ADD MSTORE JUMP JUMPDEST DUP1 MLOAD DUP3 LT ISZERO PUSH2 0xD4C JUMPI PUSH1 0x20 SWAP2 PUSH1 0x5 SHL ADD ADD SWAP1 JUMP JUMPDEST PUSH4 0x4E487B71 PUSH1 0xE0 SHL PUSH0 MSTORE PUSH1 0x32 PUSH1 0x4 MSTORE PUSH1 0x24 PUSH0 REVERT JUMPDEST SWAP2 PUSH32 0xF6B912F89C06D8AFD06B9FA8BD742C729F30156DA50B94481FADDBC9D0B4E9EA SLOAD SWAP2 DUP3 SWAP1 DUP4 DUP6 LT ISZERO PUSH2 0xF3D JUMPI PUSH2 0xD98 DUP6 DUP6 PUSH2 0xC21 JUMP JUMPDEST SWAP1 DUP1 DUP3 LT ISZERO PUSH2 0xF35 JUMPI POP SWAP1 JUMPDEST PUSH2 0xDAD DUP3 PUSH2 0xBD2 JUMP JUMPDEST SWAP5 PUSH0 JUMPDEST DUP4 DUP2 LT PUSH2 0xDBD JUMPI POP POP POP POP JUMP JUMPDEST PUSH0 NOT DUP7 ADD DUP7 DUP2 GT PUSH2 0x386 JUMPI DUP2 PUSH2 0xDD6 DUP5 PUSH2 0xDDB SWAP4 PUSH2 0xC21 JUMP JUMPDEST PUSH2 0xC21 JUMP JUMPDEST DUP4 DUP2 LT ISZERO PUSH2 0xD4C JUMPI PUSH32 0xF6B912F89C06D8AFD06B9FA8BD742C729F30156DA50B94481FADDBC9D0B4E9EA PUSH0 MSTORE PUSH32 0x92A07E9B5C0C3259AB73DB7FDDB759E0795904DCDC9C62A149D91B30AC2F683E ADD SLOAD PUSH2 0xE32 DUP2 PUSH2 0xFBD JUMP JUMPDEST DUP1 SLOAD PUSH1 0x1 PUSH1 0x1 PUSH1 0xA0 SHL SUB AND PUSH1 0x4 DUP3 ADD SLOAD PUSH1 0x1 PUSH1 0x1 PUSH1 0xA0 SHL SUB AND PUSH1 0x5 DUP4 ADD SLOAD PUSH1 0xF DUP5 ADD SLOAD PUSH1 0x10 DUP6 ADD SLOAD PUSH1 0x6 DUP7 ADD SLOAD SWAP2 PUSH1 0x7 DUP8 ADD SLOAD SWAP4 PUSH1 0xE DUP9 ADD SLOAD SWAP6 PUSH1 0x8 DUP10 ADD SLOAD SWAP8 PUSH1 0x40 MLOAD SWAP11 PUSH2 0xE7F DUP13 PUSH2 0xABB JUMP JUMPDEST DUP12 MSTORE PUSH1 0x20 DUP12 ADD MSTORE PUSH2 0xE92 PUSH1 0x1 DUP11 ADD PUSH2 0xC2E JUMP JUMPDEST PUSH1 0x40 DUP12 ADD MSTORE PUSH2 0xEA3 PUSH1 0x2 DUP11 ADD PUSH2 0xC2E JUMP JUMPDEST PUSH1 0x60 DUP12 ADD MSTORE PUSH2 0xEB4 PUSH1 0x3 DUP11 ADD PUSH2 0xC2E JUMP JUMPDEST PUSH1 0x80 DUP12 ADD MSTORE PUSH1 0xA0 DUP11 ADD MSTORE PUSH1 0x1 PUSH1 0x1 PUSH1 0xA0 SHL SUB DUP2 AND PUSH1 0xC0 DUP11 ADD MSTORE PUSH1 0xA0 SHR PUSH1 0xFF AND PUSH1 0xE0 DUP10 ADD SWAP1 PUSH2 0xEE1 SWAP2 PUSH2 0xCFA JUMP JUMPDEST PUSH2 0x100 DUP9 ADD MSTORE PUSH2 0x120 DUP8 ADD MSTORE PUSH2 0x140 DUP7 ADD MSTORE PUSH2 0x160 DUP6 ADD MSTORE PUSH2 0x180 DUP5 ADD MSTORE PUSH2 0x1A0 DUP4 ADD MSTORE PUSH1 0x9 ADD PUSH2 0xF11 SWAP1 PUSH2 0xD06 JUMP JUMPDEST PUSH2 0x1C0 DUP3 ADD MSTORE PUSH2 0xF21 DUP3 DUP10 PUSH2 0xD38 JUMP JUMPDEST MSTORE PUSH2 0xF2C DUP2 DUP9 PUSH2 0xD38 JUMP JUMPDEST POP PUSH1 0x1 ADD PUSH2 0xDB0 JUMP JUMPDEST SWAP1 POP SWAP1 PUSH2 0xDA4 JUMP JUMPDEST POP SWAP2 SWAP3 POP SWAP1 POP PUSH1 0x40 MLOAD PUSH2 0xF51 PUSH1 0x20 DUP3 PUSH2 0xB08 JUMP JUMPDEST PUSH0 DUP2 MSTORE PUSH0 DUP1 JUMPDEST DUP2 DUP2 LT PUSH2 0xF64 JUMPI POP POP SWAP2 SWAP1 JUMP JUMPDEST PUSH1 0x20 SWAP1 PUSH2 0xF6F PUSH2 0xB42 JUMP JUMPDEST DUP3 DUP3 DUP7 ADD ADD MSTORE ADD PUSH2 0xF57 JUMP JUMPDEST SWAP2 SWAP1 DUP2 LT ISZERO PUSH2 0xD4C JUMPI PUSH1 0x5 SHL ADD SWAP1 JUMP JUMPDEST SWAP1 PUSH2 0xF95 DUP3 PUSH2 0xB2A JUMP JUMPDEST PUSH2 0xFA2 PUSH1 0x40 MLOAD SWAP2 DUP3 PUSH2 0xB08 JUMP JUMPDEST DUP3 DUP2 MSTORE DUP1 SWAP3 PUSH2 0xFB3 PUSH1 0x1F NOT SWAP2 PUSH2 0xB2A JUMP JUMPDEST ADD SWAP1 PUSH1 0x20 CALLDATASIZE SWAP2 ADD CALLDATACOPY JUMP JUMPDEST PUSH1 0x40 MLOAD PUSH1 0x20 DUP2 ADD SWAP2 PUSH32 0xC61520F0FC87F37C054C240FB12FA829A873C4A7F3A227D3CDAF38F732A45B0D DUP4 MSTORE PUSH1 0x40 DUP3 ADD MSTORE PUSH1 0x40 DUP2 MSTORE PUSH2 0xFFC PUSH1 0x60 DUP3 PUSH2 0xB08 JUMP JUMPDEST MLOAD SWAP1 KECCAK256 SWAP1 JUMP JUMPDEST PUSH1 0x1 SWAP2 PUSH1 0x40 MLOAD SWAP1 PUSH1 0x20 DUP3 ADD SWAP3 PUSH32 0xFA7666F901D98D7DDB6DCA66654A4B44590F640F4803ECFA6CDCB1BCF243032B DUP5 MSTORE PUSH1 0x40 DUP4 ADD MSTORE PUSH12 0xFFFFFFFFFFFFFFFFFFFFFFFF NOT SWAP1 PUSH1 0x60 SHL AND PUSH1 0x60 DUP3 ADD MSTORE PUSH1 0x54 DUP2 MSTORE PUSH2 0x105D PUSH1 0x74 DUP3 PUSH2 0xB08 JUMP JUMPDEST MLOAD SWAP1 KECCAK256 SLOAD EQ SWAP1 JUMP JUMPDEST SWAP1 PUSH1 0x40 MLOAD SWAP1 PUSH1 0x20 DUP3 ADD SWAP3 PUSH32 0xF9CB95D6BCD70B8F41DEB63F6A0973398A369F058485501AB1645D87CA423542 DUP5 MSTORE PUSH1 0x40 DUP4 ADD MSTORE PUSH12 0xFFFFFFFFFFFFFFFFFFFFFFFF NOT SWAP1 PUSH1 0x60 SHL AND PUSH1 0x60 DUP3 ADD MSTORE PUSH1 0x54 DUP2 MSTORE PUSH2 0x10BE PUSH1 0x74 DUP3 PUSH2 0xB08 JUMP JUMPDEST MLOAD SWAP1 KECCAK256 SLOAD SWAP1 JUMP INVALID LOG2 PUSH5 0x6970667358 0x22 SLT KECCAK256 0x4F PUSH13 0xDF2BD868A99E7D081352A67361 CALLDATALOAD 0x22 CALLVALUE PUSH28 0xAF30E01642A0B7FFD218A72B9564736F6C634300081A003300000000 "},"methodIdentifiers":{"getAllCabals()":"5278c392","getCabal(uint256)":"5c32e52f","getCabals(uint256[])":"b3b44358","getCabalsByCreator(address)":"356213d6","getCabalsByStaker(address)":"0272d82a","getCabalsPaginated(uint256,uint256)":"13af8c41","getContribution(uint256,address)":"e081dbf9","getTotalCabals()":"d98af84a","getUserPositions(address,uint256[])":"d29c4e07","hasClaimed(uint256,address)":"873f6f9e"}}}}}