{"contracts/cabal/diamond/facets/StakingFacet.sol":{"StakingFacet":{"abi":[{"inputs":[],"name":"CabalNotActive","type":"error"},{"inputs":[],"name":"InsufficientBalance","type":"error"},{"inputs":[],"name":"TransferFailed","type":"error"},{"inputs":[],"name":"ZeroAmount","type":"error"},{"anonymous":false,"inputs":[{"indexed":true,"internalType":"uint256","name":"cabalId","type":"uint256"},{"indexed":true,"internalType":"address","name":"user","type":"address"},{"indexed":false,"internalType":"uint256","name":"amount","type":"uint256"},{"indexed":false,"internalType":"uint256","name":"newBalance","type":"uint256"}],"name":"Staked","type":"event"},{"anonymous":false,"inputs":[{"indexed":true,"internalType":"uint256","name":"cabalId","type":"uint256"},{"indexed":true,"internalType":"address","name":"user","type":"address"},{"indexed":false,"internalType":"uint256","name":"amount","type":"uint256"},{"indexed":false,"internalType":"uint256","name":"newBalance","type":"uint256"}],"name":"Unstaked","type":"event"},{"inputs":[{"internalType":"uint256","name":"cabalId","type":"uint256"},{"internalType":"address","name":"user","type":"address"}],"name":"getStakedBalance","outputs":[{"internalType":"uint256","name":"","type":"uint256"}],"stateMutability":"view","type":"function"},{"inputs":[{"internalType":"uint256","name":"cabalId","type":"uint256"}],"name":"getTotalStaked","outputs":[{"internalType":"uint256","name":"","type":"uint256"}],"stateMutability":"view","type":"function"},{"inputs":[{"internalType":"address","name":"user","type":"address"}],"name":"getUserStakedCabals","outputs":[{"internalType":"uint256[]","name":"","type":"uint256[]"}],"stateMutability":"view","type":"function"},{"inputs":[{"internalType":"uint256","name":"cabalId","type":"uint256"},{"internalType":"address","name":"user","type":"address"}],"name":"getVotingPower","outputs":[{"internalType":"uint256","name":"","type":"uint256"}],"stateMutability":"view","type":"function"},{"inputs":[{"internalType":"uint256","name":"cabalId","type":"uint256"},{"internalType":"uint256","name":"amount","type":"uint256"}],"name":"stake","outputs":[],"stateMutability":"nonpayable","type":"function"},{"inputs":[{"internalType":"uint256","name":"cabalId","type":"uint256"},{"internalType":"uint256","name":"amount","type":"uint256"},{"internalType":"uint256","name":"deadline","type":"uint256"},{"internalType":"uint8","name":"v","type":"uint8"},{"internalType":"bytes32","name":"r","type":"bytes32"},{"internalType":"bytes32","name":"s","type":"bytes32"}],"name":"stakeWithPermit","outputs":[],"stateMutability":"nonpayable","type":"function"},{"inputs":[{"internalType":"uint256","name":"cabalId","type":"uint256"},{"internalType":"uint256","name":"amount","type":"uint256"}],"name":"unstake","outputs":[],"stateMutability":"nonpayable","type":"function"}],"evm":{"bytecode":{"linkReferences":{},"object":"60808060405234601557610bd5908161001a8239f35b5f80fdfe60806040526004361015610011575f80fd5b5f803560e01c80632f8899f3146106475780635668b02e146104d35780637b0472f0146103b65780637e37731b1461038f5780637f805432146102d65780639e2c8a5b146100985763dbdad43214610067575f80fd5b3461009557604036600319011261009557602061008d610085610687565b600435610719565b604051908152f35b80fd5b5034610095576100a736610671565b9081156102c7576100b78161086b565b6005810160ff815460a01c1660038110156102b3576001036102a4576100dd33846109a1565b8085116102955785916100f18684936106eb565b936100fd853388610a49565b600e810161010c8882546106eb565b90556101183387610aa3565b6001600160a01b03811661025e575b5082876101c160a46001600160a01b0380600460405197602089019663a9059cbb60e01b88523360248b015260448a01526044895261016760648a61069d565b015416965416946040519384916020830197639e5d4c4960e01b89526024840152866044840152606060648401525180918160848501528484015e85838284010152601f801991011681010301601f19810183528261069d565b51925af13d15610259573d67ffffffffffffffff811161024557604051906101f3601f8201601f19166020018361069d565b81528560203d92013e5b156102365760405192835260208301527fffdaf13b1d96bfc2213355f353f84c19493e0681eb0df26f83d862acd266750a60403393a380f35b6312171d8360e31b8452600484fd5b634e487b7160e01b86526041600452602486fd5b6101fd565b8061026c6102869289610af7565b898082111561028c5761027e916106eb565b905b88610b4b565b5f610127565b50508490610280565b631e9acf1760e31b8652600486fd5b6307dab7b360e31b8552600485fd5b634e487b7160e01b86526021600452602486fd5b631f2a200560e01b8352600483fd5b5034610095576020366003190112610095576004356001600160a01b038116810361038b57610304906109fc565b604051908160208254918281520190819285526020852090855b818110610375575050508261033491038361069d565b604051928392602084019060208552518091526040840192915b81811061035c575050500390f35b825184528594506020938401939092019160010161034e565b825484526020909301926001928301920161031e565b5080fd5b503461009557604036600319011261009557602061008d6103ae610687565b6004356109a1565b5034610095576103c536610671565b80929192156104c4576103d78361086b565b90600582015460ff8160a01c1660038110156104b0576001036104a1576004838101546040516323b872dd60e01b815233928101929092526001600160a01b039081166024830152604482018490529091602091839160649183918991165af1908115610496578491610467575b50156104585761045592936108b0565b80f35b6312171d8360e31b8352600483fd5b610489915060203d60201161048f575b610481818361069d565b8101906106d3565b5f610445565b503d610477565b6040513d86823e3d90fd5b6307dab7b360e31b8452600484fd5b634e487b7160e01b85526021600452602485fd5b631f2a200560e01b8252600482fd5b50346106115760c036600319011261061157600435906024356064359060ff82168092036106115780156106385761050a8461086b565b916005830190815460ff8160a01c16600381101561062457600103610615576001600160a01b031690813b15610611575f9160e48392604051948593849263d505accf60e01b84523360048501523060248501528960448501526044356064850152608484015260843560a484015260a43560c48401525af18015610606576105f0575b50546004838101546040516323b872dd60e01b815233928101929092526001600160a01b039081166024830152604482018490529091602091839160649183918991165af19081156104965784916104675750156104585761045592936108b0565b6105fd9194505f9061069d565b5f92602061058e565b6040513d5f823e3d90fd5b5f80fd5b6307dab7b360e31b5f5260045ffd5b634e487b7160e01b5f52602160045260245ffd5b631f2a200560e01b5f5260045ffd5b34610611576020366003190112610611576020600e61066760043561086b565b0154604051908152f35b6040906003190112610611576004359060243590565b602435906001600160a01b038216820361061157565b90601f8019910116810190811067ffffffffffffffff8211176106bf57604052565b634e487b7160e01b5f52604160045260245ffd5b90816020910312610611575180151581036106115790565b919082039182116106f857565b634e487b7160e01b5f52601160045260245ffd5b919082018092116106f857565b906107238261086b565b5f906040516001602082017ffa7666f901d98d7ddb6dca66654a4b44590f640f4803ecfa6cdcb1bcf243032b81528660408401526001600160601b03198660601b16928360608201526054815261077b60748261069d565b5190205414158061085e575b6107d4575b50506001600160a01b036107b46107a384866109a1565b936107ae8187610af7565b95610aa3565b166107cf576107cc92916107c79161070c565b61070c565b90565b505090565b90915060405160208101917ff9cb95d6bcd70b8f41deb63f6a0973398a369f058485501ab1645d87ca423542835285604083015260608201526054815261081c60748261069d565b51902054906007810154918281029281840414901517156106f8576006015490811561084a57045f8061078c565b634e487b7160e01b5f52601260045260245ffd5b5060068201541515610787565b60405160208101917fc61520f0fc87f37c054c240fb12fa829a873c4a7f3a227d3cdaf38f732a45b0d83526040820152604081526108aa60608261069d565b51902090565b90916108bc33836109a1565b600e6108c8858361070c565b926108d4843387610a49565b016108e085825461070c565b905515610954575b6108f23383610aa3565b6001600160a01b038116610935575b5060405192835260208301527f17700ceb1658b18206f427c1578048e87504106b14ec69e9b4586d9a95174a3260403393a3565b80610947856107c761094e9487610af7565b9084610b4b565b5f610901565b61095d336109fc565b8054680100000000000000008110156106bf576001810180835581101561098d5783915f5260205f2001556108e8565b634e487b7160e01b5f52603260045260245ffd5b906040519060208201927f8558c73f0b9098e6be43e479b1cf30236e7e64287529940c5fdd38ab47be3e09845260408301526001600160601b03199060601b166060820152605481526109f560748261069d565b5190205490565b60405160208101917f286c44e1adb37baad1a43e591cf328daa08f091c9031a161720cadffabab900383526001600160601b03199060601b166040820152603481526108aa60548261069d565b906040519060208201927f8558c73f0b9098e6be43e479b1cf30236e7e64287529940c5fdd38ab47be3e09845260408301526001600160601b03199060601b16606082015260548152610a9d60748261069d565b51902055565b906040519060208201927fc3de27a01aa54ffcb04f207e8a4f4a16b583945f9cf1c6868757ca4e0e693152845260408301526001600160601b03199060601b166060820152605481526109f560748261069d565b906040519060208201927f0d5b18ea51234f5557964678168b512e7844d6b8406c15c9ac0ae675917d830f845260408301526001600160601b03199060601b166060820152605481526109f560748261069d565b906040519060208201927f0d5b18ea51234f5557964678168b512e7844d6b8406c15c9ac0ae675917d830f845260408301526001600160601b03199060601b16606082015260548152610a9d60748261069d56fea264697066735822122022a28b8d2b8ea6961ffc31a72bdc20af40309da32cdd026440d4cce4c44fe54264736f6c634300081a0033","opcodes":"PUSH1 0x80 DUP1 PUSH1 0x40 MSTORE CALLVALUE PUSH1 0x15 JUMPI PUSH2 0xBD5 SWAP1 DUP2 PUSH2 0x1A DUP3 CODECOPY RETURN JUMPDEST PUSH0 DUP1 REVERT INVALID PUSH1 0x80 PUSH1 0x40 MSTORE PUSH1 0x4 CALLDATASIZE LT ISZERO PUSH2 0x11 JUMPI PUSH0 DUP1 REVERT JUMPDEST PUSH0 DUP1 CALLDATALOAD PUSH1 0xE0 SHR DUP1 PUSH4 0x2F8899F3 EQ PUSH2 0x647 JUMPI DUP1 PUSH4 0x5668B02E EQ PUSH2 0x4D3 JUMPI DUP1 PUSH4 0x7B0472F0 EQ PUSH2 0x3B6 JUMPI DUP1 PUSH4 0x7E37731B EQ PUSH2 0x38F JUMPI DUP1 PUSH4 0x7F805432 EQ PUSH2 0x2D6 JUMPI DUP1 PUSH4 0x9E2C8A5B EQ PUSH2 0x98 JUMPI PUSH4 0xDBDAD432 EQ PUSH2 0x67 JUMPI PUSH0 DUP1 REVERT JUMPDEST CALLVALUE PUSH2 0x95 JUMPI PUSH1 0x40 CALLDATASIZE PUSH1 0x3 NOT ADD SLT PUSH2 0x95 JUMPI PUSH1 0x20 PUSH2 0x8D PUSH2 0x85 PUSH2 0x687 JUMP JUMPDEST PUSH1 0x4 CALLDATALOAD PUSH2 0x719 JUMP JUMPDEST PUSH1 0x40 MLOAD SWAP1 DUP2 MSTORE RETURN JUMPDEST DUP1 REVERT JUMPDEST POP CALLVALUE PUSH2 0x95 JUMPI PUSH2 0xA7 CALLDATASIZE PUSH2 0x671 JUMP JUMPDEST SWAP1 DUP2 ISZERO PUSH2 0x2C7 JUMPI PUSH2 0xB7 DUP2 PUSH2 0x86B JUMP JUMPDEST PUSH1 0x5 DUP2 ADD PUSH1 0xFF DUP2 SLOAD PUSH1 0xA0 SHR AND PUSH1 0x3 DUP2 LT ISZERO PUSH2 0x2B3 JUMPI PUSH1 0x1 SUB PUSH2 0x2A4 JUMPI PUSH2 0xDD CALLER DUP5 PUSH2 0x9A1 JUMP JUMPDEST DUP1 DUP6 GT PUSH2 0x295 JUMPI DUP6 SWAP2 PUSH2 0xF1 DUP7 DUP5 SWAP4 PUSH2 0x6EB JUMP JUMPDEST SWAP4 PUSH2 0xFD DUP6 CALLER DUP9 PUSH2 0xA49 JUMP JUMPDEST PUSH1 0xE DUP2 ADD PUSH2 0x10C DUP9 DUP3 SLOAD PUSH2 0x6EB JUMP JUMPDEST SWAP1 SSTORE PUSH2 0x118 CALLER DUP8 PUSH2 0xAA3 JUMP JUMPDEST PUSH1 0x1 PUSH1 0x1 PUSH1 0xA0 SHL SUB DUP2 AND PUSH2 0x25E JUMPI JUMPDEST POP DUP3 DUP8 PUSH2 0x1C1 PUSH1 0xA4 PUSH1 0x1 PUSH1 0x1 PUSH1 0xA0 SHL SUB DUP1 PUSH1 0x4 PUSH1 0x40 MLOAD SWAP8 PUSH1 0x20 DUP10 ADD SWAP7 PUSH4 0xA9059CBB PUSH1 0xE0 SHL DUP9 MSTORE CALLER PUSH1 0x24 DUP12 ADD MSTORE PUSH1 0x44 DUP11 ADD MSTORE PUSH1 0x44 DUP10 MSTORE PUSH2 0x167 PUSH1 0x64 DUP11 PUSH2 0x69D JUMP JUMPDEST ADD SLOAD AND SWAP7 SLOAD AND SWAP5 PUSH1 0x40 MLOAD SWAP4 DUP5 SWAP2 PUSH1 0x20 DUP4 ADD SWAP8 PUSH4 0x9E5D4C49 PUSH1 0xE0 SHL DUP10 MSTORE PUSH1 0x24 DUP5 ADD MSTORE DUP7 PUSH1 0x44 DUP5 ADD MSTORE PUSH1 0x60 PUSH1 0x64 DUP5 ADD MSTORE MLOAD DUP1 SWAP2 DUP2 PUSH1 0x84 DUP6 ADD MSTORE DUP5 DUP5 ADD MCOPY DUP6 DUP4 DUP3 DUP5 ADD ADD MSTORE PUSH1 0x1F DUP1 NOT SWAP2 ADD AND DUP2 ADD SUB ADD PUSH1 0x1F NOT DUP2 ADD DUP4 MSTORE DUP3 PUSH2 0x69D JUMP JUMPDEST MLOAD SWAP3 GAS CALL RETURNDATASIZE ISZERO PUSH2 0x259 JUMPI RETURNDATASIZE PUSH8 0xFFFFFFFFFFFFFFFF DUP2 GT PUSH2 0x245 JUMPI PUSH1 0x40 MLOAD SWAP1 PUSH2 0x1F3 PUSH1 0x1F DUP3 ADD PUSH1 0x1F NOT AND PUSH1 0x20 ADD DUP4 PUSH2 0x69D JUMP JUMPDEST DUP2 MSTORE DUP6 PUSH1 0x20 RETURNDATASIZE SWAP3 ADD RETURNDATACOPY JUMPDEST ISZERO PUSH2 0x236 JUMPI PUSH1 0x40 MLOAD SWAP3 DUP4 MSTORE PUSH1 0x20 DUP4 ADD MSTORE PUSH32 0xFFDAF13B1D96BFC2213355F353F84C19493E0681EB0DF26F83D862ACD266750A PUSH1 0x40 CALLER SWAP4 LOG3 DUP1 RETURN JUMPDEST PUSH4 0x12171D83 PUSH1 0xE3 SHL DUP5 MSTORE PUSH1 0x4 DUP5 REVERT JUMPDEST PUSH4 0x4E487B71 PUSH1 0xE0 SHL DUP7 MSTORE PUSH1 0x41 PUSH1 0x4 MSTORE PUSH1 0x24 DUP7 REVERT JUMPDEST PUSH2 0x1FD JUMP JUMPDEST DUP1 PUSH2 0x26C PUSH2 0x286 SWAP3 DUP10 PUSH2 0xAF7 JUMP JUMPDEST DUP10 DUP1 DUP3 GT ISZERO PUSH2 0x28C JUMPI PUSH2 0x27E SWAP2 PUSH2 0x6EB JUMP JUMPDEST SWAP1 JUMPDEST DUP9 PUSH2 0xB4B JUMP JUMPDEST PUSH0 PUSH2 0x127 JUMP JUMPDEST POP POP DUP5 SWAP1 PUSH2 0x280 JUMP JUMPDEST PUSH4 0x1E9ACF17 PUSH1 0xE3 SHL DUP7 MSTORE PUSH1 0x4 DUP7 REVERT JUMPDEST PUSH4 0x7DAB7B3 PUSH1 0xE3 SHL DUP6 MSTORE PUSH1 0x4 DUP6 REVERT JUMPDEST PUSH4 0x4E487B71 PUSH1 0xE0 SHL DUP7 MSTORE PUSH1 0x21 PUSH1 0x4 MSTORE PUSH1 0x24 DUP7 REVERT JUMPDEST PUSH4 0x1F2A2005 PUSH1 0xE0 SHL DUP4 MSTORE PUSH1 0x4 DUP4 REVERT JUMPDEST POP CALLVALUE PUSH2 0x95 JUMPI PUSH1 0x20 CALLDATASIZE PUSH1 0x3 NOT ADD SLT PUSH2 0x95 JUMPI PUSH1 0x4 CALLDATALOAD PUSH1 0x1 PUSH1 0x1 PUSH1 0xA0 SHL SUB DUP2 AND DUP2 SUB PUSH2 0x38B JUMPI PUSH2 0x304 SWAP1 PUSH2 0x9FC JUMP JUMPDEST PUSH1 0x40 MLOAD SWAP1 DUP2 PUSH1 0x20 DUP3 SLOAD SWAP2 DUP3 DUP2 MSTORE ADD SWAP1 DUP2 SWAP3 DUP6 MSTORE PUSH1 0x20 DUP6 KECCAK256 SWAP1 DUP6 JUMPDEST DUP2 DUP2 LT PUSH2 0x375 JUMPI POP POP POP DUP3 PUSH2 0x334 SWAP2 SUB DUP4 PUSH2 0x69D JUMP JUMPDEST PUSH1 0x40 MLOAD SWAP3 DUP4 SWAP3 PUSH1 0x20 DUP5 ADD SWAP1 PUSH1 0x20 DUP6 MSTORE MLOAD DUP1 SWAP2 MSTORE PUSH1 0x40 DUP5 ADD SWAP3 SWAP2 JUMPDEST DUP2 DUP2 LT PUSH2 0x35C JUMPI POP POP POP SUB SWAP1 RETURN JUMPDEST DUP3 MLOAD DUP5 MSTORE DUP6 SWAP5 POP PUSH1 0x20 SWAP4 DUP5 ADD SWAP4 SWAP1 SWAP3 ADD SWAP2 PUSH1 0x1 ADD PUSH2 0x34E JUMP JUMPDEST DUP3 SLOAD DUP5 MSTORE PUSH1 0x20 SWAP1 SWAP4 ADD SWAP3 PUSH1 0x1 SWAP3 DUP4 ADD SWAP3 ADD PUSH2 0x31E JUMP JUMPDEST POP DUP1 REVERT JUMPDEST POP CALLVALUE PUSH2 0x95 JUMPI PUSH1 0x40 CALLDATASIZE PUSH1 0x3 NOT ADD SLT PUSH2 0x95 JUMPI PUSH1 0x20 PUSH2 0x8D PUSH2 0x3AE PUSH2 0x687 JUMP JUMPDEST PUSH1 0x4 CALLDATALOAD PUSH2 0x9A1 JUMP JUMPDEST POP CALLVALUE PUSH2 0x95 JUMPI PUSH2 0x3C5 CALLDATASIZE PUSH2 0x671 JUMP JUMPDEST DUP1 SWAP3 SWAP2 SWAP3 ISZERO PUSH2 0x4C4 JUMPI PUSH2 0x3D7 DUP4 PUSH2 0x86B JUMP JUMPDEST SWAP1 PUSH1 0x5 DUP3 ADD SLOAD PUSH1 0xFF DUP2 PUSH1 0xA0 SHR AND PUSH1 0x3 DUP2 LT ISZERO PUSH2 0x4B0 JUMPI PUSH1 0x1 SUB PUSH2 0x4A1 JUMPI PUSH1 0x4 DUP4 DUP2 ADD SLOAD PUSH1 0x40 MLOAD PUSH4 0x23B872DD PUSH1 0xE0 SHL DUP2 MSTORE CALLER SWAP3 DUP2 ADD SWAP3 SWAP1 SWAP3 MSTORE PUSH1 0x1 PUSH1 0x1 PUSH1 0xA0 SHL SUB SWAP1 DUP2 AND PUSH1 0x24 DUP4 ADD MSTORE PUSH1 0x44 DUP3 ADD DUP5 SWAP1 MSTORE SWAP1 SWAP2 PUSH1 0x20 SWAP2 DUP4 SWAP2 PUSH1 0x64 SWAP2 DUP4 SWAP2 DUP10 SWAP2 AND GAS CALL SWAP1 DUP2 ISZERO PUSH2 0x496 JUMPI DUP5 SWAP2 PUSH2 0x467 JUMPI JUMPDEST POP ISZERO PUSH2 0x458 JUMPI PUSH2 0x455 SWAP3 SWAP4 PUSH2 0x8B0 JUMP JUMPDEST DUP1 RETURN JUMPDEST PUSH4 0x12171D83 PUSH1 0xE3 SHL DUP4 MSTORE PUSH1 0x4 DUP4 REVERT JUMPDEST PUSH2 0x489 SWAP2 POP PUSH1 0x20 RETURNDATASIZE PUSH1 0x20 GT PUSH2 0x48F JUMPI JUMPDEST PUSH2 0x481 DUP2 DUP4 PUSH2 0x69D JUMP JUMPDEST DUP2 ADD SWAP1 PUSH2 0x6D3 JUMP JUMPDEST PUSH0 PUSH2 0x445 JUMP JUMPDEST POP RETURNDATASIZE PUSH2 0x477 JUMP JUMPDEST PUSH1 0x40 MLOAD RETURNDATASIZE DUP7 DUP3 RETURNDATACOPY RETURNDATASIZE SWAP1 REVERT JUMPDEST PUSH4 0x7DAB7B3 PUSH1 0xE3 SHL DUP5 MSTORE PUSH1 0x4 DUP5 REVERT JUMPDEST PUSH4 0x4E487B71 PUSH1 0xE0 SHL DUP6 MSTORE PUSH1 0x21 PUSH1 0x4 MSTORE PUSH1 0x24 DUP6 REVERT JUMPDEST PUSH4 0x1F2A2005 PUSH1 0xE0 SHL DUP3 MSTORE PUSH1 0x4 DUP3 REVERT JUMPDEST POP CALLVALUE PUSH2 0x611 JUMPI PUSH1 0xC0 CALLDATASIZE PUSH1 0x3 NOT ADD SLT PUSH2 0x611 JUMPI PUSH1 0x4 CALLDATALOAD SWAP1 PUSH1 0x24 CALLDATALOAD PUSH1 0x64 CALLDATALOAD SWAP1 PUSH1 0xFF DUP3 AND DUP1 SWAP3 SUB PUSH2 0x611 JUMPI DUP1 ISZERO PUSH2 0x638 JUMPI PUSH2 0x50A DUP5 PUSH2 0x86B JUMP JUMPDEST SWAP2 PUSH1 0x5 DUP4 ADD SWAP1 DUP2 SLOAD PUSH1 0xFF DUP2 PUSH1 0xA0 SHR AND PUSH1 0x3 DUP2 LT ISZERO PUSH2 0x624 JUMPI PUSH1 0x1 SUB PUSH2 0x615 JUMPI PUSH1 0x1 PUSH1 0x1 PUSH1 0xA0 SHL SUB AND SWAP1 DUP2 EXTCODESIZE ISZERO PUSH2 0x611 JUMPI PUSH0 SWAP2 PUSH1 0xE4 DUP4 SWAP3 PUSH1 0x40 MLOAD SWAP5 DUP6 SWAP4 DUP5 SWAP3 PUSH4 0xD505ACCF PUSH1 0xE0 SHL DUP5 MSTORE CALLER PUSH1 0x4 DUP6 ADD MSTORE ADDRESS PUSH1 0x24 DUP6 ADD MSTORE DUP10 PUSH1 0x44 DUP6 ADD MSTORE PUSH1 0x44 CALLDATALOAD PUSH1 0x64 DUP6 ADD MSTORE PUSH1 0x84 DUP5 ADD MSTORE PUSH1 0x84 CALLDATALOAD PUSH1 0xA4 DUP5 ADD MSTORE PUSH1 0xA4 CALLDATALOAD PUSH1 0xC4 DUP5 ADD MSTORE GAS CALL DUP1 ISZERO PUSH2 0x606 JUMPI PUSH2 0x5F0 JUMPI JUMPDEST POP SLOAD PUSH1 0x4 DUP4 DUP2 ADD SLOAD PUSH1 0x40 MLOAD PUSH4 0x23B872DD PUSH1 0xE0 SHL DUP2 MSTORE CALLER SWAP3 DUP2 ADD SWAP3 SWAP1 SWAP3 MSTORE PUSH1 0x1 PUSH1 0x1 PUSH1 0xA0 SHL SUB SWAP1 DUP2 AND PUSH1 0x24 DUP4 ADD MSTORE PUSH1 0x44 DUP3 ADD DUP5 SWAP1 MSTORE SWAP1 SWAP2 PUSH1 0x20 SWAP2 DUP4 SWAP2 PUSH1 0x64 SWAP2 DUP4 SWAP2 DUP10 SWAP2 AND GAS CALL SWAP1 DUP2 ISZERO PUSH2 0x496 JUMPI DUP5 SWAP2 PUSH2 0x467 JUMPI POP ISZERO PUSH2 0x458 JUMPI PUSH2 0x455 SWAP3 SWAP4 PUSH2 0x8B0 JUMP JUMPDEST PUSH2 0x5FD SWAP2 SWAP5 POP PUSH0 SWAP1 PUSH2 0x69D JUMP JUMPDEST PUSH0 SWAP3 PUSH1 0x20 PUSH2 0x58E JUMP JUMPDEST PUSH1 0x40 MLOAD RETURNDATASIZE PUSH0 DUP3 RETURNDATACOPY RETURNDATASIZE SWAP1 REVERT JUMPDEST PUSH0 DUP1 REVERT JUMPDEST PUSH4 0x7DAB7B3 PUSH1 0xE3 SHL PUSH0 MSTORE PUSH1 0x4 PUSH0 REVERT JUMPDEST PUSH4 0x4E487B71 PUSH1 0xE0 SHL PUSH0 MSTORE PUSH1 0x21 PUSH1 0x4 MSTORE PUSH1 0x24 PUSH0 REVERT JUMPDEST PUSH4 0x1F2A2005 PUSH1 0xE0 SHL PUSH0 MSTORE PUSH1 0x4 PUSH0 REVERT JUMPDEST CALLVALUE PUSH2 0x611 JUMPI PUSH1 0x20 CALLDATASIZE PUSH1 0x3 NOT ADD SLT PUSH2 0x611 JUMPI PUSH1 0x20 PUSH1 0xE PUSH2 0x667 PUSH1 0x4 CALLDATALOAD PUSH2 0x86B JUMP JUMPDEST ADD SLOAD PUSH1 0x40 MLOAD SWAP1 DUP2 MSTORE RETURN JUMPDEST PUSH1 0x40 SWAP1 PUSH1 0x3 NOT ADD SLT PUSH2 0x611 JUMPI PUSH1 0x4 CALLDATALOAD SWAP1 PUSH1 0x24 CALLDATALOAD SWAP1 JUMP JUMPDEST PUSH1 0x24 CALLDATALOAD SWAP1 PUSH1 0x1 PUSH1 0x1 PUSH1 0xA0 SHL SUB DUP3 AND DUP3 SUB PUSH2 0x611 JUMPI JUMP JUMPDEST SWAP1 PUSH1 0x1F DUP1 NOT SWAP2 ADD AND DUP2 ADD SWAP1 DUP2 LT PUSH8 0xFFFFFFFFFFFFFFFF DUP3 GT OR PUSH2 0x6BF JUMPI PUSH1 0x40 MSTORE JUMP JUMPDEST PUSH4 0x4E487B71 PUSH1 0xE0 SHL PUSH0 MSTORE PUSH1 0x41 PUSH1 0x4 MSTORE PUSH1 0x24 PUSH0 REVERT JUMPDEST SWAP1 DUP2 PUSH1 0x20 SWAP2 SUB SLT PUSH2 0x611 JUMPI MLOAD DUP1 ISZERO ISZERO DUP2 SUB PUSH2 0x611 JUMPI SWAP1 JUMP JUMPDEST SWAP2 SWAP1 DUP3 SUB SWAP2 DUP3 GT PUSH2 0x6F8 JUMPI JUMP JUMPDEST PUSH4 0x4E487B71 PUSH1 0xE0 SHL PUSH0 MSTORE PUSH1 0x11 PUSH1 0x4 MSTORE PUSH1 0x24 PUSH0 REVERT JUMPDEST SWAP2 SWAP1 DUP3 ADD DUP1 SWAP3 GT PUSH2 0x6F8 JUMPI JUMP JUMPDEST SWAP1 PUSH2 0x723 DUP3 PUSH2 0x86B JUMP JUMPDEST PUSH0 SWAP1 PUSH1 0x40 MLOAD PUSH1 0x1 PUSH1 0x20 DUP3 ADD PUSH32 0xFA7666F901D98D7DDB6DCA66654A4B44590F640F4803ECFA6CDCB1BCF243032B DUP2 MSTORE DUP7 PUSH1 0x40 DUP5 ADD MSTORE PUSH1 0x1 PUSH1 0x1 PUSH1 0x60 SHL SUB NOT DUP7 PUSH1 0x60 SHL AND SWAP3 DUP4 PUSH1 0x60 DUP3 ADD MSTORE PUSH1 0x54 DUP2 MSTORE PUSH2 0x77B PUSH1 0x74 DUP3 PUSH2 0x69D JUMP JUMPDEST MLOAD SWAP1 KECCAK256 SLOAD EQ ISZERO DUP1 PUSH2 0x85E JUMPI JUMPDEST PUSH2 0x7D4 JUMPI JUMPDEST POP POP PUSH1 0x1 PUSH1 0x1 PUSH1 0xA0 SHL SUB PUSH2 0x7B4 PUSH2 0x7A3 DUP5 DUP7 PUSH2 0x9A1 JUMP JUMPDEST SWAP4 PUSH2 0x7AE DUP2 DUP8 PUSH2 0xAF7 JUMP JUMPDEST SWAP6 PUSH2 0xAA3 JUMP JUMPDEST AND PUSH2 0x7CF JUMPI PUSH2 0x7CC SWAP3 SWAP2 PUSH2 0x7C7 SWAP2 PUSH2 0x70C JUMP JUMPDEST PUSH2 0x70C JUMP JUMPDEST SWAP1 JUMP JUMPDEST POP POP SWAP1 JUMP JUMPDEST SWAP1 SWAP2 POP PUSH1 0x40 MLOAD PUSH1 0x20 DUP2 ADD SWAP2 PUSH32 0xF9CB95D6BCD70B8F41DEB63F6A0973398A369F058485501AB1645D87CA423542 DUP4 MSTORE DUP6 PUSH1 0x40 DUP4 ADD MSTORE PUSH1 0x60 DUP3 ADD MSTORE PUSH1 0x54 DUP2 MSTORE PUSH2 0x81C PUSH1 0x74 DUP3 PUSH2 0x69D JUMP JUMPDEST MLOAD SWAP1 KECCAK256 SLOAD SWAP1 PUSH1 0x7 DUP2 ADD SLOAD SWAP2 DUP3 DUP2 MUL SWAP3 DUP2 DUP5 DIV EQ SWAP1 ISZERO OR ISZERO PUSH2 0x6F8 JUMPI PUSH1 0x6 ADD SLOAD SWAP1 DUP2 ISZERO PUSH2 0x84A JUMPI DIV PUSH0 DUP1 PUSH2 0x78C JUMP JUMPDEST PUSH4 0x4E487B71 PUSH1 0xE0 SHL PUSH0 MSTORE PUSH1 0x12 PUSH1 0x4 MSTORE PUSH1 0x24 PUSH0 REVERT JUMPDEST POP PUSH1 0x6 DUP3 ADD SLOAD ISZERO ISZERO PUSH2 0x787 JUMP JUMPDEST PUSH1 0x40 MLOAD PUSH1 0x20 DUP2 ADD SWAP2 PUSH32 0xC61520F0FC87F37C054C240FB12FA829A873C4A7F3A227D3CDAF38F732A45B0D DUP4 MSTORE PUSH1 0x40 DUP3 ADD MSTORE PUSH1 0x40 DUP2 MSTORE PUSH2 0x8AA PUSH1 0x60 DUP3 PUSH2 0x69D JUMP JUMPDEST MLOAD SWAP1 KECCAK256 SWAP1 JUMP JUMPDEST SWAP1 SWAP2 PUSH2 0x8BC CALLER DUP4 PUSH2 0x9A1 JUMP JUMPDEST PUSH1 0xE PUSH2 0x8C8 DUP6 DUP4 PUSH2 0x70C JUMP JUMPDEST SWAP3 PUSH2 0x8D4 DUP5 CALLER DUP8 PUSH2 0xA49 JUMP JUMPDEST ADD PUSH2 0x8E0 DUP6 DUP3 SLOAD PUSH2 0x70C JUMP JUMPDEST SWAP1 SSTORE ISZERO PUSH2 0x954 JUMPI JUMPDEST PUSH2 0x8F2 CALLER DUP4 PUSH2 0xAA3 JUMP JUMPDEST PUSH1 0x1 PUSH1 0x1 PUSH1 0xA0 SHL SUB DUP2 AND PUSH2 0x935 JUMPI JUMPDEST POP PUSH1 0x40 MLOAD SWAP3 DUP4 MSTORE PUSH1 0x20 DUP4 ADD MSTORE PUSH32 0x17700CEB1658B18206F427C1578048E87504106B14EC69E9B4586D9A95174A32 PUSH1 0x40 CALLER SWAP4 LOG3 JUMP JUMPDEST DUP1 PUSH2 0x947 DUP6 PUSH2 0x7C7 PUSH2 0x94E SWAP5 DUP8 PUSH2 0xAF7 JUMP JUMPDEST SWAP1 DUP5 PUSH2 0xB4B JUMP JUMPDEST PUSH0 PUSH2 0x901 JUMP JUMPDEST PUSH2 0x95D CALLER PUSH2 0x9FC JUMP JUMPDEST DUP1 SLOAD PUSH9 0x10000000000000000 DUP2 LT ISZERO PUSH2 0x6BF JUMPI PUSH1 0x1 DUP2 ADD DUP1 DUP4 SSTORE DUP2 LT ISZERO PUSH2 0x98D JUMPI DUP4 SWAP2 PUSH0 MSTORE PUSH1 0x20 PUSH0 KECCAK256 ADD SSTORE PUSH2 0x8E8 JUMP JUMPDEST PUSH4 0x4E487B71 PUSH1 0xE0 SHL PUSH0 MSTORE PUSH1 0x32 PUSH1 0x4 MSTORE PUSH1 0x24 PUSH0 REVERT JUMPDEST SWAP1 PUSH1 0x40 MLOAD SWAP1 PUSH1 0x20 DUP3 ADD SWAP3 PUSH32 0x8558C73F0B9098E6BE43E479B1CF30236E7E64287529940C5FDD38AB47BE3E09 DUP5 MSTORE PUSH1 0x40 DUP4 ADD MSTORE PUSH1 0x1 PUSH1 0x1 PUSH1 0x60 SHL SUB NOT SWAP1 PUSH1 0x60 SHL AND PUSH1 0x60 DUP3 ADD MSTORE PUSH1 0x54 DUP2 MSTORE PUSH2 0x9F5 PUSH1 0x74 DUP3 PUSH2 0x69D JUMP JUMPDEST MLOAD SWAP1 KECCAK256 SLOAD SWAP1 JUMP JUMPDEST PUSH1 0x40 MLOAD PUSH1 0x20 DUP2 ADD SWAP2 PUSH32 0x286C44E1ADB37BAAD1A43E591CF328DAA08F091C9031A161720CADFFABAB9003 DUP4 MSTORE PUSH1 0x1 PUSH1 0x1 PUSH1 0x60 SHL SUB NOT SWAP1 PUSH1 0x60 SHL AND PUSH1 0x40 DUP3 ADD MSTORE PUSH1 0x34 DUP2 MSTORE PUSH2 0x8AA PUSH1 0x54 DUP3 PUSH2 0x69D JUMP JUMPDEST SWAP1 PUSH1 0x40 MLOAD SWAP1 PUSH1 0x20 DUP3 ADD SWAP3 PUSH32 0x8558C73F0B9098E6BE43E479B1CF30236E7E64287529940C5FDD38AB47BE3E09 DUP5 MSTORE PUSH1 0x40 DUP4 ADD MSTORE PUSH1 0x1 PUSH1 0x1 PUSH1 0x60 SHL SUB NOT SWAP1 PUSH1 0x60 SHL AND PUSH1 0x60 DUP3 ADD MSTORE PUSH1 0x54 DUP2 MSTORE PUSH2 0xA9D PUSH1 0x74 DUP3 PUSH2 0x69D JUMP JUMPDEST MLOAD SWAP1 KECCAK256 SSTORE JUMP JUMPDEST SWAP1 PUSH1 0x40 MLOAD SWAP1 PUSH1 0x20 DUP3 ADD SWAP3 PUSH32 0xC3DE27A01AA54FFCB04F207E8A4F4A16B583945F9CF1C6868757CA4E0E693152 DUP5 MSTORE PUSH1 0x40 DUP4 ADD MSTORE PUSH1 0x1 PUSH1 0x1 PUSH1 0x60 SHL SUB NOT SWAP1 PUSH1 0x60 SHL AND PUSH1 0x60 DUP3 ADD MSTORE PUSH1 0x54 DUP2 MSTORE PUSH2 0x9F5 PUSH1 0x74 DUP3 PUSH2 0x69D JUMP JUMPDEST SWAP1 PUSH1 0x40 MLOAD SWAP1 PUSH1 0x20 DUP3 ADD SWAP3 PUSH32 0xD5B18EA51234F5557964678168B512E7844D6B8406C15C9AC0AE675917D830F DUP5 MSTORE PUSH1 0x40 DUP4 ADD MSTORE PUSH1 0x1 PUSH1 0x1 PUSH1 0x60 SHL SUB NOT SWAP1 PUSH1 0x60 SHL AND PUSH1 0x60 DUP3 ADD MSTORE PUSH1 0x54 DUP2 MSTORE PUSH2 0x9F5 PUSH1 0x74 DUP3 PUSH2 0x69D JUMP JUMPDEST SWAP1 PUSH1 0x40 MLOAD SWAP1 PUSH1 0x20 DUP3 ADD SWAP3 PUSH32 0xD5B18EA51234F5557964678168B512E7844D6B8406C15C9AC0AE675917D830F DUP5 MSTORE PUSH1 0x40 DUP4 ADD MSTORE PUSH1 0x1 PUSH1 0x1 PUSH1 0x60 SHL SUB NOT SWAP1 PUSH1 0x60 SHL AND PUSH1 0x60 DUP3 ADD MSTORE PUSH1 0x54 DUP2 MSTORE PUSH2 0xA9D PUSH1 0x74 DUP3 PUSH2 0x69D JUMP INVALID LOG2 PUSH5 0x6970667358 0x22 SLT KECCAK256 0x22 LOG2 DUP12 DUP14 0x2B DUP15 0xA6 SWAP7 0x1F 0xFC BALANCE 0xA7 0x2B 0xDC KECCAK256 0xAF BLOCKHASH ADDRESS SWAP14 LOG3 0x2C 0xDD MUL PUSH5 0x40D4CCE4C4 0x4F 0xE5 TIMESTAMP PUSH5 0x736F6C6343 STOP ADDMOD BYTE STOP CALLER "},"methodIdentifiers":{"getStakedBalance(uint256,address)":"7e37731b","getTotalStaked(uint256)":"2f8899f3","getUserStakedCabals(address)":"7f805432","getVotingPower(uint256,address)":"dbdad432","stake(uint256,uint256)":"7b0472f0","stakeWithPermit(uint256,uint256,uint256,uint8,bytes32,bytes32)":"5668b02e","unstake(uint256,uint256)":"9e2c8a5b"}}}}}