{"contracts/cabal/diamond/facets/DelegationFacet.sol":{"DelegationFacet":{"abi":[{"inputs":[],"name":"AlreadyDelegatedToThis","type":"error"},{"inputs":[],"name":"CabalNotActive","type":"error"},{"inputs":[],"name":"CannotDelegateToSelf","type":"error"},{"inputs":[],"name":"CannotDelegateToZero","type":"error"},{"anonymous":false,"inputs":[{"indexed":true,"internalType":"uint256","name":"cabalId","type":"uint256"},{"indexed":true,"internalType":"address","name":"delegator","type":"address"},{"indexed":true,"internalType":"address","name":"fromDelegate","type":"address"},{"indexed":false,"internalType":"address","name":"toDelegate","type":"address"}],"name":"DelegateChanged","type":"event"},{"anonymous":false,"inputs":[{"indexed":true,"internalType":"uint256","name":"cabalId","type":"uint256"},{"indexed":true,"internalType":"address","name":"delegatee","type":"address"},{"indexed":false,"internalType":"uint256","name":"previousPower","type":"uint256"},{"indexed":false,"internalType":"uint256","name":"newPower","type":"uint256"}],"name":"DelegatedPowerChanged","type":"event"},{"inputs":[{"internalType":"uint256","name":"cabalId","type":"uint256"},{"internalType":"address","name":"delegatee","type":"address"}],"name":"delegate","outputs":[],"stateMutability":"nonpayable","type":"function"},{"inputs":[{"internalType":"uint256","name":"cabalId","type":"uint256"},{"internalType":"address","name":"delegatee","type":"address"}],"name":"getDelegatedPower","outputs":[{"internalType":"uint256","name":"","type":"uint256"}],"stateMutability":"view","type":"function"},{"inputs":[{"internalType":"uint256","name":"cabalId","type":"uint256"},{"internalType":"address","name":"delegator","type":"address"}],"name":"getDelegatee","outputs":[{"internalType":"address","name":"","type":"address"}],"stateMutability":"view","type":"function"},{"inputs":[{"internalType":"uint256","name":"cabalId","type":"uint256"},{"internalType":"address","name":"user","type":"address"}],"name":"hasDelegated","outputs":[{"internalType":"bool","name":"","type":"bool"}],"stateMutability":"view","type":"function"},{"inputs":[{"internalType":"uint256","name":"cabalId","type":"uint256"}],"name":"undelegate","outputs":[],"stateMutability":"nonpayable","type":"function"}],"evm":{"bytecode":{"linkReferences":{},"object":"6080806040523460155761078c908161001a8239f35b5f80fdfe60806040526004361015610011575f80fd5b5f3560e01c806308bbb824146100e35780631cae6ed8146100bf57806335a9e52f1461009e57806355f3985b1461007257636c68c0e114610050575f80fd5b3461006e57602036600319011261006e5761006c600435610326565b005b5f80fd5b3461006e5760206001600160a01b0361009361008d366102d2565b906104d8565b161515604051908152f35b3461006e5760206100b76100b1366102d2565b9061069e565b604051908152f35b3461006e5760206100d261008d366102d2565b6001600160a01b0360405191168152f35b3461006e576100f1366102d2565b906001600160a01b0382169182156102c3573383146102b45761011382610493565b60ff600582015460a01c1660038110156102a0576001036102915761013833846104d8565b6001600160a01b0381169285841461028257837fd252d054e704b15790b76d290b3c00b26a39329e24f8de568a45390fbd0d3ce5948661017b6040963383610538565b9482610238575b506101999150836101929161069e565b9384610319565b916101a58382896106f7565b845160208101907fc3de27a01aa54ffcb04f207e8a4f4a16b583945f9cf1c6868757ca4e0e693152825288878201526bffffffffffffffffffffffff193360601b166060820152605481526101fb60748261045d565b519020558351878152867fda8fcb4c7ecd4c5625ea5caa0e7d6e40323c3fbcde2757215a227c54344532dc60203393a482519182526020820152a3005b86816102458a938561069e565b90888211156102775761026461025b8a846102f8565b80925b876106f7565b82519182526020820152a3808689610182565b6102645f809261025e565b63097fee3760e11b5f5260045ffd5b6307dab7b360e31b5f5260045ffd5b634e487b7160e01b5f52602160045260245ffd5b633be64e5b60e21b5f5260045ffd5b630a47fc2360e01b5f5260045ffd5b604090600319011261006e57600435906024356001600160a01b038116810361006e5790565b9190820391821161030557565b634e487b7160e01b5f52601160045260245ffd5b9190820180921161030557565b61032f81610493565b9060ff600583015460a01c1660038110156102a0576001036102915761035533826104d8565b6001600160a01b038116928315610457577fd252d054e704b15790b76d290b3c00b26a39329e24f8de568a45390fbd0d3ce5916103956040923386610538565b906103a0818661069e565b918083111561044b5761025b6103b691846102f8565b5f835160208101907fc3de27a01aa54ffcb04f207e8a4f4a16b583945f9cf1c6868757ca4e0e693152825287868201526bffffffffffffffffffffffff193360601b1660608201526054815261040d60748261045d565b519020558583515f8152867fda8fcb4c7ecd4c5625ea5caa0e7d6e40323c3fbcde2757215a227c54344532dc60203393a482519182526020820152a3565b506103b65f809261025e565b50505050565b90601f8019910116810190811067ffffffffffffffff82111761047f57604052565b634e487b7160e01b5f52604160045260245ffd5b60405160208101917fc61520f0fc87f37c054c240fb12fa829a873c4a7f3a227d3cdaf38f732a45b0d83526040820152604081526104d260608261045d565b51902090565b906040519060208201927fc3de27a01aa54ffcb04f207e8a4f4a16b583945f9cf1c6868757ca4e0e693152845260408301526bffffffffffffffffffffffff199060601b1660608201526054815261053160748261045d565b5190205490565b6040519160208301907f8558c73f0b9098e6be43e479b1cf30236e7e64287529940c5fdd38ab47be3e0982528260408501526bffffffffffffffffffffffff199060601b16928360608201526054815261059360748261045d565b51902054905f92600160405160208101907ffa7666f901d98d7ddb6dca66654a4b44590f640f4803ecfa6cdcb1bcf243032b8252846040820152836060820152605481526105e260748261045d565b51902054141580610691575b610602575b50506105ff9250610319565b90565b909192506040519060208201927ff9cb95d6bcd70b8f41deb63f6a0973398a369f058485501ab1645d87ca4235428452604083015260608201526054815261064b60748261045d565b51902054916007810154928381029381850414901517156103055760060154801561067d576105ff9204905f806105f3565b634e487b7160e01b5f52601260045260245ffd5b50600685015415156105ee565b906040519060208201927f0d5b18ea51234f5557964678168b512e7844d6b8406c15c9ac0ae675917d830f845260408301526bffffffffffffffffffffffff199060601b1660608201526054815261053160748261045d565b906040519060208201927f0d5b18ea51234f5557964678168b512e7844d6b8406c15c9ac0ae675917d830f845260408301526bffffffffffffffffffffffff199060601b1660608201526054815261075060748261045d565b5190205556fea26469706673582212204b93eb37c833daa121789206df0fd231760d55b289dc0a940075bbb5f2ead92564736f6c634300081a0033","opcodes":"PUSH1 0x80 DUP1 PUSH1 0x40 MSTORE CALLVALUE PUSH1 0x15 JUMPI PUSH2 0x78C SWAP1 DUP2 PUSH2 0x1A DUP3 CODECOPY RETURN JUMPDEST PUSH0 DUP1 REVERT INVALID PUSH1 0x80 PUSH1 0x40 MSTORE PUSH1 0x4 CALLDATASIZE LT ISZERO PUSH2 0x11 JUMPI PUSH0 DUP1 REVERT JUMPDEST PUSH0 CALLDATALOAD PUSH1 0xE0 SHR DUP1 PUSH4 0x8BBB824 EQ PUSH2 0xE3 JUMPI DUP1 PUSH4 0x1CAE6ED8 EQ PUSH2 0xBF JUMPI DUP1 PUSH4 0x35A9E52F EQ PUSH2 0x9E JUMPI DUP1 PUSH4 0x55F3985B EQ PUSH2 0x72 JUMPI PUSH4 0x6C68C0E1 EQ PUSH2 0x50 JUMPI PUSH0 DUP1 REVERT JUMPDEST CALLVALUE PUSH2 0x6E JUMPI PUSH1 0x20 CALLDATASIZE PUSH1 0x3 NOT ADD SLT PUSH2 0x6E JUMPI PUSH2 0x6C PUSH1 0x4 CALLDATALOAD PUSH2 0x326 JUMP JUMPDEST STOP JUMPDEST PUSH0 DUP1 REVERT JUMPDEST CALLVALUE PUSH2 0x6E JUMPI PUSH1 0x20 PUSH1 0x1 PUSH1 0x1 PUSH1 0xA0 SHL SUB PUSH2 0x93 PUSH2 0x8D CALLDATASIZE PUSH2 0x2D2 JUMP JUMPDEST SWAP1 PUSH2 0x4D8 JUMP JUMPDEST AND ISZERO ISZERO PUSH1 0x40 MLOAD SWAP1 DUP2 MSTORE RETURN JUMPDEST CALLVALUE PUSH2 0x6E JUMPI PUSH1 0x20 PUSH2 0xB7 PUSH2 0xB1 CALLDATASIZE PUSH2 0x2D2 JUMP JUMPDEST SWAP1 PUSH2 0x69E JUMP JUMPDEST PUSH1 0x40 MLOAD SWAP1 DUP2 MSTORE RETURN JUMPDEST CALLVALUE PUSH2 0x6E JUMPI PUSH1 0x20 PUSH2 0xD2 PUSH2 0x8D CALLDATASIZE PUSH2 0x2D2 JUMP JUMPDEST PUSH1 0x1 PUSH1 0x1 PUSH1 0xA0 SHL SUB PUSH1 0x40 MLOAD SWAP2 AND DUP2 MSTORE RETURN JUMPDEST CALLVALUE PUSH2 0x6E JUMPI PUSH2 0xF1 CALLDATASIZE PUSH2 0x2D2 JUMP JUMPDEST SWAP1 PUSH1 0x1 PUSH1 0x1 PUSH1 0xA0 SHL SUB DUP3 AND SWAP2 DUP3 ISZERO PUSH2 0x2C3 JUMPI CALLER DUP4 EQ PUSH2 0x2B4 JUMPI PUSH2 0x113 DUP3 PUSH2 0x493 JUMP JUMPDEST PUSH1 0xFF PUSH1 0x5 DUP3 ADD SLOAD PUSH1 0xA0 SHR AND PUSH1 0x3 DUP2 LT ISZERO PUSH2 0x2A0 JUMPI PUSH1 0x1 SUB PUSH2 0x291 JUMPI PUSH2 0x138 CALLER DUP5 PUSH2 0x4D8 JUMP JUMPDEST PUSH1 0x1 PUSH1 0x1 PUSH1 0xA0 SHL SUB DUP2 AND SWAP3 DUP6 DUP5 EQ PUSH2 0x282 JUMPI DUP4 PUSH32 0xD252D054E704B15790B76D290B3C00B26A39329E24F8DE568A45390FBD0D3CE5 SWAP5 DUP7 PUSH2 0x17B PUSH1 0x40 SWAP7 CALLER DUP4 PUSH2 0x538 JUMP JUMPDEST SWAP5 DUP3 PUSH2 0x238 JUMPI JUMPDEST POP PUSH2 0x199 SWAP2 POP DUP4 PUSH2 0x192 SWAP2 PUSH2 0x69E JUMP JUMPDEST SWAP4 DUP5 PUSH2 0x319 JUMP JUMPDEST SWAP2 PUSH2 0x1A5 DUP4 DUP3 DUP10 PUSH2 0x6F7 JUMP JUMPDEST DUP5 MLOAD PUSH1 0x20 DUP2 ADD SWAP1 PUSH32 0xC3DE27A01AA54FFCB04F207E8A4F4A16B583945F9CF1C6868757CA4E0E693152 DUP3 MSTORE DUP9 DUP8 DUP3 ADD MSTORE PUSH12 0xFFFFFFFFFFFFFFFFFFFFFFFF NOT CALLER PUSH1 0x60 SHL AND PUSH1 0x60 DUP3 ADD MSTORE PUSH1 0x54 DUP2 MSTORE PUSH2 0x1FB PUSH1 0x74 DUP3 PUSH2 0x45D JUMP JUMPDEST MLOAD SWAP1 KECCAK256 SSTORE DUP4 MLOAD DUP8 DUP2 MSTORE DUP7 PUSH32 0xDA8FCB4C7ECD4C5625EA5CAA0E7D6E40323C3FBCDE2757215A227C54344532DC PUSH1 0x20 CALLER SWAP4 LOG4 DUP3 MLOAD SWAP2 DUP3 MSTORE PUSH1 0x20 DUP3 ADD MSTORE LOG3 STOP JUMPDEST DUP7 DUP2 PUSH2 0x245 DUP11 SWAP4 DUP6 PUSH2 0x69E JUMP JUMPDEST SWAP1 DUP9 DUP3 GT ISZERO PUSH2 0x277 JUMPI PUSH2 0x264 PUSH2 0x25B DUP11 DUP5 PUSH2 0x2F8 JUMP JUMPDEST DUP1 SWAP3 JUMPDEST DUP8 PUSH2 0x6F7 JUMP JUMPDEST DUP3 MLOAD SWAP2 DUP3 MSTORE PUSH1 0x20 DUP3 ADD MSTORE LOG3 DUP1 DUP7 DUP10 PUSH2 0x182 JUMP JUMPDEST PUSH2 0x264 PUSH0 DUP1 SWAP3 PUSH2 0x25E JUMP JUMPDEST PUSH4 0x97FEE37 PUSH1 0xE1 SHL PUSH0 MSTORE PUSH1 0x4 PUSH0 REVERT JUMPDEST PUSH4 0x7DAB7B3 PUSH1 0xE3 SHL PUSH0 MSTORE PUSH1 0x4 PUSH0 REVERT JUMPDEST PUSH4 0x4E487B71 PUSH1 0xE0 SHL PUSH0 MSTORE PUSH1 0x21 PUSH1 0x4 MSTORE PUSH1 0x24 PUSH0 REVERT JUMPDEST PUSH4 0x3BE64E5B PUSH1 0xE2 SHL PUSH0 MSTORE PUSH1 0x4 PUSH0 REVERT JUMPDEST PUSH4 0xA47FC23 PUSH1 0xE0 SHL PUSH0 MSTORE PUSH1 0x4 PUSH0 REVERT JUMPDEST PUSH1 0x40 SWAP1 PUSH1 0x3 NOT ADD SLT PUSH2 0x6E JUMPI PUSH1 0x4 CALLDATALOAD SWAP1 PUSH1 0x24 CALLDATALOAD PUSH1 0x1 PUSH1 0x1 PUSH1 0xA0 SHL SUB DUP2 AND DUP2 SUB PUSH2 0x6E JUMPI SWAP1 JUMP JUMPDEST SWAP2 SWAP1 DUP3 SUB SWAP2 DUP3 GT PUSH2 0x305 JUMPI JUMP JUMPDEST PUSH4 0x4E487B71 PUSH1 0xE0 SHL PUSH0 MSTORE PUSH1 0x11 PUSH1 0x4 MSTORE PUSH1 0x24 PUSH0 REVERT JUMPDEST SWAP2 SWAP1 DUP3 ADD DUP1 SWAP3 GT PUSH2 0x305 JUMPI JUMP JUMPDEST PUSH2 0x32F DUP2 PUSH2 0x493 JUMP JUMPDEST SWAP1 PUSH1 0xFF PUSH1 0x5 DUP4 ADD SLOAD PUSH1 0xA0 SHR AND PUSH1 0x3 DUP2 LT ISZERO PUSH2 0x2A0 JUMPI PUSH1 0x1 SUB PUSH2 0x291 JUMPI PUSH2 0x355 CALLER DUP3 PUSH2 0x4D8 JUMP JUMPDEST PUSH1 0x1 PUSH1 0x1 PUSH1 0xA0 SHL SUB DUP2 AND SWAP3 DUP4 ISZERO PUSH2 0x457 JUMPI PUSH32 0xD252D054E704B15790B76D290B3C00B26A39329E24F8DE568A45390FBD0D3CE5 SWAP2 PUSH2 0x395 PUSH1 0x40 SWAP3 CALLER DUP7 PUSH2 0x538 JUMP JUMPDEST SWAP1 PUSH2 0x3A0 DUP2 DUP7 PUSH2 0x69E JUMP JUMPDEST SWAP2 DUP1 DUP4 GT ISZERO PUSH2 0x44B JUMPI PUSH2 0x25B PUSH2 0x3B6 SWAP2 DUP5 PUSH2 0x2F8 JUMP JUMPDEST PUSH0 DUP4 MLOAD PUSH1 0x20 DUP2 ADD SWAP1 PUSH32 0xC3DE27A01AA54FFCB04F207E8A4F4A16B583945F9CF1C6868757CA4E0E693152 DUP3 MSTORE DUP8 DUP7 DUP3 ADD MSTORE PUSH12 0xFFFFFFFFFFFFFFFFFFFFFFFF NOT CALLER PUSH1 0x60 SHL AND PUSH1 0x60 DUP3 ADD MSTORE PUSH1 0x54 DUP2 MSTORE PUSH2 0x40D PUSH1 0x74 DUP3 PUSH2 0x45D JUMP JUMPDEST MLOAD SWAP1 KECCAK256 SSTORE DUP6 DUP4 MLOAD PUSH0 DUP2 MSTORE DUP7 PUSH32 0xDA8FCB4C7ECD4C5625EA5CAA0E7D6E40323C3FBCDE2757215A227C54344532DC PUSH1 0x20 CALLER SWAP4 LOG4 DUP3 MLOAD SWAP2 DUP3 MSTORE PUSH1 0x20 DUP3 ADD MSTORE LOG3 JUMP JUMPDEST POP PUSH2 0x3B6 PUSH0 DUP1 SWAP3 PUSH2 0x25E JUMP JUMPDEST POP POP POP POP JUMP JUMPDEST SWAP1 PUSH1 0x1F DUP1 NOT SWAP2 ADD AND DUP2 ADD SWAP1 DUP2 LT PUSH8 0xFFFFFFFFFFFFFFFF DUP3 GT OR PUSH2 0x47F JUMPI PUSH1 0x40 MSTORE JUMP JUMPDEST PUSH4 0x4E487B71 PUSH1 0xE0 SHL PUSH0 MSTORE PUSH1 0x41 PUSH1 0x4 MSTORE PUSH1 0x24 PUSH0 REVERT JUMPDEST PUSH1 0x40 MLOAD PUSH1 0x20 DUP2 ADD SWAP2 PUSH32 0xC61520F0FC87F37C054C240FB12FA829A873C4A7F3A227D3CDAF38F732A45B0D DUP4 MSTORE PUSH1 0x40 DUP3 ADD MSTORE PUSH1 0x40 DUP2 MSTORE PUSH2 0x4D2 PUSH1 0x60 DUP3 PUSH2 0x45D JUMP JUMPDEST MLOAD SWAP1 KECCAK256 SWAP1 JUMP JUMPDEST SWAP1 PUSH1 0x40 MLOAD SWAP1 PUSH1 0x20 DUP3 ADD SWAP3 PUSH32 0xC3DE27A01AA54FFCB04F207E8A4F4A16B583945F9CF1C6868757CA4E0E693152 DUP5 MSTORE PUSH1 0x40 DUP4 ADD MSTORE PUSH12 0xFFFFFFFFFFFFFFFFFFFFFFFF NOT SWAP1 PUSH1 0x60 SHL AND PUSH1 0x60 DUP3 ADD MSTORE PUSH1 0x54 DUP2 MSTORE PUSH2 0x531 PUSH1 0x74 DUP3 PUSH2 0x45D JUMP JUMPDEST MLOAD SWAP1 KECCAK256 SLOAD SWAP1 JUMP JUMPDEST PUSH1 0x40 MLOAD SWAP2 PUSH1 0x20 DUP4 ADD SWAP1 PUSH32 0x8558C73F0B9098E6BE43E479B1CF30236E7E64287529940C5FDD38AB47BE3E09 DUP3 MSTORE DUP3 PUSH1 0x40 DUP6 ADD MSTORE PUSH12 0xFFFFFFFFFFFFFFFFFFFFFFFF NOT SWAP1 PUSH1 0x60 SHL AND SWAP3 DUP4 PUSH1 0x60 DUP3 ADD MSTORE PUSH1 0x54 DUP2 MSTORE PUSH2 0x593 PUSH1 0x74 DUP3 PUSH2 0x45D JUMP JUMPDEST MLOAD SWAP1 KECCAK256 SLOAD SWAP1 PUSH0 SWAP3 PUSH1 0x1 PUSH1 0x40 MLOAD PUSH1 0x20 DUP2 ADD SWAP1 PUSH32 0xFA7666F901D98D7DDB6DCA66654A4B44590F640F4803ECFA6CDCB1BCF243032B DUP3 MSTORE DUP5 PUSH1 0x40 DUP3 ADD MSTORE DUP4 PUSH1 0x60 DUP3 ADD MSTORE PUSH1 0x54 DUP2 MSTORE PUSH2 0x5E2 PUSH1 0x74 DUP3 PUSH2 0x45D JUMP JUMPDEST MLOAD SWAP1 KECCAK256 SLOAD EQ ISZERO DUP1 PUSH2 0x691 JUMPI JUMPDEST PUSH2 0x602 JUMPI JUMPDEST POP POP PUSH2 0x5FF SWAP3 POP PUSH2 0x319 JUMP JUMPDEST SWAP1 JUMP JUMPDEST SWAP1 SWAP2 SWAP3 POP PUSH1 0x40 MLOAD SWAP1 PUSH1 0x20 DUP3 ADD SWAP3 PUSH32 0xF9CB95D6BCD70B8F41DEB63F6A0973398A369F058485501AB1645D87CA423542 DUP5 MSTORE PUSH1 0x40 DUP4 ADD MSTORE PUSH1 0x60 DUP3 ADD MSTORE PUSH1 0x54 DUP2 MSTORE PUSH2 0x64B PUSH1 0x74 DUP3 PUSH2 0x45D JUMP JUMPDEST MLOAD SWAP1 KECCAK256 SLOAD SWAP2 PUSH1 0x7 DUP2 ADD SLOAD SWAP3 DUP4 DUP2 MUL SWAP4 DUP2 DUP6 DIV EQ SWAP1 ISZERO OR ISZERO PUSH2 0x305 JUMPI PUSH1 0x6 ADD SLOAD DUP1 ISZERO PUSH2 0x67D JUMPI PUSH2 0x5FF SWAP3 DIV SWAP1 PUSH0 DUP1 PUSH2 0x5F3 JUMP JUMPDEST PUSH4 0x4E487B71 PUSH1 0xE0 SHL PUSH0 MSTORE PUSH1 0x12 PUSH1 0x4 MSTORE PUSH1 0x24 PUSH0 REVERT JUMPDEST POP PUSH1 0x6 DUP6 ADD SLOAD ISZERO ISZERO PUSH2 0x5EE JUMP JUMPDEST SWAP1 PUSH1 0x40 MLOAD SWAP1 PUSH1 0x20 DUP3 ADD SWAP3 PUSH32 0xD5B18EA51234F5557964678168B512E7844D6B8406C15C9AC0AE675917D830F DUP5 MSTORE PUSH1 0x40 DUP4 ADD MSTORE PUSH12 0xFFFFFFFFFFFFFFFFFFFFFFFF NOT SWAP1 PUSH1 0x60 SHL AND PUSH1 0x60 DUP3 ADD MSTORE PUSH1 0x54 DUP2 MSTORE PUSH2 0x531 PUSH1 0x74 DUP3 PUSH2 0x45D JUMP JUMPDEST SWAP1 PUSH1 0x40 MLOAD SWAP1 PUSH1 0x20 DUP3 ADD SWAP3 PUSH32 0xD5B18EA51234F5557964678168B512E7844D6B8406C15C9AC0AE675917D830F DUP5 MSTORE PUSH1 0x40 DUP4 ADD MSTORE PUSH12 0xFFFFFFFFFFFFFFFFFFFFFFFF NOT SWAP1 PUSH1 0x60 SHL AND PUSH1 0x60 DUP3 ADD MSTORE PUSH1 0x54 DUP2 MSTORE PUSH2 0x750 PUSH1 0x74 DUP3 PUSH2 0x45D JUMP JUMPDEST MLOAD SWAP1 KECCAK256 SSTORE JUMP INVALID LOG2 PUSH5 0x6970667358 0x22 SLT KECCAK256 0x4B SWAP4 0xEB CALLDATACOPY 0xC8 CALLER 0xDA LOG1 0x21 PUSH25 0x9206DF0FD231760D55B289DC0A940075BBB5F2EAD92564736F PUSH13 0x634300081A0033000000000000 "},"methodIdentifiers":{"delegate(uint256,address)":"08bbb824","getDelegatedPower(uint256,address)":"35a9e52f","getDelegatee(uint256,address)":"1cae6ed8","hasDelegated(uint256,address)":"55f3985b","undelegate(uint256)":"6c68c0e1"}}}}}