{"contracts/cabal/diamond/facets/StakingFacet.sol":{"StakingFacet":{"abi":[{"inputs":[],"name":"CabalNotActive","type":"error"},{"inputs":[],"name":"InsufficientBalance","type":"error"},{"inputs":[],"name":"TransferFailed","type":"error"},{"inputs":[],"name":"ZeroAmount","type":"error"},{"anonymous":false,"inputs":[{"indexed":true,"internalType":"uint256","name":"cabalId","type":"uint256"},{"indexed":true,"internalType":"address","name":"user","type":"address"},{"indexed":false,"internalType":"uint256","name":"amount","type":"uint256"},{"indexed":false,"internalType":"uint256","name":"newBalance","type":"uint256"}],"name":"Staked","type":"event"},{"anonymous":false,"inputs":[{"indexed":true,"internalType":"uint256","name":"cabalId","type":"uint256"},{"indexed":true,"internalType":"address","name":"user","type":"address"},{"indexed":false,"internalType":"uint256","name":"amount","type":"uint256"},{"indexed":false,"internalType":"uint256","name":"newBalance","type":"uint256"}],"name":"Unstaked","type":"event"},{"inputs":[{"internalType":"uint256","name":"cabalId","type":"uint256"},{"internalType":"address","name":"user","type":"address"}],"name":"getStakedBalance","outputs":[{"internalType":"uint256","name":"","type":"uint256"}],"stateMutability":"view","type":"function"},{"inputs":[{"internalType":"uint256","name":"cabalId","type":"uint256"}],"name":"getTotalStaked","outputs":[{"internalType":"uint256","name":"","type":"uint256"}],"stateMutability":"view","type":"function"},{"inputs":[{"internalType":"address","name":"user","type":"address"}],"name":"getUserStakedCabals","outputs":[{"internalType":"uint256[]","name":"","type":"uint256[]"}],"stateMutability":"view","type":"function"},{"inputs":[{"internalType":"uint256","name":"cabalId","type":"uint256"},{"internalType":"address","name":"user","type":"address"}],"name":"getVotingPower","outputs":[{"internalType":"uint256","name":"","type":"uint256"}],"stateMutability":"view","type":"function"},{"inputs":[{"internalType":"uint256","name":"cabalId","type":"uint256"},{"internalType":"uint256","name":"amount","type":"uint256"}],"name":"stake","outputs":[],"stateMutability":"nonpayable","type":"function"},{"inputs":[{"internalType":"uint256","name":"cabalId","type":"uint256"},{"internalType":"uint256","name":"amount","type":"uint256"},{"internalType":"uint256","name":"deadline","type":"uint256"},{"internalType":"uint8","name":"v","type":"uint8"},{"internalType":"bytes32","name":"r","type":"bytes32"},{"internalType":"bytes32","name":"s","type":"bytes32"}],"name":"stakeWithPermit","outputs":[],"stateMutability":"nonpayable","type":"function"},{"inputs":[{"internalType":"uint256","name":"cabalId","type":"uint256"},{"internalType":"uint256","name":"amount","type":"uint256"}],"name":"unstake","outputs":[],"stateMutability":"nonpayable","type":"function"}],"evm":{"bytecode":{"linkReferences":{},"object":"6080806040523461001657610b24908161001c8239f35b600080fdfe6040608081526004908136101561001557600080fd5b6000803560e01c80632f8899f3146106745780635668b02e146104dd5780637b0472f0146103bc5780637e37731b146103955780637f805432146102de5780639e2c8a5b1461009d5763dbdad4321461006d57600080fd5b3461009a578160031936011261009a575061009360209261008c6106b4565b903561087c565b9051908152f35b80fd5b5091346102da576100ad3661069e565b92909183156102cc576100bf836108b9565b600581019160ff835460a01c1660038110156102b9576001036102ab576100e633866108fc565b80871161029c57866100f79161086f565b92610103843388610955565b600e830161011288825461086f565b905561011e33876109ad565b6001600160a01b0390808216610278575b508890865190808560209763a9059cbb60e01b898601523360248601528c60448601526044855261015f856106ca565b0154169354169087519086820192639e5d4c4960e01b845260248301528360448301526060606483015280519081608484015287855b838110610260575050509183826101cb60a482878583819a601f9d9a0101528a199a8b9101168101036084810184520182610718565b51925af1903d1561025a573d67ffffffffffffffff8111610247576101f985885193601f8401160183610718565b815288843d92013e5b156102395750825194855284015233927fffdaf13b1d96bfc2213355f353f84c19493e0681eb0df26f83d862acd266750a9190a380f35b83516312171d8360e31b8152fd5b634e487b7160e01b8a526041845260248afd5b50610202565b82810182015185820160a401528e9650899101610195565b8061028f8a61028a610296948c6109ff565b61086f565b9089610a51565b3861012f565b508351631e9acf1760e31b8152fd5b83516307dab7b360e31b8152fd5b634e487b7160e01b885260218252602488fd5b9051631f2a200560e01b8152fd5b8280fd5b5082903461009a576020918260031936011261039157356001600160a01b038116810361038c57906103108492610aa3565b908251808584549182815201908194845286842090845b818110610378575050508161033d910382610718565b83519485948186019282875251809352850193925b82811061036157505050500390f35b835185528695509381019392810192600101610352565b825484529288019260019283019201610327565b600080fd5b5080fd5b503461009a578160031936011261009a57506100936020926103b56106b4565b90356108fc565b509034610391576103cc3661069e565b9081156104cd576103dc816108b9565b92600584015460ff8160a01c1660038110156104ba576001036104aa578487015482516323b872dd60e01b815233818a019081526001600160a01b03928316602082810191909152604082018890529193919284929183918b9183906060010393165af19081156104a0578691610472575b50156104635750610460939450610775565b80f35b516312171d8360e31b81528590fd5b610493915060203d8111610499575b61048b8183610718565b81019061073a565b3861044e565b503d610481565b82513d88823e3d90fd5b81516307dab7b360e31b81528790fd5b634e487b7160e01b875260218852602487fd5b8251631f2a200560e01b81528590fd5b5090346103915760c0366003190112610391578235602435906064359260ff841680940361067057821561066157610514826108b9565b936005850180549160ff8360a01c16600381101561064e5760010361063e576001600160a01b0392831690813b1561063a57889060e48b838851958694859363d505accf60e01b855233908501523060248501528c60448501526044356064850152608484015260843560a484015260a43560c48401525af1801561063057610602575b50548786015483516323b872dd60e01b815233818b019081529184166001600160a01b03166020808401919091526040830188905290939092849291169082908a90829060600103925af19081156104a05786916104725750156104635750610460939450610775565b67ffffffffffffffff819892981161061d5783529584610598565b634e487b7160e01b825260418952602482fd5b84513d8a823e3d90fd5b8880fd5b83516307dab7b360e31b81528990fd5b634e487b7160e01b895260218a52602489fd5b51631f2a200560e01b81528590fd5b8480fd5b503461009a57602036600319011261009a5750600e610695602093356108b9565b01549051908152f35b604090600319011261038c576004359060243590565b602435906001600160a01b038216820361038c57565b6080810190811067ffffffffffffffff8211176106e657604052565b634e487b7160e01b600052604160045260246000fd5b6060810190811067ffffffffffffffff8211176106e657604052565b90601f8019910116810190811067ffffffffffffffff8211176106e657604052565b9081602091031261038c5751801515810361038c5790565b9190820180921161075f57565b634e487b7160e01b600052601160045260246000fd5b909161078133836108fc565b600e61078d8583610752565b92610799843387610955565b016107a5858254610752565b90551561081e575b6107b733836109ad565b6001600160a01b0381166107fa575b5060405192835260208301527f17700ceb1658b18206f427c1578048e87504106b14ec69e9b4586d9a95174a3260403393a3565b806108118561080c61081894876109ff565b610752565b9084610a51565b386107c6565b61082733610aa3565b8054680100000000000000008110156106e65760018101808355811015610859578391600052602060002001556107ad565b634e487b7160e01b600052603260045260246000fd5b9190820391821161075f57565b61088682826108fc565b906108a361089484836109ff565b936001600160a01b03926109ad565b166108b557906108b291610752565b90565b5090565b60405160208101917fc61520f0fc87f37c054c240fb12fa829a873c4a7f3a227d3cdaf38f732a45b0d83526040820152604081526108f6816106fc565b51902090565b906040519060208201927f8558c73f0b9098e6be43e479b1cf30236e7e64287529940c5fdd38ab47be3e09845260408301526001600160601b03199060601b1660608201526054815261094e816106ca565b5190205490565b906040519060208201927f8558c73f0b9098e6be43e479b1cf30236e7e64287529940c5fdd38ab47be3e09845260408301526001600160601b03199060601b166060820152605481526109a7816106ca565b51902055565b906040519060208201927fc3de27a01aa54ffcb04f207e8a4f4a16b583945f9cf1c6868757ca4e0e693152845260408301526001600160601b03199060601b1660608201526054815261094e816106ca565b906040519060208201927f0d5b18ea51234f5557964678168b512e7844d6b8406c15c9ac0ae675917d830f845260408301526001600160601b03199060601b1660608201526054815261094e816106ca565b906040519060208201927f0d5b18ea51234f5557964678168b512e7844d6b8406c15c9ac0ae675917d830f845260408301526001600160601b03199060601b166060820152605481526109a7816106ca565b60405160208101917f286c44e1adb37baad1a43e591cf328daa08f091c9031a161720cadffabab900383526001600160601b03199060601b166040820152603481526108f6816106fc56fea2646970667358221220e71ca402c97f2c975a5de966a2a10fc4d617034a2002acb275205dfef0e56a2d64736f6c63430008140033","opcodes":"PUSH1 0x80 DUP1 PUSH1 0x40 MSTORE CALLVALUE PUSH2 0x16 JUMPI PUSH2 0xB24 SWAP1 DUP2 PUSH2 0x1C DUP3 CODECOPY RETURN JUMPDEST PUSH1 0x0 DUP1 REVERT INVALID PUSH1 0x40 PUSH1 0x80 DUP2 MSTORE PUSH1 0x4 SWAP1 DUP2 CALLDATASIZE LT ISZERO PUSH2 0x15 JUMPI PUSH1 0x0 DUP1 REVERT JUMPDEST PUSH1 0x0 DUP1 CALLDATALOAD PUSH1 0xE0 SHR DUP1 PUSH4 0x2F8899F3 EQ PUSH2 0x674 JUMPI DUP1 PUSH4 0x5668B02E EQ PUSH2 0x4DD JUMPI DUP1 PUSH4 0x7B0472F0 EQ PUSH2 0x3BC JUMPI DUP1 PUSH4 0x7E37731B EQ PUSH2 0x395 JUMPI DUP1 PUSH4 0x7F805432 EQ PUSH2 0x2DE JUMPI DUP1 PUSH4 0x9E2C8A5B EQ PUSH2 0x9D JUMPI PUSH4 0xDBDAD432 EQ PUSH2 0x6D JUMPI PUSH1 0x0 DUP1 REVERT JUMPDEST CALLVALUE PUSH2 0x9A JUMPI DUP2 PUSH1 0x3 NOT CALLDATASIZE ADD SLT PUSH2 0x9A JUMPI POP PUSH2 0x93 PUSH1 0x20 SWAP3 PUSH2 0x8C PUSH2 0x6B4 JUMP JUMPDEST SWAP1 CALLDATALOAD PUSH2 0x87C JUMP JUMPDEST SWAP1 MLOAD SWAP1 DUP2 MSTORE RETURN JUMPDEST DUP1 REVERT JUMPDEST POP SWAP2 CALLVALUE PUSH2 0x2DA JUMPI PUSH2 0xAD CALLDATASIZE PUSH2 0x69E JUMP JUMPDEST SWAP3 SWAP1 SWAP2 DUP4 ISZERO PUSH2 0x2CC JUMPI PUSH2 0xBF DUP4 PUSH2 0x8B9 JUMP JUMPDEST PUSH1 0x5 DUP2 ADD SWAP2 PUSH1 0xFF DUP4 SLOAD PUSH1 0xA0 SHR AND PUSH1 0x3 DUP2 LT ISZERO PUSH2 0x2B9 JUMPI PUSH1 0x1 SUB PUSH2 0x2AB JUMPI PUSH2 0xE6 CALLER DUP7 PUSH2 0x8FC JUMP JUMPDEST DUP1 DUP8 GT PUSH2 0x29C JUMPI DUP7 PUSH2 0xF7 SWAP2 PUSH2 0x86F JUMP JUMPDEST SWAP3 PUSH2 0x103 DUP5 CALLER DUP9 PUSH2 0x955 JUMP JUMPDEST PUSH1 0xE DUP4 ADD PUSH2 0x112 DUP9 DUP3 SLOAD PUSH2 0x86F JUMP JUMPDEST SWAP1 SSTORE PUSH2 0x11E CALLER DUP8 PUSH2 0x9AD JUMP JUMPDEST PUSH1 0x1 PUSH1 0x1 PUSH1 0xA0 SHL SUB SWAP1 DUP1 DUP3 AND PUSH2 0x278 JUMPI JUMPDEST POP DUP9 SWAP1 DUP7 MLOAD SWAP1 DUP1 DUP6 PUSH1 0x20 SWAP8 PUSH4 0xA9059CBB PUSH1 0xE0 SHL DUP10 DUP7 ADD MSTORE CALLER PUSH1 0x24 DUP7 ADD MSTORE DUP13 PUSH1 0x44 DUP7 ADD MSTORE PUSH1 0x44 DUP6 MSTORE PUSH2 0x15F DUP6 PUSH2 0x6CA JUMP JUMPDEST ADD SLOAD AND SWAP4 SLOAD AND SWAP1 DUP8 MLOAD SWAP1 DUP7 DUP3 ADD SWAP3 PUSH4 0x9E5D4C49 PUSH1 0xE0 SHL DUP5 MSTORE PUSH1 0x24 DUP4 ADD MSTORE DUP4 PUSH1 0x44 DUP4 ADD MSTORE PUSH1 0x60 PUSH1 0x64 DUP4 ADD MSTORE DUP1 MLOAD SWAP1 DUP2 PUSH1 0x84 DUP5 ADD MSTORE DUP8 DUP6 JUMPDEST DUP4 DUP2 LT PUSH2 0x260 JUMPI POP POP POP SWAP2 DUP4 DUP3 PUSH2 0x1CB PUSH1 0xA4 DUP3 DUP8 DUP6 DUP4 DUP2 SWAP11 PUSH1 0x1F SWAP14 SWAP11 ADD ADD MSTORE DUP11 NOT SWAP11 DUP12 SWAP2 ADD AND DUP2 ADD SUB PUSH1 0x84 DUP2 ADD DUP5 MSTORE ADD DUP3 PUSH2 0x718 JUMP JUMPDEST MLOAD SWAP3 GAS CALL SWAP1 RETURNDATASIZE ISZERO PUSH2 0x25A JUMPI RETURNDATASIZE PUSH8 0xFFFFFFFFFFFFFFFF DUP2 GT PUSH2 0x247 JUMPI PUSH2 0x1F9 DUP6 DUP9 MLOAD SWAP4 PUSH1 0x1F DUP5 ADD AND ADD DUP4 PUSH2 0x718 JUMP JUMPDEST DUP2 MSTORE DUP9 DUP5 RETURNDATASIZE SWAP3 ADD RETURNDATACOPY JUMPDEST ISZERO PUSH2 0x239 JUMPI POP DUP3 MLOAD SWAP5 DUP6 MSTORE DUP5 ADD MSTORE CALLER SWAP3 PUSH32 0xFFDAF13B1D96BFC2213355F353F84C19493E0681EB0DF26F83D862ACD266750A SWAP2 SWAP1 LOG3 DUP1 RETURN JUMPDEST DUP4 MLOAD PUSH4 0x12171D83 PUSH1 0xE3 SHL DUP2 MSTORE REVERT JUMPDEST PUSH4 0x4E487B71 PUSH1 0xE0 SHL DUP11 MSTORE PUSH1 0x41 DUP5 MSTORE PUSH1 0x24 DUP11 REVERT JUMPDEST POP PUSH2 0x202 JUMP JUMPDEST DUP3 DUP2 ADD DUP3 ADD MLOAD DUP6 DUP3 ADD PUSH1 0xA4 ADD MSTORE DUP15 SWAP7 POP DUP10 SWAP2 ADD PUSH2 0x195 JUMP JUMPDEST DUP1 PUSH2 0x28F DUP11 PUSH2 0x28A PUSH2 0x296 SWAP5 DUP13 PUSH2 0x9FF JUMP JUMPDEST PUSH2 0x86F JUMP JUMPDEST SWAP1 DUP10 PUSH2 0xA51 JUMP JUMPDEST CODESIZE PUSH2 0x12F JUMP JUMPDEST POP DUP4 MLOAD PUSH4 0x1E9ACF17 PUSH1 0xE3 SHL DUP2 MSTORE REVERT JUMPDEST DUP4 MLOAD PUSH4 0x7DAB7B3 PUSH1 0xE3 SHL DUP2 MSTORE REVERT JUMPDEST PUSH4 0x4E487B71 PUSH1 0xE0 SHL DUP9 MSTORE PUSH1 0x21 DUP3 MSTORE PUSH1 0x24 DUP9 REVERT JUMPDEST SWAP1 MLOAD PUSH4 0x1F2A2005 PUSH1 0xE0 SHL DUP2 MSTORE REVERT JUMPDEST DUP3 DUP1 REVERT JUMPDEST POP DUP3 SWAP1 CALLVALUE PUSH2 0x9A JUMPI PUSH1 0x20 SWAP2 DUP3 PUSH1 0x3 NOT CALLDATASIZE ADD SLT PUSH2 0x391 JUMPI CALLDATALOAD PUSH1 0x1 PUSH1 0x1 PUSH1 0xA0 SHL SUB DUP2 AND DUP2 SUB PUSH2 0x38C JUMPI SWAP1 PUSH2 0x310 DUP5 SWAP3 PUSH2 0xAA3 JUMP JUMPDEST SWAP1 DUP3 MLOAD DUP1 DUP6 DUP5 SLOAD SWAP2 DUP3 DUP2 MSTORE ADD SWAP1 DUP2 SWAP5 DUP5 MSTORE DUP7 DUP5 KECCAK256 SWAP1 DUP5 JUMPDEST DUP2 DUP2 LT PUSH2 0x378 JUMPI POP POP POP DUP2 PUSH2 0x33D SWAP2 SUB DUP3 PUSH2 0x718 JUMP JUMPDEST DUP4 MLOAD SWAP5 DUP6 SWAP5 DUP2 DUP7 ADD SWAP3 DUP3 DUP8 MSTORE MLOAD DUP1 SWAP4 MSTORE DUP6 ADD SWAP4 SWAP3 JUMPDEST DUP3 DUP2 LT PUSH2 0x361 JUMPI POP POP POP POP SUB SWAP1 RETURN JUMPDEST DUP4 MLOAD DUP6 MSTORE DUP7 SWAP6 POP SWAP4 DUP2 ADD SWAP4 SWAP3 DUP2 ADD SWAP3 PUSH1 0x1 ADD PUSH2 0x352 JUMP JUMPDEST DUP3 SLOAD DUP5 MSTORE SWAP3 DUP9 ADD SWAP3 PUSH1 0x1 SWAP3 DUP4 ADD SWAP3 ADD PUSH2 0x327 JUMP JUMPDEST PUSH1 0x0 DUP1 REVERT JUMPDEST POP DUP1 REVERT JUMPDEST POP CALLVALUE PUSH2 0x9A JUMPI DUP2 PUSH1 0x3 NOT CALLDATASIZE ADD SLT PUSH2 0x9A JUMPI POP PUSH2 0x93 PUSH1 0x20 SWAP3 PUSH2 0x3B5 PUSH2 0x6B4 JUMP JUMPDEST SWAP1 CALLDATALOAD PUSH2 0x8FC JUMP JUMPDEST POP SWAP1 CALLVALUE PUSH2 0x391 JUMPI PUSH2 0x3CC CALLDATASIZE PUSH2 0x69E JUMP JUMPDEST SWAP1 DUP2 ISZERO PUSH2 0x4CD JUMPI PUSH2 0x3DC DUP2 PUSH2 0x8B9 JUMP JUMPDEST SWAP3 PUSH1 0x5 DUP5 ADD SLOAD PUSH1 0xFF DUP2 PUSH1 0xA0 SHR AND PUSH1 0x3 DUP2 LT ISZERO PUSH2 0x4BA JUMPI PUSH1 0x1 SUB PUSH2 0x4AA JUMPI DUP5 DUP8 ADD SLOAD DUP3 MLOAD PUSH4 0x23B872DD PUSH1 0xE0 SHL DUP2 MSTORE CALLER DUP2 DUP11 ADD SWAP1 DUP2 MSTORE PUSH1 0x1 PUSH1 0x1 PUSH1 0xA0 SHL SUB SWAP3 DUP4 AND PUSH1 0x20 DUP3 DUP2 ADD SWAP2 SWAP1 SWAP2 MSTORE PUSH1 0x40 DUP3 ADD DUP9 SWAP1 MSTORE SWAP2 SWAP4 SWAP2 SWAP3 DUP5 SWAP3 SWAP2 DUP4 SWAP2 DUP12 SWAP2 DUP4 SWAP1 PUSH1 0x60 ADD SUB SWAP4 AND GAS CALL SWAP1 DUP2 ISZERO PUSH2 0x4A0 JUMPI DUP7 SWAP2 PUSH2 0x472 JUMPI JUMPDEST POP ISZERO PUSH2 0x463 JUMPI POP PUSH2 0x460 SWAP4 SWAP5 POP PUSH2 0x775 JUMP JUMPDEST DUP1 RETURN JUMPDEST MLOAD PUSH4 0x12171D83 PUSH1 0xE3 SHL DUP2 MSTORE DUP6 SWAP1 REVERT JUMPDEST PUSH2 0x493 SWAP2 POP PUSH1 0x20 RETURNDATASIZE DUP2 GT PUSH2 0x499 JUMPI JUMPDEST PUSH2 0x48B DUP2 DUP4 PUSH2 0x718 JUMP JUMPDEST DUP2 ADD SWAP1 PUSH2 0x73A JUMP JUMPDEST CODESIZE PUSH2 0x44E JUMP JUMPDEST POP RETURNDATASIZE PUSH2 0x481 JUMP JUMPDEST DUP3 MLOAD RETURNDATASIZE DUP9 DUP3 RETURNDATACOPY RETURNDATASIZE SWAP1 REVERT JUMPDEST DUP2 MLOAD PUSH4 0x7DAB7B3 PUSH1 0xE3 SHL DUP2 MSTORE DUP8 SWAP1 REVERT JUMPDEST PUSH4 0x4E487B71 PUSH1 0xE0 SHL DUP8 MSTORE PUSH1 0x21 DUP9 MSTORE PUSH1 0x24 DUP8 REVERT JUMPDEST DUP3 MLOAD PUSH4 0x1F2A2005 PUSH1 0xE0 SHL DUP2 MSTORE DUP6 SWAP1 REVERT JUMPDEST POP SWAP1 CALLVALUE PUSH2 0x391 JUMPI PUSH1 0xC0 CALLDATASIZE PUSH1 0x3 NOT ADD SLT PUSH2 0x391 JUMPI DUP3 CALLDATALOAD PUSH1 0x24 CALLDATALOAD SWAP1 PUSH1 0x64 CALLDATALOAD SWAP3 PUSH1 0xFF DUP5 AND DUP1 SWAP5 SUB PUSH2 0x670 JUMPI DUP3 ISZERO PUSH2 0x661 JUMPI PUSH2 0x514 DUP3 PUSH2 0x8B9 JUMP JUMPDEST SWAP4 PUSH1 0x5 DUP6 ADD DUP1 SLOAD SWAP2 PUSH1 0xFF DUP4 PUSH1 0xA0 SHR AND PUSH1 0x3 DUP2 LT ISZERO PUSH2 0x64E JUMPI PUSH1 0x1 SUB PUSH2 0x63E JUMPI PUSH1 0x1 PUSH1 0x1 PUSH1 0xA0 SHL SUB SWAP3 DUP4 AND SWAP1 DUP2 EXTCODESIZE ISZERO PUSH2 0x63A JUMPI DUP9 SWAP1 PUSH1 0xE4 DUP12 DUP4 DUP9 MLOAD SWAP6 DUP7 SWAP5 DUP6 SWAP4 PUSH4 0xD505ACCF PUSH1 0xE0 SHL DUP6 MSTORE CALLER SWAP1 DUP6 ADD MSTORE ADDRESS PUSH1 0x24 DUP6 ADD MSTORE DUP13 PUSH1 0x44 DUP6 ADD MSTORE PUSH1 0x44 CALLDATALOAD PUSH1 0x64 DUP6 ADD MSTORE PUSH1 0x84 DUP5 ADD MSTORE PUSH1 0x84 CALLDATALOAD PUSH1 0xA4 DUP5 ADD MSTORE PUSH1 0xA4 CALLDATALOAD PUSH1 0xC4 DUP5 ADD MSTORE GAS CALL DUP1 ISZERO PUSH2 0x630 JUMPI PUSH2 0x602 JUMPI JUMPDEST POP SLOAD DUP8 DUP7 ADD SLOAD DUP4 MLOAD PUSH4 0x23B872DD PUSH1 0xE0 SHL DUP2 MSTORE CALLER DUP2 DUP12 ADD SWAP1 DUP2 MSTORE SWAP2 DUP5 AND PUSH1 0x1 PUSH1 0x1 PUSH1 0xA0 SHL SUB AND PUSH1 0x20 DUP1 DUP5 ADD SWAP2 SWAP1 SWAP2 MSTORE PUSH1 0x40 DUP4 ADD DUP9 SWAP1 MSTORE SWAP1 SWAP4 SWAP1 SWAP3 DUP5 SWAP3 SWAP2 AND SWAP1 DUP3 SWAP1 DUP11 SWAP1 DUP3 SWAP1 PUSH1 0x60 ADD SUB SWAP3 GAS CALL SWAP1 DUP2 ISZERO PUSH2 0x4A0 JUMPI DUP7 SWAP2 PUSH2 0x472 JUMPI POP ISZERO PUSH2 0x463 JUMPI POP PUSH2 0x460 SWAP4 SWAP5 POP PUSH2 0x775 JUMP JUMPDEST PUSH8 0xFFFFFFFFFFFFFFFF DUP2 SWAP9 SWAP3 SWAP9 GT PUSH2 0x61D JUMPI DUP4 MSTORE SWAP6 DUP5 PUSH2 0x598 JUMP JUMPDEST PUSH4 0x4E487B71 PUSH1 0xE0 SHL DUP3 MSTORE PUSH1 0x41 DUP10 MSTORE PUSH1 0x24 DUP3 REVERT JUMPDEST DUP5 MLOAD RETURNDATASIZE DUP11 DUP3 RETURNDATACOPY RETURNDATASIZE SWAP1 REVERT JUMPDEST DUP9 DUP1 REVERT JUMPDEST DUP4 MLOAD PUSH4 0x7DAB7B3 PUSH1 0xE3 SHL DUP2 MSTORE DUP10 SWAP1 REVERT JUMPDEST PUSH4 0x4E487B71 PUSH1 0xE0 SHL DUP10 MSTORE PUSH1 0x21 DUP11 MSTORE PUSH1 0x24 DUP10 REVERT JUMPDEST MLOAD PUSH4 0x1F2A2005 PUSH1 0xE0 SHL DUP2 MSTORE DUP6 SWAP1 REVERT JUMPDEST DUP5 DUP1 REVERT JUMPDEST POP CALLVALUE PUSH2 0x9A JUMPI PUSH1 0x20 CALLDATASIZE PUSH1 0x3 NOT ADD SLT PUSH2 0x9A JUMPI POP PUSH1 0xE PUSH2 0x695 PUSH1 0x20 SWAP4 CALLDATALOAD PUSH2 0x8B9 JUMP JUMPDEST ADD SLOAD SWAP1 MLOAD SWAP1 DUP2 MSTORE RETURN JUMPDEST PUSH1 0x40 SWAP1 PUSH1 0x3 NOT ADD SLT PUSH2 0x38C JUMPI PUSH1 0x4 CALLDATALOAD SWAP1 PUSH1 0x24 CALLDATALOAD SWAP1 JUMP JUMPDEST PUSH1 0x24 CALLDATALOAD SWAP1 PUSH1 0x1 PUSH1 0x1 PUSH1 0xA0 SHL SUB DUP3 AND DUP3 SUB PUSH2 0x38C JUMPI JUMP JUMPDEST PUSH1 0x80 DUP2 ADD SWAP1 DUP2 LT PUSH8 0xFFFFFFFFFFFFFFFF DUP3 GT OR PUSH2 0x6E6 JUMPI PUSH1 0x40 MSTORE JUMP JUMPDEST PUSH4 0x4E487B71 PUSH1 0xE0 SHL PUSH1 0x0 MSTORE PUSH1 0x41 PUSH1 0x4 MSTORE PUSH1 0x24 PUSH1 0x0 REVERT JUMPDEST PUSH1 0x60 DUP2 ADD SWAP1 DUP2 LT PUSH8 0xFFFFFFFFFFFFFFFF DUP3 GT OR PUSH2 0x6E6 JUMPI PUSH1 0x40 MSTORE JUMP JUMPDEST SWAP1 PUSH1 0x1F DUP1 NOT SWAP2 ADD AND DUP2 ADD SWAP1 DUP2 LT PUSH8 0xFFFFFFFFFFFFFFFF DUP3 GT OR PUSH2 0x6E6 JUMPI PUSH1 0x40 MSTORE JUMP JUMPDEST SWAP1 DUP2 PUSH1 0x20 SWAP2 SUB SLT PUSH2 0x38C JUMPI MLOAD DUP1 ISZERO ISZERO DUP2 SUB PUSH2 0x38C JUMPI SWAP1 JUMP JUMPDEST SWAP2 SWAP1 DUP3 ADD DUP1 SWAP3 GT PUSH2 0x75F JUMPI JUMP JUMPDEST PUSH4 0x4E487B71 PUSH1 0xE0 SHL PUSH1 0x0 MSTORE PUSH1 0x11 PUSH1 0x4 MSTORE PUSH1 0x24 PUSH1 0x0 REVERT JUMPDEST SWAP1 SWAP2 PUSH2 0x781 CALLER DUP4 PUSH2 0x8FC JUMP JUMPDEST PUSH1 0xE PUSH2 0x78D DUP6 DUP4 PUSH2 0x752 JUMP JUMPDEST SWAP3 PUSH2 0x799 DUP5 CALLER DUP8 PUSH2 0x955 JUMP JUMPDEST ADD PUSH2 0x7A5 DUP6 DUP3 SLOAD PUSH2 0x752 JUMP JUMPDEST SWAP1 SSTORE ISZERO PUSH2 0x81E JUMPI JUMPDEST PUSH2 0x7B7 CALLER DUP4 PUSH2 0x9AD JUMP JUMPDEST PUSH1 0x1 PUSH1 0x1 PUSH1 0xA0 SHL SUB DUP2 AND PUSH2 0x7FA JUMPI JUMPDEST POP PUSH1 0x40 MLOAD SWAP3 DUP4 MSTORE PUSH1 0x20 DUP4 ADD MSTORE PUSH32 0x17700CEB1658B18206F427C1578048E87504106B14EC69E9B4586D9A95174A32 PUSH1 0x40 CALLER SWAP4 LOG3 JUMP JUMPDEST DUP1 PUSH2 0x811 DUP6 PUSH2 0x80C PUSH2 0x818 SWAP5 DUP8 PUSH2 0x9FF JUMP JUMPDEST PUSH2 0x752 JUMP JUMPDEST SWAP1 DUP5 PUSH2 0xA51 JUMP JUMPDEST CODESIZE PUSH2 0x7C6 JUMP JUMPDEST PUSH2 0x827 CALLER PUSH2 0xAA3 JUMP JUMPDEST DUP1 SLOAD PUSH9 0x10000000000000000 DUP2 LT ISZERO PUSH2 0x6E6 JUMPI PUSH1 0x1 DUP2 ADD DUP1 DUP4 SSTORE DUP2 LT ISZERO PUSH2 0x859 JUMPI DUP4 SWAP2 PUSH1 0x0 MSTORE PUSH1 0x20 PUSH1 0x0 KECCAK256 ADD SSTORE PUSH2 0x7AD JUMP JUMPDEST PUSH4 0x4E487B71 PUSH1 0xE0 SHL PUSH1 0x0 MSTORE PUSH1 0x32 PUSH1 0x4 MSTORE PUSH1 0x24 PUSH1 0x0 REVERT JUMPDEST SWAP2 SWAP1 DUP3 SUB SWAP2 DUP3 GT PUSH2 0x75F JUMPI JUMP JUMPDEST PUSH2 0x886 DUP3 DUP3 PUSH2 0x8FC JUMP JUMPDEST SWAP1 PUSH2 0x8A3 PUSH2 0x894 DUP5 DUP4 PUSH2 0x9FF JUMP JUMPDEST SWAP4 PUSH1 0x1 PUSH1 0x1 PUSH1 0xA0 SHL SUB SWAP3 PUSH2 0x9AD JUMP JUMPDEST AND PUSH2 0x8B5 JUMPI SWAP1 PUSH2 0x8B2 SWAP2 PUSH2 0x752 JUMP JUMPDEST SWAP1 JUMP JUMPDEST POP SWAP1 JUMP JUMPDEST PUSH1 0x40 MLOAD PUSH1 0x20 DUP2 ADD SWAP2 PUSH32 0xC61520F0FC87F37C054C240FB12FA829A873C4A7F3A227D3CDAF38F732A45B0D DUP4 MSTORE PUSH1 0x40 DUP3 ADD MSTORE PUSH1 0x40 DUP2 MSTORE PUSH2 0x8F6 DUP2 PUSH2 0x6FC JUMP JUMPDEST MLOAD SWAP1 KECCAK256 SWAP1 JUMP JUMPDEST SWAP1 PUSH1 0x40 MLOAD SWAP1 PUSH1 0x20 DUP3 ADD SWAP3 PUSH32 0x8558C73F0B9098E6BE43E479B1CF30236E7E64287529940C5FDD38AB47BE3E09 DUP5 MSTORE PUSH1 0x40 DUP4 ADD MSTORE PUSH1 0x1 PUSH1 0x1 PUSH1 0x60 SHL SUB NOT SWAP1 PUSH1 0x60 SHL AND PUSH1 0x60 DUP3 ADD MSTORE PUSH1 0x54 DUP2 MSTORE PUSH2 0x94E DUP2 PUSH2 0x6CA JUMP JUMPDEST MLOAD SWAP1 KECCAK256 SLOAD SWAP1 JUMP JUMPDEST SWAP1 PUSH1 0x40 MLOAD SWAP1 PUSH1 0x20 DUP3 ADD SWAP3 PUSH32 0x8558C73F0B9098E6BE43E479B1CF30236E7E64287529940C5FDD38AB47BE3E09 DUP5 MSTORE PUSH1 0x40 DUP4 ADD MSTORE PUSH1 0x1 PUSH1 0x1 PUSH1 0x60 SHL SUB NOT SWAP1 PUSH1 0x60 SHL AND PUSH1 0x60 DUP3 ADD MSTORE PUSH1 0x54 DUP2 MSTORE PUSH2 0x9A7 DUP2 PUSH2 0x6CA JUMP JUMPDEST MLOAD SWAP1 KECCAK256 SSTORE JUMP JUMPDEST SWAP1 PUSH1 0x40 MLOAD SWAP1 PUSH1 0x20 DUP3 ADD SWAP3 PUSH32 0xC3DE27A01AA54FFCB04F207E8A4F4A16B583945F9CF1C6868757CA4E0E693152 DUP5 MSTORE PUSH1 0x40 DUP4 ADD MSTORE PUSH1 0x1 PUSH1 0x1 PUSH1 0x60 SHL SUB NOT SWAP1 PUSH1 0x60 SHL AND PUSH1 0x60 DUP3 ADD MSTORE PUSH1 0x54 DUP2 MSTORE PUSH2 0x94E DUP2 PUSH2 0x6CA JUMP JUMPDEST SWAP1 PUSH1 0x40 MLOAD SWAP1 PUSH1 0x20 DUP3 ADD SWAP3 PUSH32 0xD5B18EA51234F5557964678168B512E7844D6B8406C15C9AC0AE675917D830F DUP5 MSTORE PUSH1 0x40 DUP4 ADD MSTORE PUSH1 0x1 PUSH1 0x1 PUSH1 0x60 SHL SUB NOT SWAP1 PUSH1 0x60 SHL AND PUSH1 0x60 DUP3 ADD MSTORE PUSH1 0x54 DUP2 MSTORE PUSH2 0x94E DUP2 PUSH2 0x6CA JUMP JUMPDEST SWAP1 PUSH1 0x40 MLOAD SWAP1 PUSH1 0x20 DUP3 ADD SWAP3 PUSH32 0xD5B18EA51234F5557964678168B512E7844D6B8406C15C9AC0AE675917D830F DUP5 MSTORE PUSH1 0x40 DUP4 ADD MSTORE PUSH1 0x1 PUSH1 0x1 PUSH1 0x60 SHL SUB NOT SWAP1 PUSH1 0x60 SHL AND PUSH1 0x60 DUP3 ADD MSTORE PUSH1 0x54 DUP2 MSTORE PUSH2 0x9A7 DUP2 PUSH2 0x6CA JUMP JUMPDEST PUSH1 0x40 MLOAD PUSH1 0x20 DUP2 ADD SWAP2 PUSH32 0x286C44E1ADB37BAAD1A43E591CF328DAA08F091C9031A161720CADFFABAB9003 DUP4 MSTORE PUSH1 0x1 PUSH1 0x1 PUSH1 0x60 SHL SUB NOT SWAP1 PUSH1 0x60 SHL AND PUSH1 0x40 DUP3 ADD MSTORE PUSH1 0x34 DUP2 MSTORE PUSH2 0x8F6 DUP2 PUSH2 0x6FC JUMP INVALID LOG2 PUSH5 0x6970667358 0x22 SLT KECCAK256 0xE7 SHR LOG4 MUL 0xC9 PUSH32 0x2C975A5DE966A2A10FC4D617034A2002ACB275205DFEF0E56A2D64736F6C6343 STOP ADDMOD EQ STOP CALLER "},"methodIdentifiers":{"getStakedBalance(uint256,address)":"7e37731b","getTotalStaked(uint256)":"2f8899f3","getUserStakedCabals(address)":"7f805432","getVotingPower(uint256,address)":"dbdad432","stake(uint256,uint256)":"7b0472f0","stakeWithPermit(uint256,uint256,uint256,uint8,bytes32,bytes32)":"5668b02e","unstake(uint256,uint256)":"9e2c8a5b"}}}}}