{"contracts/cabal/diamond/facets/SettingsFacet.sol":{"SettingsFacet":{"abi":[{"inputs":[],"name":"CabalNotActive","type":"error"},{"inputs":[],"name":"InvalidSettings","type":"error"},{"inputs":[],"name":"OnlyTBA","type":"error"},{"anonymous":false,"inputs":[{"indexed":false,"internalType":"uint256","name":"previousCount","type":"uint256"}],"name":"AllCabalsReset","type":"event"},{"anonymous":false,"inputs":[{"indexed":true,"internalType":"uint256","name":"cabalId","type":"uint256"}],"name":"CabalPaused","type":"event"},{"anonymous":false,"inputs":[{"indexed":true,"internalType":"uint256","name":"cabalId","type":"uint256"}],"name":"CabalUnpaused","type":"event"},{"anonymous":false,"inputs":[{"indexed":true,"internalType":"string","name":"name","type":"string"},{"indexed":false,"internalType":"address","name":"newAddress","type":"address"}],"name":"ContractAddressUpdated","type":"event"},{"anonymous":false,"inputs":[{"indexed":true,"internalType":"uint256","name":"cabalId","type":"uint256"},{"indexed":false,"internalType":"uint256","name":"votingPeriod","type":"uint256"},{"indexed":false,"internalType":"uint256","name":"quorumBps","type":"uint256"},{"indexed":false,"internalType":"uint256","name":"majorityBps","type":"uint256"},{"indexed":false,"internalType":"uint256","name":"proposalThreshold","type":"uint256"}],"name":"GovernanceSettingsUpdated","type":"event"},{"inputs":[],"name":"getClankerAddresses","outputs":[{"internalType":"address","name":"clankerHook","type":"address"},{"internalType":"address","name":"clankerLocker","type":"address"},{"internalType":"address","name":"clankerMevModule","type":"address"},{"internalType":"address","name":"clankerDevBuyExtension","type":"address"}],"stateMutability":"view","type":"function"},{"inputs":[],"name":"getContractAddresses","outputs":[{"internalType":"address","name":"cabalNFT","type":"address"},{"internalType":"address","name":"tbaImplementation","type":"address"},{"internalType":"address","name":"erc6551Registry","type":"address"},{"internalType":"address","name":"clankerFactory","type":"address"},{"internalType":"address","name":"clankerFeeLocker","type":"address"},{"internalType":"address","name":"weth","type":"address"}],"stateMutability":"view","type":"function"},{"inputs":[{"internalType":"uint256","name":"cabalId","type":"uint256"}],"name":"getGovernanceSettings","outputs":[{"components":[{"internalType":"uint256","name":"votingPeriod","type":"uint256"},{"internalType":"uint256","name":"quorumBps","type":"uint256"},{"internalType":"uint256","name":"majorityBps","type":"uint256"},{"internalType":"uint256","name":"proposalThreshold","type":"uint256"}],"internalType":"struct GovernanceSettings","name":"","type":"tuple"}],"stateMutability":"view","type":"function"},{"inputs":[{"internalType":"address","name":"cabalNFT","type":"address"},{"internalType":"address","name":"tbaImplementation","type":"address"},{"internalType":"address","name":"erc6551Registry","type":"address"},{"internalType":"address","name":"clankerFactory","type":"address"},{"internalType":"address","name":"clankerFeeLocker","type":"address"},{"internalType":"address","name":"weth","type":"address"}],"name":"initializeAddresses","outputs":[],"stateMutability":"nonpayable","type":"function"},{"inputs":[{"internalType":"address","name":"clankerHook","type":"address"},{"internalType":"address","name":"clankerLocker","type":"address"},{"internalType":"address","name":"clankerMevModule","type":"address"},{"internalType":"address","name":"clankerDevBuyExtension","type":"address"}],"name":"initializeClankerAddresses","outputs":[],"stateMutability":"nonpayable","type":"function"},{"inputs":[{"internalType":"uint256","name":"cabalId","type":"uint256"}],"name":"pauseCabal","outputs":[],"stateMutability":"nonpayable","type":"function"},{"inputs":[],"name":"resetAllCabals","outputs":[],"stateMutability":"nonpayable","type":"function"},{"inputs":[{"internalType":"uint256","name":"cabalId","type":"uint256"}],"name":"unpauseCabal","outputs":[],"stateMutability":"nonpayable","type":"function"},{"inputs":[{"internalType":"string","name":"name","type":"string"},{"internalType":"address","name":"newAddress","type":"address"}],"name":"updateContractAddress","outputs":[],"stateMutability":"nonpayable","type":"function"},{"inputs":[{"internalType":"uint256","name":"cabalId","type":"uint256"},{"components":[{"internalType":"uint256","name":"votingPeriod","type":"uint256"},{"internalType":"uint256","name":"quorumBps","type":"uint256"},{"internalType":"uint256","name":"majorityBps","type":"uint256"},{"internalType":"uint256","name":"proposalThreshold","type":"uint256"}],"internalType":"struct GovernanceSettings","name":"newSettings","type":"tuple"}],"name":"updateGovernanceSettings","outputs":[],"stateMutability":"nonpayable","type":"function"}],"evm":{"bytecode":{"linkReferences":{},"object":"6080806040523460155761158e908161001a8239f35b5f80fdfe6080806040526004361015610012575f80fd5b5f3560e01c9081631c4dfeca146112a55750806338aed2f714610ca25780634d74e0d11461085c57806370318d6d146107e05780637eaf80911461050357806386308db81461048757806390cc14b914610372578063953874d21461023b578063bfdea7c3146101aa5763d77154861461008a575f80fd5b346101a65760a03660031901126101a65760043560803660231901126101a6576100b3816114f3565b6001600160a01b03600482015416330361017e57602435801561014b5760443590612710821161014b576064359261138884108015610173575b61014b577fdb3ca0065eec10d767f02948614eedb6f3b5b05925ff1da1fdab4979d068abd59360809382846009600c95015581600a82015582600b8201556084359384910155604051938452602084015260408301526060820152a2005b7fe591f33d000000000000000000000000000000000000000000000000000000005f5260045ffd5b5061271084116100ed565b7f16b205a2000000000000000000000000000000000000000000000000000000005f5260045ffd5b5f80fd5b346101a65760203660031901126101a6575f60606040516101ca816113d1565b828152826020820152826040820152015260806101e86004356114f3565b6040516101f4816113d1565b600982015491828252600a810154602083019081526060600c600b840154936040860194855201549301928352604051938452516020840152516040830152516060820152f35b346101a6575f3660031901126101a65760c06001600160a01b037ff6b912f89c06d8afd06b9fa8bd742c729f30156da50b94481faddbc9d0b4e9e354166001600160a01b037ff6b912f89c06d8afd06b9fa8bd742c729f30156da50b94481faddbc9d0b4e9e454166001600160a01b037ff6b912f89c06d8afd06b9fa8bd742c729f30156da50b94481faddbc9d0b4e9e554166001600160a01b037ff6b912f89c06d8afd06b9fa8bd742c729f30156da50b94481faddbc9d0b4e9e654166001600160a01b037ff6b912f89c06d8afd06b9fa8bd742c729f30156da50b94481faddbc9d0b4e9e75416916001600160a01b037ff6b912f89c06d8afd06b9fa8bd742c729f30156da50b94481faddbc9d0b4e9e8541693604051958652602086015260408501526060840152608083015260a0820152f35b346101a6575f3660031901126101a65761038a61143c565b7ff6b912f89c06d8afd06b9fa8bd742c729f30156da50b94481faddbc9d0b4e9ea545f7ff6b912f89c06d8afd06b9fa8bd742c729f30156da50b94481faddbc9d0b4e9ea5580610425575b60207ff870b81512541eea84413e8520219f1c8a2a0244492715983de068312c2aaf77915f7ff6b912f89c06d8afd06b9fa8bd742c729f30156da50b94481faddbc9d0b4e9e955604051908152a1005b7ff6b912f89c06d8afd06b9fa8bd742c729f30156da50b94481faddbc9d0b4e9ea5f527f92a07e9b5c0c3259ab73db7fddb759e0795904dcdc9c62a149d91b30ac2f683e818101905b81811061047c5750506103d5565b5f815560010161046e565b346101a65760203660031901126101a6576004356104a4816114f3565b6001600160a01b03600482015416330361017e576005017401000000000000000000000000000000000000000060ff60a01b198254161790557f2cbefb23d4b41a5fbb04712657dbbed8ce573fb3e267f88f47ba7e4adfe86d4c5f80a2005b346101a65760803660031901126101a65761051c61138f565b610524611379565b61052c6113a5565b906105356113bb565b9261053e61143c565b61059c816001600160a01b03166001600160a01b03197f7ac3a920b579a0b08c43b9e61f5a89fbb0532d6363affc3c4bf0a0f3f8f9ad945416177f7ac3a920b579a0b08c43b9e61f5a89fbb0532d6363affc3c4bf0a0f3f8f9ad9455565b6105fa826001600160a01b03166001600160a01b03197f7ac3a920b579a0b08c43b9e61f5a89fbb0532d6363affc3c4bf0a0f3f8f9ad955416177f7ac3a920b579a0b08c43b9e61f5a89fbb0532d6363affc3c4bf0a0f3f8f9ad9555565b610658836001600160a01b03166001600160a01b03197f7ac3a920b579a0b08c43b9e61f5a89fbb0532d6363affc3c4bf0a0f3f8f9ad965416177f7ac3a920b579a0b08c43b9e61f5a89fbb0532d6363affc3c4bf0a0f3f8f9ad9655565b6106b6846001600160a01b03166001600160a01b03197f7ac3a920b579a0b08c43b9e61f5a89fbb0532d6363affc3c4bf0a0f3f8f9ad975416177f7ac3a920b579a0b08c43b9e61f5a89fbb0532d6363affc3c4bf0a0f3f8f9ad9755565b5f805160206115398339815191526020600b6040517f636c616e6b6572486f6f6b000000000000000000000000000000000000000000815220926001600160a01b0360405191168152a25f805160206115398339815191526020600d6040517f636c616e6b65724c6f636b657200000000000000000000000000000000000000815220926001600160a01b0360405191168152a25f80516020611539833981519152602060106040517f636c616e6b65724d65764d6f64756c6500000000000000000000000000000000815220926001600160a01b0360405191168152a25f80516020611539833981519152602060166040517f636c616e6b6572446576427579457874656e73696f6e00000000000000000000815220926001600160a01b0360405191168152a2005b346101a65760203660031901126101a6576004356107fd816114f3565b6001600160a01b03600482015416330361017e576005017402000000000000000000000000000000000000000060ff60a01b198254161790557f5f586f44197b3b17c9368a99dcf90b4b202fbd67e905bcaf9ff7cdc0c2242cfa5f80a2005b346101a65760c03660031901126101a65761087561138f565b61087d611379565b906108866113a5565b61088e6113bb565b90608435936001600160a01b038516938486036101a65760a435956001600160a01b038716968781036101a657610a9c610af6926108ca61143c565b610928856001600160a01b03166001600160a01b03197ff6b912f89c06d8afd06b9fa8bd742c729f30156da50b94481faddbc9d0b4e9e35416177ff6b912f89c06d8afd06b9fa8bd742c729f30156da50b94481faddbc9d0b4e9e355565b610986866001600160a01b03166001600160a01b03197ff6b912f89c06d8afd06b9fa8bd742c729f30156da50b94481faddbc9d0b4e9e45416177ff6b912f89c06d8afd06b9fa8bd742c729f30156da50b94481faddbc9d0b4e9e455565b6109e4876001600160a01b03166001600160a01b03197ff6b912f89c06d8afd06b9fa8bd742c729f30156da50b94481faddbc9d0b4e9e55416177ff6b912f89c06d8afd06b9fa8bd742c729f30156da50b94481faddbc9d0b4e9e555565b610a42886001600160a01b03166001600160a01b03197ff6b912f89c06d8afd06b9fa8bd742c729f30156da50b94481faddbc9d0b4e9e65416177ff6b912f89c06d8afd06b9fa8bd742c729f30156da50b94481faddbc9d0b4e9e655565b6001600160a01b03166001600160a01b03197ff6b912f89c06d8afd06b9fa8bd742c729f30156da50b94481faddbc9d0b4e9e75416177ff6b912f89c06d8afd06b9fa8bd742c729f30156da50b94481faddbc9d0b4e9e755565b6001600160a01b03166001600160a01b03197ff6b912f89c06d8afd06b9fa8bd742c729f30156da50b94481faddbc9d0b4e9e85416177ff6b912f89c06d8afd06b9fa8bd742c729f30156da50b94481faddbc9d0b4e9e855565b5f80516020611539833981519152602060086040517f636162616c4e4654000000000000000000000000000000000000000000000000815220926001600160a01b0360405191168152a25f80516020611539833981519152602060116040517f746261496d706c656d656e746174696f6e000000000000000000000000000000815220926001600160a01b0360405191168152a25f805160206115398339815191526020600f6040517f6572633635353152656769737472790000000000000000000000000000000000815220926001600160a01b0360405191168152a25f805160206115398339815191526020600e6040517f636c616e6b6572466163746f7279000000000000000000000000000000000000815220926001600160a01b0360405191168152a25f80516020611539833981519152602060106040517f636c616e6b65724665654c6f636b65720000000000000000000000000000000081522092604051908152a25f80516020611539833981519152602060046040517f776574680000000000000000000000000000000000000000000000000000000081522092604051908152a2005b346101a65760403660031901126101a65760043567ffffffffffffffff81116101a657366023820112156101a657806004013567ffffffffffffffff81116101a657602482019160248236920101116101a65760205f8051602061153983398151915291610d0e611379565b93610d1761143c565b604051610d2d601f8401601f191685018261141a565b82815283810190838383375f8185018601525190207f29b05734e677bcc3133168b24020e18685c46a7bd5cc043cd7fc58331c3598658103610dec5750610dc8856001600160a01b03166001600160a01b03197ff6b912f89c06d8afd06b9fa8bd742c729f30156da50b94481faddbc9d0b4e9e35416177ff6b912f89c06d8afd06b9fa8bd742c729f30156da50b94481faddbc9d0b4e9e355565b81604051928392833781015f8152039020926001600160a01b0360405191168152a2005b7fefe07bcd5679ae64b25a43a445721223de26ca48d8e76d75a0477dee3c439b498103610e775750610e72856001600160a01b03166001600160a01b03197ff6b912f89c06d8afd06b9fa8bd742c729f30156da50b94481faddbc9d0b4e9e45416177ff6b912f89c06d8afd06b9fa8bd742c729f30156da50b94481faddbc9d0b4e9e455565b610dc8565b7f8d9f88ab91e7602d1ac3e196b9ddcbfc09f98512a407a3eb6e6b1794df5824dd8103610efd5750610e72856001600160a01b03166001600160a01b03197ff6b912f89c06d8afd06b9fa8bd742c729f30156da50b94481faddbc9d0b4e9e55416177ff6b912f89c06d8afd06b9fa8bd742c729f30156da50b94481faddbc9d0b4e9e555565b7f07216321e0ad3124a02bfab159544db264ed6a97d28fe9b4e574e080d30144d78103610f835750610e72856001600160a01b03166001600160a01b03197ff6b912f89c06d8afd06b9fa8bd742c729f30156da50b94481faddbc9d0b4e9e65416177ff6b912f89c06d8afd06b9fa8bd742c729f30156da50b94481faddbc9d0b4e9e655565b7fc726fbc6a1957aefa09968672b0d5ac4766c9bbc2f6e653d47fe653f662c27a681036110095750610e72856001600160a01b03166001600160a01b03197ff6b912f89c06d8afd06b9fa8bd742c729f30156da50b94481faddbc9d0b4e9e75416177ff6b912f89c06d8afd06b9fa8bd742c729f30156da50b94481faddbc9d0b4e9e755565b7fbc66733b7ca4d12d33ae46b0875e3b042b7391ce3a863cd5d8495e3fe87fd521810361108f5750610e72856001600160a01b03166001600160a01b03197ff6b912f89c06d8afd06b9fa8bd742c729f30156da50b94481faddbc9d0b4e9e85416177ff6b912f89c06d8afd06b9fa8bd742c729f30156da50b94481faddbc9d0b4e9e855565b7f89fbd101e5f5cbb3c4edcf9a50633ea8b152c481efcf15b1935b7ee126c5388f81036111155750610e72856001600160a01b03166001600160a01b03197f7ac3a920b579a0b08c43b9e61f5a89fbb0532d6363affc3c4bf0a0f3f8f9ad945416177f7ac3a920b579a0b08c43b9e61f5a89fbb0532d6363affc3c4bf0a0f3f8f9ad9455565b7f41ce5c4360707234d2936e857028125069bf1ea468e99b600d24c7a4640447e3810361119b5750610e72856001600160a01b03166001600160a01b03197f7ac3a920b579a0b08c43b9e61f5a89fbb0532d6363affc3c4bf0a0f3f8f9ad955416177f7ac3a920b579a0b08c43b9e61f5a89fbb0532d6363affc3c4bf0a0f3f8f9ad9555565b7f9b7060cd2a2befa09791e516b0d807a0552a41c717a5f48b975afbe841e3ee9081036112215750610e72856001600160a01b03166001600160a01b03197f7ac3a920b579a0b08c43b9e61f5a89fbb0532d6363affc3c4bf0a0f3f8f9ad965416177f7ac3a920b579a0b08c43b9e61f5a89fbb0532d6363affc3c4bf0a0f3f8f9ad9655565b7f23c2bfec6d92224a70091d8b23be305d97a411b07c4be8d696dfd2db01ae800003610e7257610e72856001600160a01b03166001600160a01b03197f7ac3a920b579a0b08c43b9e61f5a89fbb0532d6363affc3c4bf0a0f3f8f9ad975416177f7ac3a920b579a0b08c43b9e61f5a89fbb0532d6363affc3c4bf0a0f3f8f9ad9755565b346101a6575f3660031901126101a6576080906001600160a01b037f7ac3a920b579a0b08c43b9e61f5a89fbb0532d6363affc3c4bf0a0f3f8f9ad9454166001600160a01b037f7ac3a920b579a0b08c43b9e61f5a89fbb0532d6363affc3c4bf0a0f3f8f9ad9554166001600160a01b037f7ac3a920b579a0b08c43b9e61f5a89fbb0532d6363affc3c4bf0a0f3f8f9ad965416906001600160a01b037f7ac3a920b579a0b08c43b9e61f5a89fbb0532d6363affc3c4bf0a0f3f8f9ad975416928452602084015260408301526060820152f35b602435906001600160a01b03821682036101a657565b600435906001600160a01b03821682036101a657565b604435906001600160a01b03821682036101a657565b606435906001600160a01b03821682036101a657565b6080810190811067ffffffffffffffff8211176113ed57604052565b7f4e487b71000000000000000000000000000000000000000000000000000000005f52604160045260245ffd5b90601f8019910116810190811067ffffffffffffffff8211176113ed57604052565b6001600160a01b037fc8fcad8db84d3cc18b4c41d551ea0ee66dd599cde068d998e57d5e09332c13205416330361146f57565b60846040517f08c379a000000000000000000000000000000000000000000000000000000000815260206004820152602260248201527f4c69624469616d6f6e643a204d75737420626520636f6e7472616374206f776e60448201527f65720000000000000000000000000000000000000000000000000000000000006064820152fd5b60405160208101917fc61520f0fc87f37c054c240fb12fa829a873c4a7f3a227d3cdaf38f732a45b0d835260408201526040815261153260608261141a565b5190209056fea42de6429c1410f4470a8ff5afeeae27c734519ac1693e8eb58798a81715c947a26469706673582212209e237c12ace1230233e36d928f907146b26ebad78b0de10203b745e8433b031364736f6c634300081a0033","opcodes":"PUSH1 0x80 DUP1 PUSH1 0x40 MSTORE CALLVALUE PUSH1 0x15 JUMPI PUSH2 0x158E SWAP1 DUP2 PUSH2 0x1A DUP3 CODECOPY RETURN JUMPDEST PUSH0 DUP1 REVERT INVALID PUSH1 0x80 DUP1 PUSH1 0x40 MSTORE PUSH1 0x4 CALLDATASIZE LT ISZERO PUSH2 0x12 JUMPI PUSH0 DUP1 REVERT JUMPDEST PUSH0 CALLDATALOAD PUSH1 0xE0 SHR SWAP1 DUP2 PUSH4 0x1C4DFECA EQ PUSH2 0x12A5 JUMPI POP DUP1 PUSH4 0x38AED2F7 EQ PUSH2 0xCA2 JUMPI DUP1 PUSH4 0x4D74E0D1 EQ PUSH2 0x85C JUMPI DUP1 PUSH4 0x70318D6D EQ PUSH2 0x7E0 JUMPI DUP1 PUSH4 0x7EAF8091 EQ PUSH2 0x503 JUMPI DUP1 PUSH4 0x86308DB8 EQ PUSH2 0x487 JUMPI DUP1 PUSH4 0x90CC14B9 EQ PUSH2 0x372 JUMPI DUP1 PUSH4 0x953874D2 EQ PUSH2 0x23B JUMPI DUP1 PUSH4 0xBFDEA7C3 EQ PUSH2 0x1AA JUMPI PUSH4 0xD7715486 EQ PUSH2 0x8A JUMPI PUSH0 DUP1 REVERT JUMPDEST CALLVALUE PUSH2 0x1A6 JUMPI PUSH1 0xA0 CALLDATASIZE PUSH1 0x3 NOT ADD SLT PUSH2 0x1A6 JUMPI PUSH1 0x4 CALLDATALOAD PUSH1 0x80 CALLDATASIZE PUSH1 0x23 NOT ADD SLT PUSH2 0x1A6 JUMPI PUSH2 0xB3 DUP2 PUSH2 0x14F3 JUMP JUMPDEST PUSH1 0x1 PUSH1 0x1 PUSH1 0xA0 SHL SUB PUSH1 0x4 DUP3 ADD SLOAD AND CALLER SUB PUSH2 0x17E JUMPI PUSH1 0x24 CALLDATALOAD DUP1 ISZERO PUSH2 0x14B JUMPI PUSH1 0x44 CALLDATALOAD SWAP1 PUSH2 0x2710 DUP3 GT PUSH2 0x14B JUMPI PUSH1 0x64 CALLDATALOAD SWAP3 PUSH2 0x1388 DUP5 LT DUP1 ISZERO PUSH2 0x173 JUMPI JUMPDEST PUSH2 0x14B JUMPI PUSH32 0xDB3CA0065EEC10D767F02948614EEDB6F3B5B05925FF1DA1FDAB4979D068ABD5 SWAP4 PUSH1 0x80 SWAP4 DUP3 DUP5 PUSH1 0x9 PUSH1 0xC SWAP6 ADD SSTORE DUP2 PUSH1 0xA DUP3 ADD SSTORE DUP3 PUSH1 0xB DUP3 ADD SSTORE PUSH1 0x84 CALLDATALOAD SWAP4 DUP5 SWAP2 ADD SSTORE PUSH1 0x40 MLOAD SWAP4 DUP5 MSTORE PUSH1 0x20 DUP5 ADD MSTORE PUSH1 0x40 DUP4 ADD MSTORE PUSH1 0x60 DUP3 ADD MSTORE LOG2 STOP JUMPDEST PUSH32 0xE591F33D00000000000000000000000000000000000000000000000000000000 PUSH0 MSTORE PUSH1 0x4 PUSH0 REVERT JUMPDEST POP PUSH2 0x2710 DUP5 GT PUSH2 0xED JUMP JUMPDEST PUSH32 0x16B205A200000000000000000000000000000000000000000000000000000000 PUSH0 MSTORE PUSH1 0x4 PUSH0 REVERT JUMPDEST PUSH0 DUP1 REVERT JUMPDEST CALLVALUE PUSH2 0x1A6 JUMPI PUSH1 0x20 CALLDATASIZE PUSH1 0x3 NOT ADD SLT PUSH2 0x1A6 JUMPI PUSH0 PUSH1 0x60 PUSH1 0x40 MLOAD PUSH2 0x1CA DUP2 PUSH2 0x13D1 JUMP JUMPDEST DUP3 DUP2 MSTORE DUP3 PUSH1 0x20 DUP3 ADD MSTORE DUP3 PUSH1 0x40 DUP3 ADD MSTORE ADD MSTORE PUSH1 0x80 PUSH2 0x1E8 PUSH1 0x4 CALLDATALOAD PUSH2 0x14F3 JUMP JUMPDEST PUSH1 0x40 MLOAD PUSH2 0x1F4 DUP2 PUSH2 0x13D1 JUMP JUMPDEST PUSH1 0x9 DUP3 ADD SLOAD SWAP2 DUP3 DUP3 MSTORE PUSH1 0xA DUP2 ADD SLOAD PUSH1 0x20 DUP4 ADD SWAP1 DUP2 MSTORE PUSH1 0x60 PUSH1 0xC PUSH1 0xB DUP5 ADD SLOAD SWAP4 PUSH1 0x40 DUP7 ADD SWAP5 DUP6 MSTORE ADD SLOAD SWAP4 ADD SWAP3 DUP4 MSTORE PUSH1 0x40 MLOAD SWAP4 DUP5 MSTORE MLOAD PUSH1 0x20 DUP5 ADD MSTORE MLOAD PUSH1 0x40 DUP4 ADD MSTORE MLOAD PUSH1 0x60 DUP3 ADD MSTORE RETURN JUMPDEST CALLVALUE PUSH2 0x1A6 JUMPI PUSH0 CALLDATASIZE PUSH1 0x3 NOT ADD SLT PUSH2 0x1A6 JUMPI PUSH1 0xC0 PUSH1 0x1 PUSH1 0x1 PUSH1 0xA0 SHL SUB PUSH32 0xF6B912F89C06D8AFD06B9FA8BD742C729F30156DA50B94481FADDBC9D0B4E9E3 SLOAD AND PUSH1 0x1 PUSH1 0x1 PUSH1 0xA0 SHL SUB PUSH32 0xF6B912F89C06D8AFD06B9FA8BD742C729F30156DA50B94481FADDBC9D0B4E9E4 SLOAD AND PUSH1 0x1 PUSH1 0x1 PUSH1 0xA0 SHL SUB PUSH32 0xF6B912F89C06D8AFD06B9FA8BD742C729F30156DA50B94481FADDBC9D0B4E9E5 SLOAD AND PUSH1 0x1 PUSH1 0x1 PUSH1 0xA0 SHL SUB PUSH32 0xF6B912F89C06D8AFD06B9FA8BD742C729F30156DA50B94481FADDBC9D0B4E9E6 SLOAD AND PUSH1 0x1 PUSH1 0x1 PUSH1 0xA0 SHL SUB PUSH32 0xF6B912F89C06D8AFD06B9FA8BD742C729F30156DA50B94481FADDBC9D0B4E9E7 SLOAD AND SWAP2 PUSH1 0x1 PUSH1 0x1 PUSH1 0xA0 SHL SUB PUSH32 0xF6B912F89C06D8AFD06B9FA8BD742C729F30156DA50B94481FADDBC9D0B4E9E8 SLOAD AND SWAP4 PUSH1 0x40 MLOAD SWAP6 DUP7 MSTORE PUSH1 0x20 DUP7 ADD MSTORE PUSH1 0x40 DUP6 ADD MSTORE PUSH1 0x60 DUP5 ADD MSTORE PUSH1 0x80 DUP4 ADD MSTORE PUSH1 0xA0 DUP3 ADD MSTORE RETURN JUMPDEST CALLVALUE PUSH2 0x1A6 JUMPI PUSH0 CALLDATASIZE PUSH1 0x3 NOT ADD SLT PUSH2 0x1A6 JUMPI PUSH2 0x38A PUSH2 0x143C JUMP JUMPDEST PUSH32 0xF6B912F89C06D8AFD06B9FA8BD742C729F30156DA50B94481FADDBC9D0B4E9EA SLOAD PUSH0 PUSH32 0xF6B912F89C06D8AFD06B9FA8BD742C729F30156DA50B94481FADDBC9D0B4E9EA SSTORE DUP1 PUSH2 0x425 JUMPI JUMPDEST PUSH1 0x20 PUSH32 0xF870B81512541EEA84413E8520219F1C8A2A0244492715983DE068312C2AAF77 SWAP2 PUSH0 PUSH32 0xF6B912F89C06D8AFD06B9FA8BD742C729F30156DA50B94481FADDBC9D0B4E9E9 SSTORE PUSH1 0x40 MLOAD SWAP1 DUP2 MSTORE LOG1 STOP JUMPDEST PUSH32 0xF6B912F89C06D8AFD06B9FA8BD742C729F30156DA50B94481FADDBC9D0B4E9EA PUSH0 MSTORE PUSH32 0x92A07E9B5C0C3259AB73DB7FDDB759E0795904DCDC9C62A149D91B30AC2F683E DUP2 DUP2 ADD SWAP1 JUMPDEST DUP2 DUP2 LT PUSH2 0x47C JUMPI POP POP PUSH2 0x3D5 JUMP JUMPDEST PUSH0 DUP2 SSTORE PUSH1 0x1 ADD PUSH2 0x46E JUMP JUMPDEST CALLVALUE PUSH2 0x1A6 JUMPI PUSH1 0x20 CALLDATASIZE PUSH1 0x3 NOT ADD SLT PUSH2 0x1A6 JUMPI PUSH1 0x4 CALLDATALOAD PUSH2 0x4A4 DUP2 PUSH2 0x14F3 JUMP JUMPDEST PUSH1 0x1 PUSH1 0x1 PUSH1 0xA0 SHL SUB PUSH1 0x4 DUP3 ADD SLOAD AND CALLER SUB PUSH2 0x17E JUMPI PUSH1 0x5 ADD PUSH21 0x10000000000000000000000000000000000000000 PUSH1 0xFF PUSH1 0xA0 SHL NOT DUP3 SLOAD AND OR SWAP1 SSTORE PUSH32 0x2CBEFB23D4B41A5FBB04712657DBBED8CE573FB3E267F88F47BA7E4ADFE86D4C PUSH0 DUP1 LOG2 STOP JUMPDEST CALLVALUE PUSH2 0x1A6 JUMPI PUSH1 0x80 CALLDATASIZE PUSH1 0x3 NOT ADD SLT PUSH2 0x1A6 JUMPI PUSH2 0x51C PUSH2 0x138F JUMP JUMPDEST PUSH2 0x524 PUSH2 0x1379 JUMP JUMPDEST PUSH2 0x52C PUSH2 0x13A5 JUMP JUMPDEST SWAP1 PUSH2 0x535 PUSH2 0x13BB JUMP JUMPDEST SWAP3 PUSH2 0x53E PUSH2 0x143C JUMP JUMPDEST PUSH2 0x59C DUP2 PUSH1 0x1 PUSH1 0x1 PUSH1 0xA0 SHL SUB AND PUSH1 0x1 PUSH1 0x1 PUSH1 0xA0 SHL SUB NOT PUSH32 0x7AC3A920B579A0B08C43B9E61F5A89FBB0532D6363AFFC3C4BF0A0F3F8F9AD94 SLOAD AND OR PUSH32 0x7AC3A920B579A0B08C43B9E61F5A89FBB0532D6363AFFC3C4BF0A0F3F8F9AD94 SSTORE JUMP JUMPDEST PUSH2 0x5FA DUP3 PUSH1 0x1 PUSH1 0x1 PUSH1 0xA0 SHL SUB AND PUSH1 0x1 PUSH1 0x1 PUSH1 0xA0 SHL SUB NOT PUSH32 0x7AC3A920B579A0B08C43B9E61F5A89FBB0532D6363AFFC3C4BF0A0F3F8F9AD95 SLOAD AND OR PUSH32 0x7AC3A920B579A0B08C43B9E61F5A89FBB0532D6363AFFC3C4BF0A0F3F8F9AD95 SSTORE JUMP JUMPDEST PUSH2 0x658 DUP4 PUSH1 0x1 PUSH1 0x1 PUSH1 0xA0 SHL SUB AND PUSH1 0x1 PUSH1 0x1 PUSH1 0xA0 SHL SUB NOT PUSH32 0x7AC3A920B579A0B08C43B9E61F5A89FBB0532D6363AFFC3C4BF0A0F3F8F9AD96 SLOAD AND OR PUSH32 0x7AC3A920B579A0B08C43B9E61F5A89FBB0532D6363AFFC3C4BF0A0F3F8F9AD96 SSTORE JUMP JUMPDEST PUSH2 0x6B6 DUP5 PUSH1 0x1 PUSH1 0x1 PUSH1 0xA0 SHL SUB AND PUSH1 0x1 PUSH1 0x1 PUSH1 0xA0 SHL SUB NOT PUSH32 0x7AC3A920B579A0B08C43B9E61F5A89FBB0532D6363AFFC3C4BF0A0F3F8F9AD97 SLOAD AND OR PUSH32 0x7AC3A920B579A0B08C43B9E61F5A89FBB0532D6363AFFC3C4BF0A0F3F8F9AD97 SSTORE JUMP JUMPDEST PUSH0 DUP1 MLOAD PUSH1 0x20 PUSH2 0x1539 DUP4 CODECOPY DUP2 MLOAD SWAP2 MSTORE PUSH1 0x20 PUSH1 0xB PUSH1 0x40 MLOAD PUSH32 0x636C616E6B6572486F6F6B000000000000000000000000000000000000000000 DUP2 MSTORE KECCAK256 SWAP3 PUSH1 0x1 PUSH1 0x1 PUSH1 0xA0 SHL SUB PUSH1 0x40 MLOAD SWAP2 AND DUP2 MSTORE LOG2 PUSH0 DUP1 MLOAD PUSH1 0x20 PUSH2 0x1539 DUP4 CODECOPY DUP2 MLOAD SWAP2 MSTORE PUSH1 0x20 PUSH1 0xD PUSH1 0x40 MLOAD PUSH32 0x636C616E6B65724C6F636B657200000000000000000000000000000000000000 DUP2 MSTORE KECCAK256 SWAP3 PUSH1 0x1 PUSH1 0x1 PUSH1 0xA0 SHL SUB PUSH1 0x40 MLOAD SWAP2 AND DUP2 MSTORE LOG2 PUSH0 DUP1 MLOAD PUSH1 0x20 PUSH2 0x1539 DUP4 CODECOPY DUP2 MLOAD SWAP2 MSTORE PUSH1 0x20 PUSH1 0x10 PUSH1 0x40 MLOAD PUSH32 0x636C616E6B65724D65764D6F64756C6500000000000000000000000000000000 DUP2 MSTORE KECCAK256 SWAP3 PUSH1 0x1 PUSH1 0x1 PUSH1 0xA0 SHL SUB PUSH1 0x40 MLOAD SWAP2 AND DUP2 MSTORE LOG2 PUSH0 DUP1 MLOAD PUSH1 0x20 PUSH2 0x1539 DUP4 CODECOPY DUP2 MLOAD SWAP2 MSTORE PUSH1 0x20 PUSH1 0x16 PUSH1 0x40 MLOAD PUSH32 0x636C616E6B6572446576427579457874656E73696F6E00000000000000000000 DUP2 MSTORE KECCAK256 SWAP3 PUSH1 0x1 PUSH1 0x1 PUSH1 0xA0 SHL SUB PUSH1 0x40 MLOAD SWAP2 AND DUP2 MSTORE LOG2 STOP JUMPDEST CALLVALUE PUSH2 0x1A6 JUMPI PUSH1 0x20 CALLDATASIZE PUSH1 0x3 NOT ADD SLT PUSH2 0x1A6 JUMPI PUSH1 0x4 CALLDATALOAD PUSH2 0x7FD DUP2 PUSH2 0x14F3 JUMP JUMPDEST PUSH1 0x1 PUSH1 0x1 PUSH1 0xA0 SHL SUB PUSH1 0x4 DUP3 ADD SLOAD AND CALLER SUB PUSH2 0x17E JUMPI PUSH1 0x5 ADD PUSH21 0x20000000000000000000000000000000000000000 PUSH1 0xFF PUSH1 0xA0 SHL NOT DUP3 SLOAD AND OR SWAP1 SSTORE PUSH32 0x5F586F44197B3B17C9368A99DCF90B4B202FBD67E905BCAF9FF7CDC0C2242CFA PUSH0 DUP1 LOG2 STOP JUMPDEST CALLVALUE PUSH2 0x1A6 JUMPI PUSH1 0xC0 CALLDATASIZE PUSH1 0x3 NOT ADD SLT PUSH2 0x1A6 JUMPI PUSH2 0x875 PUSH2 0x138F JUMP JUMPDEST PUSH2 0x87D PUSH2 0x1379 JUMP JUMPDEST SWAP1 PUSH2 0x886 PUSH2 0x13A5 JUMP JUMPDEST PUSH2 0x88E PUSH2 0x13BB JUMP JUMPDEST SWAP1 PUSH1 0x84 CALLDATALOAD SWAP4 PUSH1 0x1 PUSH1 0x1 PUSH1 0xA0 SHL SUB DUP6 AND SWAP4 DUP5 DUP7 SUB PUSH2 0x1A6 JUMPI PUSH1 0xA4 CALLDATALOAD SWAP6 PUSH1 0x1 PUSH1 0x1 PUSH1 0xA0 SHL SUB DUP8 AND SWAP7 DUP8 DUP2 SUB PUSH2 0x1A6 JUMPI PUSH2 0xA9C PUSH2 0xAF6 SWAP3 PUSH2 0x8CA PUSH2 0x143C JUMP JUMPDEST PUSH2 0x928 DUP6 PUSH1 0x1 PUSH1 0x1 PUSH1 0xA0 SHL SUB AND PUSH1 0x1 PUSH1 0x1 PUSH1 0xA0 SHL SUB NOT PUSH32 0xF6B912F89C06D8AFD06B9FA8BD742C729F30156DA50B94481FADDBC9D0B4E9E3 SLOAD AND OR PUSH32 0xF6B912F89C06D8AFD06B9FA8BD742C729F30156DA50B94481FADDBC9D0B4E9E3 SSTORE JUMP JUMPDEST PUSH2 0x986 DUP7 PUSH1 0x1 PUSH1 0x1 PUSH1 0xA0 SHL SUB AND PUSH1 0x1 PUSH1 0x1 PUSH1 0xA0 SHL SUB NOT PUSH32 0xF6B912F89C06D8AFD06B9FA8BD742C729F30156DA50B94481FADDBC9D0B4E9E4 SLOAD AND OR PUSH32 0xF6B912F89C06D8AFD06B9FA8BD742C729F30156DA50B94481FADDBC9D0B4E9E4 SSTORE JUMP JUMPDEST PUSH2 0x9E4 DUP8 PUSH1 0x1 PUSH1 0x1 PUSH1 0xA0 SHL SUB AND PUSH1 0x1 PUSH1 0x1 PUSH1 0xA0 SHL SUB NOT PUSH32 0xF6B912F89C06D8AFD06B9FA8BD742C729F30156DA50B94481FADDBC9D0B4E9E5 SLOAD AND OR PUSH32 0xF6B912F89C06D8AFD06B9FA8BD742C729F30156DA50B94481FADDBC9D0B4E9E5 SSTORE JUMP JUMPDEST PUSH2 0xA42 DUP9 PUSH1 0x1 PUSH1 0x1 PUSH1 0xA0 SHL SUB AND PUSH1 0x1 PUSH1 0x1 PUSH1 0xA0 SHL SUB NOT PUSH32 0xF6B912F89C06D8AFD06B9FA8BD742C729F30156DA50B94481FADDBC9D0B4E9E6 SLOAD AND OR PUSH32 0xF6B912F89C06D8AFD06B9FA8BD742C729F30156DA50B94481FADDBC9D0B4E9E6 SSTORE JUMP JUMPDEST PUSH1 0x1 PUSH1 0x1 PUSH1 0xA0 SHL SUB AND PUSH1 0x1 PUSH1 0x1 PUSH1 0xA0 SHL SUB NOT PUSH32 0xF6B912F89C06D8AFD06B9FA8BD742C729F30156DA50B94481FADDBC9D0B4E9E7 SLOAD AND OR PUSH32 0xF6B912F89C06D8AFD06B9FA8BD742C729F30156DA50B94481FADDBC9D0B4E9E7 SSTORE JUMP JUMPDEST PUSH1 0x1 PUSH1 0x1 PUSH1 0xA0 SHL SUB AND PUSH1 0x1 PUSH1 0x1 PUSH1 0xA0 SHL SUB NOT PUSH32 0xF6B912F89C06D8AFD06B9FA8BD742C729F30156DA50B94481FADDBC9D0B4E9E8 SLOAD AND OR PUSH32 0xF6B912F89C06D8AFD06B9FA8BD742C729F30156DA50B94481FADDBC9D0B4E9E8 SSTORE JUMP JUMPDEST PUSH0 DUP1 MLOAD PUSH1 0x20 PUSH2 0x1539 DUP4 CODECOPY DUP2 MLOAD SWAP2 MSTORE PUSH1 0x20 PUSH1 0x8 PUSH1 0x40 MLOAD PUSH32 0x636162616C4E4654000000000000000000000000000000000000000000000000 DUP2 MSTORE KECCAK256 SWAP3 PUSH1 0x1 PUSH1 0x1 PUSH1 0xA0 SHL SUB PUSH1 0x40 MLOAD SWAP2 AND DUP2 MSTORE LOG2 PUSH0 DUP1 MLOAD PUSH1 0x20 PUSH2 0x1539 DUP4 CODECOPY DUP2 MLOAD SWAP2 MSTORE PUSH1 0x20 PUSH1 0x11 PUSH1 0x40 MLOAD PUSH32 0x746261496D706C656D656E746174696F6E000000000000000000000000000000 DUP2 MSTORE KECCAK256 SWAP3 PUSH1 0x1 PUSH1 0x1 PUSH1 0xA0 SHL SUB PUSH1 0x40 MLOAD SWAP2 AND DUP2 MSTORE LOG2 PUSH0 DUP1 MLOAD PUSH1 0x20 PUSH2 0x1539 DUP4 CODECOPY DUP2 MLOAD SWAP2 MSTORE PUSH1 0x20 PUSH1 0xF PUSH1 0x40 MLOAD PUSH32 0x6572633635353152656769737472790000000000000000000000000000000000 DUP2 MSTORE KECCAK256 SWAP3 PUSH1 0x1 PUSH1 0x1 PUSH1 0xA0 SHL SUB PUSH1 0x40 MLOAD SWAP2 AND DUP2 MSTORE LOG2 PUSH0 DUP1 MLOAD PUSH1 0x20 PUSH2 0x1539 DUP4 CODECOPY DUP2 MLOAD SWAP2 MSTORE PUSH1 0x20 PUSH1 0xE PUSH1 0x40 MLOAD PUSH32 0x636C616E6B6572466163746F7279000000000000000000000000000000000000 DUP2 MSTORE KECCAK256 SWAP3 PUSH1 0x1 PUSH1 0x1 PUSH1 0xA0 SHL SUB PUSH1 0x40 MLOAD SWAP2 AND DUP2 MSTORE LOG2 PUSH0 DUP1 MLOAD PUSH1 0x20 PUSH2 0x1539 DUP4 CODECOPY DUP2 MLOAD SWAP2 MSTORE PUSH1 0x20 PUSH1 0x10 PUSH1 0x40 MLOAD PUSH32 0x636C616E6B65724665654C6F636B657200000000000000000000000000000000 DUP2 MSTORE KECCAK256 SWAP3 PUSH1 0x40 MLOAD SWAP1 DUP2 MSTORE LOG2 PUSH0 DUP1 MLOAD PUSH1 0x20 PUSH2 0x1539 DUP4 CODECOPY DUP2 MLOAD SWAP2 MSTORE PUSH1 0x20 PUSH1 0x4 PUSH1 0x40 MLOAD PUSH32 0x7765746800000000000000000000000000000000000000000000000000000000 DUP2 MSTORE KECCAK256 SWAP3 PUSH1 0x40 MLOAD SWAP1 DUP2 MSTORE LOG2 STOP JUMPDEST CALLVALUE PUSH2 0x1A6 JUMPI PUSH1 0x40 CALLDATASIZE PUSH1 0x3 NOT ADD SLT PUSH2 0x1A6 JUMPI PUSH1 0x4 CALLDATALOAD PUSH8 0xFFFFFFFFFFFFFFFF DUP2 GT PUSH2 0x1A6 JUMPI CALLDATASIZE PUSH1 0x23 DUP3 ADD SLT ISZERO PUSH2 0x1A6 JUMPI DUP1 PUSH1 0x4 ADD CALLDATALOAD PUSH8 0xFFFFFFFFFFFFFFFF DUP2 GT PUSH2 0x1A6 JUMPI PUSH1 0x24 DUP3 ADD SWAP2 PUSH1 0x24 DUP3 CALLDATASIZE SWAP3 ADD ADD GT PUSH2 0x1A6 JUMPI PUSH1 0x20 PUSH0 DUP1 MLOAD PUSH1 0x20 PUSH2 0x1539 DUP4 CODECOPY DUP2 MLOAD SWAP2 MSTORE SWAP2 PUSH2 0xD0E PUSH2 0x1379 JUMP JUMPDEST SWAP4 PUSH2 0xD17 PUSH2 0x143C JUMP JUMPDEST PUSH1 0x40 MLOAD PUSH2 0xD2D PUSH1 0x1F DUP5 ADD PUSH1 0x1F NOT AND DUP6 ADD DUP3 PUSH2 0x141A JUMP JUMPDEST DUP3 DUP2 MSTORE DUP4 DUP2 ADD SWAP1 DUP4 DUP4 DUP4 CALLDATACOPY PUSH0 DUP2 DUP6 ADD DUP7 ADD MSTORE MLOAD SWAP1 KECCAK256 PUSH32 0x29B05734E677BCC3133168B24020E18685C46A7BD5CC043CD7FC58331C359865 DUP2 SUB PUSH2 0xDEC JUMPI POP PUSH2 0xDC8 DUP6 PUSH1 0x1 PUSH1 0x1 PUSH1 0xA0 SHL SUB AND PUSH1 0x1 PUSH1 0x1 PUSH1 0xA0 SHL SUB NOT PUSH32 0xF6B912F89C06D8AFD06B9FA8BD742C729F30156DA50B94481FADDBC9D0B4E9E3 SLOAD AND OR PUSH32 0xF6B912F89C06D8AFD06B9FA8BD742C729F30156DA50B94481FADDBC9D0B4E9E3 SSTORE JUMP JUMPDEST DUP2 PUSH1 0x40 MLOAD SWAP3 DUP4 SWAP3 DUP4 CALLDATACOPY DUP2 ADD PUSH0 DUP2 MSTORE SUB SWAP1 KECCAK256 SWAP3 PUSH1 0x1 PUSH1 0x1 PUSH1 0xA0 SHL SUB PUSH1 0x40 MLOAD SWAP2 AND DUP2 MSTORE LOG2 STOP JUMPDEST PUSH32 0xEFE07BCD5679AE64B25A43A445721223DE26CA48D8E76D75A0477DEE3C439B49 DUP2 SUB PUSH2 0xE77 JUMPI POP PUSH2 0xE72 DUP6 PUSH1 0x1 PUSH1 0x1 PUSH1 0xA0 SHL SUB AND PUSH1 0x1 PUSH1 0x1 PUSH1 0xA0 SHL SUB NOT PUSH32 0xF6B912F89C06D8AFD06B9FA8BD742C729F30156DA50B94481FADDBC9D0B4E9E4 SLOAD AND OR PUSH32 0xF6B912F89C06D8AFD06B9FA8BD742C729F30156DA50B94481FADDBC9D0B4E9E4 SSTORE JUMP JUMPDEST PUSH2 0xDC8 JUMP JUMPDEST PUSH32 0x8D9F88AB91E7602D1AC3E196B9DDCBFC09F98512A407A3EB6E6B1794DF5824DD DUP2 SUB PUSH2 0xEFD JUMPI POP PUSH2 0xE72 DUP6 PUSH1 0x1 PUSH1 0x1 PUSH1 0xA0 SHL SUB AND PUSH1 0x1 PUSH1 0x1 PUSH1 0xA0 SHL SUB NOT PUSH32 0xF6B912F89C06D8AFD06B9FA8BD742C729F30156DA50B94481FADDBC9D0B4E9E5 SLOAD AND OR PUSH32 0xF6B912F89C06D8AFD06B9FA8BD742C729F30156DA50B94481FADDBC9D0B4E9E5 SSTORE JUMP JUMPDEST PUSH32 0x7216321E0AD3124A02BFAB159544DB264ED6A97D28FE9B4E574E080D30144D7 DUP2 SUB PUSH2 0xF83 JUMPI POP PUSH2 0xE72 DUP6 PUSH1 0x1 PUSH1 0x1 PUSH1 0xA0 SHL SUB AND PUSH1 0x1 PUSH1 0x1 PUSH1 0xA0 SHL SUB NOT PUSH32 0xF6B912F89C06D8AFD06B9FA8BD742C729F30156DA50B94481FADDBC9D0B4E9E6 SLOAD AND OR PUSH32 0xF6B912F89C06D8AFD06B9FA8BD742C729F30156DA50B94481FADDBC9D0B4E9E6 SSTORE JUMP JUMPDEST PUSH32 0xC726FBC6A1957AEFA09968672B0D5AC4766C9BBC2F6E653D47FE653F662C27A6 DUP2 SUB PUSH2 0x1009 JUMPI POP PUSH2 0xE72 DUP6 PUSH1 0x1 PUSH1 0x1 PUSH1 0xA0 SHL SUB AND PUSH1 0x1 PUSH1 0x1 PUSH1 0xA0 SHL SUB NOT PUSH32 0xF6B912F89C06D8AFD06B9FA8BD742C729F30156DA50B94481FADDBC9D0B4E9E7 SLOAD AND OR PUSH32 0xF6B912F89C06D8AFD06B9FA8BD742C729F30156DA50B94481FADDBC9D0B4E9E7 SSTORE JUMP JUMPDEST PUSH32 0xBC66733B7CA4D12D33AE46B0875E3B042B7391CE3A863CD5D8495E3FE87FD521 DUP2 SUB PUSH2 0x108F JUMPI POP PUSH2 0xE72 DUP6 PUSH1 0x1 PUSH1 0x1 PUSH1 0xA0 SHL SUB AND PUSH1 0x1 PUSH1 0x1 PUSH1 0xA0 SHL SUB NOT PUSH32 0xF6B912F89C06D8AFD06B9FA8BD742C729F30156DA50B94481FADDBC9D0B4E9E8 SLOAD AND OR PUSH32 0xF6B912F89C06D8AFD06B9FA8BD742C729F30156DA50B94481FADDBC9D0B4E9E8 SSTORE JUMP JUMPDEST PUSH32 0x89FBD101E5F5CBB3C4EDCF9A50633EA8B152C481EFCF15B1935B7EE126C5388F DUP2 SUB PUSH2 0x1115 JUMPI POP PUSH2 0xE72 DUP6 PUSH1 0x1 PUSH1 0x1 PUSH1 0xA0 SHL SUB AND PUSH1 0x1 PUSH1 0x1 PUSH1 0xA0 SHL SUB NOT PUSH32 0x7AC3A920B579A0B08C43B9E61F5A89FBB0532D6363AFFC3C4BF0A0F3F8F9AD94 SLOAD AND OR PUSH32 0x7AC3A920B579A0B08C43B9E61F5A89FBB0532D6363AFFC3C4BF0A0F3F8F9AD94 SSTORE JUMP JUMPDEST PUSH32 0x41CE5C4360707234D2936E857028125069BF1EA468E99B600D24C7A4640447E3 DUP2 SUB PUSH2 0x119B JUMPI POP PUSH2 0xE72 DUP6 PUSH1 0x1 PUSH1 0x1 PUSH1 0xA0 SHL SUB AND PUSH1 0x1 PUSH1 0x1 PUSH1 0xA0 SHL SUB NOT PUSH32 0x7AC3A920B579A0B08C43B9E61F5A89FBB0532D6363AFFC3C4BF0A0F3F8F9AD95 SLOAD AND OR PUSH32 0x7AC3A920B579A0B08C43B9E61F5A89FBB0532D6363AFFC3C4BF0A0F3F8F9AD95 SSTORE JUMP JUMPDEST PUSH32 0x9B7060CD2A2BEFA09791E516B0D807A0552A41C717A5F48B975AFBE841E3EE90 DUP2 SUB PUSH2 0x1221 JUMPI POP PUSH2 0xE72 DUP6 PUSH1 0x1 PUSH1 0x1 PUSH1 0xA0 SHL SUB AND PUSH1 0x1 PUSH1 0x1 PUSH1 0xA0 SHL SUB NOT PUSH32 0x7AC3A920B579A0B08C43B9E61F5A89FBB0532D6363AFFC3C4BF0A0F3F8F9AD96 SLOAD AND OR PUSH32 0x7AC3A920B579A0B08C43B9E61F5A89FBB0532D6363AFFC3C4BF0A0F3F8F9AD96 SSTORE JUMP JUMPDEST PUSH32 0x23C2BFEC6D92224A70091D8B23BE305D97A411B07C4BE8D696DFD2DB01AE8000 SUB PUSH2 0xE72 JUMPI PUSH2 0xE72 DUP6 PUSH1 0x1 PUSH1 0x1 PUSH1 0xA0 SHL SUB AND PUSH1 0x1 PUSH1 0x1 PUSH1 0xA0 SHL SUB NOT PUSH32 0x7AC3A920B579A0B08C43B9E61F5A89FBB0532D6363AFFC3C4BF0A0F3F8F9AD97 SLOAD AND OR PUSH32 0x7AC3A920B579A0B08C43B9E61F5A89FBB0532D6363AFFC3C4BF0A0F3F8F9AD97 SSTORE JUMP JUMPDEST CALLVALUE PUSH2 0x1A6 JUMPI PUSH0 CALLDATASIZE PUSH1 0x3 NOT ADD SLT PUSH2 0x1A6 JUMPI PUSH1 0x80 SWAP1 PUSH1 0x1 PUSH1 0x1 PUSH1 0xA0 SHL SUB PUSH32 0x7AC3A920B579A0B08C43B9E61F5A89FBB0532D6363AFFC3C4BF0A0F3F8F9AD94 SLOAD AND PUSH1 0x1 PUSH1 0x1 PUSH1 0xA0 SHL SUB PUSH32 0x7AC3A920B579A0B08C43B9E61F5A89FBB0532D6363AFFC3C4BF0A0F3F8F9AD95 SLOAD AND PUSH1 0x1 PUSH1 0x1 PUSH1 0xA0 SHL SUB PUSH32 0x7AC3A920B579A0B08C43B9E61F5A89FBB0532D6363AFFC3C4BF0A0F3F8F9AD96 SLOAD AND SWAP1 PUSH1 0x1 PUSH1 0x1 PUSH1 0xA0 SHL SUB PUSH32 0x7AC3A920B579A0B08C43B9E61F5A89FBB0532D6363AFFC3C4BF0A0F3F8F9AD97 SLOAD AND SWAP3 DUP5 MSTORE PUSH1 0x20 DUP5 ADD MSTORE PUSH1 0x40 DUP4 ADD MSTORE PUSH1 0x60 DUP3 ADD MSTORE RETURN JUMPDEST PUSH1 0x24 CALLDATALOAD SWAP1 PUSH1 0x1 PUSH1 0x1 PUSH1 0xA0 SHL SUB DUP3 AND DUP3 SUB PUSH2 0x1A6 JUMPI JUMP JUMPDEST PUSH1 0x4 CALLDATALOAD SWAP1 PUSH1 0x1 PUSH1 0x1 PUSH1 0xA0 SHL SUB DUP3 AND DUP3 SUB PUSH2 0x1A6 JUMPI JUMP JUMPDEST PUSH1 0x44 CALLDATALOAD SWAP1 PUSH1 0x1 PUSH1 0x1 PUSH1 0xA0 SHL SUB DUP3 AND DUP3 SUB PUSH2 0x1A6 JUMPI JUMP JUMPDEST PUSH1 0x64 CALLDATALOAD SWAP1 PUSH1 0x1 PUSH1 0x1 PUSH1 0xA0 SHL SUB DUP3 AND DUP3 SUB PUSH2 0x1A6 JUMPI JUMP JUMPDEST PUSH1 0x80 DUP2 ADD SWAP1 DUP2 LT PUSH8 0xFFFFFFFFFFFFFFFF DUP3 GT OR PUSH2 0x13ED JUMPI PUSH1 0x40 MSTORE JUMP JUMPDEST PUSH32 0x4E487B7100000000000000000000000000000000000000000000000000000000 PUSH0 MSTORE PUSH1 0x41 PUSH1 0x4 MSTORE PUSH1 0x24 PUSH0 REVERT JUMPDEST SWAP1 PUSH1 0x1F DUP1 NOT SWAP2 ADD AND DUP2 ADD SWAP1 DUP2 LT PUSH8 0xFFFFFFFFFFFFFFFF DUP3 GT OR PUSH2 0x13ED JUMPI PUSH1 0x40 MSTORE JUMP JUMPDEST PUSH1 0x1 PUSH1 0x1 PUSH1 0xA0 SHL SUB PUSH32 0xC8FCAD8DB84D3CC18B4C41D551EA0EE66DD599CDE068D998E57D5E09332C1320 SLOAD AND CALLER SUB PUSH2 0x146F JUMPI JUMP JUMPDEST PUSH1 0x84 PUSH1 0x40 MLOAD PUSH32 0x8C379A000000000000000000000000000000000000000000000000000000000 DUP2 MSTORE PUSH1 0x20 PUSH1 0x4 DUP3 ADD MSTORE PUSH1 0x22 PUSH1 0x24 DUP3 ADD MSTORE PUSH32 0x4C69624469616D6F6E643A204D75737420626520636F6E7472616374206F776E PUSH1 0x44 DUP3 ADD MSTORE PUSH32 0x6572000000000000000000000000000000000000000000000000000000000000 PUSH1 0x64 DUP3 ADD MSTORE REVERT JUMPDEST PUSH1 0x40 MLOAD PUSH1 0x20 DUP2 ADD SWAP2 PUSH32 0xC61520F0FC87F37C054C240FB12FA829A873C4A7F3A227D3CDAF38F732A45B0D DUP4 MSTORE PUSH1 0x40 DUP3 ADD MSTORE PUSH1 0x40 DUP2 MSTORE PUSH2 0x1532 PUSH1 0x60 DUP3 PUSH2 0x141A JUMP JUMPDEST MLOAD SWAP1 KECCAK256 SWAP1 JUMP INVALID LOG4 0x2D 0xE6 TIMESTAMP SWAP13 EQ LT DELEGATECALL SELFBALANCE EXP DUP16 CREATE2 0xAF 0xEE 0xAE 0x27 0xC7 CALLVALUE MLOAD SWAP11 0xC1 PUSH10 0x3E8EB58798A81715C947 LOG2 PUSH5 0x6970667358 0x22 SLT KECCAK256 SWAP15 0x23 PUSH29 0x12ACE1230233E36D928F907146B26EBAD78B0DE10203B745E8433B0313 PUSH5 0x736F6C6343 STOP ADDMOD BYTE STOP CALLER "},"methodIdentifiers":{"getClankerAddresses()":"1c4dfeca","getContractAddresses()":"953874d2","getGovernanceSettings(uint256)":"bfdea7c3","initializeAddresses(address,address,address,address,address,address)":"4d74e0d1","initializeClankerAddresses(address,address,address,address)":"7eaf8091","pauseCabal(uint256)":"70318d6d","resetAllCabals()":"90cc14b9","unpauseCabal(uint256)":"86308db8","updateContractAddress(string,address)":"38aed2f7","updateGovernanceSettings(uint256,(uint256,uint256,uint256,uint256))":"d7715486"}}}}}