{"contracts/cabal/diamond/facets/CabalCreationFacet.sol":{"CabalCreationFacet":{"abi":[{"inputs":[],"name":"AlreadyClaimed","type":"error"},{"inputs":[],"name":"CabalClosed","type":"error"},{"inputs":[],"name":"CabalNotActive","type":"error"},{"inputs":[],"name":"CabalNotInPresale","type":"error"},{"inputs":[],"name":"DeploymentFailed","type":"error"},{"inputs":[],"name":"GenesisNotInitialized","type":"error"},{"inputs":[],"name":"InsufficientContribution","type":"error"},{"inputs":[],"name":"InsufficientCreationFee","type":"error"},{"inputs":[],"name":"InvalidParentCabal","type":"error"},{"inputs":[],"name":"LaunchMajorityNotMet","type":"error"},{"inputs":[],"name":"LaunchTimerNotElapsed","type":"error"},{"inputs":[],"name":"NoContribution","type":"error"},{"inputs":[],"name":"NotCalledViaDiamond","type":"error"},{"inputs":[],"name":"TransferFailed","type":"error"},{"inputs":[],"name":"VoteUnchanged","type":"error"},{"anonymous":false,"inputs":[{"indexed":true,"internalType":"uint256","name":"cabalId","type":"uint256"},{"indexed":true,"internalType":"address","name":"creator","type":"address"},{"indexed":false,"internalType":"string","name":"name","type":"string"},{"indexed":false,"internalType":"string","name":"symbol","type":"string"},{"indexed":false,"internalType":"address","name":"tbaAddress","type":"address"}],"name":"CabalCreated","type":"event"},{"anonymous":false,"inputs":[{"indexed":true,"internalType":"uint256","name":"cabalId","type":"uint256"},{"indexed":false,"internalType":"address","name":"tokenAddress","type":"address"},{"indexed":false,"internalType":"uint256","name":"totalRaised","type":"uint256"},{"indexed":false,"internalType":"uint256","name":"titheAmount","type":"uint256"},{"indexed":false,"internalType":"uint256","name":"devBuyAmount","type":"uint256"}],"name":"CabalFinalized","type":"event"},{"anonymous":false,"inputs":[{"indexed":true,"internalType":"uint256","name":"cabalId","type":"uint256"},{"indexed":true,"internalType":"address","name":"contributor","type":"address"},{"indexed":false,"internalType":"uint256","name":"amount","type":"uint256"},{"indexed":false,"internalType":"uint256","name":"totalRaised","type":"uint256"}],"name":"Contributed","type":"event"},{"anonymous":false,"inputs":[{"indexed":true,"internalType":"uint256","name":"cabalId","type":"uint256"},{"indexed":false,"internalType":"uint256","name":"launchableAt","type":"uint256"}],"name":"LaunchApproved","type":"event"},{"anonymous":false,"inputs":[{"indexed":true,"internalType":"uint256","name":"cabalId","type":"uint256"},{"indexed":true,"internalType":"address","name":"voter","type":"address"},{"indexed":false,"internalType":"bool","name":"support","type":"bool"},{"indexed":false,"internalType":"uint256","name":"weight","type":"uint256"}],"name":"LaunchVoteCast","type":"event"},{"anonymous":false,"inputs":[{"indexed":true,"internalType":"uint256","name":"cabalId","type":"uint256"},{"indexed":true,"internalType":"address","name":"voter","type":"address"}],"name":"LaunchVoteReset","type":"event"},{"anonymous":false,"inputs":[{"indexed":true,"internalType":"uint256","name":"cabalId","type":"uint256"},{"indexed":false,"internalType":"uint256","name":"amount","type":"uint256"}],"name":"ProtocolFeeCollected","type":"event"},{"anonymous":false,"inputs":[{"indexed":true,"internalType":"uint256","name":"cabalId","type":"uint256"},{"indexed":true,"internalType":"address","name":"claimant","type":"address"},{"indexed":false,"internalType":"uint256","name":"amount","type":"uint256"}],"name":"TokensClaimed","type":"event"},{"inputs":[{"internalType":"uint256","name":"cabalId","type":"uint256"}],"name":"claimTokens","outputs":[],"stateMutability":"nonpayable","type":"function"},{"inputs":[{"internalType":"uint256","name":"cabalId","type":"uint256"}],"name":"contribute","outputs":[],"stateMutability":"payable","type":"function"},{"inputs":[{"internalType":"uint256","name":"parentCabalId","type":"uint256"}],"name":"createChildCabal","outputs":[{"internalType":"uint256","name":"cabalId","type":"uint256"}],"stateMutability":"payable","type":"function"},{"inputs":[{"internalType":"uint256","name":"cabalId","type":"uint256"}],"name":"finalizeCabal","outputs":[],"stateMutability":"nonpayable","type":"function"},{"inputs":[{"internalType":"uint256","name":"cabalId","type":"uint256"},{"internalType":"address","name":"user","type":"address"}],"name":"getClaimable","outputs":[{"internalType":"uint256","name":"","type":"uint256"}],"stateMutability":"view","type":"function"},{"inputs":[{"internalType":"uint256","name":"cabalId","type":"uint256"}],"name":"getContributors","outputs":[{"internalType":"address[]","name":"","type":"address[]"}],"stateMutability":"view","type":"function"},{"inputs":[{"internalType":"uint256","name":"cabalId","type":"uint256"},{"internalType":"address","name":"user","type":"address"}],"name":"getLaunchVote","outputs":[{"internalType":"uint256","name":"vote","type":"uint256"}],"stateMutability":"view","type":"function"},{"inputs":[{"internalType":"uint256","name":"cabalId","type":"uint256"}],"name":"getLaunchVoteStatus","outputs":[{"internalType":"uint256","name":"votesFor","type":"uint256"},{"internalType":"uint256","name":"votesAgainst","type":"uint256"},{"internalType":"uint256","name":"totalRaised","type":"uint256"},{"internalType":"uint256","name":"majorityRequired","type":"uint256"},{"internalType":"bool","name":"majorityMet","type":"bool"},{"internalType":"uint256","name":"launchApprovedAt","type":"uint256"},{"internalType":"uint256","name":"launchableAt","type":"uint256"}],"stateMutability":"view","type":"function"},{"inputs":[{"internalType":"uint256","name":"cabalId","type":"uint256"},{"internalType":"address","name":"user","type":"address"}],"name":"hasVotedLaunch","outputs":[{"internalType":"bool","name":"","type":"bool"}],"stateMutability":"view","type":"function"},{"inputs":[{"internalType":"uint256","name":"cabalId","type":"uint256"},{"internalType":"bool","name":"support","type":"bool"}],"name":"voteLaunch","outputs":[],"stateMutability":"nonpayable","type":"function"}],"evm":{"bytecode":{"linkReferences":{},"object":"60808060405234601557613067908161001a8239f35b5f80fdfe6101606040526004361015610012575f80fd5b5f3560e01c80631445e0d114610d885780633c1ab00f14610cd057806343a77aac14610c5757806346e04a2f14610939578063725b0db91461089e57806394e948821461088157806397e0d582146108685780639bcd973214610487578063b961cbe1146104665763c1cbbca714610088575f80fd5b6020366003190112610462576004356509184e72a0003410610454576100ad81611ae2565b60ff600582015460a01c1660048110156102e557610445576100f56100ee6100d53385612d4b565b8015610433575b60138401541561031c575b3490611900565b3384611b27565b5f8080806006850194610109348754611900565b86556001600160a01b03600434920154165af161012461197e565b501561030d5754604051903482526020820152817fdcfa71ee125a676f843733d9d39dce2c918ecf9e92f96db4f24bdb5244ed68a060403393a36040519061016b826117f6565b81526020810133815260408201600181526060830134815260808401914283525f80516020612ff283398151915254600a8110156102f95760021b9451857fe9a1dee022580a06f80b398cb0f2690fb71e0b4cb2e78fb97d5795b2fc75e8ab01556001600160a01b03807fe9a1dee022580a06f80b398cb0f2690fb71e0b4cb2e78fb97d5795b2fc75e8ac8701955116166001600160a01b03198554161784555192600f8410156102e5577fe9a1dee022580a06f80b398cb0f2690fb71e0b4cb2e78fb97d5795b2fc75e8ae9381549060ff60a01b9060a01b169060ff60a01b1916179055517fe9a1dee022580a06f80b398cb0f2690fb71e0b4cb2e78fb97d5795b2fc75e8ad840155519101555f80516020612ff283398151915254600181018091116102d157600a90065f80516020612ff2833981519152555f80516020613012833981519152545f1981146102d1576001015f8051602061301283398151915255005b634e487b7160e01b5f52601160045260245ffd5b634e487b7160e01b5f52602160045260245ffd5b634e487b7160e01b5f52603260045260245ffd5b6312171d8360e31b5f5260045ffd5b6103263386612dab565b80610332575b506100e7565b600161033e3388612e04565b910361041d5761035360118601918254611ad5565b90555b5f60405181602082017f18db0b0ee3d652655d8c5597bd568542c478b4915a3177696b916ada7999188081528860408401523360601b92836060820152605481526103a260748261184b565b5190209160405160208101917fcdc329e62990f6d30602da515792306963756a09f25ba03fa486927e0adc8ff383528a60408301526060820152605481526103eb60748261184b565b51902091555533857ffcb2756bc21a01b3f4ca3a22ad188ebf004f1d300abc1f1740ca30da36c98db85f80a35f61032c565b61042c60128601918254611ad5565b9055610356565b6104403360088601611922565b6100dc565b6306e154bd60e01b5f5260045ffd5b626553c160e41b5f5260045ffd5b5f80fd5b3461046257602061047f610479366117b4565b90611a65565b604051908152f35b346104625760403660031901126104625760043560243580151590818103610462576104b283611ae2565b9160ff600584015460a01c1660048110156102e557610445576104d53385612d4b565b918215610859576104e63386612dab565b9080156108505760ff60015b1682146108415783916001810361081a575061050e3387612e04565b61051d60118701918254611ad5565b90555b80156108045760118501610535838254611900565b90555b604051602081017f18db0b0ee3d652655d8c5597bd568542c478b4915a3177696b916ada7999188081528760408301523360601b918260608201526054815261058260748261184b565b5190209060405160208101917fcdc329e62990f6d30602da515792306963756a09f25ba03fa486927e0adc8ff383528960408301526060820152605481526105cb60748261184b565b51902091156107fb5760ff60015b16905555604051908152816020820152837f07ee2ef9a6a3b406b594bcd78e4d2a61814f511e882c509976bf7dce92ae7cc460403393a36040519061061d826117f6565b83825260208201903382526040830190600282526060840190815260808401914283525f80516020612ff283398151915254600a8110156102f95760021b9451857fe9a1dee022580a06f80b398cb0f2690fb71e0b4cb2e78fb97d5795b2fc75e8ab01556001600160a01b03807fe9a1dee022580a06f80b398cb0f2690fb71e0b4cb2e78fb97d5795b2fc75e8ac8701955116166001600160a01b03198554161784555192600f8410156102e5577fe9a1dee022580a06f80b398cb0f2690fb71e0b4cb2e78fb97d5795b2fc75e8ae9381549060ff60a01b9060a01b169060ff60a01b1916179055517fe9a1dee022580a06f80b398cb0f2690fb71e0b4cb2e78fb97d5795b2fc75e8ad840155519101555f80516020612ff283398151915254600181018091116102d157600a90065f80516020612ff2833981519152555f80516020613012833981519152545f1981146102d1576001015f8051602061301283398151915255601381019081541561079257005b60068101546113ec8102908082046113ec14901517156102d1576127106011910491015410156107bf575b005b42905561070842018042116102d15760207f03d92850943985f06ca73edab0c1ffe786f95d2a203375cb217e8d2d8fe1f28d91604051908152a2005b60ff60026105d9565b60128501610813838254611900565b9055610538565b6002036105205761082b3387612e04565b61083a60128701918254611ad5565b9055610520565b63ae1e3f9160e01b5f5260045ffd5b60ff60026104f2565b631971fbf360e21b5f5260045ffd5b3461046257602061047f61087b366117b4565b90612dab565b3461046257602061089461087b366117b4565b1515604051908152f35b34610462576020366003190112610462576108ba600435611ae2565b6011810154906012810154906006810154906113ec82028281046113ec14831517156102d15760139190910154906127109004811561092f576107088201948583116102d15760e095935b60405195828752602087015260408601528160608601521015608084015260a083015260c0820152f35b60e0945f93610905565b346104625760203660031901126104625760043561095681611ae2565b6109608183612c96565b61096a3383612ce8565b610c48576109783383612d4b565b8015610859575f61099f610994610a6b936007860154906119d1565b6006850154906119e4565b92600160405160208101907ffa7666f901d98d7ddb6dca66654a4b44590f640f4803ecfa6cdcb1bcf243032b82528760408201523360601b6060820152605481526109eb60748261184b565b51902055600e81018481540390556001600160a01b0360058160048401541692015416906040519163a9059cbb60e01b602084015233602484015285604484015260448352610a3b60648461184b565b83604051809681958294639e5d4c4960e01b845260048401528360248401526060604484015260648301906119ad565b03925af18015610c3d57610c1d575b50604051818152827f880f2ef2613b092f1a0a819f294155c98667eb294b7e6bf7a3810278142c1a1c60203393a360405191610ab5836117f6565b825260208201903382526040830190600482526060840190815260808401914283525f80516020612ff283398151915254600a8110156102f95760021b9451857fe9a1dee022580a06f80b398cb0f2690fb71e0b4cb2e78fb97d5795b2fc75e8ab01556001600160a01b03807fe9a1dee022580a06f80b398cb0f2690fb71e0b4cb2e78fb97d5795b2fc75e8ac8701955116166001600160a01b03198554161784555192600f8410156102e5577fe9a1dee022580a06f80b398cb0f2690fb71e0b4cb2e78fb97d5795b2fc75e8ae9381549060ff60a01b9060a01b169060ff60a01b1916179055517fe9a1dee022580a06f80b398cb0f2690fb71e0b4cb2e78fb97d5795b2fc75e8ad840155519101555f80516020612ff283398151915254600181018091116102d157600a90065f80516020612ff2833981519152555f80516020613012833981519152545f1981146102d1576001015f8051602061301283398151915255005b610c38903d805f833e610c30818361184b565b810190611a02565b610a7a565b6040513d5f823e3d90fd5b630c8d9eab60e31b5f5260045ffd5b3461046257602036600319011261046257600435610c7481611ae2565b60ff600582015460a01c1660048110156102e5576104455760138101548015610cc15761070881018091116102d1574210610cb2576107bd91611b86565b63173fa52960e01b5f5260045ffd5b630340c5cd60e51b5f5260045ffd5b34610462576020366003190112610462576008610cee600435611ae2565b01604051806020835491828152019081935f5260205f20905f5b818110610d695750505081610d1e91038261184b565b604051918291602083019060208452518091526040830191905f5b818110610d47575050500390f35b82516001600160a01b0316845285945060209384019390920191600101610d39565b82546001600160a01b0316845260209093019260019283019201610d08565b6020366003190112610462576004353033036117a55760017f126ccc9c13b1c6ea6090e51049cd401cf6411009b75480e3934f8663e5d7e1a6540361179657610dd081611ae2565b60048101906001600160a01b0382541615611787576005015460a01c60ff1660048110156102e557600314611778576509184e72a0003410611769575f9160206001600160a01b037ff6b912f89c06d8afd06b9fa8bd742c729f30156da50b94481faddbc9d0b4e9e354166024604051809681936335313c2160e11b83523060048401525af1928315610c3d575f93611735575b506001600160a01b037ff6b912f89c06d8afd06b9fa8bd742c729f30156da50b94481faddbc9d0b4e9e5541660206001600160a01b037ff6b912f89c06d8afd06b9fa8bd742c729f30156da50b94481faddbc9d0b4e9e4541660a46001600160a01b037ff6b912f89c06d8afd06b9fa8bd742c729f30156da50b94481faddbc9d0b4e9e35416915f6040519586948593638a54c52f60e01b8552600485015282602485015246604485015260648401528960848401525af1908115610c3d575f916116f3575b50839084925f937a184f03e93ff9f4daa797ed6e38ed64bf6a1f0100000000000000008710156116cb575b806d04ee2d6d415b85acef8100000000600a9210156116b0575b662386f26fc1000081101561169c575b6305f5e10081101561168b575b61271081101561167c575b606481101561166e575b1015611664575b6001840192600a6021610fd3610fbd87611962565b96610fcb604051988961184b565b808852611962565b602087019790601f19013689378601015b5f1901917f30313233343536373839616263646566000000000000000000000000000000008282061a835304801561101f57600a9091610fe4565b505061108e60256040519465021b0b130b6160d51b602087015261105d6026878351808b8484015e81015f838201520301601f19810188528761184b565b6040519687916410d050905360da1b60208401525180918484015e81015f838201520301601f19810186528561184b565b61109786611ae2565b906001600160a01b0380875416166001600160a01b031983541617825560018201845167ffffffffffffffff8111611551576110dd816110d7845461186d565b846118bb565b806020601f8211600114611603575f916115f8575b508160011b915f199060031b1c19161790555b60028201855167ffffffffffffffff811161155157611128816110d7845461186d565b6020601f821160011461158f579181601594926111be945f91611584575b508160011b915f199060031b1c19161790555b5f60038501611168815461186d565b601f8111611565575b505560048401805473ffffffffffffffffffffffffffffffffffffffff19166001600160a01b03871617905560058401805460ff60a01b1916905542600f85015560148401819055611ae2565b01805468010000000000000000811015611551576111e6816111fe9360018b9401815561190d565b90919082549060031b91821b915f19901b1916179055565b5f606060405161120d816117da565b61c4e081526103e860208201526113ec6040820152015261c4e060098201556103e8600a8201556113ec600b8201555f600c820155600186018087116102d1577ff6b912f89c06d8afd06b9fa8bd742c729f30156da50b94481faddbc9d0b4e9e9557ff6b912f89c06d8afd06b9fa8bd742c729f30156da50b94481faddbc9d0b4e9ea546801000000000000000081101561155157866111e68260016112f694017ff6b912f89c06d8afd06b9fa8bd742c729f30156da50b94481faddbc9d0b4e9ea557ff6b912f89c06d8afd06b9fa8bd742c729f30156da50b94481faddbc9d0b4e9ea61190d565b61130d6001600160a01b0386541660088301611922565b611322346001600160a01b0387541688611b27565b6006349101555f80808034855af161133861197e565b501561030d5761138b85927f76313775c5c834f71f842309b410b354b07c7054a261364f1d8ee887ce52ab60926001600160a01b03806113999854169788976040519586956060875260608701906119ad565b9085820360208701526119ad565b911660408301520390a380827fdcfa71ee125a676f843733d9d39dce2c918ecf9e92f96db4f24bdb5244ed68a060408051348152346020820152a3604051906113e1826117f6565b82825260208201908152604082015f81526060830134815260808401914283525f80516020612ff283398151915254600a8110156102f95760021b9451857fe9a1dee022580a06f80b398cb0f2690fb71e0b4cb2e78fb97d5795b2fc75e8ab01556001600160a01b03807fe9a1dee022580a06f80b398cb0f2690fb71e0b4cb2e78fb97d5795b2fc75e8ac8701955116166001600160a01b03198554161784555192600f8410156102e5577fe9a1dee022580a06f80b398cb0f2690fb71e0b4cb2e78fb97d5795b2fc75e8ae9381549060ff60a01b9060a01b169060ff60a01b1916179055517fe9a1dee022580a06f80b398cb0f2690fb71e0b4cb2e78fb97d5795b2fc75e8ad840155519101555f80516020612ff283398151915254600181018091116102d157600a90065f80516020612ff2833981519152555f8051602061301283398151915254905f1982146102d1576001602092015f8051602061301283398151915255604051908152f35b634e487b7160e01b5f52604160045260245ffd5b8183526020832061157e91601f0160051c8101906118a5565b8b611171565b90508901518c611146565b601f19821690835f52805f20915f5b8a8282106115e0575050926111be94926001928260159896106115c8575b5050811b019055611159565b8b01515f1960f88460031b161c191690558c806115bc565b6001849560209395849301518155019401920161159e565b90508601518a6110f2565b5f8481528181209250601f198416905b81811061164c57509083600194939210611634575b5050811b019055611105565b8801515f1960f88460031b161c191690558a80611628565b9192602060018192868d015181550194019201611613565b9260010192610fa8565b606460029104950194610fa1565b61271060049104950194610f97565b6305f5e10060089104950194610f8c565b662386f26fc1000060109104950194610f7f565b6d04ee2d6d415b85acef810000000060209104950194610f6f565b50604093507a184f03e93ff9f4daa797ed6e38ed64bf6a1f0100000000000000008604610f55565b90506020813d60201161172d575b8161170e6020938361184b565b8101031261046257516001600160a01b03811681036104625784610f2a565b3d9150611701565b9092506020813d602011611761575b816117516020938361184b565b8101031261046257519183610e64565b3d9150611744565b630535b74760e41b5f5260045ffd5b631ef77b9f60e21b5f5260045ffd5b6316c8901760e31b5f5260045ffd5b6303107bd160e61b5f5260045ffd5b63c9c22f2760e01b5f5260045ffd5b604090600319011261046257600435906024356001600160a01b03811681036104625790565b6080810190811067ffffffffffffffff82111761155157604052565b60a0810190811067ffffffffffffffff82111761155157604052565b610100810190811067ffffffffffffffff82111761155157604052565b6040810190811067ffffffffffffffff82111761155157604052565b90601f8019910116810190811067ffffffffffffffff82111761155157604052565b90600182811c9216801561189b575b602083101461188757565b634e487b7160e01b5f52602260045260245ffd5b91607f169161187c565b8181106118b0575050565b5f81556001016118a5565b9190601f81116118ca57505050565b6118f4925f5260205f20906020601f840160051c830193106118f6575b601f0160051c01906118a5565b565b90915081906118e7565b919082018092116102d157565b80548210156102f9575f5260205f2001905f90565b805468010000000000000000811015611551576119449160018201815561190d565b6001600160a01b0380839493549260031b9316831b921b1916179055565b67ffffffffffffffff811161155157601f01601f191660200190565b3d156119a8573d9061198f82611962565b9161199d604051938461184b565b82523d5f602084013e565b606090565b805180835260209291819084018484015e5f828201840152601f01601f1916010190565b818102929181159184041417156102d157565b81156119ee570490565b634e487b7160e01b5f52601260045260245ffd5b6020818303126104625780519067ffffffffffffffff8211610462570181601f8201121561046257805190611a3682611962565b92611a44604051948561184b565b8284526020838301011161046257815f9260208093018386015e8301015290565b611a6e81611ae2565b9160ff600584015460a01c1660048110156102e557600103611ace57611a948183612ce8565b611ace57611aa191612d4b565b908115611ac8576006611abc611ac5936007840154906119d1565b910154906119e4565b90565b50505f90565b5050505f90565b919082039182116102d157565b60405160208101917fc61520f0fc87f37c054c240fb12fa829a873c4a7f3a227d3cdaf38f732a45b0d8352604082015260408152611b2160608261184b565b51902090565b906040519060208201927ff9cb95d6bcd70b8f41deb63f6a0973398a369f058485501ab1645d87ca423542845260408301526bffffffffffffffffffffffff199060601b16606082015260548152611b8060748261184b565b51902055565b9060e052600660e0510180546101205260646101205102610120518104606414610120511517156102d157611bc2612710820461012051611ad5565b91610ce48302838104610ce414841517156102d157611be76126ac5f92048095611ad5565b91816001600160a01b036004611c1d7f0940b07e82ace5a9b6369ad035ede2cefb9eed2f364c533ae2a2a33c58f5ce5854611ae2565b01541660846001600160a01b03600460e051015416916040519586938492639e5d4c4960e01b845260048401526127108a046024840152606060448401528160648401525af1918215610c3d57611c8092612c7e575b5061271084049054611ad5565b610ce4810290808204610ce414811517156102d1576126ac611ca3920490611ad5565b6001600160a01b03600460e051015416611cc1600160e05101612e5d565b91611cd0600260e05101612e5d565b611cde600360e05101612e5d565b9060606080604051611cef816117f6565b604051611cfb81611812565b5f81528360208201528360408201525f8482015283838201528360a08201528360c08201525f60e08201528152604051611d34816117f6565b5f81525f60208201525f60408201525f8482015283838201526020820152604051611d5e81611812565b5f8152836020820152836040820152838082015283838201528360a08201528360c08201528360e08201526040820152604051611d9a8161182f565b5f815283602082015283820152015260405194611db686611812565b848652602086015260408501525f606085015260808401525f61014052602061014052604051611de9610140518261184b565b5f815260a08401526040610100819052805190611e06908261184b565b601581527f7b22696e74657266616365223a22434142414c227d00000000000000000000006101405182015260c08401524660e08401526001600160a01b037f7ac3a920b579a0b08c43b9e61f5a89fbb0532d6363affc3c4bf0a0f3f8f9ad945416926001600160a01b037ff6b912f89c06d8afd06b9fa8bd742c729f30156da50b94481faddbc9d0b4e9e85416610100515194611ea3866117f6565b8552610140518501526101008051620383ff199086015260c860608601525151611ecf6101208261184b565b610100815261014051610140518201525f610100518201526060808201526080808201525f60a08201526101005160c082015261271060e0820152612710610100820152608085015260017f126ccc9c13b1c6ea6090e51049cd401cf6411009b75480e3934f8663e5d7e1a654145f14612c70576001600160a01b03806004611f787f0940b07e82ace5a9b6369ad035ede2cefb9eed2f364c533ae2a2a33c58f5ce5854611ae2565b0154165b16838103612bd357506101005180519190611f97908361184b565b60018252601f1961010051019182366101405183013784611fb782612fa4565b526101005151611fca610100518261184b565b6001815283366101405183013785611fe182612fa4565b52610100515193611ff5610100518661184b565b60018552366101405186013761271061200d85612fa4565b525b610100515160c094612021868361184b565b6005825260a0366101405184013761010051519261203f878561184b565b6005845260a0366101405186013761010051519461205d888761184b565b6005865260a03661014051880137620383ff1961207985612fa4565b52620343ef1961208886612fa4565b526103e861209587612fa4565b52620343ef196120a485612fb1565b5262025d77196120b386612fb1565b526113886120c087612fb1565b526203150f196120cf85612fc1565b5262025d77196120de86612fc1565b526105dc6120eb87612fc1565b5262025d77196120fa85612fd1565b526201d4bf1961210986612fd1565b526107d061211687612fd1565b52620226c71961212585612fe1565b526201d4bf1961213486612fe1565b526101f461214187612fe1565b526001600160a01b037f7ac3a920b579a0b08c43b9e61f5a89fbb0532d6363affc3c4bf0a0f3f8f9ad955416610100515160c05261218060c051611812565b60c051526101405160c05101526101005160c0510152606060c0510152608060c051015260a060c05101528260c05101525f60a05260a0805261010051516121ca60a0518261184b565b6080815261014051610140518201526101405161010051820152600160608201526001608082015260e060c05101526001600160a01b037f7ac3a920b579a0b08c43b9e61f5a89fbb0532d6363affc3c4bf0a0f3f8f9ad965416916101005151926122348461182f565b8352608080805261010051519061224b908261184b565b60608152620a2c996101405182015261a2c961010051820152600f60608201526101405184015283151580612ba0575b15612b33576101405161010051519190602001612298818461184b565b600183525f5b601f1982018110612af9575050610100515190826122bb836117f6565b5f83525f610140518401525f610100518401525f60608401525f60805184015261010051519283606081011067ffffffffffffffff606086011117611551576126a19484612401926060612666970161010051528082526001600160a01b03610140518301925f845261010051018d81526fffffffffffffffffffffffffffffffff827f7ac3a920b579a0b08c43b9e61f5a89fbb0532d6363affc3c4bf0a0f3f8f9ad975416948361010051519581815116610140518801528161014051820151166101005188015262ffffff61010051820151166060880152606081015160020b60805188015260805101511660a051860152511688840152511660e082015260e081526123cc6101008261184b565b6101005151916123db836117da565b82528a610140518301525f6101005183015260608201526123fb82612fa4565b52612fa4565b505b610100515194612412866117f6565b85526101405185019889526101005185019560c051875260608601526080518501526001600160a01b037ff6b912f89c06d8afd06b9fa8bd742c729f30156da50b94481faddbc9d0b4e9e654169460e06126556125ac61010051519b636fa0112560e11b8d6101405101528c6024610140519101528851908d604460a0519101528d60e46001600160a01b038451169101528d6101c48661253d61252761250f6124ec6124d3610140518a01516101006101048a01526101e48901906119ad565b610100518a015188820360e319016101248a01526119ad565b606089015161014488015260805189015187820360e319016101648901526119ad565b60a05188015186820360e319016101848801526119ad565b868c015185820360e319016101a48701526119ad565b940151910152518d6064604319828503019101526001600160a01b0381511682526001600160a01b036101405182015116610140518301526101005181015160020b61010051830152606081015160020b606083015260805101519060a05160805182015260a05101906119ad565b9251936043198c85030160848d01526001600160a01b03855116845261264361262f61261b6126096125f3610140518a0151610100610140518b01526101008a0190612efb565b610100518a0151898203610100518b0152612efb565b606089015188820360608a0152612f37565b608051880151878203608051890152612f6e565b60a05187015186820360a051880152612f6e565b90808601519085830390860152612f37565b9201519060e08184039101526119ad565b60608301516043198883030160a48901526001600160a01b0381511682526101405101519061010051610140518201526101005101906119ad565b608051909101518582036043190160c4870152805180835261014051600582901b8401810193928101925f918101905b838310612a88575050505050915f8094926126f98761272a989603601f19810187528661184b565b610100515196879586948593639e5d4c4960e01b8552600485015260248401526060604484015260648301906119ad565b03925af1908115612a52575f91612a6e575b5061014051815110612a5f57610140518180518101031261046257610140510151906001600160a01b038216809203610462576001600160a01b03600460e051015416936101005151946370a0823160e01b865260048601526101405185602481865afa948515612a52575f95612a19575b50611388850285810461138814861517156102d1577f8b33e5d3f2111dbe0069093632772b6795dfdaa7282cb1d39582c0ca4127edbb7f9990228011b491290cdf9e698b471337d5c98a9cc561021ba3bbf72b5a75d27c9561281789986127108a950490611ad5565b60e05160058101805460078301849055600e83019390935574ffffffffffffffffffffffffffffffffffffffffff199092166001600160a01b03891617600160a01b1790915542601090910155610100515161271090910481526101405190a26101005151928352610120516101405184015261010051830152606082015260805190a26101005151906128aa826117f6565b815261014051810133815261010051820160038152606083016101205181526080518401914283525f80516020612ff283398151915254600a8110156102f95760021b9451857fe9a1dee022580a06f80b398cb0f2690fb71e0b4cb2e78fb97d5795b2fc75e8ab01556001600160a01b03807fe9a1dee022580a06f80b398cb0f2690fb71e0b4cb2e78fb97d5795b2fc75e8ac8701955116166001600160a01b03198554161784555192600f8410156102e5577fe9a1dee022580a06f80b398cb0f2690fb71e0b4cb2e78fb97d5795b2fc75e8ae9381549060ff60a01b9060a0511b169060ff60a01b1916179055517fe9a1dee022580a06f80b398cb0f2690fb71e0b4cb2e78fb97d5795b2fc75e8ad840155519101555f80516020612ff283398151915254600181018091116102d157600a90065f80516020612ff2833981519152555f80516020613012833981519152545f1981146102d1576001015f8051602061301283398151915255565b909450610140513d6101405111612a4b575b612a35818361184b565b816101405191810103126104625751935f6127ae565b503d612a2b565b61010051513d5f823e3d90fd5b633011642560e01b5f5260045ffd5b612a8291503d805f833e610c30818361184b565b5f61273c565b9091929394612ae2600191601f19848203018552606088516001600160a01b038151168352610140518101516101405184015261ffff610100518201511661010051840152015190608051606082015260805101906119ad565b9561014051019261014051019301919392906126d1565b6101005151612b07816117da565b5f81525f610140518201525f61010051820152606080820152610140518286010152610140510161229e565b61014051610100515190612b47818361184b565b5f82525f5b601f1982018110612b665750506126a19161266691612403565b6101005151612b74816117da565b5f81525f610140518201525f610100518201526060808201526101405182850101526101405101612b4c565b506001600160a01b037f7ac3a920b579a0b08c43b9e61f5a89fbb0532d6363affc3c4bf0a0f3f8f9ad975416151561227b565b906101005151612be460608261184b565b60028152601f196060019283366101405184013780612c0d8388612c0782612fa4565b52612fb1565b52610100515190612c1f60608361184b565b60028252843661014051840137612c3a8288612c0782612fa4565b52610100515193612c4c60608661184b565b6002855236610140518601376064612c6a856126ac612c0782612fa4565b5261200f565b6001600160a01b0383611f7c565b612c91903d805f833e610c30818361184b565b611c73565b9060ff600582015460a01c1660048110156102e557612ce45760138101548015612cd55761070881018091116102d1574210610cb2576118f491611b86565b6307dab7b360e31b5f5260045ffd5b5050565b6001916040519060208201927ffa7666f901d98d7ddb6dca66654a4b44590f640f4803ecfa6cdcb1bcf243032b845260408301526bffffffffffffffffffffffff199060601b16606082015260548152612d4360748261184b565b519020541490565b906040519060208201927ff9cb95d6bcd70b8f41deb63f6a0973398a369f058485501ab1645d87ca423542845260408301526bffffffffffffffffffffffff199060601b16606082015260548152612da460748261184b565b5190205490565b906040519060208201927f18db0b0ee3d652655d8c5597bd568542c478b4915a3177696b916ada79991880845260408301526bffffffffffffffffffffffff199060601b16606082015260548152612da460748261184b565b906040519060208201927fcdc329e62990f6d30602da515792306963756a09f25ba03fa486927e0adc8ff3845260408301526bffffffffffffffffffffffff199060601b16606082015260548152612da460748261184b565b9060405191825f825492612e708461186d565b8084529360018116908115612ed95750600114612e95575b506118f49250038361184b565b90505f9291925260205f20905f915b818310612ebd5750509060206118f4928201015f612e88565b6020919350806001915483858901015201910190918492612ea4565b9050602092506118f494915060ff191682840152151560051b8201015f612e88565b90602080835192838152019201905f5b818110612f185750505090565b82516001600160a01b0316845260209384019390920191600101612f0b565b90602080835192838152019201905f5b818110612f545750505090565b825161ffff16845260209384019390920191600101612f47565b90602080835192838152019201905f5b818110612f8b5750505090565b825160020b845260209384019390920191600101612f7e565b8051156102f95760200190565b8051600110156102f95760400190565b8051600210156102f95760600190565b8051600310156102f95760800190565b8051600410156102f95760a0019056fee9a1dee022580a06f80b398cb0f2690fb71e0b4cb2e78fb97d5795b2fc75e8d3e9a1dee022580a06f80b398cb0f2690fb71e0b4cb2e78fb97d5795b2fc75e8d4a2646970667358221220b5c463d1e2fdb2dded6bf226bd063d340e2e3a591bc4d1343dcf0656826a49d064736f6c634300081a0033","opcodes":"PUSH1 0x80 DUP1 PUSH1 0x40 MSTORE CALLVALUE PUSH1 0x15 JUMPI PUSH2 0x3067 SWAP1 DUP2 PUSH2 0x1A DUP3 CODECOPY RETURN JUMPDEST PUSH0 DUP1 REVERT INVALID PUSH2 0x160 PUSH1 0x40 MSTORE PUSH1 0x4 CALLDATASIZE LT ISZERO PUSH2 0x12 JUMPI PUSH0 DUP1 REVERT JUMPDEST PUSH0 CALLDATALOAD PUSH1 0xE0 SHR DUP1 PUSH4 0x1445E0D1 EQ PUSH2 0xD88 JUMPI DUP1 PUSH4 0x3C1AB00F EQ PUSH2 0xCD0 JUMPI DUP1 PUSH4 0x43A77AAC EQ PUSH2 0xC57 JUMPI DUP1 PUSH4 0x46E04A2F EQ PUSH2 0x939 JUMPI DUP1 PUSH4 0x725B0DB9 EQ PUSH2 0x89E JUMPI DUP1 PUSH4 0x94E94882 EQ PUSH2 0x881 JUMPI DUP1 PUSH4 0x97E0D582 EQ PUSH2 0x868 JUMPI DUP1 PUSH4 0x9BCD9732 EQ PUSH2 0x487 JUMPI DUP1 PUSH4 0xB961CBE1 EQ PUSH2 0x466 JUMPI PUSH4 0xC1CBBCA7 EQ PUSH2 0x88 JUMPI PUSH0 DUP1 REVERT JUMPDEST PUSH1 0x20 CALLDATASIZE PUSH1 0x3 NOT ADD SLT PUSH2 0x462 JUMPI PUSH1 0x4 CALLDATALOAD PUSH6 0x9184E72A000 CALLVALUE LT PUSH2 0x454 JUMPI PUSH2 0xAD DUP2 PUSH2 0x1AE2 JUMP JUMPDEST PUSH1 0xFF PUSH1 0x5 DUP3 ADD SLOAD PUSH1 0xA0 SHR AND PUSH1 0x4 DUP2 LT ISZERO PUSH2 0x2E5 JUMPI PUSH2 0x445 JUMPI PUSH2 0xF5 PUSH2 0xEE PUSH2 0xD5 CALLER DUP6 PUSH2 0x2D4B JUMP JUMPDEST DUP1 ISZERO PUSH2 0x433 JUMPI JUMPDEST PUSH1 0x13 DUP5 ADD SLOAD ISZERO PUSH2 0x31C JUMPI JUMPDEST CALLVALUE SWAP1 PUSH2 0x1900 JUMP JUMPDEST CALLER DUP5 PUSH2 0x1B27 JUMP JUMPDEST PUSH0 DUP1 DUP1 DUP1 PUSH1 0x6 DUP6 ADD SWAP5 PUSH2 0x109 CALLVALUE DUP8 SLOAD PUSH2 0x1900 JUMP JUMPDEST DUP7 SSTORE PUSH1 0x1 PUSH1 0x1 PUSH1 0xA0 SHL SUB PUSH1 0x4 CALLVALUE SWAP3 ADD SLOAD AND GAS CALL PUSH2 0x124 PUSH2 0x197E JUMP JUMPDEST POP ISZERO PUSH2 0x30D JUMPI SLOAD PUSH1 0x40 MLOAD SWAP1 CALLVALUE DUP3 MSTORE PUSH1 0x20 DUP3 ADD MSTORE DUP2 PUSH32 0xDCFA71EE125A676F843733D9D39DCE2C918ECF9E92F96DB4F24BDB5244ED68A0 PUSH1 0x40 CALLER SWAP4 LOG3 PUSH1 0x40 MLOAD SWAP1 PUSH2 0x16B DUP3 PUSH2 0x17F6 JUMP JUMPDEST DUP2 MSTORE PUSH1 0x20 DUP2 ADD CALLER DUP2 MSTORE PUSH1 0x40 DUP3 ADD PUSH1 0x1 DUP2 MSTORE PUSH1 0x60 DUP4 ADD CALLVALUE DUP2 MSTORE PUSH1 0x80 DUP5 ADD SWAP2 TIMESTAMP DUP4 MSTORE PUSH0 DUP1 MLOAD PUSH1 0x20 PUSH2 0x2FF2 DUP4 CODECOPY DUP2 MLOAD SWAP2 MSTORE SLOAD PUSH1 0xA DUP2 LT ISZERO PUSH2 0x2F9 JUMPI PUSH1 0x2 SHL SWAP5 MLOAD DUP6 PUSH32 0xE9A1DEE022580A06F80B398CB0F2690FB71E0B4CB2E78FB97D5795B2FC75E8AB ADD SSTORE PUSH1 0x1 PUSH1 0x1 PUSH1 0xA0 SHL SUB DUP1 PUSH32 0xE9A1DEE022580A06F80B398CB0F2690FB71E0B4CB2E78FB97D5795B2FC75E8AC DUP8 ADD SWAP6 MLOAD AND AND PUSH1 0x1 PUSH1 0x1 PUSH1 0xA0 SHL SUB NOT DUP6 SLOAD AND OR DUP5 SSTORE MLOAD SWAP3 PUSH1 0xF DUP5 LT ISZERO PUSH2 0x2E5 JUMPI PUSH32 0xE9A1DEE022580A06F80B398CB0F2690FB71E0B4CB2E78FB97D5795B2FC75E8AE SWAP4 DUP2 SLOAD SWAP1 PUSH1 0xFF PUSH1 0xA0 SHL SWAP1 PUSH1 0xA0 SHL AND SWAP1 PUSH1 0xFF PUSH1 0xA0 SHL NOT AND OR SWAP1 SSTORE MLOAD PUSH32 0xE9A1DEE022580A06F80B398CB0F2690FB71E0B4CB2E78FB97D5795B2FC75E8AD DUP5 ADD SSTORE MLOAD SWAP2 ADD SSTORE PUSH0 DUP1 MLOAD PUSH1 0x20 PUSH2 0x2FF2 DUP4 CODECOPY DUP2 MLOAD SWAP2 MSTORE SLOAD PUSH1 0x1 DUP2 ADD DUP1 SWAP2 GT PUSH2 0x2D1 JUMPI PUSH1 0xA SWAP1 MOD PUSH0 DUP1 MLOAD PUSH1 0x20 PUSH2 0x2FF2 DUP4 CODECOPY DUP2 MLOAD SWAP2 MSTORE SSTORE PUSH0 DUP1 MLOAD PUSH1 0x20 PUSH2 0x3012 DUP4 CODECOPY DUP2 MLOAD SWAP2 MSTORE SLOAD PUSH0 NOT DUP2 EQ PUSH2 0x2D1 JUMPI PUSH1 0x1 ADD PUSH0 DUP1 MLOAD PUSH1 0x20 PUSH2 0x3012 DUP4 CODECOPY DUP2 MLOAD SWAP2 MSTORE SSTORE STOP JUMPDEST PUSH4 0x4E487B71 PUSH1 0xE0 SHL PUSH0 MSTORE PUSH1 0x11 PUSH1 0x4 MSTORE PUSH1 0x24 PUSH0 REVERT JUMPDEST PUSH4 0x4E487B71 PUSH1 0xE0 SHL PUSH0 MSTORE PUSH1 0x21 PUSH1 0x4 MSTORE PUSH1 0x24 PUSH0 REVERT JUMPDEST PUSH4 0x4E487B71 PUSH1 0xE0 SHL PUSH0 MSTORE PUSH1 0x32 PUSH1 0x4 MSTORE PUSH1 0x24 PUSH0 REVERT JUMPDEST PUSH4 0x12171D83 PUSH1 0xE3 SHL PUSH0 MSTORE PUSH1 0x4 PUSH0 REVERT JUMPDEST PUSH2 0x326 CALLER DUP7 PUSH2 0x2DAB JUMP JUMPDEST DUP1 PUSH2 0x332 JUMPI JUMPDEST POP PUSH2 0xE7 JUMP JUMPDEST PUSH1 0x1 PUSH2 0x33E CALLER DUP9 PUSH2 0x2E04 JUMP JUMPDEST SWAP2 SUB PUSH2 0x41D JUMPI PUSH2 0x353 PUSH1 0x11 DUP7 ADD SWAP2 DUP3 SLOAD PUSH2 0x1AD5 JUMP JUMPDEST SWAP1 SSTORE JUMPDEST PUSH0 PUSH1 0x40 MLOAD DUP2 PUSH1 0x20 DUP3 ADD PUSH32 0x18DB0B0EE3D652655D8C5597BD568542C478B4915A3177696B916ADA79991880 DUP2 MSTORE DUP9 PUSH1 0x40 DUP5 ADD MSTORE CALLER PUSH1 0x60 SHL SWAP3 DUP4 PUSH1 0x60 DUP3 ADD MSTORE PUSH1 0x54 DUP2 MSTORE PUSH2 0x3A2 PUSH1 0x74 DUP3 PUSH2 0x184B JUMP JUMPDEST MLOAD SWAP1 KECCAK256 SWAP2 PUSH1 0x40 MLOAD PUSH1 0x20 DUP2 ADD SWAP2 PUSH32 0xCDC329E62990F6D30602DA515792306963756A09F25BA03FA486927E0ADC8FF3 DUP4 MSTORE DUP11 PUSH1 0x40 DUP4 ADD MSTORE PUSH1 0x60 DUP3 ADD MSTORE PUSH1 0x54 DUP2 MSTORE PUSH2 0x3EB PUSH1 0x74 DUP3 PUSH2 0x184B JUMP JUMPDEST MLOAD SWAP1 KECCAK256 SWAP2 SSTORE SSTORE CALLER DUP6 PUSH32 0xFCB2756BC21A01B3F4CA3A22AD188EBF004F1D300ABC1F1740CA30DA36C98DB8 PUSH0 DUP1 LOG3 PUSH0 PUSH2 0x32C JUMP JUMPDEST PUSH2 0x42C PUSH1 0x12 DUP7 ADD SWAP2 DUP3 SLOAD PUSH2 0x1AD5 JUMP JUMPDEST SWAP1 SSTORE PUSH2 0x356 JUMP JUMPDEST PUSH2 0x440 CALLER PUSH1 0x8 DUP7 ADD PUSH2 0x1922 JUMP JUMPDEST PUSH2 0xDC JUMP JUMPDEST PUSH4 0x6E154BD PUSH1 0xE0 SHL PUSH0 MSTORE PUSH1 0x4 PUSH0 REVERT JUMPDEST PUSH3 0x6553C1 PUSH1 0xE4 SHL PUSH0 MSTORE PUSH1 0x4 PUSH0 REVERT JUMPDEST PUSH0 DUP1 REVERT JUMPDEST CALLVALUE PUSH2 0x462 JUMPI PUSH1 0x20 PUSH2 0x47F PUSH2 0x479 CALLDATASIZE PUSH2 0x17B4 JUMP JUMPDEST SWAP1 PUSH2 0x1A65 JUMP JUMPDEST PUSH1 0x40 MLOAD SWAP1 DUP2 MSTORE RETURN JUMPDEST CALLVALUE PUSH2 0x462 JUMPI PUSH1 0x40 CALLDATASIZE PUSH1 0x3 NOT ADD SLT PUSH2 0x462 JUMPI PUSH1 0x4 CALLDATALOAD PUSH1 0x24 CALLDATALOAD DUP1 ISZERO ISZERO SWAP1 DUP2 DUP2 SUB PUSH2 0x462 JUMPI PUSH2 0x4B2 DUP4 PUSH2 0x1AE2 JUMP JUMPDEST SWAP2 PUSH1 0xFF PUSH1 0x5 DUP5 ADD SLOAD PUSH1 0xA0 SHR AND PUSH1 0x4 DUP2 LT ISZERO PUSH2 0x2E5 JUMPI PUSH2 0x445 JUMPI PUSH2 0x4D5 CALLER DUP6 PUSH2 0x2D4B JUMP JUMPDEST SWAP2 DUP3 ISZERO PUSH2 0x859 JUMPI PUSH2 0x4E6 CALLER DUP7 PUSH2 0x2DAB JUMP JUMPDEST SWAP1 DUP1 ISZERO PUSH2 0x850 JUMPI PUSH1 0xFF PUSH1 0x1 JUMPDEST AND DUP3 EQ PUSH2 0x841 JUMPI DUP4 SWAP2 PUSH1 0x1 DUP2 SUB PUSH2 0x81A JUMPI POP PUSH2 0x50E CALLER DUP8 PUSH2 0x2E04 JUMP JUMPDEST PUSH2 0x51D PUSH1 0x11 DUP8 ADD SWAP2 DUP3 SLOAD PUSH2 0x1AD5 JUMP JUMPDEST SWAP1 SSTORE JUMPDEST DUP1 ISZERO PUSH2 0x804 JUMPI PUSH1 0x11 DUP6 ADD PUSH2 0x535 DUP4 DUP3 SLOAD PUSH2 0x1900 JUMP JUMPDEST SWAP1 SSTORE JUMPDEST PUSH1 0x40 MLOAD PUSH1 0x20 DUP2 ADD PUSH32 0x18DB0B0EE3D652655D8C5597BD568542C478B4915A3177696B916ADA79991880 DUP2 MSTORE DUP8 PUSH1 0x40 DUP4 ADD MSTORE CALLER PUSH1 0x60 SHL SWAP2 DUP3 PUSH1 0x60 DUP3 ADD MSTORE PUSH1 0x54 DUP2 MSTORE PUSH2 0x582 PUSH1 0x74 DUP3 PUSH2 0x184B JUMP JUMPDEST MLOAD SWAP1 KECCAK256 SWAP1 PUSH1 0x40 MLOAD PUSH1 0x20 DUP2 ADD SWAP2 PUSH32 0xCDC329E62990F6D30602DA515792306963756A09F25BA03FA486927E0ADC8FF3 DUP4 MSTORE DUP10 PUSH1 0x40 DUP4 ADD MSTORE PUSH1 0x60 DUP3 ADD MSTORE PUSH1 0x54 DUP2 MSTORE PUSH2 0x5CB PUSH1 0x74 DUP3 PUSH2 0x184B JUMP JUMPDEST MLOAD SWAP1 KECCAK256 SWAP2 ISZERO PUSH2 0x7FB JUMPI PUSH1 0xFF PUSH1 0x1 JUMPDEST AND SWAP1 SSTORE SSTORE PUSH1 0x40 MLOAD SWAP1 DUP2 MSTORE DUP2 PUSH1 0x20 DUP3 ADD MSTORE DUP4 PUSH32 0x7EE2EF9A6A3B406B594BCD78E4D2A61814F511E882C509976BF7DCE92AE7CC4 PUSH1 0x40 CALLER SWAP4 LOG3 PUSH1 0x40 MLOAD SWAP1 PUSH2 0x61D DUP3 PUSH2 0x17F6 JUMP JUMPDEST DUP4 DUP3 MSTORE PUSH1 0x20 DUP3 ADD SWAP1 CALLER DUP3 MSTORE PUSH1 0x40 DUP4 ADD SWAP1 PUSH1 0x2 DUP3 MSTORE PUSH1 0x60 DUP5 ADD SWAP1 DUP2 MSTORE PUSH1 0x80 DUP5 ADD SWAP2 TIMESTAMP DUP4 MSTORE PUSH0 DUP1 MLOAD PUSH1 0x20 PUSH2 0x2FF2 DUP4 CODECOPY DUP2 MLOAD SWAP2 MSTORE SLOAD PUSH1 0xA DUP2 LT ISZERO PUSH2 0x2F9 JUMPI PUSH1 0x2 SHL SWAP5 MLOAD DUP6 PUSH32 0xE9A1DEE022580A06F80B398CB0F2690FB71E0B4CB2E78FB97D5795B2FC75E8AB ADD SSTORE PUSH1 0x1 PUSH1 0x1 PUSH1 0xA0 SHL SUB DUP1 PUSH32 0xE9A1DEE022580A06F80B398CB0F2690FB71E0B4CB2E78FB97D5795B2FC75E8AC DUP8 ADD SWAP6 MLOAD AND AND PUSH1 0x1 PUSH1 0x1 PUSH1 0xA0 SHL SUB NOT DUP6 SLOAD AND OR DUP5 SSTORE MLOAD SWAP3 PUSH1 0xF DUP5 LT ISZERO PUSH2 0x2E5 JUMPI PUSH32 0xE9A1DEE022580A06F80B398CB0F2690FB71E0B4CB2E78FB97D5795B2FC75E8AE SWAP4 DUP2 SLOAD SWAP1 PUSH1 0xFF PUSH1 0xA0 SHL SWAP1 PUSH1 0xA0 SHL AND SWAP1 PUSH1 0xFF PUSH1 0xA0 SHL NOT AND OR SWAP1 SSTORE MLOAD PUSH32 0xE9A1DEE022580A06F80B398CB0F2690FB71E0B4CB2E78FB97D5795B2FC75E8AD DUP5 ADD SSTORE MLOAD SWAP2 ADD SSTORE PUSH0 DUP1 MLOAD PUSH1 0x20 PUSH2 0x2FF2 DUP4 CODECOPY DUP2 MLOAD SWAP2 MSTORE SLOAD PUSH1 0x1 DUP2 ADD DUP1 SWAP2 GT PUSH2 0x2D1 JUMPI PUSH1 0xA SWAP1 MOD PUSH0 DUP1 MLOAD PUSH1 0x20 PUSH2 0x2FF2 DUP4 CODECOPY DUP2 MLOAD SWAP2 MSTORE SSTORE PUSH0 DUP1 MLOAD PUSH1 0x20 PUSH2 0x3012 DUP4 CODECOPY DUP2 MLOAD SWAP2 MSTORE SLOAD PUSH0 NOT DUP2 EQ PUSH2 0x2D1 JUMPI PUSH1 0x1 ADD PUSH0 DUP1 MLOAD PUSH1 0x20 PUSH2 0x3012 DUP4 CODECOPY DUP2 MLOAD SWAP2 MSTORE SSTORE PUSH1 0x13 DUP2 ADD SWAP1 DUP2 SLOAD ISZERO PUSH2 0x792 JUMPI STOP JUMPDEST PUSH1 0x6 DUP2 ADD SLOAD PUSH2 0x13EC DUP2 MUL SWAP1 DUP1 DUP3 DIV PUSH2 0x13EC EQ SWAP1 ISZERO OR ISZERO PUSH2 0x2D1 JUMPI PUSH2 0x2710 PUSH1 0x11 SWAP2 DIV SWAP2 ADD SLOAD LT ISZERO PUSH2 0x7BF JUMPI JUMPDEST STOP JUMPDEST TIMESTAMP SWAP1 SSTORE PUSH2 0x708 TIMESTAMP ADD DUP1 TIMESTAMP GT PUSH2 0x2D1 JUMPI PUSH1 0x20 PUSH32 0x3D92850943985F06CA73EDAB0C1FFE786F95D2A203375CB217E8D2D8FE1F28D SWAP2 PUSH1 0x40 MLOAD SWAP1 DUP2 MSTORE LOG2 STOP JUMPDEST PUSH1 0xFF PUSH1 0x2 PUSH2 0x5D9 JUMP JUMPDEST PUSH1 0x12 DUP6 ADD PUSH2 0x813 DUP4 DUP3 SLOAD PUSH2 0x1900 JUMP JUMPDEST SWAP1 SSTORE PUSH2 0x538 JUMP JUMPDEST PUSH1 0x2 SUB PUSH2 0x520 JUMPI PUSH2 0x82B CALLER DUP8 PUSH2 0x2E04 JUMP JUMPDEST PUSH2 0x83A PUSH1 0x12 DUP8 ADD SWAP2 DUP3 SLOAD PUSH2 0x1AD5 JUMP JUMPDEST SWAP1 SSTORE PUSH2 0x520 JUMP JUMPDEST PUSH4 0xAE1E3F91 PUSH1 0xE0 SHL PUSH0 MSTORE PUSH1 0x4 PUSH0 REVERT JUMPDEST PUSH1 0xFF PUSH1 0x2 PUSH2 0x4F2 JUMP JUMPDEST PUSH4 0x1971FBF3 PUSH1 0xE2 SHL PUSH0 MSTORE PUSH1 0x4 PUSH0 REVERT JUMPDEST CALLVALUE PUSH2 0x462 JUMPI PUSH1 0x20 PUSH2 0x47F PUSH2 0x87B CALLDATASIZE PUSH2 0x17B4 JUMP JUMPDEST SWAP1 PUSH2 0x2DAB JUMP JUMPDEST CALLVALUE PUSH2 0x462 JUMPI PUSH1 0x20 PUSH2 0x894 PUSH2 0x87B CALLDATASIZE PUSH2 0x17B4 JUMP JUMPDEST ISZERO ISZERO PUSH1 0x40 MLOAD SWAP1 DUP2 MSTORE RETURN JUMPDEST CALLVALUE PUSH2 0x462 JUMPI PUSH1 0x20 CALLDATASIZE PUSH1 0x3 NOT ADD SLT PUSH2 0x462 JUMPI PUSH2 0x8BA PUSH1 0x4 CALLDATALOAD PUSH2 0x1AE2 JUMP JUMPDEST PUSH1 0x11 DUP2 ADD SLOAD SWAP1 PUSH1 0x12 DUP2 ADD SLOAD SWAP1 PUSH1 0x6 DUP2 ADD SLOAD SWAP1 PUSH2 0x13EC DUP3 MUL DUP3 DUP2 DIV PUSH2 0x13EC EQ DUP4 ISZERO OR ISZERO PUSH2 0x2D1 JUMPI PUSH1 0x13 SWAP2 SWAP1 SWAP2 ADD SLOAD SWAP1 PUSH2 0x2710 SWAP1 DIV DUP2 ISZERO PUSH2 0x92F JUMPI PUSH2 0x708 DUP3 ADD SWAP5 DUP6 DUP4 GT PUSH2 0x2D1 JUMPI PUSH1 0xE0 SWAP6 SWAP4 JUMPDEST PUSH1 0x40 MLOAD SWAP6 DUP3 DUP8 MSTORE PUSH1 0x20 DUP8 ADD MSTORE PUSH1 0x40 DUP7 ADD MSTORE DUP2 PUSH1 0x60 DUP7 ADD MSTORE LT ISZERO PUSH1 0x80 DUP5 ADD MSTORE PUSH1 0xA0 DUP4 ADD MSTORE PUSH1 0xC0 DUP3 ADD MSTORE RETURN JUMPDEST PUSH1 0xE0 SWAP5 PUSH0 SWAP4 PUSH2 0x905 JUMP JUMPDEST CALLVALUE PUSH2 0x462 JUMPI PUSH1 0x20 CALLDATASIZE PUSH1 0x3 NOT ADD SLT PUSH2 0x462 JUMPI PUSH1 0x4 CALLDATALOAD PUSH2 0x956 DUP2 PUSH2 0x1AE2 JUMP JUMPDEST PUSH2 0x960 DUP2 DUP4 PUSH2 0x2C96 JUMP JUMPDEST PUSH2 0x96A CALLER DUP4 PUSH2 0x2CE8 JUMP JUMPDEST PUSH2 0xC48 JUMPI PUSH2 0x978 CALLER DUP4 PUSH2 0x2D4B JUMP JUMPDEST DUP1 ISZERO PUSH2 0x859 JUMPI PUSH0 PUSH2 0x99F PUSH2 0x994 PUSH2 0xA6B SWAP4 PUSH1 0x7 DUP7 ADD SLOAD SWAP1 PUSH2 0x19D1 JUMP JUMPDEST PUSH1 0x6 DUP6 ADD SLOAD SWAP1 PUSH2 0x19E4 JUMP JUMPDEST SWAP3 PUSH1 0x1 PUSH1 0x40 MLOAD PUSH1 0x20 DUP2 ADD SWAP1 PUSH32 0xFA7666F901D98D7DDB6DCA66654A4B44590F640F4803ECFA6CDCB1BCF243032B DUP3 MSTORE DUP8 PUSH1 0x40 DUP3 ADD MSTORE CALLER PUSH1 0x60 SHL PUSH1 0x60 DUP3 ADD MSTORE PUSH1 0x54 DUP2 MSTORE PUSH2 0x9EB PUSH1 0x74 DUP3 PUSH2 0x184B JUMP JUMPDEST MLOAD SWAP1 KECCAK256 SSTORE PUSH1 0xE DUP2 ADD DUP5 DUP2 SLOAD SUB SWAP1 SSTORE PUSH1 0x1 PUSH1 0x1 PUSH1 0xA0 SHL SUB PUSH1 0x5 DUP2 PUSH1 0x4 DUP5 ADD SLOAD AND SWAP3 ADD SLOAD AND SWAP1 PUSH1 0x40 MLOAD SWAP2 PUSH4 0xA9059CBB PUSH1 0xE0 SHL PUSH1 0x20 DUP5 ADD MSTORE CALLER PUSH1 0x24 DUP5 ADD MSTORE DUP6 PUSH1 0x44 DUP5 ADD MSTORE PUSH1 0x44 DUP4 MSTORE PUSH2 0xA3B PUSH1 0x64 DUP5 PUSH2 0x184B JUMP JUMPDEST DUP4 PUSH1 0x40 MLOAD DUP1 SWAP7 DUP2 SWAP6 DUP3 SWAP5 PUSH4 0x9E5D4C49 PUSH1 0xE0 SHL DUP5 MSTORE PUSH1 0x4 DUP5 ADD MSTORE DUP4 PUSH1 0x24 DUP5 ADD MSTORE PUSH1 0x60 PUSH1 0x44 DUP5 ADD MSTORE PUSH1 0x64 DUP4 ADD SWAP1 PUSH2 0x19AD JUMP JUMPDEST SUB SWAP3 GAS CALL DUP1 ISZERO PUSH2 0xC3D JUMPI PUSH2 0xC1D JUMPI JUMPDEST POP PUSH1 0x40 MLOAD DUP2 DUP2 MSTORE DUP3 PUSH32 0x880F2EF2613B092F1A0A819F294155C98667EB294B7E6BF7A3810278142C1A1C PUSH1 0x20 CALLER SWAP4 LOG3 PUSH1 0x40 MLOAD SWAP2 PUSH2 0xAB5 DUP4 PUSH2 0x17F6 JUMP JUMPDEST DUP3 MSTORE PUSH1 0x20 DUP3 ADD SWAP1 CALLER DUP3 MSTORE PUSH1 0x40 DUP4 ADD SWAP1 PUSH1 0x4 DUP3 MSTORE PUSH1 0x60 DUP5 ADD SWAP1 DUP2 MSTORE PUSH1 0x80 DUP5 ADD SWAP2 TIMESTAMP DUP4 MSTORE PUSH0 DUP1 MLOAD PUSH1 0x20 PUSH2 0x2FF2 DUP4 CODECOPY DUP2 MLOAD SWAP2 MSTORE SLOAD PUSH1 0xA DUP2 LT ISZERO PUSH2 0x2F9 JUMPI PUSH1 0x2 SHL SWAP5 MLOAD DUP6 PUSH32 0xE9A1DEE022580A06F80B398CB0F2690FB71E0B4CB2E78FB97D5795B2FC75E8AB ADD SSTORE PUSH1 0x1 PUSH1 0x1 PUSH1 0xA0 SHL SUB DUP1 PUSH32 0xE9A1DEE022580A06F80B398CB0F2690FB71E0B4CB2E78FB97D5795B2FC75E8AC DUP8 ADD SWAP6 MLOAD AND AND PUSH1 0x1 PUSH1 0x1 PUSH1 0xA0 SHL SUB NOT DUP6 SLOAD AND OR DUP5 SSTORE MLOAD SWAP3 PUSH1 0xF DUP5 LT ISZERO PUSH2 0x2E5 JUMPI PUSH32 0xE9A1DEE022580A06F80B398CB0F2690FB71E0B4CB2E78FB97D5795B2FC75E8AE SWAP4 DUP2 SLOAD SWAP1 PUSH1 0xFF PUSH1 0xA0 SHL SWAP1 PUSH1 0xA0 SHL AND SWAP1 PUSH1 0xFF PUSH1 0xA0 SHL NOT AND OR SWAP1 SSTORE MLOAD PUSH32 0xE9A1DEE022580A06F80B398CB0F2690FB71E0B4CB2E78FB97D5795B2FC75E8AD DUP5 ADD SSTORE MLOAD SWAP2 ADD SSTORE PUSH0 DUP1 MLOAD PUSH1 0x20 PUSH2 0x2FF2 DUP4 CODECOPY DUP2 MLOAD SWAP2 MSTORE SLOAD PUSH1 0x1 DUP2 ADD DUP1 SWAP2 GT PUSH2 0x2D1 JUMPI PUSH1 0xA SWAP1 MOD PUSH0 DUP1 MLOAD PUSH1 0x20 PUSH2 0x2FF2 DUP4 CODECOPY DUP2 MLOAD SWAP2 MSTORE SSTORE PUSH0 DUP1 MLOAD PUSH1 0x20 PUSH2 0x3012 DUP4 CODECOPY DUP2 MLOAD SWAP2 MSTORE SLOAD PUSH0 NOT DUP2 EQ PUSH2 0x2D1 JUMPI PUSH1 0x1 ADD PUSH0 DUP1 MLOAD PUSH1 0x20 PUSH2 0x3012 DUP4 CODECOPY DUP2 MLOAD SWAP2 MSTORE SSTORE STOP JUMPDEST PUSH2 0xC38 SWAP1 RETURNDATASIZE DUP1 PUSH0 DUP4 RETURNDATACOPY PUSH2 0xC30 DUP2 DUP4 PUSH2 0x184B JUMP JUMPDEST DUP2 ADD SWAP1 PUSH2 0x1A02 JUMP JUMPDEST PUSH2 0xA7A JUMP JUMPDEST PUSH1 0x40 MLOAD RETURNDATASIZE PUSH0 DUP3 RETURNDATACOPY RETURNDATASIZE SWAP1 REVERT JUMPDEST PUSH4 0xC8D9EAB PUSH1 0xE3 SHL PUSH0 MSTORE PUSH1 0x4 PUSH0 REVERT JUMPDEST CALLVALUE PUSH2 0x462 JUMPI PUSH1 0x20 CALLDATASIZE PUSH1 0x3 NOT ADD SLT PUSH2 0x462 JUMPI PUSH1 0x4 CALLDATALOAD PUSH2 0xC74 DUP2 PUSH2 0x1AE2 JUMP JUMPDEST PUSH1 0xFF PUSH1 0x5 DUP3 ADD SLOAD PUSH1 0xA0 SHR AND PUSH1 0x4 DUP2 LT ISZERO PUSH2 0x2E5 JUMPI PUSH2 0x445 JUMPI PUSH1 0x13 DUP2 ADD SLOAD DUP1 ISZERO PUSH2 0xCC1 JUMPI PUSH2 0x708 DUP2 ADD DUP1 SWAP2 GT PUSH2 0x2D1 JUMPI TIMESTAMP LT PUSH2 0xCB2 JUMPI PUSH2 0x7BD SWAP2 PUSH2 0x1B86 JUMP JUMPDEST PUSH4 0x173FA529 PUSH1 0xE0 SHL PUSH0 MSTORE PUSH1 0x4 PUSH0 REVERT JUMPDEST PUSH4 0x340C5CD PUSH1 0xE5 SHL PUSH0 MSTORE PUSH1 0x4 PUSH0 REVERT JUMPDEST CALLVALUE PUSH2 0x462 JUMPI PUSH1 0x20 CALLDATASIZE PUSH1 0x3 NOT ADD SLT PUSH2 0x462 JUMPI PUSH1 0x8 PUSH2 0xCEE PUSH1 0x4 CALLDATALOAD PUSH2 0x1AE2 JUMP JUMPDEST ADD PUSH1 0x40 MLOAD DUP1 PUSH1 0x20 DUP4 SLOAD SWAP2 DUP3 DUP2 MSTORE ADD SWAP1 DUP2 SWAP4 PUSH0 MSTORE PUSH1 0x20 PUSH0 KECCAK256 SWAP1 PUSH0 JUMPDEST DUP2 DUP2 LT PUSH2 0xD69 JUMPI POP POP POP DUP2 PUSH2 0xD1E SWAP2 SUB DUP3 PUSH2 0x184B JUMP JUMPDEST PUSH1 0x40 MLOAD SWAP2 DUP3 SWAP2 PUSH1 0x20 DUP4 ADD SWAP1 PUSH1 0x20 DUP5 MSTORE MLOAD DUP1 SWAP2 MSTORE PUSH1 0x40 DUP4 ADD SWAP2 SWAP1 PUSH0 JUMPDEST DUP2 DUP2 LT PUSH2 0xD47 JUMPI POP POP POP SUB SWAP1 RETURN JUMPDEST DUP3 MLOAD PUSH1 0x1 PUSH1 0x1 PUSH1 0xA0 SHL SUB AND DUP5 MSTORE DUP6 SWAP5 POP PUSH1 0x20 SWAP4 DUP5 ADD SWAP4 SWAP1 SWAP3 ADD SWAP2 PUSH1 0x1 ADD PUSH2 0xD39 JUMP JUMPDEST DUP3 SLOAD PUSH1 0x1 PUSH1 0x1 PUSH1 0xA0 SHL SUB AND DUP5 MSTORE PUSH1 0x20 SWAP1 SWAP4 ADD SWAP3 PUSH1 0x1 SWAP3 DUP4 ADD SWAP3 ADD PUSH2 0xD08 JUMP JUMPDEST PUSH1 0x20 CALLDATASIZE PUSH1 0x3 NOT ADD SLT PUSH2 0x462 JUMPI PUSH1 0x4 CALLDATALOAD ADDRESS CALLER SUB PUSH2 0x17A5 JUMPI PUSH1 0x1 PUSH32 0x126CCC9C13B1C6EA6090E51049CD401CF6411009B75480E3934F8663E5D7E1A6 SLOAD SUB PUSH2 0x1796 JUMPI PUSH2 0xDD0 DUP2 PUSH2 0x1AE2 JUMP JUMPDEST PUSH1 0x4 DUP2 ADD SWAP1 PUSH1 0x1 PUSH1 0x1 PUSH1 0xA0 SHL SUB DUP3 SLOAD AND ISZERO PUSH2 0x1787 JUMPI PUSH1 0x5 ADD SLOAD PUSH1 0xA0 SHR PUSH1 0xFF AND PUSH1 0x4 DUP2 LT ISZERO PUSH2 0x2E5 JUMPI PUSH1 0x3 EQ PUSH2 0x1778 JUMPI PUSH6 0x9184E72A000 CALLVALUE LT PUSH2 0x1769 JUMPI PUSH0 SWAP2 PUSH1 0x20 PUSH1 0x1 PUSH1 0x1 PUSH1 0xA0 SHL SUB PUSH32 0xF6B912F89C06D8AFD06B9FA8BD742C729F30156DA50B94481FADDBC9D0B4E9E3 SLOAD AND PUSH1 0x24 PUSH1 0x40 MLOAD DUP1 SWAP7 DUP2 SWAP4 PUSH4 0x35313C21 PUSH1 0xE1 SHL DUP4 MSTORE ADDRESS PUSH1 0x4 DUP5 ADD MSTORE GAS CALL SWAP3 DUP4 ISZERO PUSH2 0xC3D JUMPI PUSH0 SWAP4 PUSH2 0x1735 JUMPI JUMPDEST POP PUSH1 0x1 PUSH1 0x1 PUSH1 0xA0 SHL SUB PUSH32 0xF6B912F89C06D8AFD06B9FA8BD742C729F30156DA50B94481FADDBC9D0B4E9E5 SLOAD AND PUSH1 0x20 PUSH1 0x1 PUSH1 0x1 PUSH1 0xA0 SHL SUB PUSH32 0xF6B912F89C06D8AFD06B9FA8BD742C729F30156DA50B94481FADDBC9D0B4E9E4 SLOAD AND PUSH1 0xA4 PUSH1 0x1 PUSH1 0x1 PUSH1 0xA0 SHL SUB PUSH32 0xF6B912F89C06D8AFD06B9FA8BD742C729F30156DA50B94481FADDBC9D0B4E9E3 SLOAD AND SWAP2 PUSH0 PUSH1 0x40 MLOAD SWAP6 DUP7 SWAP5 DUP6 SWAP4 PUSH4 0x8A54C52F PUSH1 0xE0 SHL DUP6 MSTORE PUSH1 0x4 DUP6 ADD MSTORE DUP3 PUSH1 0x24 DUP6 ADD MSTORE CHAINID PUSH1 0x44 DUP6 ADD MSTORE PUSH1 0x64 DUP5 ADD MSTORE DUP10 PUSH1 0x84 DUP5 ADD MSTORE GAS CALL SWAP1 DUP2 ISZERO PUSH2 0xC3D JUMPI PUSH0 SWAP2 PUSH2 0x16F3 JUMPI JUMPDEST POP DUP4 SWAP1 DUP5 SWAP3 PUSH0 SWAP4 PUSH27 0x184F03E93FF9F4DAA797ED6E38ED64BF6A1F010000000000000000 DUP8 LT ISZERO PUSH2 0x16CB JUMPI JUMPDEST DUP1 PUSH14 0x4EE2D6D415B85ACEF8100000000 PUSH1 0xA SWAP3 LT ISZERO PUSH2 0x16B0 JUMPI JUMPDEST PUSH7 0x2386F26FC10000 DUP2 LT ISZERO PUSH2 0x169C JUMPI JUMPDEST PUSH4 0x5F5E100 DUP2 LT ISZERO PUSH2 0x168B JUMPI JUMPDEST PUSH2 0x2710 DUP2 LT ISZERO PUSH2 0x167C JUMPI JUMPDEST PUSH1 0x64 DUP2 LT ISZERO PUSH2 0x166E JUMPI JUMPDEST LT ISZERO PUSH2 0x1664 JUMPI JUMPDEST PUSH1 0x1 DUP5 ADD SWAP3 PUSH1 0xA PUSH1 0x21 PUSH2 0xFD3 PUSH2 0xFBD DUP8 PUSH2 0x1962 JUMP JUMPDEST SWAP7 PUSH2 0xFCB PUSH1 0x40 MLOAD SWAP9 DUP10 PUSH2 0x184B JUMP JUMPDEST DUP1 DUP9 MSTORE PUSH2 0x1962 JUMP JUMPDEST PUSH1 0x20 DUP8 ADD SWAP8 SWAP1 PUSH1 0x1F NOT ADD CALLDATASIZE DUP10 CALLDATACOPY DUP7 ADD ADD JUMPDEST PUSH0 NOT ADD SWAP2 PUSH32 0x3031323334353637383961626364656600000000000000000000000000000000 DUP3 DUP3 MOD BYTE DUP4 MSTORE8 DIV DUP1 ISZERO PUSH2 0x101F JUMPI PUSH1 0xA SWAP1 SWAP2 PUSH2 0xFE4 JUMP JUMPDEST POP POP PUSH2 0x108E PUSH1 0x25 PUSH1 0x40 MLOAD SWAP5 PUSH6 0x21B0B130B61 PUSH1 0xD5 SHL PUSH1 0x20 DUP8 ADD MSTORE PUSH2 0x105D PUSH1 0x26 DUP8 DUP4 MLOAD DUP1 DUP12 DUP5 DUP5 ADD MCOPY DUP2 ADD PUSH0 DUP4 DUP3 ADD MSTORE SUB ADD PUSH1 0x1F NOT DUP2 ADD DUP9 MSTORE DUP8 PUSH2 0x184B JUMP JUMPDEST PUSH1 0x40 MLOAD SWAP7 DUP8 SWAP2 PUSH5 0x10D0509053 PUSH1 0xDA SHL PUSH1 0x20 DUP5 ADD MSTORE MLOAD DUP1 SWAP2 DUP5 DUP5 ADD MCOPY DUP2 ADD PUSH0 DUP4 DUP3 ADD MSTORE SUB ADD PUSH1 0x1F NOT DUP2 ADD DUP7 MSTORE DUP6 PUSH2 0x184B JUMP JUMPDEST PUSH2 0x1097 DUP7 PUSH2 0x1AE2 JUMP JUMPDEST SWAP1 PUSH1 0x1 PUSH1 0x1 PUSH1 0xA0 SHL SUB DUP1 DUP8 SLOAD AND AND PUSH1 0x1 PUSH1 0x1 PUSH1 0xA0 SHL SUB NOT DUP4 SLOAD AND OR DUP3 SSTORE PUSH1 0x1 DUP3 ADD DUP5 MLOAD PUSH8 0xFFFFFFFFFFFFFFFF DUP2 GT PUSH2 0x1551 JUMPI PUSH2 0x10DD DUP2 PUSH2 0x10D7 DUP5 SLOAD PUSH2 0x186D JUMP JUMPDEST DUP5 PUSH2 0x18BB JUMP JUMPDEST DUP1 PUSH1 0x20 PUSH1 0x1F DUP3 GT PUSH1 0x1 EQ PUSH2 0x1603 JUMPI PUSH0 SWAP2 PUSH2 0x15F8 JUMPI JUMPDEST POP DUP2 PUSH1 0x1 SHL SWAP2 PUSH0 NOT SWAP1 PUSH1 0x3 SHL SHR NOT AND OR SWAP1 SSTORE JUMPDEST PUSH1 0x2 DUP3 ADD DUP6 MLOAD PUSH8 0xFFFFFFFFFFFFFFFF DUP2 GT PUSH2 0x1551 JUMPI PUSH2 0x1128 DUP2 PUSH2 0x10D7 DUP5 SLOAD PUSH2 0x186D JUMP JUMPDEST PUSH1 0x20 PUSH1 0x1F DUP3 GT PUSH1 0x1 EQ PUSH2 0x158F JUMPI SWAP2 DUP2 PUSH1 0x15 SWAP5 SWAP3 PUSH2 0x11BE SWAP5 PUSH0 SWAP2 PUSH2 0x1584 JUMPI JUMPDEST POP DUP2 PUSH1 0x1 SHL SWAP2 PUSH0 NOT SWAP1 PUSH1 0x3 SHL SHR NOT AND OR SWAP1 SSTORE JUMPDEST PUSH0 PUSH1 0x3 DUP6 ADD PUSH2 0x1168 DUP2 SLOAD PUSH2 0x186D JUMP JUMPDEST PUSH1 0x1F DUP2 GT PUSH2 0x1565 JUMPI JUMPDEST POP SSTORE PUSH1 0x4 DUP5 ADD DUP1 SLOAD PUSH20 0xFFFFFFFFFFFFFFFFFFFFFFFFFFFFFFFFFFFFFFFF NOT AND PUSH1 0x1 PUSH1 0x1 PUSH1 0xA0 SHL SUB DUP8 AND OR SWAP1 SSTORE PUSH1 0x5 DUP5 ADD DUP1 SLOAD PUSH1 0xFF PUSH1 0xA0 SHL NOT AND SWAP1 SSTORE TIMESTAMP PUSH1 0xF DUP6 ADD SSTORE PUSH1 0x14 DUP5 ADD DUP2 SWAP1 SSTORE PUSH2 0x1AE2 JUMP JUMPDEST ADD DUP1 SLOAD PUSH9 0x10000000000000000 DUP2 LT ISZERO PUSH2 0x1551 JUMPI PUSH2 0x11E6 DUP2 PUSH2 0x11FE SWAP4 PUSH1 0x1 DUP12 SWAP5 ADD DUP2 SSTORE PUSH2 0x190D JUMP JUMPDEST SWAP1 SWAP2 SWAP1 DUP3 SLOAD SWAP1 PUSH1 0x3 SHL SWAP2 DUP3 SHL SWAP2 PUSH0 NOT SWAP1 SHL NOT AND OR SWAP1 SSTORE JUMP JUMPDEST PUSH0 PUSH1 0x60 PUSH1 0x40 MLOAD PUSH2 0x120D DUP2 PUSH2 0x17DA JUMP JUMPDEST PUSH2 0xC4E0 DUP2 MSTORE PUSH2 0x3E8 PUSH1 0x20 DUP3 ADD MSTORE PUSH2 0x13EC PUSH1 0x40 DUP3 ADD MSTORE ADD MSTORE PUSH2 0xC4E0 PUSH1 0x9 DUP3 ADD SSTORE PUSH2 0x3E8 PUSH1 0xA DUP3 ADD SSTORE PUSH2 0x13EC PUSH1 0xB DUP3 ADD SSTORE PUSH0 PUSH1 0xC DUP3 ADD SSTORE PUSH1 0x1 DUP7 ADD DUP1 DUP8 GT PUSH2 0x2D1 JUMPI PUSH32 0xF6B912F89C06D8AFD06B9FA8BD742C729F30156DA50B94481FADDBC9D0B4E9E9 SSTORE PUSH32 0xF6B912F89C06D8AFD06B9FA8BD742C729F30156DA50B94481FADDBC9D0B4E9EA SLOAD PUSH9 0x10000000000000000 DUP2 LT ISZERO PUSH2 0x1551 JUMPI DUP7 PUSH2 0x11E6 DUP3 PUSH1 0x1 PUSH2 0x12F6 SWAP5 ADD PUSH32 0xF6B912F89C06D8AFD06B9FA8BD742C729F30156DA50B94481FADDBC9D0B4E9EA SSTORE PUSH32 0xF6B912F89C06D8AFD06B9FA8BD742C729F30156DA50B94481FADDBC9D0B4E9EA PUSH2 0x190D JUMP JUMPDEST PUSH2 0x130D PUSH1 0x1 PUSH1 0x1 PUSH1 0xA0 SHL SUB DUP7 SLOAD AND PUSH1 0x8 DUP4 ADD PUSH2 0x1922 JUMP JUMPDEST PUSH2 0x1322 CALLVALUE PUSH1 0x1 PUSH1 0x1 PUSH1 0xA0 SHL SUB DUP8 SLOAD AND DUP9 PUSH2 0x1B27 JUMP JUMPDEST PUSH1 0x6 CALLVALUE SWAP2 ADD SSTORE PUSH0 DUP1 DUP1 DUP1 CALLVALUE DUP6 GAS CALL PUSH2 0x1338 PUSH2 0x197E JUMP JUMPDEST POP ISZERO PUSH2 0x30D JUMPI PUSH2 0x138B DUP6 SWAP3 PUSH32 0x76313775C5C834F71F842309B410B354B07C7054A261364F1D8EE887CE52AB60 SWAP3 PUSH1 0x1 PUSH1 0x1 PUSH1 0xA0 SHL SUB DUP1 PUSH2 0x1399 SWAP9 SLOAD AND SWAP8 DUP9 SWAP8 PUSH1 0x40 MLOAD SWAP6 DUP7 SWAP6 PUSH1 0x60 DUP8 MSTORE PUSH1 0x60 DUP8 ADD SWAP1 PUSH2 0x19AD JUMP JUMPDEST SWAP1 DUP6 DUP3 SUB PUSH1 0x20 DUP8 ADD MSTORE PUSH2 0x19AD JUMP JUMPDEST SWAP2 AND PUSH1 0x40 DUP4 ADD MSTORE SUB SWAP1 LOG3 DUP1 DUP3 PUSH32 0xDCFA71EE125A676F843733D9D39DCE2C918ECF9E92F96DB4F24BDB5244ED68A0 PUSH1 0x40 DUP1 MLOAD CALLVALUE DUP2 MSTORE CALLVALUE PUSH1 0x20 DUP3 ADD MSTORE LOG3 PUSH1 0x40 MLOAD SWAP1 PUSH2 0x13E1 DUP3 PUSH2 0x17F6 JUMP JUMPDEST DUP3 DUP3 MSTORE PUSH1 0x20 DUP3 ADD SWAP1 DUP2 MSTORE PUSH1 0x40 DUP3 ADD PUSH0 DUP2 MSTORE PUSH1 0x60 DUP4 ADD CALLVALUE DUP2 MSTORE PUSH1 0x80 DUP5 ADD SWAP2 TIMESTAMP DUP4 MSTORE PUSH0 DUP1 MLOAD PUSH1 0x20 PUSH2 0x2FF2 DUP4 CODECOPY DUP2 MLOAD SWAP2 MSTORE SLOAD PUSH1 0xA DUP2 LT ISZERO PUSH2 0x2F9 JUMPI PUSH1 0x2 SHL SWAP5 MLOAD DUP6 PUSH32 0xE9A1DEE022580A06F80B398CB0F2690FB71E0B4CB2E78FB97D5795B2FC75E8AB ADD SSTORE PUSH1 0x1 PUSH1 0x1 PUSH1 0xA0 SHL SUB DUP1 PUSH32 0xE9A1DEE022580A06F80B398CB0F2690FB71E0B4CB2E78FB97D5795B2FC75E8AC DUP8 ADD SWAP6 MLOAD AND AND PUSH1 0x1 PUSH1 0x1 PUSH1 0xA0 SHL SUB NOT DUP6 SLOAD AND OR DUP5 SSTORE MLOAD SWAP3 PUSH1 0xF DUP5 LT ISZERO PUSH2 0x2E5 JUMPI PUSH32 0xE9A1DEE022580A06F80B398CB0F2690FB71E0B4CB2E78FB97D5795B2FC75E8AE SWAP4 DUP2 SLOAD SWAP1 PUSH1 0xFF PUSH1 0xA0 SHL SWAP1 PUSH1 0xA0 SHL AND SWAP1 PUSH1 0xFF PUSH1 0xA0 SHL NOT AND OR SWAP1 SSTORE MLOAD PUSH32 0xE9A1DEE022580A06F80B398CB0F2690FB71E0B4CB2E78FB97D5795B2FC75E8AD DUP5 ADD SSTORE MLOAD SWAP2 ADD SSTORE PUSH0 DUP1 MLOAD PUSH1 0x20 PUSH2 0x2FF2 DUP4 CODECOPY DUP2 MLOAD SWAP2 MSTORE SLOAD PUSH1 0x1 DUP2 ADD DUP1 SWAP2 GT PUSH2 0x2D1 JUMPI PUSH1 0xA SWAP1 MOD PUSH0 DUP1 MLOAD PUSH1 0x20 PUSH2 0x2FF2 DUP4 CODECOPY DUP2 MLOAD SWAP2 MSTORE SSTORE PUSH0 DUP1 MLOAD PUSH1 0x20 PUSH2 0x3012 DUP4 CODECOPY DUP2 MLOAD SWAP2 MSTORE SLOAD SWAP1 PUSH0 NOT DUP3 EQ PUSH2 0x2D1 JUMPI PUSH1 0x1 PUSH1 0x20 SWAP3 ADD PUSH0 DUP1 MLOAD PUSH1 0x20 PUSH2 0x3012 DUP4 CODECOPY DUP2 MLOAD SWAP2 MSTORE SSTORE PUSH1 0x40 MLOAD SWAP1 DUP2 MSTORE RETURN JUMPDEST PUSH4 0x4E487B71 PUSH1 0xE0 SHL PUSH0 MSTORE PUSH1 0x41 PUSH1 0x4 MSTORE PUSH1 0x24 PUSH0 REVERT JUMPDEST DUP2 DUP4 MSTORE PUSH1 0x20 DUP4 KECCAK256 PUSH2 0x157E SWAP2 PUSH1 0x1F ADD PUSH1 0x5 SHR DUP2 ADD SWAP1 PUSH2 0x18A5 JUMP JUMPDEST DUP12 PUSH2 0x1171 JUMP JUMPDEST SWAP1 POP DUP10 ADD MLOAD DUP13 PUSH2 0x1146 JUMP JUMPDEST PUSH1 0x1F NOT DUP3 AND SWAP1 DUP4 PUSH0 MSTORE DUP1 PUSH0 KECCAK256 SWAP2 PUSH0 JUMPDEST DUP11 DUP3 DUP3 LT PUSH2 0x15E0 JUMPI POP POP SWAP3 PUSH2 0x11BE SWAP5 SWAP3 PUSH1 0x1 SWAP3 DUP3 PUSH1 0x15 SWAP9 SWAP7 LT PUSH2 0x15C8 JUMPI JUMPDEST POP POP DUP2 SHL ADD SWAP1 SSTORE PUSH2 0x1159 JUMP JUMPDEST DUP12 ADD MLOAD PUSH0 NOT PUSH1 0xF8 DUP5 PUSH1 0x3 SHL AND SHR NOT AND SWAP1 SSTORE DUP13 DUP1 PUSH2 0x15BC JUMP JUMPDEST PUSH1 0x1 DUP5 SWAP6 PUSH1 0x20 SWAP4 SWAP6 DUP5 SWAP4 ADD MLOAD DUP2 SSTORE ADD SWAP5 ADD SWAP3 ADD PUSH2 0x159E JUMP JUMPDEST SWAP1 POP DUP7 ADD MLOAD DUP11 PUSH2 0x10F2 JUMP JUMPDEST PUSH0 DUP5 DUP2 MSTORE DUP2 DUP2 KECCAK256 SWAP3 POP PUSH1 0x1F NOT DUP5 AND SWAP1 JUMPDEST DUP2 DUP2 LT PUSH2 0x164C JUMPI POP SWAP1 DUP4 PUSH1 0x1 SWAP5 SWAP4 SWAP3 LT PUSH2 0x1634 JUMPI JUMPDEST POP POP DUP2 SHL ADD SWAP1 SSTORE PUSH2 0x1105 JUMP JUMPDEST DUP9 ADD MLOAD PUSH0 NOT PUSH1 0xF8 DUP5 PUSH1 0x3 SHL AND SHR NOT AND SWAP1 SSTORE DUP11 DUP1 PUSH2 0x1628 JUMP JUMPDEST SWAP2 SWAP3 PUSH1 0x20 PUSH1 0x1 DUP2 SWAP3 DUP7 DUP14 ADD MLOAD DUP2 SSTORE ADD SWAP5 ADD SWAP3 ADD PUSH2 0x1613 JUMP JUMPDEST SWAP3 PUSH1 0x1 ADD SWAP3 PUSH2 0xFA8 JUMP JUMPDEST PUSH1 0x64 PUSH1 0x2 SWAP2 DIV SWAP6 ADD SWAP5 PUSH2 0xFA1 JUMP JUMPDEST PUSH2 0x2710 PUSH1 0x4 SWAP2 DIV SWAP6 ADD SWAP5 PUSH2 0xF97 JUMP JUMPDEST PUSH4 0x5F5E100 PUSH1 0x8 SWAP2 DIV SWAP6 ADD SWAP5 PUSH2 0xF8C JUMP JUMPDEST PUSH7 0x2386F26FC10000 PUSH1 0x10 SWAP2 DIV SWAP6 ADD SWAP5 PUSH2 0xF7F JUMP JUMPDEST PUSH14 0x4EE2D6D415B85ACEF8100000000 PUSH1 0x20 SWAP2 DIV SWAP6 ADD SWAP5 PUSH2 0xF6F JUMP JUMPDEST POP PUSH1 0x40 SWAP4 POP PUSH27 0x184F03E93FF9F4DAA797ED6E38ED64BF6A1F010000000000000000 DUP7 DIV PUSH2 0xF55 JUMP JUMPDEST SWAP1 POP PUSH1 0x20 DUP2 RETURNDATASIZE PUSH1 0x20 GT PUSH2 0x172D JUMPI JUMPDEST DUP2 PUSH2 0x170E PUSH1 0x20 SWAP4 DUP4 PUSH2 0x184B JUMP JUMPDEST DUP2 ADD SUB SLT PUSH2 0x462 JUMPI MLOAD PUSH1 0x1 PUSH1 0x1 PUSH1 0xA0 SHL SUB DUP2 AND DUP2 SUB PUSH2 0x462 JUMPI DUP5 PUSH2 0xF2A JUMP JUMPDEST RETURNDATASIZE SWAP2 POP PUSH2 0x1701 JUMP JUMPDEST SWAP1 SWAP3 POP PUSH1 0x20 DUP2 RETURNDATASIZE PUSH1 0x20 GT PUSH2 0x1761 JUMPI JUMPDEST DUP2 PUSH2 0x1751 PUSH1 0x20 SWAP4 DUP4 PUSH2 0x184B JUMP JUMPDEST DUP2 ADD SUB SLT PUSH2 0x462 JUMPI MLOAD SWAP2 DUP4 PUSH2 0xE64 JUMP JUMPDEST RETURNDATASIZE SWAP2 POP PUSH2 0x1744 JUMP JUMPDEST PUSH4 0x535B747 PUSH1 0xE4 SHL PUSH0 MSTORE PUSH1 0x4 PUSH0 REVERT JUMPDEST PUSH4 0x1EF77B9F PUSH1 0xE2 SHL PUSH0 MSTORE PUSH1 0x4 PUSH0 REVERT JUMPDEST PUSH4 0x16C89017 PUSH1 0xE3 SHL PUSH0 MSTORE PUSH1 0x4 PUSH0 REVERT JUMPDEST PUSH4 0x3107BD1 PUSH1 0xE6 SHL PUSH0 MSTORE PUSH1 0x4 PUSH0 REVERT JUMPDEST PUSH4 0xC9C22F27 PUSH1 0xE0 SHL PUSH0 MSTORE PUSH1 0x4 PUSH0 REVERT JUMPDEST PUSH1 0x40 SWAP1 PUSH1 0x3 NOT ADD SLT PUSH2 0x462 JUMPI PUSH1 0x4 CALLDATALOAD SWAP1 PUSH1 0x24 CALLDATALOAD PUSH1 0x1 PUSH1 0x1 PUSH1 0xA0 SHL SUB DUP2 AND DUP2 SUB PUSH2 0x462 JUMPI SWAP1 JUMP JUMPDEST PUSH1 0x80 DUP2 ADD SWAP1 DUP2 LT PUSH8 0xFFFFFFFFFFFFFFFF DUP3 GT OR PUSH2 0x1551 JUMPI PUSH1 0x40 MSTORE JUMP JUMPDEST PUSH1 0xA0 DUP2 ADD SWAP1 DUP2 LT PUSH8 0xFFFFFFFFFFFFFFFF DUP3 GT OR PUSH2 0x1551 JUMPI PUSH1 0x40 MSTORE JUMP JUMPDEST PUSH2 0x100 DUP2 ADD SWAP1 DUP2 LT PUSH8 0xFFFFFFFFFFFFFFFF DUP3 GT OR PUSH2 0x1551 JUMPI PUSH1 0x40 MSTORE JUMP JUMPDEST PUSH1 0x40 DUP2 ADD SWAP1 DUP2 LT PUSH8 0xFFFFFFFFFFFFFFFF DUP3 GT OR PUSH2 0x1551 JUMPI PUSH1 0x40 MSTORE JUMP JUMPDEST SWAP1 PUSH1 0x1F DUP1 NOT SWAP2 ADD AND DUP2 ADD SWAP1 DUP2 LT PUSH8 0xFFFFFFFFFFFFFFFF DUP3 GT OR PUSH2 0x1551 JUMPI PUSH1 0x40 MSTORE JUMP JUMPDEST SWAP1 PUSH1 0x1 DUP3 DUP2 SHR SWAP3 AND DUP1 ISZERO PUSH2 0x189B JUMPI JUMPDEST PUSH1 0x20 DUP4 LT EQ PUSH2 0x1887 JUMPI JUMP JUMPDEST PUSH4 0x4E487B71 PUSH1 0xE0 SHL PUSH0 MSTORE PUSH1 0x22 PUSH1 0x4 MSTORE PUSH1 0x24 PUSH0 REVERT JUMPDEST SWAP2 PUSH1 0x7F AND SWAP2 PUSH2 0x187C JUMP JUMPDEST DUP2 DUP2 LT PUSH2 0x18B0 JUMPI POP POP JUMP JUMPDEST PUSH0 DUP2 SSTORE PUSH1 0x1 ADD PUSH2 0x18A5 JUMP JUMPDEST SWAP2 SWAP1 PUSH1 0x1F DUP2 GT PUSH2 0x18CA JUMPI POP POP POP JUMP JUMPDEST PUSH2 0x18F4 SWAP3 PUSH0 MSTORE PUSH1 0x20 PUSH0 KECCAK256 SWAP1 PUSH1 0x20 PUSH1 0x1F DUP5 ADD PUSH1 0x5 SHR DUP4 ADD SWAP4 LT PUSH2 0x18F6 JUMPI JUMPDEST PUSH1 0x1F ADD PUSH1 0x5 SHR ADD SWAP1 PUSH2 0x18A5 JUMP JUMPDEST JUMP JUMPDEST SWAP1 SWAP2 POP DUP2 SWAP1 PUSH2 0x18E7 JUMP JUMPDEST SWAP2 SWAP1 DUP3 ADD DUP1 SWAP3 GT PUSH2 0x2D1 JUMPI JUMP JUMPDEST DUP1 SLOAD DUP3 LT ISZERO PUSH2 0x2F9 JUMPI PUSH0 MSTORE PUSH1 0x20 PUSH0 KECCAK256 ADD SWAP1 PUSH0 SWAP1 JUMP JUMPDEST DUP1 SLOAD PUSH9 0x10000000000000000 DUP2 LT ISZERO PUSH2 0x1551 JUMPI PUSH2 0x1944 SWAP2 PUSH1 0x1 DUP3 ADD DUP2 SSTORE PUSH2 0x190D JUMP JUMPDEST PUSH1 0x1 PUSH1 0x1 PUSH1 0xA0 SHL SUB DUP1 DUP4 SWAP5 SWAP4 SLOAD SWAP3 PUSH1 0x3 SHL SWAP4 AND DUP4 SHL SWAP3 SHL NOT AND OR SWAP1 SSTORE JUMP JUMPDEST PUSH8 0xFFFFFFFFFFFFFFFF DUP2 GT PUSH2 0x1551 JUMPI PUSH1 0x1F ADD PUSH1 0x1F NOT AND PUSH1 0x20 ADD SWAP1 JUMP JUMPDEST RETURNDATASIZE ISZERO PUSH2 0x19A8 JUMPI RETURNDATASIZE SWAP1 PUSH2 0x198F DUP3 PUSH2 0x1962 JUMP JUMPDEST SWAP2 PUSH2 0x199D PUSH1 0x40 MLOAD SWAP4 DUP5 PUSH2 0x184B JUMP JUMPDEST DUP3 MSTORE RETURNDATASIZE PUSH0 PUSH1 0x20 DUP5 ADD RETURNDATACOPY JUMP JUMPDEST PUSH1 0x60 SWAP1 JUMP JUMPDEST DUP1 MLOAD DUP1 DUP4 MSTORE PUSH1 0x20 SWAP3 SWAP2 DUP2 SWAP1 DUP5 ADD DUP5 DUP5 ADD MCOPY PUSH0 DUP3 DUP3 ADD DUP5 ADD MSTORE PUSH1 0x1F ADD PUSH1 0x1F NOT AND ADD ADD SWAP1 JUMP JUMPDEST DUP2 DUP2 MUL SWAP3 SWAP2 DUP2 ISZERO SWAP2 DUP5 DIV EQ OR ISZERO PUSH2 0x2D1 JUMPI JUMP JUMPDEST DUP2 ISZERO PUSH2 0x19EE JUMPI DIV SWAP1 JUMP JUMPDEST PUSH4 0x4E487B71 PUSH1 0xE0 SHL PUSH0 MSTORE PUSH1 0x12 PUSH1 0x4 MSTORE PUSH1 0x24 PUSH0 REVERT JUMPDEST PUSH1 0x20 DUP2 DUP4 SUB SLT PUSH2 0x462 JUMPI DUP1 MLOAD SWAP1 PUSH8 0xFFFFFFFFFFFFFFFF DUP3 GT PUSH2 0x462 JUMPI ADD DUP2 PUSH1 0x1F DUP3 ADD SLT ISZERO PUSH2 0x462 JUMPI DUP1 MLOAD SWAP1 PUSH2 0x1A36 DUP3 PUSH2 0x1962 JUMP JUMPDEST SWAP3 PUSH2 0x1A44 PUSH1 0x40 MLOAD SWAP5 DUP6 PUSH2 0x184B JUMP JUMPDEST DUP3 DUP5 MSTORE PUSH1 0x20 DUP4 DUP4 ADD ADD GT PUSH2 0x462 JUMPI DUP2 PUSH0 SWAP3 PUSH1 0x20 DUP1 SWAP4 ADD DUP4 DUP7 ADD MCOPY DUP4 ADD ADD MSTORE SWAP1 JUMP JUMPDEST PUSH2 0x1A6E DUP2 PUSH2 0x1AE2 JUMP JUMPDEST SWAP2 PUSH1 0xFF PUSH1 0x5 DUP5 ADD SLOAD PUSH1 0xA0 SHR AND PUSH1 0x4 DUP2 LT ISZERO PUSH2 0x2E5 JUMPI PUSH1 0x1 SUB PUSH2 0x1ACE JUMPI PUSH2 0x1A94 DUP2 DUP4 PUSH2 0x2CE8 JUMP JUMPDEST PUSH2 0x1ACE JUMPI PUSH2 0x1AA1 SWAP2 PUSH2 0x2D4B JUMP JUMPDEST SWAP1 DUP2 ISZERO PUSH2 0x1AC8 JUMPI PUSH1 0x6 PUSH2 0x1ABC PUSH2 0x1AC5 SWAP4 PUSH1 0x7 DUP5 ADD SLOAD SWAP1 PUSH2 0x19D1 JUMP JUMPDEST SWAP2 ADD SLOAD SWAP1 PUSH2 0x19E4 JUMP JUMPDEST SWAP1 JUMP JUMPDEST POP POP PUSH0 SWAP1 JUMP JUMPDEST POP POP POP PUSH0 SWAP1 JUMP JUMPDEST SWAP2 SWAP1 DUP3 SUB SWAP2 DUP3 GT PUSH2 0x2D1 JUMPI JUMP JUMPDEST PUSH1 0x40 MLOAD PUSH1 0x20 DUP2 ADD SWAP2 PUSH32 0xC61520F0FC87F37C054C240FB12FA829A873C4A7F3A227D3CDAF38F732A45B0D DUP4 MSTORE PUSH1 0x40 DUP3 ADD MSTORE PUSH1 0x40 DUP2 MSTORE PUSH2 0x1B21 PUSH1 0x60 DUP3 PUSH2 0x184B JUMP JUMPDEST MLOAD SWAP1 KECCAK256 SWAP1 JUMP JUMPDEST SWAP1 PUSH1 0x40 MLOAD SWAP1 PUSH1 0x20 DUP3 ADD SWAP3 PUSH32 0xF9CB95D6BCD70B8F41DEB63F6A0973398A369F058485501AB1645D87CA423542 DUP5 MSTORE PUSH1 0x40 DUP4 ADD MSTORE PUSH12 0xFFFFFFFFFFFFFFFFFFFFFFFF NOT SWAP1 PUSH1 0x60 SHL AND PUSH1 0x60 DUP3 ADD MSTORE PUSH1 0x54 DUP2 MSTORE PUSH2 0x1B80 PUSH1 0x74 DUP3 PUSH2 0x184B JUMP JUMPDEST MLOAD SWAP1 KECCAK256 SSTORE JUMP JUMPDEST SWAP1 PUSH1 0xE0 MSTORE PUSH1 0x6 PUSH1 0xE0 MLOAD ADD DUP1 SLOAD PUSH2 0x120 MSTORE PUSH1 0x64 PUSH2 0x120 MLOAD MUL PUSH2 0x120 MLOAD DUP2 DIV PUSH1 0x64 EQ PUSH2 0x120 MLOAD ISZERO OR ISZERO PUSH2 0x2D1 JUMPI PUSH2 0x1BC2 PUSH2 0x2710 DUP3 DIV PUSH2 0x120 MLOAD PUSH2 0x1AD5 JUMP JUMPDEST SWAP2 PUSH2 0xCE4 DUP4 MUL DUP4 DUP2 DIV PUSH2 0xCE4 EQ DUP5 ISZERO OR ISZERO PUSH2 0x2D1 JUMPI PUSH2 0x1BE7 PUSH2 0x26AC PUSH0 SWAP3 DIV DUP1 SWAP6 PUSH2 0x1AD5 JUMP JUMPDEST SWAP2 DUP2 PUSH1 0x1 PUSH1 0x1 PUSH1 0xA0 SHL SUB PUSH1 0x4 PUSH2 0x1C1D PUSH32 0x940B07E82ACE5A9B6369AD035EDE2CEFB9EED2F364C533AE2A2A33C58F5CE58 SLOAD PUSH2 0x1AE2 JUMP JUMPDEST ADD SLOAD AND PUSH1 0x84 PUSH1 0x1 PUSH1 0x1 PUSH1 0xA0 SHL SUB PUSH1 0x4 PUSH1 0xE0 MLOAD ADD SLOAD AND SWAP2 PUSH1 0x40 MLOAD SWAP6 DUP7 SWAP4 DUP5 SWAP3 PUSH4 0x9E5D4C49 PUSH1 0xE0 SHL DUP5 MSTORE PUSH1 0x4 DUP5 ADD MSTORE PUSH2 0x2710 DUP11 DIV PUSH1 0x24 DUP5 ADD MSTORE PUSH1 0x60 PUSH1 0x44 DUP5 ADD MSTORE DUP2 PUSH1 0x64 DUP5 ADD MSTORE GAS CALL SWAP2 DUP3 ISZERO PUSH2 0xC3D JUMPI PUSH2 0x1C80 SWAP3 PUSH2 0x2C7E JUMPI JUMPDEST POP PUSH2 0x2710 DUP5 DIV SWAP1 SLOAD PUSH2 0x1AD5 JUMP JUMPDEST PUSH2 0xCE4 DUP2 MUL SWAP1 DUP1 DUP3 DIV PUSH2 0xCE4 EQ DUP2 ISZERO OR ISZERO PUSH2 0x2D1 JUMPI PUSH2 0x26AC PUSH2 0x1CA3 SWAP3 DIV SWAP1 PUSH2 0x1AD5 JUMP JUMPDEST PUSH1 0x1 PUSH1 0x1 PUSH1 0xA0 SHL SUB PUSH1 0x4 PUSH1 0xE0 MLOAD ADD SLOAD AND PUSH2 0x1CC1 PUSH1 0x1 PUSH1 0xE0 MLOAD ADD PUSH2 0x2E5D JUMP JUMPDEST SWAP2 PUSH2 0x1CD0 PUSH1 0x2 PUSH1 0xE0 MLOAD ADD PUSH2 0x2E5D JUMP JUMPDEST PUSH2 0x1CDE PUSH1 0x3 PUSH1 0xE0 MLOAD ADD PUSH2 0x2E5D JUMP JUMPDEST SWAP1 PUSH1 0x60 PUSH1 0x80 PUSH1 0x40 MLOAD PUSH2 0x1CEF DUP2 PUSH2 0x17F6 JUMP JUMPDEST PUSH1 0x40 MLOAD PUSH2 0x1CFB DUP2 PUSH2 0x1812 JUMP JUMPDEST PUSH0 DUP2 MSTORE DUP4 PUSH1 0x20 DUP3 ADD MSTORE DUP4 PUSH1 0x40 DUP3 ADD MSTORE PUSH0 DUP5 DUP3 ADD MSTORE DUP4 DUP4 DUP3 ADD MSTORE DUP4 PUSH1 0xA0 DUP3 ADD MSTORE DUP4 PUSH1 0xC0 DUP3 ADD MSTORE PUSH0 PUSH1 0xE0 DUP3 ADD MSTORE DUP2 MSTORE PUSH1 0x40 MLOAD PUSH2 0x1D34 DUP2 PUSH2 0x17F6 JUMP JUMPDEST PUSH0 DUP2 MSTORE PUSH0 PUSH1 0x20 DUP3 ADD MSTORE PUSH0 PUSH1 0x40 DUP3 ADD MSTORE PUSH0 DUP5 DUP3 ADD MSTORE DUP4 DUP4 DUP3 ADD MSTORE PUSH1 0x20 DUP3 ADD MSTORE PUSH1 0x40 MLOAD PUSH2 0x1D5E DUP2 PUSH2 0x1812 JUMP JUMPDEST PUSH0 DUP2 MSTORE DUP4 PUSH1 0x20 DUP3 ADD MSTORE DUP4 PUSH1 0x40 DUP3 ADD MSTORE DUP4 DUP1 DUP3 ADD MSTORE DUP4 DUP4 DUP3 ADD MSTORE DUP4 PUSH1 0xA0 DUP3 ADD MSTORE DUP4 PUSH1 0xC0 DUP3 ADD MSTORE DUP4 PUSH1 0xE0 DUP3 ADD MSTORE PUSH1 0x40 DUP3 ADD MSTORE PUSH1 0x40 MLOAD PUSH2 0x1D9A DUP2 PUSH2 0x182F JUMP JUMPDEST PUSH0 DUP2 MSTORE DUP4 PUSH1 0x20 DUP3 ADD MSTORE DUP4 DUP3 ADD MSTORE ADD MSTORE PUSH1 0x40 MLOAD SWAP5 PUSH2 0x1DB6 DUP7 PUSH2 0x1812 JUMP JUMPDEST DUP5 DUP7 MSTORE PUSH1 0x20 DUP7 ADD MSTORE PUSH1 0x40 DUP6 ADD MSTORE PUSH0 PUSH1 0x60 DUP6 ADD MSTORE PUSH1 0x80 DUP5 ADD MSTORE PUSH0 PUSH2 0x140 MSTORE PUSH1 0x20 PUSH2 0x140 MSTORE PUSH1 0x40 MLOAD PUSH2 0x1DE9 PUSH2 0x140 MLOAD DUP3 PUSH2 0x184B JUMP JUMPDEST PUSH0 DUP2 MSTORE PUSH1 0xA0 DUP5 ADD MSTORE PUSH1 0x40 PUSH2 0x100 DUP2 SWAP1 MSTORE DUP1 MLOAD SWAP1 PUSH2 0x1E06 SWAP1 DUP3 PUSH2 0x184B JUMP JUMPDEST PUSH1 0x15 DUP2 MSTORE PUSH32 0x7B22696E74657266616365223A22434142414C227D0000000000000000000000 PUSH2 0x140 MLOAD DUP3 ADD MSTORE PUSH1 0xC0 DUP5 ADD MSTORE CHAINID PUSH1 0xE0 DUP5 ADD MSTORE PUSH1 0x1 PUSH1 0x1 PUSH1 0xA0 SHL SUB PUSH32 0x7AC3A920B579A0B08C43B9E61F5A89FBB0532D6363AFFC3C4BF0A0F3F8F9AD94 SLOAD AND SWAP3 PUSH1 0x1 PUSH1 0x1 PUSH1 0xA0 SHL SUB PUSH32 0xF6B912F89C06D8AFD06B9FA8BD742C729F30156DA50B94481FADDBC9D0B4E9E8 SLOAD AND PUSH2 0x100 MLOAD MLOAD SWAP5 PUSH2 0x1EA3 DUP7 PUSH2 0x17F6 JUMP JUMPDEST DUP6 MSTORE PUSH2 0x140 MLOAD DUP6 ADD MSTORE PUSH2 0x100 DUP1 MLOAD PUSH3 0x383FF NOT SWAP1 DUP7 ADD MSTORE PUSH1 0xC8 PUSH1 0x60 DUP7 ADD MSTORE MLOAD MLOAD PUSH2 0x1ECF PUSH2 0x120 DUP3 PUSH2 0x184B JUMP JUMPDEST PUSH2 0x100 DUP2 MSTORE PUSH2 0x140 MLOAD PUSH2 0x140 MLOAD DUP3 ADD MSTORE PUSH0 PUSH2 0x100 MLOAD DUP3 ADD MSTORE PUSH1 0x60 DUP1 DUP3 ADD MSTORE PUSH1 0x80 DUP1 DUP3 ADD MSTORE PUSH0 PUSH1 0xA0 DUP3 ADD MSTORE PUSH2 0x100 MLOAD PUSH1 0xC0 DUP3 ADD MSTORE PUSH2 0x2710 PUSH1 0xE0 DUP3 ADD MSTORE PUSH2 0x2710 PUSH2 0x100 DUP3 ADD MSTORE PUSH1 0x80 DUP6 ADD MSTORE PUSH1 0x1 PUSH32 0x126CCC9C13B1C6EA6090E51049CD401CF6411009B75480E3934F8663E5D7E1A6 SLOAD EQ PUSH0 EQ PUSH2 0x2C70 JUMPI PUSH1 0x1 PUSH1 0x1 PUSH1 0xA0 SHL SUB DUP1 PUSH1 0x4 PUSH2 0x1F78 PUSH32 0x940B07E82ACE5A9B6369AD035EDE2CEFB9EED2F364C533AE2A2A33C58F5CE58 SLOAD PUSH2 0x1AE2 JUMP JUMPDEST ADD SLOAD AND JUMPDEST AND DUP4 DUP2 SUB PUSH2 0x2BD3 JUMPI POP PUSH2 0x100 MLOAD DUP1 MLOAD SWAP2 SWAP1 PUSH2 0x1F97 SWAP1 DUP4 PUSH2 0x184B JUMP JUMPDEST PUSH1 0x1 DUP3 MSTORE PUSH1 0x1F NOT PUSH2 0x100 MLOAD ADD SWAP2 DUP3 CALLDATASIZE PUSH2 0x140 MLOAD DUP4 ADD CALLDATACOPY DUP5 PUSH2 0x1FB7 DUP3 PUSH2 0x2FA4 JUMP JUMPDEST MSTORE PUSH2 0x100 MLOAD MLOAD PUSH2 0x1FCA PUSH2 0x100 MLOAD DUP3 PUSH2 0x184B JUMP JUMPDEST PUSH1 0x1 DUP2 MSTORE DUP4 CALLDATASIZE PUSH2 0x140 MLOAD DUP4 ADD CALLDATACOPY DUP6 PUSH2 0x1FE1 DUP3 PUSH2 0x2FA4 JUMP JUMPDEST MSTORE PUSH2 0x100 MLOAD MLOAD SWAP4 PUSH2 0x1FF5 PUSH2 0x100 MLOAD DUP7 PUSH2 0x184B JUMP JUMPDEST PUSH1 0x1 DUP6 MSTORE CALLDATASIZE PUSH2 0x140 MLOAD DUP7 ADD CALLDATACOPY PUSH2 0x2710 PUSH2 0x200D DUP6 PUSH2 0x2FA4 JUMP JUMPDEST MSTORE JUMPDEST PUSH2 0x100 MLOAD MLOAD PUSH1 0xC0 SWAP5 PUSH2 0x2021 DUP7 DUP4 PUSH2 0x184B JUMP JUMPDEST PUSH1 0x5 DUP3 MSTORE PUSH1 0xA0 CALLDATASIZE PUSH2 0x140 MLOAD DUP5 ADD CALLDATACOPY PUSH2 0x100 MLOAD MLOAD SWAP3 PUSH2 0x203F DUP8 DUP6 PUSH2 0x184B JUMP JUMPDEST PUSH1 0x5 DUP5 MSTORE PUSH1 0xA0 CALLDATASIZE PUSH2 0x140 MLOAD DUP7 ADD CALLDATACOPY PUSH2 0x100 MLOAD MLOAD SWAP5 PUSH2 0x205D DUP9 DUP8 PUSH2 0x184B JUMP JUMPDEST PUSH1 0x5 DUP7 MSTORE PUSH1 0xA0 CALLDATASIZE PUSH2 0x140 MLOAD DUP9 ADD CALLDATACOPY PUSH3 0x383FF NOT PUSH2 0x2079 DUP6 PUSH2 0x2FA4 JUMP JUMPDEST MSTORE PUSH3 0x343EF NOT PUSH2 0x2088 DUP7 PUSH2 0x2FA4 JUMP JUMPDEST MSTORE PUSH2 0x3E8 PUSH2 0x2095 DUP8 PUSH2 0x2FA4 JUMP JUMPDEST MSTORE PUSH3 0x343EF NOT PUSH2 0x20A4 DUP6 PUSH2 0x2FB1 JUMP JUMPDEST MSTORE PUSH3 0x25D77 NOT PUSH2 0x20B3 DUP7 PUSH2 0x2FB1 JUMP JUMPDEST MSTORE PUSH2 0x1388 PUSH2 0x20C0 DUP8 PUSH2 0x2FB1 JUMP JUMPDEST MSTORE PUSH3 0x3150F NOT PUSH2 0x20CF DUP6 PUSH2 0x2FC1 JUMP JUMPDEST MSTORE PUSH3 0x25D77 NOT PUSH2 0x20DE DUP7 PUSH2 0x2FC1 JUMP JUMPDEST MSTORE PUSH2 0x5DC PUSH2 0x20EB DUP8 PUSH2 0x2FC1 JUMP JUMPDEST MSTORE PUSH3 0x25D77 NOT PUSH2 0x20FA DUP6 PUSH2 0x2FD1 JUMP JUMPDEST MSTORE PUSH3 0x1D4BF NOT PUSH2 0x2109 DUP7 PUSH2 0x2FD1 JUMP JUMPDEST MSTORE PUSH2 0x7D0 PUSH2 0x2116 DUP8 PUSH2 0x2FD1 JUMP JUMPDEST MSTORE PUSH3 0x226C7 NOT PUSH2 0x2125 DUP6 PUSH2 0x2FE1 JUMP JUMPDEST MSTORE PUSH3 0x1D4BF NOT PUSH2 0x2134 DUP7 PUSH2 0x2FE1 JUMP JUMPDEST MSTORE PUSH2 0x1F4 PUSH2 0x2141 DUP8 PUSH2 0x2FE1 JUMP JUMPDEST MSTORE PUSH1 0x1 PUSH1 0x1 PUSH1 0xA0 SHL SUB PUSH32 0x7AC3A920B579A0B08C43B9E61F5A89FBB0532D6363AFFC3C4BF0A0F3F8F9AD95 SLOAD AND PUSH2 0x100 MLOAD MLOAD PUSH1 0xC0 MSTORE PUSH2 0x2180 PUSH1 0xC0 MLOAD PUSH2 0x1812 JUMP JUMPDEST PUSH1 0xC0 MLOAD MSTORE PUSH2 0x140 MLOAD PUSH1 0xC0 MLOAD ADD MSTORE PUSH2 0x100 MLOAD PUSH1 0xC0 MLOAD ADD MSTORE PUSH1 0x60 PUSH1 0xC0 MLOAD ADD MSTORE PUSH1 0x80 PUSH1 0xC0 MLOAD ADD MSTORE PUSH1 0xA0 PUSH1 0xC0 MLOAD ADD MSTORE DUP3 PUSH1 0xC0 MLOAD ADD MSTORE PUSH0 PUSH1 0xA0 MSTORE PUSH1 0xA0 DUP1 MSTORE PUSH2 0x100 MLOAD MLOAD PUSH2 0x21CA PUSH1 0xA0 MLOAD DUP3 PUSH2 0x184B JUMP JUMPDEST PUSH1 0x80 DUP2 MSTORE PUSH2 0x140 MLOAD PUSH2 0x140 MLOAD DUP3 ADD MSTORE PUSH2 0x140 MLOAD PUSH2 0x100 MLOAD DUP3 ADD MSTORE PUSH1 0x1 PUSH1 0x60 DUP3 ADD MSTORE PUSH1 0x1 PUSH1 0x80 DUP3 ADD MSTORE PUSH1 0xE0 PUSH1 0xC0 MLOAD ADD MSTORE PUSH1 0x1 PUSH1 0x1 PUSH1 0xA0 SHL SUB PUSH32 0x7AC3A920B579A0B08C43B9E61F5A89FBB0532D6363AFFC3C4BF0A0F3F8F9AD96 SLOAD AND SWAP2 PUSH2 0x100 MLOAD MLOAD SWAP3 PUSH2 0x2234 DUP5 PUSH2 0x182F JUMP JUMPDEST DUP4 MSTORE PUSH1 0x80 DUP1 DUP1 MSTORE PUSH2 0x100 MLOAD MLOAD SWAP1 PUSH2 0x224B SWAP1 DUP3 PUSH2 0x184B JUMP JUMPDEST PUSH1 0x60 DUP2 MSTORE PUSH3 0xA2C99 PUSH2 0x140 MLOAD DUP3 ADD MSTORE PUSH2 0xA2C9 PUSH2 0x100 MLOAD DUP3 ADD MSTORE PUSH1 0xF PUSH1 0x60 DUP3 ADD MSTORE PUSH2 0x140 MLOAD DUP5 ADD MSTORE DUP4 ISZERO ISZERO DUP1 PUSH2 0x2BA0 JUMPI JUMPDEST ISZERO PUSH2 0x2B33 JUMPI PUSH2 0x140 MLOAD PUSH2 0x100 MLOAD MLOAD SWAP2 SWAP1 PUSH1 0x20 ADD PUSH2 0x2298 DUP2 DUP5 PUSH2 0x184B JUMP JUMPDEST PUSH1 0x1 DUP4 MSTORE PUSH0 JUMPDEST PUSH1 0x1F NOT DUP3 ADD DUP2 LT PUSH2 0x2AF9 JUMPI POP POP PUSH2 0x100 MLOAD MLOAD SWAP1 DUP3 PUSH2 0x22BB DUP4 PUSH2 0x17F6 JUMP JUMPDEST PUSH0 DUP4 MSTORE PUSH0 PUSH2 0x140 MLOAD DUP5 ADD MSTORE PUSH0 PUSH2 0x100 MLOAD DUP5 ADD MSTORE PUSH0 PUSH1 0x60 DUP5 ADD MSTORE PUSH0 PUSH1 0x80 MLOAD DUP5 ADD MSTORE PUSH2 0x100 MLOAD MLOAD SWAP3 DUP4 PUSH1 0x60 DUP2 ADD LT PUSH8 0xFFFFFFFFFFFFFFFF PUSH1 0x60 DUP7 ADD GT OR PUSH2 0x1551 JUMPI PUSH2 0x26A1 SWAP5 DUP5 PUSH2 0x2401 SWAP3 PUSH1 0x60 PUSH2 0x2666 SWAP8 ADD PUSH2 0x100 MLOAD MSTORE DUP1 DUP3 MSTORE PUSH1 0x1 PUSH1 0x1 PUSH1 0xA0 SHL SUB PUSH2 0x140 MLOAD DUP4 ADD SWAP3 PUSH0 DUP5 MSTORE PUSH2 0x100 MLOAD ADD DUP14 DUP2 MSTORE PUSH16 0xFFFFFFFFFFFFFFFFFFFFFFFFFFFFFFFF DUP3 PUSH32 0x7AC3A920B579A0B08C43B9E61F5A89FBB0532D6363AFFC3C4BF0A0F3F8F9AD97 SLOAD AND SWAP5 DUP4 PUSH2 0x100 MLOAD MLOAD SWAP6 DUP2 DUP2 MLOAD AND PUSH2 0x140 MLOAD DUP9 ADD MSTORE DUP2 PUSH2 0x140 MLOAD DUP3 ADD MLOAD AND PUSH2 0x100 MLOAD DUP9 ADD MSTORE PUSH3 0xFFFFFF PUSH2 0x100 MLOAD DUP3 ADD MLOAD AND PUSH1 0x60 DUP9 ADD MSTORE PUSH1 0x60 DUP2 ADD MLOAD PUSH1 0x2 SIGNEXTEND PUSH1 0x80 MLOAD DUP9 ADD MSTORE PUSH1 0x80 MLOAD ADD MLOAD AND PUSH1 0xA0 MLOAD DUP7 ADD MSTORE MLOAD AND DUP9 DUP5 ADD MSTORE MLOAD AND PUSH1 0xE0 DUP3 ADD MSTORE PUSH1 0xE0 DUP2 MSTORE PUSH2 0x23CC PUSH2 0x100 DUP3 PUSH2 0x184B JUMP JUMPDEST PUSH2 0x100 MLOAD MLOAD SWAP2 PUSH2 0x23DB DUP4 PUSH2 0x17DA JUMP JUMPDEST DUP3 MSTORE DUP11 PUSH2 0x140 MLOAD DUP4 ADD MSTORE PUSH0 PUSH2 0x100 MLOAD DUP4 ADD MSTORE PUSH1 0x60 DUP3 ADD MSTORE PUSH2 0x23FB DUP3 PUSH2 0x2FA4 JUMP JUMPDEST MSTORE PUSH2 0x2FA4 JUMP JUMPDEST POP JUMPDEST PUSH2 0x100 MLOAD MLOAD SWAP5 PUSH2 0x2412 DUP7 PUSH2 0x17F6 JUMP JUMPDEST DUP6 MSTORE PUSH2 0x140 MLOAD DUP6 ADD SWAP9 DUP10 MSTORE PUSH2 0x100 MLOAD DUP6 ADD SWAP6 PUSH1 0xC0 MLOAD DUP8 MSTORE PUSH1 0x60 DUP7 ADD MSTORE PUSH1 0x80 MLOAD DUP6 ADD MSTORE PUSH1 0x1 PUSH1 0x1 PUSH1 0xA0 SHL SUB PUSH32 0xF6B912F89C06D8AFD06B9FA8BD742C729F30156DA50B94481FADDBC9D0B4E9E6 SLOAD AND SWAP5 PUSH1 0xE0 PUSH2 0x2655 PUSH2 0x25AC PUSH2 0x100 MLOAD MLOAD SWAP12 PUSH4 0x6FA01125 PUSH1 0xE1 SHL DUP14 PUSH2 0x140 MLOAD ADD MSTORE DUP13 PUSH1 0x24 PUSH2 0x140 MLOAD SWAP2 ADD MSTORE DUP9 MLOAD SWAP1 DUP14 PUSH1 0x44 PUSH1 0xA0 MLOAD SWAP2 ADD MSTORE DUP14 PUSH1 0xE4 PUSH1 0x1 PUSH1 0x1 PUSH1 0xA0 SHL SUB DUP5 MLOAD AND SWAP2 ADD MSTORE DUP14 PUSH2 0x1C4 DUP7 PUSH2 0x253D PUSH2 0x2527 PUSH2 0x250F PUSH2 0x24EC PUSH2 0x24D3 PUSH2 0x140 MLOAD DUP11 ADD MLOAD PUSH2 0x100 PUSH2 0x104 DUP11 ADD MSTORE PUSH2 0x1E4 DUP10 ADD SWAP1 PUSH2 0x19AD JUMP JUMPDEST PUSH2 0x100 MLOAD DUP11 ADD MLOAD DUP9 DUP3 SUB PUSH1 0xE3 NOT ADD PUSH2 0x124 DUP11 ADD MSTORE PUSH2 0x19AD JUMP JUMPDEST PUSH1 0x60 DUP10 ADD MLOAD PUSH2 0x144 DUP9 ADD MSTORE PUSH1 0x80 MLOAD DUP10 ADD MLOAD DUP8 DUP3 SUB PUSH1 0xE3 NOT ADD PUSH2 0x164 DUP10 ADD MSTORE PUSH2 0x19AD JUMP JUMPDEST PUSH1 0xA0 MLOAD DUP9 ADD MLOAD DUP7 DUP3 SUB PUSH1 0xE3 NOT ADD PUSH2 0x184 DUP9 ADD MSTORE PUSH2 0x19AD JUMP JUMPDEST DUP7 DUP13 ADD MLOAD DUP6 DUP3 SUB PUSH1 0xE3 NOT ADD PUSH2 0x1A4 DUP8 ADD MSTORE PUSH2 0x19AD JUMP JUMPDEST SWAP5 ADD MLOAD SWAP2 ADD MSTORE MLOAD DUP14 PUSH1 0x64 PUSH1 0x43 NOT DUP3 DUP6 SUB ADD SWAP2 ADD MSTORE PUSH1 0x1 PUSH1 0x1 PUSH1 0xA0 SHL SUB DUP2 MLOAD AND DUP3 MSTORE PUSH1 0x1 PUSH1 0x1 PUSH1 0xA0 SHL SUB PUSH2 0x140 MLOAD DUP3 ADD MLOAD AND PUSH2 0x140 MLOAD DUP4 ADD MSTORE PUSH2 0x100 MLOAD DUP2 ADD MLOAD PUSH1 0x2 SIGNEXTEND PUSH2 0x100 MLOAD DUP4 ADD MSTORE PUSH1 0x60 DUP2 ADD MLOAD PUSH1 0x2 SIGNEXTEND PUSH1 0x60 DUP4 ADD MSTORE PUSH1 0x80 MLOAD ADD MLOAD SWAP1 PUSH1 0xA0 MLOAD PUSH1 0x80 MLOAD DUP3 ADD MSTORE PUSH1 0xA0 MLOAD ADD SWAP1 PUSH2 0x19AD JUMP JUMPDEST SWAP3 MLOAD SWAP4 PUSH1 0x43 NOT DUP13 DUP6 SUB ADD PUSH1 0x84 DUP14 ADD MSTORE PUSH1 0x1 PUSH1 0x1 PUSH1 0xA0 SHL SUB DUP6 MLOAD AND DUP5 MSTORE PUSH2 0x2643 PUSH2 0x262F PUSH2 0x261B PUSH2 0x2609 PUSH2 0x25F3 PUSH2 0x140 MLOAD DUP11 ADD MLOAD PUSH2 0x100 PUSH2 0x140 MLOAD DUP12 ADD MSTORE PUSH2 0x100 DUP11 ADD SWAP1 PUSH2 0x2EFB JUMP JUMPDEST PUSH2 0x100 MLOAD DUP11 ADD MLOAD DUP10 DUP3 SUB PUSH2 0x100 MLOAD DUP12 ADD MSTORE PUSH2 0x2EFB JUMP JUMPDEST PUSH1 0x60 DUP10 ADD MLOAD DUP9 DUP3 SUB PUSH1 0x60 DUP11 ADD MSTORE PUSH2 0x2F37 JUMP JUMPDEST PUSH1 0x80 MLOAD DUP9 ADD MLOAD DUP8 DUP3 SUB PUSH1 0x80 MLOAD DUP10 ADD MSTORE PUSH2 0x2F6E JUMP JUMPDEST PUSH1 0xA0 MLOAD DUP8 ADD MLOAD DUP7 DUP3 SUB PUSH1 0xA0 MLOAD DUP9 ADD MSTORE PUSH2 0x2F6E JUMP JUMPDEST SWAP1 DUP1 DUP7 ADD MLOAD SWAP1 DUP6 DUP4 SUB SWAP1 DUP7 ADD MSTORE PUSH2 0x2F37 JUMP JUMPDEST SWAP3 ADD MLOAD SWAP1 PUSH1 0xE0 DUP2 DUP5 SUB SWAP2 ADD MSTORE PUSH2 0x19AD JUMP JUMPDEST PUSH1 0x60 DUP4 ADD MLOAD PUSH1 0x43 NOT DUP9 DUP4 SUB ADD PUSH1 0xA4 DUP10 ADD MSTORE PUSH1 0x1 PUSH1 0x1 PUSH1 0xA0 SHL SUB DUP2 MLOAD AND DUP3 MSTORE PUSH2 0x140 MLOAD ADD MLOAD SWAP1 PUSH2 0x100 MLOAD PUSH2 0x140 MLOAD DUP3 ADD MSTORE PUSH2 0x100 MLOAD ADD SWAP1 PUSH2 0x19AD JUMP JUMPDEST PUSH1 0x80 MLOAD SWAP1 SWAP2 ADD MLOAD DUP6 DUP3 SUB PUSH1 0x43 NOT ADD PUSH1 0xC4 DUP8 ADD MSTORE DUP1 MLOAD DUP1 DUP4 MSTORE PUSH2 0x140 MLOAD PUSH1 0x5 DUP3 SWAP1 SHL DUP5 ADD DUP2 ADD SWAP4 SWAP3 DUP2 ADD SWAP3 PUSH0 SWAP2 DUP2 ADD SWAP1 JUMPDEST DUP4 DUP4 LT PUSH2 0x2A88 JUMPI POP POP POP POP POP SWAP2 PUSH0 DUP1 SWAP5 SWAP3 PUSH2 0x26F9 DUP8 PUSH2 0x272A SWAP9 SWAP7 SUB PUSH1 0x1F NOT DUP2 ADD DUP8 MSTORE DUP7 PUSH2 0x184B JUMP JUMPDEST PUSH2 0x100 MLOAD MLOAD SWAP7 DUP8 SWAP6 DUP7 SWAP5 DUP6 SWAP4 PUSH4 0x9E5D4C49 PUSH1 0xE0 SHL DUP6 MSTORE PUSH1 0x4 DUP6 ADD MSTORE PUSH1 0x24 DUP5 ADD MSTORE PUSH1 0x60 PUSH1 0x44 DUP5 ADD MSTORE PUSH1 0x64 DUP4 ADD SWAP1 PUSH2 0x19AD JUMP JUMPDEST SUB SWAP3 GAS CALL SWAP1 DUP2 ISZERO PUSH2 0x2A52 JUMPI PUSH0 SWAP2 PUSH2 0x2A6E JUMPI JUMPDEST POP PUSH2 0x140 MLOAD DUP2 MLOAD LT PUSH2 0x2A5F JUMPI PUSH2 0x140 MLOAD DUP2 DUP1 MLOAD DUP2 ADD SUB SLT PUSH2 0x462 JUMPI PUSH2 0x140 MLOAD ADD MLOAD SWAP1 PUSH1 0x1 PUSH1 0x1 PUSH1 0xA0 SHL SUB DUP3 AND DUP1 SWAP3 SUB PUSH2 0x462 JUMPI PUSH1 0x1 PUSH1 0x1 PUSH1 0xA0 SHL SUB PUSH1 0x4 PUSH1 0xE0 MLOAD ADD SLOAD AND SWAP4 PUSH2 0x100 MLOAD MLOAD SWAP5 PUSH4 0x70A08231 PUSH1 0xE0 SHL DUP7 MSTORE PUSH1 0x4 DUP7 ADD MSTORE PUSH2 0x140 MLOAD DUP6 PUSH1 0x24 DUP2 DUP7 GAS STATICCALL SWAP5 DUP6 ISZERO PUSH2 0x2A52 JUMPI PUSH0 SWAP6 PUSH2 0x2A19 JUMPI JUMPDEST POP PUSH2 0x1388 DUP6 MUL DUP6 DUP2 DIV PUSH2 0x1388 EQ DUP7 ISZERO OR ISZERO PUSH2 0x2D1 JUMPI PUSH32 0x8B33E5D3F2111DBE0069093632772B6795DFDAA7282CB1D39582C0CA4127EDBB PUSH32 0x9990228011B491290CDF9E698B471337D5C98A9CC561021BA3BBF72B5A75D27C SWAP6 PUSH2 0x2817 DUP10 SWAP9 PUSH2 0x2710 DUP11 SWAP6 DIV SWAP1 PUSH2 0x1AD5 JUMP JUMPDEST PUSH1 0xE0 MLOAD PUSH1 0x5 DUP2 ADD DUP1 SLOAD PUSH1 0x7 DUP4 ADD DUP5 SWAP1 SSTORE PUSH1 0xE DUP4 ADD SWAP4 SWAP1 SWAP4 SSTORE PUSH21 0xFFFFFFFFFFFFFFFFFFFFFFFFFFFFFFFFFFFFFFFFFF NOT SWAP1 SWAP3 AND PUSH1 0x1 PUSH1 0x1 PUSH1 0xA0 SHL SUB DUP10 AND OR PUSH1 0x1 PUSH1 0xA0 SHL OR SWAP1 SWAP2 SSTORE TIMESTAMP PUSH1 0x10 SWAP1 SWAP2 ADD SSTORE PUSH2 0x100 MLOAD MLOAD PUSH2 0x2710 SWAP1 SWAP2 DIV DUP2 MSTORE PUSH2 0x140 MLOAD SWAP1 LOG2 PUSH2 0x100 MLOAD MLOAD SWAP3 DUP4 MSTORE PUSH2 0x120 MLOAD PUSH2 0x140 MLOAD DUP5 ADD MSTORE PUSH2 0x100 MLOAD DUP4 ADD MSTORE PUSH1 0x60 DUP3 ADD MSTORE PUSH1 0x80 MLOAD SWAP1 LOG2 PUSH2 0x100 MLOAD MLOAD SWAP1 PUSH2 0x28AA DUP3 PUSH2 0x17F6 JUMP JUMPDEST DUP2 MSTORE PUSH2 0x140 MLOAD DUP2 ADD CALLER DUP2 MSTORE PUSH2 0x100 MLOAD DUP3 ADD PUSH1 0x3 DUP2 MSTORE PUSH1 0x60 DUP4 ADD PUSH2 0x120 MLOAD DUP2 MSTORE PUSH1 0x80 MLOAD DUP5 ADD SWAP2 TIMESTAMP DUP4 MSTORE PUSH0 DUP1 MLOAD PUSH1 0x20 PUSH2 0x2FF2 DUP4 CODECOPY DUP2 MLOAD SWAP2 MSTORE SLOAD PUSH1 0xA DUP2 LT ISZERO PUSH2 0x2F9 JUMPI PUSH1 0x2 SHL SWAP5 MLOAD DUP6 PUSH32 0xE9A1DEE022580A06F80B398CB0F2690FB71E0B4CB2E78FB97D5795B2FC75E8AB ADD SSTORE PUSH1 0x1 PUSH1 0x1 PUSH1 0xA0 SHL SUB DUP1 PUSH32 0xE9A1DEE022580A06F80B398CB0F2690FB71E0B4CB2E78FB97D5795B2FC75E8AC DUP8 ADD SWAP6 MLOAD AND AND PUSH1 0x1 PUSH1 0x1 PUSH1 0xA0 SHL SUB NOT DUP6 SLOAD AND OR DUP5 SSTORE MLOAD SWAP3 PUSH1 0xF DUP5 LT ISZERO PUSH2 0x2E5 JUMPI PUSH32 0xE9A1DEE022580A06F80B398CB0F2690FB71E0B4CB2E78FB97D5795B2FC75E8AE SWAP4 DUP2 SLOAD SWAP1 PUSH1 0xFF PUSH1 0xA0 SHL SWAP1 PUSH1 0xA0 MLOAD SHL AND SWAP1 PUSH1 0xFF PUSH1 0xA0 SHL NOT AND OR SWAP1 SSTORE MLOAD PUSH32 0xE9A1DEE022580A06F80B398CB0F2690FB71E0B4CB2E78FB97D5795B2FC75E8AD DUP5 ADD SSTORE MLOAD SWAP2 ADD SSTORE PUSH0 DUP1 MLOAD PUSH1 0x20 PUSH2 0x2FF2 DUP4 CODECOPY DUP2 MLOAD SWAP2 MSTORE SLOAD PUSH1 0x1 DUP2 ADD DUP1 SWAP2 GT PUSH2 0x2D1 JUMPI PUSH1 0xA SWAP1 MOD PUSH0 DUP1 MLOAD PUSH1 0x20 PUSH2 0x2FF2 DUP4 CODECOPY DUP2 MLOAD SWAP2 MSTORE SSTORE PUSH0 DUP1 MLOAD PUSH1 0x20 PUSH2 0x3012 DUP4 CODECOPY DUP2 MLOAD SWAP2 MSTORE SLOAD PUSH0 NOT DUP2 EQ PUSH2 0x2D1 JUMPI PUSH1 0x1 ADD PUSH0 DUP1 MLOAD PUSH1 0x20 PUSH2 0x3012 DUP4 CODECOPY DUP2 MLOAD SWAP2 MSTORE SSTORE JUMP JUMPDEST SWAP1 SWAP5 POP PUSH2 0x140 MLOAD RETURNDATASIZE PUSH2 0x140 MLOAD GT PUSH2 0x2A4B JUMPI JUMPDEST PUSH2 0x2A35 DUP2 DUP4 PUSH2 0x184B JUMP JUMPDEST DUP2 PUSH2 0x140 MLOAD SWAP2 DUP2 ADD SUB SLT PUSH2 0x462 JUMPI MLOAD SWAP4 PUSH0 PUSH2 0x27AE JUMP JUMPDEST POP RETURNDATASIZE PUSH2 0x2A2B JUMP JUMPDEST PUSH2 0x100 MLOAD MLOAD RETURNDATASIZE PUSH0 DUP3 RETURNDATACOPY RETURNDATASIZE SWAP1 REVERT JUMPDEST PUSH4 0x30116425 PUSH1 0xE0 SHL PUSH0 MSTORE PUSH1 0x4 PUSH0 REVERT JUMPDEST PUSH2 0x2A82 SWAP2 POP RETURNDATASIZE DUP1 PUSH0 DUP4 RETURNDATACOPY PUSH2 0xC30 DUP2 DUP4 PUSH2 0x184B JUMP JUMPDEST PUSH0 PUSH2 0x273C JUMP JUMPDEST SWAP1 SWAP2 SWAP3 SWAP4 SWAP5 PUSH2 0x2AE2 PUSH1 0x1 SWAP2 PUSH1 0x1F NOT DUP5 DUP3 SUB ADD DUP6 MSTORE PUSH1 0x60 DUP9 MLOAD PUSH1 0x1 PUSH1 0x1 PUSH1 0xA0 SHL SUB DUP2 MLOAD AND DUP4 MSTORE PUSH2 0x140 MLOAD DUP2 ADD MLOAD PUSH2 0x140 MLOAD DUP5 ADD MSTORE PUSH2 0xFFFF PUSH2 0x100 MLOAD DUP3 ADD MLOAD AND PUSH2 0x100 MLOAD DUP5 ADD MSTORE ADD MLOAD SWAP1 PUSH1 0x80 MLOAD PUSH1 0x60 DUP3 ADD MSTORE PUSH1 0x80 MLOAD ADD SWAP1 PUSH2 0x19AD JUMP JUMPDEST SWAP6 PUSH2 0x140 MLOAD ADD SWAP3 PUSH2 0x140 MLOAD ADD SWAP4 ADD SWAP2 SWAP4 SWAP3 SWAP1 PUSH2 0x26D1 JUMP JUMPDEST PUSH2 0x100 MLOAD MLOAD PUSH2 0x2B07 DUP2 PUSH2 0x17DA JUMP JUMPDEST PUSH0 DUP2 MSTORE PUSH0 PUSH2 0x140 MLOAD DUP3 ADD MSTORE PUSH0 PUSH2 0x100 MLOAD DUP3 ADD MSTORE PUSH1 0x60 DUP1 DUP3 ADD MSTORE PUSH2 0x140 MLOAD DUP3 DUP7 ADD ADD MSTORE PUSH2 0x140 MLOAD ADD PUSH2 0x229E JUMP JUMPDEST PUSH2 0x140 MLOAD PUSH2 0x100 MLOAD MLOAD SWAP1 PUSH2 0x2B47 DUP2 DUP4 PUSH2 0x184B JUMP JUMPDEST PUSH0 DUP3 MSTORE PUSH0 JUMPDEST PUSH1 0x1F NOT DUP3 ADD DUP2 LT PUSH2 0x2B66 JUMPI POP POP PUSH2 0x26A1 SWAP2 PUSH2 0x2666 SWAP2 PUSH2 0x2403 JUMP JUMPDEST PUSH2 0x100 MLOAD MLOAD PUSH2 0x2B74 DUP2 PUSH2 0x17DA JUMP JUMPDEST PUSH0 DUP2 MSTORE PUSH0 PUSH2 0x140 MLOAD DUP3 ADD MSTORE PUSH0 PUSH2 0x100 MLOAD DUP3 ADD MSTORE PUSH1 0x60 DUP1 DUP3 ADD MSTORE PUSH2 0x140 MLOAD DUP3 DUP6 ADD ADD MSTORE PUSH2 0x140 MLOAD ADD PUSH2 0x2B4C JUMP JUMPDEST POP PUSH1 0x1 PUSH1 0x1 PUSH1 0xA0 SHL SUB PUSH32 0x7AC3A920B579A0B08C43B9E61F5A89FBB0532D6363AFFC3C4BF0A0F3F8F9AD97 SLOAD AND ISZERO ISZERO PUSH2 0x227B JUMP JUMPDEST SWAP1 PUSH2 0x100 MLOAD MLOAD PUSH2 0x2BE4 PUSH1 0x60 DUP3 PUSH2 0x184B JUMP JUMPDEST PUSH1 0x2 DUP2 MSTORE PUSH1 0x1F NOT PUSH1 0x60 ADD SWAP3 DUP4 CALLDATASIZE PUSH2 0x140 MLOAD DUP5 ADD CALLDATACOPY DUP1 PUSH2 0x2C0D DUP4 DUP9 PUSH2 0x2C07 DUP3 PUSH2 0x2FA4 JUMP JUMPDEST MSTORE PUSH2 0x2FB1 JUMP JUMPDEST MSTORE PUSH2 0x100 MLOAD MLOAD SWAP1 PUSH2 0x2C1F PUSH1 0x60 DUP4 PUSH2 0x184B JUMP JUMPDEST PUSH1 0x2 DUP3 MSTORE DUP5 CALLDATASIZE PUSH2 0x140 MLOAD DUP5 ADD CALLDATACOPY PUSH2 0x2C3A DUP3 DUP9 PUSH2 0x2C07 DUP3 PUSH2 0x2FA4 JUMP JUMPDEST MSTORE PUSH2 0x100 MLOAD MLOAD SWAP4 PUSH2 0x2C4C PUSH1 0x60 DUP7 PUSH2 0x184B JUMP JUMPDEST PUSH1 0x2 DUP6 MSTORE CALLDATASIZE PUSH2 0x140 MLOAD DUP7 ADD CALLDATACOPY PUSH1 0x64 PUSH2 0x2C6A DUP6 PUSH2 0x26AC PUSH2 0x2C07 DUP3 PUSH2 0x2FA4 JUMP JUMPDEST MSTORE PUSH2 0x200F JUMP JUMPDEST PUSH1 0x1 PUSH1 0x1 PUSH1 0xA0 SHL SUB DUP4 PUSH2 0x1F7C JUMP JUMPDEST PUSH2 0x2C91 SWAP1 RETURNDATASIZE DUP1 PUSH0 DUP4 RETURNDATACOPY PUSH2 0xC30 DUP2 DUP4 PUSH2 0x184B JUMP JUMPDEST PUSH2 0x1C73 JUMP JUMPDEST SWAP1 PUSH1 0xFF PUSH1 0x5 DUP3 ADD SLOAD PUSH1 0xA0 SHR AND PUSH1 0x4 DUP2 LT ISZERO PUSH2 0x2E5 JUMPI PUSH2 0x2CE4 JUMPI PUSH1 0x13 DUP2 ADD SLOAD DUP1 ISZERO PUSH2 0x2CD5 JUMPI PUSH2 0x708 DUP2 ADD DUP1 SWAP2 GT PUSH2 0x2D1 JUMPI TIMESTAMP LT PUSH2 0xCB2 JUMPI PUSH2 0x18F4 SWAP2 PUSH2 0x1B86 JUMP JUMPDEST PUSH4 0x7DAB7B3 PUSH1 0xE3 SHL PUSH0 MSTORE PUSH1 0x4 PUSH0 REVERT JUMPDEST POP POP JUMP JUMPDEST PUSH1 0x1 SWAP2 PUSH1 0x40 MLOAD SWAP1 PUSH1 0x20 DUP3 ADD SWAP3 PUSH32 0xFA7666F901D98D7DDB6DCA66654A4B44590F640F4803ECFA6CDCB1BCF243032B DUP5 MSTORE PUSH1 0x40 DUP4 ADD MSTORE PUSH12 0xFFFFFFFFFFFFFFFFFFFFFFFF NOT SWAP1 PUSH1 0x60 SHL AND PUSH1 0x60 DUP3 ADD MSTORE PUSH1 0x54 DUP2 MSTORE PUSH2 0x2D43 PUSH1 0x74 DUP3 PUSH2 0x184B JUMP JUMPDEST MLOAD SWAP1 KECCAK256 SLOAD EQ SWAP1 JUMP JUMPDEST SWAP1 PUSH1 0x40 MLOAD SWAP1 PUSH1 0x20 DUP3 ADD SWAP3 PUSH32 0xF9CB95D6BCD70B8F41DEB63F6A0973398A369F058485501AB1645D87CA423542 DUP5 MSTORE PUSH1 0x40 DUP4 ADD MSTORE PUSH12 0xFFFFFFFFFFFFFFFFFFFFFFFF NOT SWAP1 PUSH1 0x60 SHL AND PUSH1 0x60 DUP3 ADD MSTORE PUSH1 0x54 DUP2 MSTORE PUSH2 0x2DA4 PUSH1 0x74 DUP3 PUSH2 0x184B JUMP JUMPDEST MLOAD SWAP1 KECCAK256 SLOAD SWAP1 JUMP JUMPDEST SWAP1 PUSH1 0x40 MLOAD SWAP1 PUSH1 0x20 DUP3 ADD SWAP3 PUSH32 0x18DB0B0EE3D652655D8C5597BD568542C478B4915A3177696B916ADA79991880 DUP5 MSTORE PUSH1 0x40 DUP4 ADD MSTORE PUSH12 0xFFFFFFFFFFFFFFFFFFFFFFFF NOT SWAP1 PUSH1 0x60 SHL AND PUSH1 0x60 DUP3 ADD MSTORE PUSH1 0x54 DUP2 MSTORE PUSH2 0x2DA4 PUSH1 0x74 DUP3 PUSH2 0x184B JUMP JUMPDEST SWAP1 PUSH1 0x40 MLOAD SWAP1 PUSH1 0x20 DUP3 ADD SWAP3 PUSH32 0xCDC329E62990F6D30602DA515792306963756A09F25BA03FA486927E0ADC8FF3 DUP5 MSTORE PUSH1 0x40 DUP4 ADD MSTORE PUSH12 0xFFFFFFFFFFFFFFFFFFFFFFFF NOT SWAP1 PUSH1 0x60 SHL AND PUSH1 0x60 DUP3 ADD MSTORE PUSH1 0x54 DUP2 MSTORE PUSH2 0x2DA4 PUSH1 0x74 DUP3 PUSH2 0x184B JUMP JUMPDEST SWAP1 PUSH1 0x40 MLOAD SWAP2 DUP3 PUSH0 DUP3 SLOAD SWAP3 PUSH2 0x2E70 DUP5 PUSH2 0x186D JUMP JUMPDEST DUP1 DUP5 MSTORE SWAP4 PUSH1 0x1 DUP2 AND SWAP1 DUP2 ISZERO PUSH2 0x2ED9 JUMPI POP PUSH1 0x1 EQ PUSH2 0x2E95 JUMPI JUMPDEST POP PUSH2 0x18F4 SWAP3 POP SUB DUP4 PUSH2 0x184B JUMP JUMPDEST SWAP1 POP PUSH0 SWAP3 SWAP2 SWAP3 MSTORE PUSH1 0x20 PUSH0 KECCAK256 SWAP1 PUSH0 SWAP2 JUMPDEST DUP2 DUP4 LT PUSH2 0x2EBD JUMPI POP POP SWAP1 PUSH1 0x20 PUSH2 0x18F4 SWAP3 DUP3 ADD ADD PUSH0 PUSH2 0x2E88 JUMP JUMPDEST PUSH1 0x20 SWAP2 SWAP4 POP DUP1 PUSH1 0x1 SWAP2 SLOAD DUP4 DUP6 DUP10 ADD ADD MSTORE ADD SWAP2 ADD SWAP1 SWAP2 DUP5 SWAP3 PUSH2 0x2EA4 JUMP JUMPDEST SWAP1 POP PUSH1 0x20 SWAP3 POP PUSH2 0x18F4 SWAP5 SWAP2 POP PUSH1 0xFF NOT AND DUP3 DUP5 ADD MSTORE ISZERO ISZERO PUSH1 0x5 SHL DUP3 ADD ADD PUSH0 PUSH2 0x2E88 JUMP JUMPDEST SWAP1 PUSH1 0x20 DUP1 DUP4 MLOAD SWAP3 DUP4 DUP2 MSTORE ADD SWAP3 ADD SWAP1 PUSH0 JUMPDEST DUP2 DUP2 LT PUSH2 0x2F18 JUMPI POP POP POP SWAP1 JUMP JUMPDEST DUP3 MLOAD PUSH1 0x1 PUSH1 0x1 PUSH1 0xA0 SHL SUB AND DUP5 MSTORE PUSH1 0x20 SWAP4 DUP5 ADD SWAP4 SWAP1 SWAP3 ADD SWAP2 PUSH1 0x1 ADD PUSH2 0x2F0B JUMP JUMPDEST SWAP1 PUSH1 0x20 DUP1 DUP4 MLOAD SWAP3 DUP4 DUP2 MSTORE ADD SWAP3 ADD SWAP1 PUSH0 JUMPDEST DUP2 DUP2 LT PUSH2 0x2F54 JUMPI POP POP POP SWAP1 JUMP JUMPDEST DUP3 MLOAD PUSH2 0xFFFF AND DUP5 MSTORE PUSH1 0x20 SWAP4 DUP5 ADD SWAP4 SWAP1 SWAP3 ADD SWAP2 PUSH1 0x1 ADD PUSH2 0x2F47 JUMP JUMPDEST SWAP1 PUSH1 0x20 DUP1 DUP4 MLOAD SWAP3 DUP4 DUP2 MSTORE ADD SWAP3 ADD SWAP1 PUSH0 JUMPDEST DUP2 DUP2 LT PUSH2 0x2F8B JUMPI POP POP POP SWAP1 JUMP JUMPDEST DUP3 MLOAD PUSH1 0x2 SIGNEXTEND DUP5 MSTORE PUSH1 0x20 SWAP4 DUP5 ADD SWAP4 SWAP1 SWAP3 ADD SWAP2 PUSH1 0x1 ADD PUSH2 0x2F7E JUMP JUMPDEST DUP1 MLOAD ISZERO PUSH2 0x2F9 JUMPI PUSH1 0x20 ADD SWAP1 JUMP JUMPDEST DUP1 MLOAD PUSH1 0x1 LT ISZERO PUSH2 0x2F9 JUMPI PUSH1 0x40 ADD SWAP1 JUMP JUMPDEST DUP1 MLOAD PUSH1 0x2 LT ISZERO PUSH2 0x2F9 JUMPI PUSH1 0x60 ADD SWAP1 JUMP JUMPDEST DUP1 MLOAD PUSH1 0x3 LT ISZERO PUSH2 0x2F9 JUMPI PUSH1 0x80 ADD SWAP1 JUMP JUMPDEST DUP1 MLOAD PUSH1 0x4 LT ISZERO PUSH2 0x2F9 JUMPI PUSH1 0xA0 ADD SWAP1 JUMP INVALID 0xE9 LOG1 0xDE 0xE0 0x22 PC EXP MOD 0xF8 SIGNEXTEND CODECOPY DUP13 0xB0 CALLCODE PUSH10 0xFB71E0B4CB2E78FB97D JUMPI SWAP6 0xB2 0xFC PUSH22 0xE8D3E9A1DEE022580A06F80B398CB0F2690FB71E0B4C 0xB2 0xE7 DUP16 0xB9 PUSH30 0x5795B2FC75E8D4A2646970667358221220B5C463D1E2FDB2DDED6BF226BD MOD RETURNDATASIZE CALLVALUE 0xE 0x2E GASPRICE MSIZE SHL 0xC4 0xD1 CALLVALUE RETURNDATASIZE 0xCF MOD JUMP DUP3 PUSH11 0x49D064736F6C634300081A STOP CALLER "},"methodIdentifiers":{"claimTokens(uint256)":"46e04a2f","contribute(uint256)":"c1cbbca7","createChildCabal(uint256)":"1445e0d1","finalizeCabal(uint256)":"43a77aac","getClaimable(uint256,address)":"b961cbe1","getContributors(uint256)":"3c1ab00f","getLaunchVote(uint256,address)":"97e0d582","getLaunchVoteStatus(uint256)":"725b0db9","hasVotedLaunch(uint256,address)":"94e94882","voteLaunch(uint256,bool)":"9bcd9732"}}}}}