{"contracts/cabal/CabalTBA.sol":{"CabalTBA":{"abi":[{"inputs":[],"name":"InvalidOperation","type":"error"},{"inputs":[],"name":"NotAuthorized","type":"error"},{"inputs":[{"internalType":"address","name":"to","type":"address"},{"internalType":"uint256","name":"value","type":"uint256"},{"internalType":"bytes","name":"data","type":"bytes"},{"internalType":"uint8","name":"operation","type":"uint8"}],"name":"execute","outputs":[{"internalType":"bytes","name":"result","type":"bytes"}],"stateMutability":"payable","type":"function"},{"inputs":[{"internalType":"address","name":"to","type":"address"},{"internalType":"uint256","name":"value","type":"uint256"},{"internalType":"bytes","name":"data","type":"bytes"}],"name":"executeCall","outputs":[{"internalType":"bytes","name":"result","type":"bytes"}],"stateMutability":"payable","type":"function"},{"inputs":[{"internalType":"address","name":"signer","type":"address"},{"internalType":"bytes","name":"","type":"bytes"}],"name":"isValidSigner","outputs":[{"internalType":"bytes4","name":"","type":"bytes4"}],"stateMutability":"view","type":"function"},{"inputs":[{"internalType":"address","name":"","type":"address"},{"internalType":"address","name":"","type":"address"},{"internalType":"uint256[]","name":"","type":"uint256[]"},{"internalType":"uint256[]","name":"","type":"uint256[]"},{"internalType":"bytes","name":"","type":"bytes"}],"name":"onERC1155BatchReceived","outputs":[{"internalType":"bytes4","name":"","type":"bytes4"}],"stateMutability":"pure","type":"function"},{"inputs":[{"internalType":"address","name":"","type":"address"},{"internalType":"address","name":"","type":"address"},{"internalType":"uint256","name":"","type":"uint256"},{"internalType":"uint256","name":"","type":"uint256"},{"internalType":"bytes","name":"","type":"bytes"}],"name":"onERC1155Received","outputs":[{"internalType":"bytes4","name":"","type":"bytes4"}],"stateMutability":"pure","type":"function"},{"inputs":[{"internalType":"address","name":"","type":"address"},{"internalType":"address","name":"","type":"address"},{"internalType":"uint256","name":"","type":"uint256"},{"internalType":"bytes","name":"","type":"bytes"}],"name":"onERC721Received","outputs":[{"internalType":"bytes4","name":"","type":"bytes4"}],"stateMutability":"pure","type":"function"},{"inputs":[],"name":"owner","outputs":[{"internalType":"address","name":"","type":"address"}],"stateMutability":"view","type":"function"},{"inputs":[],"name":"state","outputs":[{"internalType":"uint256","name":"","type":"uint256"}],"stateMutability":"view","type":"function"},{"inputs":[{"internalType":"bytes4","name":"interfaceId","type":"bytes4"}],"name":"supportsInterface","outputs":[{"internalType":"bool","name":"","type":"bool"}],"stateMutability":"pure","type":"function"},{"inputs":[],"name":"token","outputs":[{"internalType":"uint256","name":"chainId","type":"uint256"},{"internalType":"address","name":"tokenContract","type":"address"},{"internalType":"uint256","name":"tokenId","type":"uint256"}],"stateMutability":"view","type":"function"},{"stateMutability":"payable","type":"receive"}],"evm":{"bytecode":{"linkReferences":{},"object":"6080806040523460155761078e908161001a8239f35b5f80fdfe6080604052600436101561001a575b3615610018575f80fd5b005b5f3560e01c806301ffc9a7146100b9578063150b7a02146100b457806351945447146100af578063523e3260146100aa5780638da5cb5b146100a55780639e5d4c49146100a0578063bc197c811461009b578063c19d93fb14610096578063f23a6e61146100915763fc0c546a0361000e57610569565b61050e565b6104f2565b610453565b6103a2565b610377565b610302565b61022c565b6101a7565b346101645760203660031901126101645760043563ffffffff60e01b81168091036101645761011c906301ffc9a760e01b8114908115610153575b8115610142575b8115610131575b8115610120575b5060405190151581529081906020820190565b0390f35b630271189760e51b1490505f610109565b630a85bd0160e11b81149150610102565b635194544760e01b811491506100fb565b636faff5f160e01b811491506100f4565b5f80fd5b6001600160a01b0381160361016457565b9181601f840112156101645782359167ffffffffffffffff8311610164576020838186019501011161016457565b34610164576080366003190112610164576101c3600435610168565b6101ce602435610168565b60643567ffffffffffffffff8111610164576101ee903690600401610179565b5050604051630a85bd0160e11b8152602090f35b602060409281835280519182918282860152018484015e5f828201840152601f01601f1916010190565b60803660031901126101645760043561024481610168565b6024359060443567ffffffffffffffff811161016457610268903690600401610179565b60649291923560ff8116809103610164576102936001600160a01b0361028c610672565b1633141590565b6102f3576102e4575f9384936102a985546105a1565b85556102ba604051809481936105c3565b03925af16102c661060b565b90156102dc5761011c9060405191829182610202565b602081519101fd5b631cc6a69960e11b5f5260045ffd5b63ea8e4eb560e01b5f5260045ffd5b346101645760403660031901126101645760043561031f81610168565b60243567ffffffffffffffff81116101645760209161034561034c923690600401610179565b505061064a565b6040517fffffffff000000000000000000000000000000000000000000000000000000009091168152f35b34610164575f366003190112610164576020610391610672565b6001600160a01b0360405191168152f35b6060366003190112610164576004356103ba81610168565b6024359060443567ffffffffffffffff8111610164576103de903690600401610179565b6001600160a01b036103f1939293610672565b1633036102f3575f93849361040685546105a1565b8555826040519384928337810185815203925af16102c661060b565b9181601f840112156101645782359167ffffffffffffffff8311610164576020808501948460051b01011161016457565b346101645760a03660031901126101645761046f600435610168565b61047a602435610168565b60443567ffffffffffffffff81116101645761049a903690600401610422565b505060643567ffffffffffffffff8111610164576104bc903690600401610422565b505060843567ffffffffffffffff8111610164576104de903690600401610179565b505060405163bc197c8160e01b8152602090f35b34610164575f3660031901126101645760205f54604051908152f35b346101645760a03660031901126101645761052a600435610168565b610535602435610168565b60843567ffffffffffffffff811161016457610555903690600401610179565b505060405163f23a6e6160e01b8152602090f35b34610164575f3660031901126101645760606001600160a01b0361058b610704565b9192906040519384521660208301526040820152f35b5f1981146105af5760010190565b634e487b7160e01b5f52601160045260245ffd5b908092918237015f815290565b634e487b7160e01b5f52604160045260245ffd5b90601f8019910116810190811067ffffffffffffffff82111761060657604052565b6105d0565b3d15610645573d9067ffffffffffffffff8211610606576040519161063a601f8201601f1916602001846105e4565b82523d5f602084013e565b606090565b6001600160a01b038061065b610672565b16911614610667575f90565b630291f19360e51b90565b61067a610704565b909146036106fe576001600160a01b0391602460209260405194859384926331a9108f60e11b84526004840152165afa9081156106f3575f916106bb575090565b90506020813d6020116106eb575b816106d6602093836105e4565b8101031261016457516106e881610168565b90565b3d91506106c9565b6040513d5f823e3d90fd5b50505f90565b604051906107136080836105e4565b606080835260208301903682376060604d82303c6060838051810103126101645751906001600160a01b03606060408501519461074f86610168565b0151929316919056fea26469706673582212208755d56192fdedf1442b6cdc09a657431fce6a158fbaf35338f23933795cb6ce64736f6c634300081a0033","opcodes":"PUSH1 0x80 DUP1 PUSH1 0x40 MSTORE CALLVALUE PUSH1 0x15 JUMPI PUSH2 0x78E SWAP1 DUP2 PUSH2 0x1A DUP3 CODECOPY RETURN JUMPDEST PUSH0 DUP1 REVERT INVALID PUSH1 0x80 PUSH1 0x40 MSTORE PUSH1 0x4 CALLDATASIZE LT ISZERO PUSH2 0x1A JUMPI JUMPDEST CALLDATASIZE ISZERO PUSH2 0x18 JUMPI PUSH0 DUP1 REVERT JUMPDEST STOP JUMPDEST PUSH0 CALLDATALOAD PUSH1 0xE0 SHR DUP1 PUSH4 0x1FFC9A7 EQ PUSH2 0xB9 JUMPI DUP1 PUSH4 0x150B7A02 EQ PUSH2 0xB4 JUMPI DUP1 PUSH4 0x51945447 EQ PUSH2 0xAF JUMPI DUP1 PUSH4 0x523E3260 EQ PUSH2 0xAA JUMPI DUP1 PUSH4 0x8DA5CB5B EQ PUSH2 0xA5 JUMPI DUP1 PUSH4 0x9E5D4C49 EQ PUSH2 0xA0 JUMPI DUP1 PUSH4 0xBC197C81 EQ PUSH2 0x9B JUMPI DUP1 PUSH4 0xC19D93FB EQ PUSH2 0x96 JUMPI DUP1 PUSH4 0xF23A6E61 EQ PUSH2 0x91 JUMPI PUSH4 0xFC0C546A SUB PUSH2 0xE JUMPI PUSH2 0x569 JUMP JUMPDEST PUSH2 0x50E JUMP JUMPDEST PUSH2 0x4F2 JUMP JUMPDEST PUSH2 0x453 JUMP JUMPDEST PUSH2 0x3A2 JUMP JUMPDEST PUSH2 0x377 JUMP JUMPDEST PUSH2 0x302 JUMP JUMPDEST PUSH2 0x22C JUMP JUMPDEST PUSH2 0x1A7 JUMP JUMPDEST CALLVALUE PUSH2 0x164 JUMPI PUSH1 0x20 CALLDATASIZE PUSH1 0x3 NOT ADD SLT PUSH2 0x164 JUMPI PUSH1 0x4 CALLDATALOAD PUSH4 0xFFFFFFFF PUSH1 0xE0 SHL DUP2 AND DUP1 SWAP2 SUB PUSH2 0x164 JUMPI PUSH2 0x11C SWAP1 PUSH4 0x1FFC9A7 PUSH1 0xE0 SHL DUP2 EQ SWAP1 DUP2 ISZERO PUSH2 0x153 JUMPI JUMPDEST DUP2 ISZERO PUSH2 0x142 JUMPI JUMPDEST DUP2 ISZERO PUSH2 0x131 JUMPI JUMPDEST DUP2 ISZERO PUSH2 0x120 JUMPI JUMPDEST POP PUSH1 0x40 MLOAD SWAP1 ISZERO ISZERO DUP2 MSTORE SWAP1 DUP2 SWAP1 PUSH1 0x20 DUP3 ADD SWAP1 JUMP JUMPDEST SUB SWAP1 RETURN JUMPDEST PUSH4 0x2711897 PUSH1 0xE5 SHL EQ SWAP1 POP PUSH0 PUSH2 0x109 JUMP JUMPDEST PUSH4 0xA85BD01 PUSH1 0xE1 SHL DUP2 EQ SWAP2 POP PUSH2 0x102 JUMP JUMPDEST PUSH4 0x51945447 PUSH1 0xE0 SHL DUP2 EQ SWAP2 POP PUSH2 0xFB JUMP JUMPDEST PUSH4 0x6FAFF5F1 PUSH1 0xE0 SHL DUP2 EQ SWAP2 POP PUSH2 0xF4 JUMP JUMPDEST PUSH0 DUP1 REVERT JUMPDEST PUSH1 0x1 PUSH1 0x1 PUSH1 0xA0 SHL SUB DUP2 AND SUB PUSH2 0x164 JUMPI JUMP JUMPDEST SWAP2 DUP2 PUSH1 0x1F DUP5 ADD SLT ISZERO PUSH2 0x164 JUMPI DUP3 CALLDATALOAD SWAP2 PUSH8 0xFFFFFFFFFFFFFFFF DUP4 GT PUSH2 0x164 JUMPI PUSH1 0x20 DUP4 DUP2 DUP7 ADD SWAP6 ADD ADD GT PUSH2 0x164 JUMPI JUMP JUMPDEST CALLVALUE PUSH2 0x164 JUMPI PUSH1 0x80 CALLDATASIZE PUSH1 0x3 NOT ADD SLT PUSH2 0x164 JUMPI PUSH2 0x1C3 PUSH1 0x4 CALLDATALOAD PUSH2 0x168 JUMP JUMPDEST PUSH2 0x1CE PUSH1 0x24 CALLDATALOAD PUSH2 0x168 JUMP JUMPDEST PUSH1 0x64 CALLDATALOAD PUSH8 0xFFFFFFFFFFFFFFFF DUP2 GT PUSH2 0x164 JUMPI PUSH2 0x1EE SWAP1 CALLDATASIZE SWAP1 PUSH1 0x4 ADD PUSH2 0x179 JUMP JUMPDEST POP POP PUSH1 0x40 MLOAD PUSH4 0xA85BD01 PUSH1 0xE1 SHL DUP2 MSTORE PUSH1 0x20 SWAP1 RETURN JUMPDEST PUSH1 0x20 PUSH1 0x40 SWAP3 DUP2 DUP4 MSTORE DUP1 MLOAD SWAP2 DUP3 SWAP2 DUP3 DUP3 DUP7 ADD MSTORE ADD DUP5 DUP5 ADD MCOPY PUSH0 DUP3 DUP3 ADD DUP5 ADD MSTORE PUSH1 0x1F ADD PUSH1 0x1F NOT AND ADD ADD SWAP1 JUMP JUMPDEST PUSH1 0x80 CALLDATASIZE PUSH1 0x3 NOT ADD SLT PUSH2 0x164 JUMPI PUSH1 0x4 CALLDATALOAD PUSH2 0x244 DUP2 PUSH2 0x168 JUMP JUMPDEST PUSH1 0x24 CALLDATALOAD SWAP1 PUSH1 0x44 CALLDATALOAD PUSH8 0xFFFFFFFFFFFFFFFF DUP2 GT PUSH2 0x164 JUMPI PUSH2 0x268 SWAP1 CALLDATASIZE SWAP1 PUSH1 0x4 ADD PUSH2 0x179 JUMP JUMPDEST PUSH1 0x64 SWAP3 SWAP2 SWAP3 CALLDATALOAD PUSH1 0xFF DUP2 AND DUP1 SWAP2 SUB PUSH2 0x164 JUMPI PUSH2 0x293 PUSH1 0x1 PUSH1 0x1 PUSH1 0xA0 SHL SUB PUSH2 0x28C PUSH2 0x672 JUMP JUMPDEST AND CALLER EQ ISZERO SWAP1 JUMP JUMPDEST PUSH2 0x2F3 JUMPI PUSH2 0x2E4 JUMPI PUSH0 SWAP4 DUP5 SWAP4 PUSH2 0x2A9 DUP6 SLOAD PUSH2 0x5A1 JUMP JUMPDEST DUP6 SSTORE PUSH2 0x2BA PUSH1 0x40 MLOAD DUP1 SWAP5 DUP2 SWAP4 PUSH2 0x5C3 JUMP JUMPDEST SUB SWAP3 GAS CALL PUSH2 0x2C6 PUSH2 0x60B JUMP JUMPDEST SWAP1 ISZERO PUSH2 0x2DC JUMPI PUSH2 0x11C SWAP1 PUSH1 0x40 MLOAD SWAP2 DUP3 SWAP2 DUP3 PUSH2 0x202 JUMP JUMPDEST PUSH1 0x20 DUP2 MLOAD SWAP2 ADD REVERT JUMPDEST PUSH4 0x1CC6A699 PUSH1 0xE1 SHL PUSH0 MSTORE PUSH1 0x4 PUSH0 REVERT JUMPDEST PUSH4 0xEA8E4EB5 PUSH1 0xE0 SHL PUSH0 MSTORE PUSH1 0x4 PUSH0 REVERT JUMPDEST CALLVALUE PUSH2 0x164 JUMPI PUSH1 0x40 CALLDATASIZE PUSH1 0x3 NOT ADD SLT PUSH2 0x164 JUMPI PUSH1 0x4 CALLDATALOAD PUSH2 0x31F DUP2 PUSH2 0x168 JUMP JUMPDEST PUSH1 0x24 CALLDATALOAD PUSH8 0xFFFFFFFFFFFFFFFF DUP2 GT PUSH2 0x164 JUMPI PUSH1 0x20 SWAP2 PUSH2 0x345 PUSH2 0x34C SWAP3 CALLDATASIZE SWAP1 PUSH1 0x4 ADD PUSH2 0x179 JUMP JUMPDEST POP POP PUSH2 0x64A JUMP JUMPDEST PUSH1 0x40 MLOAD PUSH32 0xFFFFFFFF00000000000000000000000000000000000000000000000000000000 SWAP1 SWAP2 AND DUP2 MSTORE RETURN JUMPDEST CALLVALUE PUSH2 0x164 JUMPI PUSH0 CALLDATASIZE PUSH1 0x3 NOT ADD SLT PUSH2 0x164 JUMPI PUSH1 0x20 PUSH2 0x391 PUSH2 0x672 JUMP JUMPDEST PUSH1 0x1 PUSH1 0x1 PUSH1 0xA0 SHL SUB PUSH1 0x40 MLOAD SWAP2 AND DUP2 MSTORE RETURN JUMPDEST PUSH1 0x60 CALLDATASIZE PUSH1 0x3 NOT ADD SLT PUSH2 0x164 JUMPI PUSH1 0x4 CALLDATALOAD PUSH2 0x3BA DUP2 PUSH2 0x168 JUMP JUMPDEST PUSH1 0x24 CALLDATALOAD SWAP1 PUSH1 0x44 CALLDATALOAD PUSH8 0xFFFFFFFFFFFFFFFF DUP2 GT PUSH2 0x164 JUMPI PUSH2 0x3DE SWAP1 CALLDATASIZE SWAP1 PUSH1 0x4 ADD PUSH2 0x179 JUMP JUMPDEST PUSH1 0x1 PUSH1 0x1 PUSH1 0xA0 SHL SUB PUSH2 0x3F1 SWAP4 SWAP3 SWAP4 PUSH2 0x672 JUMP JUMPDEST AND CALLER SUB PUSH2 0x2F3 JUMPI PUSH0 SWAP4 DUP5 SWAP4 PUSH2 0x406 DUP6 SLOAD PUSH2 0x5A1 JUMP JUMPDEST DUP6 SSTORE DUP3 PUSH1 0x40 MLOAD SWAP4 DUP5 SWAP3 DUP4 CALLDATACOPY DUP2 ADD DUP6 DUP2 MSTORE SUB SWAP3 GAS CALL PUSH2 0x2C6 PUSH2 0x60B JUMP JUMPDEST SWAP2 DUP2 PUSH1 0x1F DUP5 ADD SLT ISZERO PUSH2 0x164 JUMPI DUP3 CALLDATALOAD SWAP2 PUSH8 0xFFFFFFFFFFFFFFFF DUP4 GT PUSH2 0x164 JUMPI PUSH1 0x20 DUP1 DUP6 ADD SWAP5 DUP5 PUSH1 0x5 SHL ADD ADD GT PUSH2 0x164 JUMPI JUMP JUMPDEST CALLVALUE PUSH2 0x164 JUMPI PUSH1 0xA0 CALLDATASIZE PUSH1 0x3 NOT ADD SLT PUSH2 0x164 JUMPI PUSH2 0x46F PUSH1 0x4 CALLDATALOAD PUSH2 0x168 JUMP JUMPDEST PUSH2 0x47A PUSH1 0x24 CALLDATALOAD PUSH2 0x168 JUMP JUMPDEST PUSH1 0x44 CALLDATALOAD PUSH8 0xFFFFFFFFFFFFFFFF DUP2 GT PUSH2 0x164 JUMPI PUSH2 0x49A SWAP1 CALLDATASIZE SWAP1 PUSH1 0x4 ADD PUSH2 0x422 JUMP JUMPDEST POP POP PUSH1 0x64 CALLDATALOAD PUSH8 0xFFFFFFFFFFFFFFFF DUP2 GT PUSH2 0x164 JUMPI PUSH2 0x4BC SWAP1 CALLDATASIZE SWAP1 PUSH1 0x4 ADD PUSH2 0x422 JUMP JUMPDEST POP POP PUSH1 0x84 CALLDATALOAD PUSH8 0xFFFFFFFFFFFFFFFF DUP2 GT PUSH2 0x164 JUMPI PUSH2 0x4DE SWAP1 CALLDATASIZE SWAP1 PUSH1 0x4 ADD PUSH2 0x179 JUMP JUMPDEST POP POP PUSH1 0x40 MLOAD PUSH4 0xBC197C81 PUSH1 0xE0 SHL DUP2 MSTORE PUSH1 0x20 SWAP1 RETURN JUMPDEST CALLVALUE PUSH2 0x164 JUMPI PUSH0 CALLDATASIZE PUSH1 0x3 NOT ADD SLT PUSH2 0x164 JUMPI PUSH1 0x20 PUSH0 SLOAD PUSH1 0x40 MLOAD SWAP1 DUP2 MSTORE RETURN JUMPDEST CALLVALUE PUSH2 0x164 JUMPI PUSH1 0xA0 CALLDATASIZE PUSH1 0x3 NOT ADD SLT PUSH2 0x164 JUMPI PUSH2 0x52A PUSH1 0x4 CALLDATALOAD PUSH2 0x168 JUMP JUMPDEST PUSH2 0x535 PUSH1 0x24 CALLDATALOAD PUSH2 0x168 JUMP JUMPDEST PUSH1 0x84 CALLDATALOAD PUSH8 0xFFFFFFFFFFFFFFFF DUP2 GT PUSH2 0x164 JUMPI PUSH2 0x555 SWAP1 CALLDATASIZE SWAP1 PUSH1 0x4 ADD PUSH2 0x179 JUMP JUMPDEST POP POP PUSH1 0x40 MLOAD PUSH4 0xF23A6E61 PUSH1 0xE0 SHL DUP2 MSTORE PUSH1 0x20 SWAP1 RETURN JUMPDEST CALLVALUE PUSH2 0x164 JUMPI PUSH0 CALLDATASIZE PUSH1 0x3 NOT ADD SLT PUSH2 0x164 JUMPI PUSH1 0x60 PUSH1 0x1 PUSH1 0x1 PUSH1 0xA0 SHL SUB PUSH2 0x58B PUSH2 0x704 JUMP JUMPDEST SWAP2 SWAP3 SWAP1 PUSH1 0x40 MLOAD SWAP4 DUP5 MSTORE AND PUSH1 0x20 DUP4 ADD MSTORE PUSH1 0x40 DUP3 ADD MSTORE RETURN JUMPDEST PUSH0 NOT DUP2 EQ PUSH2 0x5AF JUMPI PUSH1 0x1 ADD SWAP1 JUMP JUMPDEST PUSH4 0x4E487B71 PUSH1 0xE0 SHL PUSH0 MSTORE PUSH1 0x11 PUSH1 0x4 MSTORE PUSH1 0x24 PUSH0 REVERT JUMPDEST SWAP1 DUP1 SWAP3 SWAP2 DUP3 CALLDATACOPY ADD PUSH0 DUP2 MSTORE SWAP1 JUMP JUMPDEST PUSH4 0x4E487B71 PUSH1 0xE0 SHL PUSH0 MSTORE PUSH1 0x41 PUSH1 0x4 MSTORE PUSH1 0x24 PUSH0 REVERT JUMPDEST SWAP1 PUSH1 0x1F DUP1 NOT SWAP2 ADD AND DUP2 ADD SWAP1 DUP2 LT PUSH8 0xFFFFFFFFFFFFFFFF DUP3 GT OR PUSH2 0x606 JUMPI PUSH1 0x40 MSTORE JUMP JUMPDEST PUSH2 0x5D0 JUMP JUMPDEST RETURNDATASIZE ISZERO PUSH2 0x645 JUMPI RETURNDATASIZE SWAP1 PUSH8 0xFFFFFFFFFFFFFFFF DUP3 GT PUSH2 0x606 JUMPI PUSH1 0x40 MLOAD SWAP2 PUSH2 0x63A PUSH1 0x1F DUP3 ADD PUSH1 0x1F NOT AND PUSH1 0x20 ADD DUP5 PUSH2 0x5E4 JUMP JUMPDEST DUP3 MSTORE RETURNDATASIZE PUSH0 PUSH1 0x20 DUP5 ADD RETURNDATACOPY JUMP JUMPDEST PUSH1 0x60 SWAP1 JUMP JUMPDEST PUSH1 0x1 PUSH1 0x1 PUSH1 0xA0 SHL SUB DUP1 PUSH2 0x65B PUSH2 0x672 JUMP JUMPDEST AND SWAP2 AND EQ PUSH2 0x667 JUMPI PUSH0 SWAP1 JUMP JUMPDEST PUSH4 0x291F193 PUSH1 0xE5 SHL SWAP1 JUMP JUMPDEST PUSH2 0x67A PUSH2 0x704 JUMP JUMPDEST SWAP1 SWAP2 CHAINID SUB PUSH2 0x6FE JUMPI PUSH1 0x1 PUSH1 0x1 PUSH1 0xA0 SHL SUB SWAP2 PUSH1 0x24 PUSH1 0x20 SWAP3 PUSH1 0x40 MLOAD SWAP5 DUP6 SWAP4 DUP5 SWAP3 PUSH4 0x31A9108F PUSH1 0xE1 SHL DUP5 MSTORE PUSH1 0x4 DUP5 ADD MSTORE AND GAS STATICCALL SWAP1 DUP2 ISZERO PUSH2 0x6F3 JUMPI PUSH0 SWAP2 PUSH2 0x6BB JUMPI POP SWAP1 JUMP JUMPDEST SWAP1 POP PUSH1 0x20 DUP2 RETURNDATASIZE PUSH1 0x20 GT PUSH2 0x6EB JUMPI JUMPDEST DUP2 PUSH2 0x6D6 PUSH1 0x20 SWAP4 DUP4 PUSH2 0x5E4 JUMP JUMPDEST DUP2 ADD SUB SLT PUSH2 0x164 JUMPI MLOAD PUSH2 0x6E8 DUP2 PUSH2 0x168 JUMP JUMPDEST SWAP1 JUMP JUMPDEST RETURNDATASIZE SWAP2 POP PUSH2 0x6C9 JUMP JUMPDEST PUSH1 0x40 MLOAD RETURNDATASIZE PUSH0 DUP3 RETURNDATACOPY RETURNDATASIZE SWAP1 REVERT JUMPDEST POP POP PUSH0 SWAP1 JUMP JUMPDEST PUSH1 0x40 MLOAD SWAP1 PUSH2 0x713 PUSH1 0x80 DUP4 PUSH2 0x5E4 JUMP JUMPDEST PUSH1 0x60 DUP1 DUP4 MSTORE PUSH1 0x20 DUP4 ADD SWAP1 CALLDATASIZE DUP3 CALLDATACOPY PUSH1 0x60 PUSH1 0x4D DUP3 ADDRESS EXTCODECOPY PUSH1 0x60 DUP4 DUP1 MLOAD DUP2 ADD SUB SLT PUSH2 0x164 JUMPI MLOAD SWAP1 PUSH1 0x1 PUSH1 0x1 PUSH1 0xA0 SHL SUB PUSH1 0x60 PUSH1 0x40 DUP6 ADD MLOAD SWAP5 PUSH2 0x74F DUP7 PUSH2 0x168 JUMP JUMPDEST ADD MLOAD SWAP3 SWAP4 AND SWAP2 SWAP1 JUMP INVALID LOG2 PUSH5 0x6970667358 0x22 SLT KECCAK256 DUP8 SSTORE 0xD5 PUSH2 0x92FD 0xED CALL PREVRANDAO 0x2B PUSH13 0xDC09A657431FCE6A158FBAF353 CODESIZE CALLCODE CODECOPY CALLER PUSH26 0x5CB6CE64736F6C634300081A0033000000000000000000000000 "},"methodIdentifiers":{"execute(address,uint256,bytes,uint8)":"51945447","executeCall(address,uint256,bytes)":"9e5d4c49","isValidSigner(address,bytes)":"523e3260","onERC1155BatchReceived(address,address,uint256[],uint256[],bytes)":"bc197c81","onERC1155Received(address,address,uint256,uint256,bytes)":"f23a6e61","onERC721Received(address,address,uint256,bytes)":"150b7a02","owner()":"8da5cb5b","state()":"c19d93fb","supportsInterface(bytes4)":"01ffc9a7","token()":"fc0c546a"}}}}}