{"contracts/test/EncodeTest.sol":{"EncodeTest":{"abi":[{"inputs":[{"internalType":"address","name":"token","type":"address"},{"internalType":"address","name":"hook","type":"address"},{"internalType":"uint128","name":"amountIn","type":"uint128"},{"internalType":"uint128","name":"minAmountOut","type":"uint128"}],"name":"getEncoding","outputs":[{"internalType":"bytes","name":"commands","type":"bytes"},{"internalType":"bytes","name":"input0","type":"bytes"},{"internalType":"bytes","name":"input1","type":"bytes"},{"internalType":"bytes","name":"input2","type":"bytes"}],"stateMutability":"view","type":"function"}],"evm":{"bytecode":{"linkReferences":{},"object":"608080604052346015576106e1908161001a8239f35b5f80fdfe6080806040526004361015610012575f80fd5b5f3560e01c63a48f9b7a14610025575f80fd5b346105ca5760803660031901126105ca576004356001600160a01b0381168082036105ca57602435926001600160a01b0384168094036105ca57604435926fffffffffffffffffffffffffffffffff8416938481036105ca57606435916fffffffffffffffffffffffffffffffff8316908184036105ca57857342000000000000000000000000000000000000061097885f146105c457734200000000000000000000000000000000000006915b89156105a0576001600160a01b0390925b6100ed886105f2565b1686526001600160a01b03602087019216825262800000604087015260c860608701526080860152604051947f060000000000000000000000000000000000000000000000000000000000000060208701527f0c0000000000000000000000000000000000000000000000000000000000000060218701527f0f0000000000000000000000000000000000000000000000000000000000000060228701526003865261019a60238761060e565b6101a2610630565b9860405194602086019486861067ffffffffffffffff87111761058c5761029a8b61028c61034c996fffffffffffffffffffffffffffffffff6080956001600160a01b039b6040525f835281604051956101fb876105f2565b8b8752602087018b815260408801918252606088019384528988019586528e6040519a8b996020808c0152518281511660408c01528260208201511660608c015262ffffff604082015116828c0152606081015160020b60a08c015201511660c089015251151560e088015251166101008601525116610120840152516101206101408401526101608301906105ce565b03601f19810183528261060e565b6102a38c61066a565b526102ad8b61066a565b508115610580576102f6858451165b61028c604051938492602084019092916fffffffffffffffffffffffffffffffff6020916001600160a01b03604085019616845216910152565b6102ff8b61068b565b526103098a61068b565b50156105775750511661028c604051938492602084019092916fffffffffffffffffffffffffffffffff6020916001600160a01b03604085019616845216910152565b6103558561069b565b5261035f8461069b565b50610368610630565b9260405190734f63e5e685126e7f307f0ae108f6bd374f061219602083015260408201526040815261039b60608261060e565b6103a48461066a565b526103ae8361066a565b506103c7604051916040602084015260608301906105ce565b601f19828203016040830152845180825260208201906020808260051b8501019701915f905b8282106105495761051b88888861040d818e03601f19810183528261060e565b6104168361068b565b526104208261068b565b506040519060208201523060408201525f60608201526060815261044560808261060e565b61044e8261069b565b526104588161069b565b50610545604051917f0b0000000000000000000000000000000000000000000000000000000000000060208401527f100000000000000000000000000000000000000000000000000000000000000060218401527f04000000000000000000000000000000000000000000000000000000000000006022840152600383526104e160238461060e565b6105376104ed8261066a565b51916105296105056104fe8361068b565b519261069b565b51936040519788976080895260808901906105ce565b9087820360208901526105ce565b9085820360408701526105ce565b9083820360608501526105ce565b0390f35b9091929397602080610567600193601f198d820301865288516105ce565b9a960194939190910191016103ed565b905051166102bc565b6102f6858551166102bc565b634e487b7160e01b5f52604160045260245ffd5b506001600160a01b03734200000000000000000000000000000000000006926100e4565b816100d3565b5f80fd5b805180835260209291819084018484015e5f828201840152601f01601f1916010190565b60a0810190811067ffffffffffffffff82111761058c57604052565b90601f8019910116810190811067ffffffffffffffff82111761058c57604052565b60405160809190610641838261060e565b6003815291601f1901825f5b82811061065957505050565b80606060208093850101520161064d565b8051156106775760200190565b634e487b7160e01b5f52603260045260245ffd5b8051600110156106775760400190565b805160021015610677576060019056fea26469706673582212209e4a225cf5f0e8d9d33a81cc6b5d8d77f63902b2b0223655bbcf3ce7cf607e4c64736f6c634300081a0033","opcodes":"PUSH1 0x80 DUP1 PUSH1 0x40 MSTORE CALLVALUE PUSH1 0x15 JUMPI PUSH2 0x6E1 SWAP1 DUP2 PUSH2 0x1A DUP3 CODECOPY RETURN JUMPDEST PUSH0 DUP1 REVERT INVALID PUSH1 0x80 DUP1 PUSH1 0x40 MSTORE PUSH1 0x4 CALLDATASIZE LT ISZERO PUSH2 0x12 JUMPI PUSH0 DUP1 REVERT JUMPDEST PUSH0 CALLDATALOAD PUSH1 0xE0 SHR PUSH4 0xA48F9B7A EQ PUSH2 0x25 JUMPI PUSH0 DUP1 REVERT JUMPDEST CALLVALUE PUSH2 0x5CA JUMPI PUSH1 0x80 CALLDATASIZE PUSH1 0x3 NOT ADD SLT PUSH2 0x5CA JUMPI PUSH1 0x4 CALLDATALOAD PUSH1 0x1 PUSH1 0x1 PUSH1 0xA0 SHL SUB DUP2 AND DUP1 DUP3 SUB PUSH2 0x5CA JUMPI PUSH1 0x24 CALLDATALOAD SWAP3 PUSH1 0x1 PUSH1 0x1 PUSH1 0xA0 SHL SUB DUP5 AND DUP1 SWAP5 SUB PUSH2 0x5CA JUMPI PUSH1 0x44 CALLDATALOAD SWAP3 PUSH16 0xFFFFFFFFFFFFFFFFFFFFFFFFFFFFFFFF DUP5 AND SWAP4 DUP5 DUP2 SUB PUSH2 0x5CA JUMPI PUSH1 0x64 CALLDATALOAD SWAP2 PUSH16 0xFFFFFFFFFFFFFFFFFFFFFFFFFFFFFFFF DUP4 AND SWAP1 DUP2 DUP5 SUB PUSH2 0x5CA JUMPI DUP6 PUSH20 0x4200000000000000000000000000000000000006 LT SWAP8 DUP9 PUSH0 EQ PUSH2 0x5C4 JUMPI PUSH20 0x4200000000000000000000000000000000000006 SWAP2 JUMPDEST DUP10 ISZERO PUSH2 0x5A0 JUMPI PUSH1 0x1 PUSH1 0x1 PUSH1 0xA0 SHL SUB SWAP1 SWAP3 JUMPDEST PUSH2 0xED DUP9 PUSH2 0x5F2 JUMP JUMPDEST AND DUP7 MSTORE PUSH1 0x1 PUSH1 0x1 PUSH1 0xA0 SHL SUB PUSH1 0x20 DUP8 ADD SWAP3 AND DUP3 MSTORE PUSH3 0x800000 PUSH1 0x40 DUP8 ADD MSTORE PUSH1 0xC8 PUSH1 0x60 DUP8 ADD MSTORE PUSH1 0x80 DUP7 ADD MSTORE PUSH1 0x40 MLOAD SWAP5 PUSH32 0x600000000000000000000000000000000000000000000000000000000000000 PUSH1 0x20 DUP8 ADD MSTORE PUSH32 0xC00000000000000000000000000000000000000000000000000000000000000 PUSH1 0x21 DUP8 ADD MSTORE PUSH32 0xF00000000000000000000000000000000000000000000000000000000000000 PUSH1 0x22 DUP8 ADD MSTORE PUSH1 0x3 DUP7 MSTORE PUSH2 0x19A PUSH1 0x23 DUP8 PUSH2 0x60E JUMP JUMPDEST PUSH2 0x1A2 PUSH2 0x630 JUMP JUMPDEST SWAP9 PUSH1 0x40 MLOAD SWAP5 PUSH1 0x20 DUP7 ADD SWAP5 DUP7 DUP7 LT PUSH8 0xFFFFFFFFFFFFFFFF DUP8 GT OR PUSH2 0x58C JUMPI PUSH2 0x29A DUP12 PUSH2 0x28C PUSH2 0x34C SWAP10 PUSH16 0xFFFFFFFFFFFFFFFFFFFFFFFFFFFFFFFF PUSH1 0x80 SWAP6 PUSH1 0x1 PUSH1 0x1 PUSH1 0xA0 SHL SUB SWAP12 PUSH1 0x40 MSTORE PUSH0 DUP4 MSTORE DUP2 PUSH1 0x40 MLOAD SWAP6 PUSH2 0x1FB DUP8 PUSH2 0x5F2 JUMP JUMPDEST DUP12 DUP8 MSTORE PUSH1 0x20 DUP8 ADD DUP12 DUP2 MSTORE PUSH1 0x40 DUP9 ADD SWAP2 DUP3 MSTORE PUSH1 0x60 DUP9 ADD SWAP4 DUP5 MSTORE DUP10 DUP9 ADD SWAP6 DUP7 MSTORE DUP15 PUSH1 0x40 MLOAD SWAP11 DUP12 SWAP10 PUSH1 0x20 DUP1 DUP13 ADD MSTORE MLOAD DUP3 DUP2 MLOAD AND PUSH1 0x40 DUP13 ADD MSTORE DUP3 PUSH1 0x20 DUP3 ADD MLOAD AND PUSH1 0x60 DUP13 ADD MSTORE PUSH3 0xFFFFFF PUSH1 0x40 DUP3 ADD MLOAD AND DUP3 DUP13 ADD MSTORE PUSH1 0x60 DUP2 ADD MLOAD PUSH1 0x2 SIGNEXTEND PUSH1 0xA0 DUP13 ADD MSTORE ADD MLOAD AND PUSH1 0xC0 DUP10 ADD MSTORE MLOAD ISZERO ISZERO PUSH1 0xE0 DUP9 ADD MSTORE MLOAD AND PUSH2 0x100 DUP7 ADD MSTORE MLOAD AND PUSH2 0x120 DUP5 ADD MSTORE MLOAD PUSH2 0x120 PUSH2 0x140 DUP5 ADD MSTORE PUSH2 0x160 DUP4 ADD SWAP1 PUSH2 0x5CE JUMP JUMPDEST SUB PUSH1 0x1F NOT DUP2 ADD DUP4 MSTORE DUP3 PUSH2 0x60E JUMP JUMPDEST PUSH2 0x2A3 DUP13 PUSH2 0x66A JUMP JUMPDEST MSTORE PUSH2 0x2AD DUP12 PUSH2 0x66A JUMP JUMPDEST POP DUP2 ISZERO PUSH2 0x580 JUMPI PUSH2 0x2F6 DUP6 DUP5 MLOAD AND JUMPDEST PUSH2 0x28C PUSH1 0x40 MLOAD SWAP4 DUP5 SWAP3 PUSH1 0x20 DUP5 ADD SWAP1 SWAP3 SWAP2 PUSH16 0xFFFFFFFFFFFFFFFFFFFFFFFFFFFFFFFF PUSH1 0x20 SWAP2 PUSH1 0x1 PUSH1 0x1 PUSH1 0xA0 SHL SUB PUSH1 0x40 DUP6 ADD SWAP7 AND DUP5 MSTORE AND SWAP2 ADD MSTORE JUMP JUMPDEST PUSH2 0x2FF DUP12 PUSH2 0x68B JUMP JUMPDEST MSTORE PUSH2 0x309 DUP11 PUSH2 0x68B JUMP JUMPDEST POP ISZERO PUSH2 0x577 JUMPI POP MLOAD AND PUSH2 0x28C PUSH1 0x40 MLOAD SWAP4 DUP5 SWAP3 PUSH1 0x20 DUP5 ADD SWAP1 SWAP3 SWAP2 PUSH16 0xFFFFFFFFFFFFFFFFFFFFFFFFFFFFFFFF PUSH1 0x20 SWAP2 PUSH1 0x1 PUSH1 0x1 PUSH1 0xA0 SHL SUB PUSH1 0x40 DUP6 ADD SWAP7 AND DUP5 MSTORE AND SWAP2 ADD MSTORE JUMP JUMPDEST PUSH2 0x355 DUP6 PUSH2 0x69B JUMP JUMPDEST MSTORE PUSH2 0x35F DUP5 PUSH2 0x69B JUMP JUMPDEST POP PUSH2 0x368 PUSH2 0x630 JUMP JUMPDEST SWAP3 PUSH1 0x40 MLOAD SWAP1 PUSH20 0x4F63E5E685126E7F307F0AE108F6BD374F061219 PUSH1 0x20 DUP4 ADD MSTORE PUSH1 0x40 DUP3 ADD MSTORE PUSH1 0x40 DUP2 MSTORE PUSH2 0x39B PUSH1 0x60 DUP3 PUSH2 0x60E JUMP JUMPDEST PUSH2 0x3A4 DUP5 PUSH2 0x66A JUMP JUMPDEST MSTORE PUSH2 0x3AE DUP4 PUSH2 0x66A JUMP JUMPDEST POP PUSH2 0x3C7 PUSH1 0x40 MLOAD SWAP2 PUSH1 0x40 PUSH1 0x20 DUP5 ADD MSTORE PUSH1 0x60 DUP4 ADD SWAP1 PUSH2 0x5CE JUMP JUMPDEST PUSH1 0x1F NOT DUP3 DUP3 SUB ADD PUSH1 0x40 DUP4 ADD MSTORE DUP5 MLOAD DUP1 DUP3 MSTORE PUSH1 0x20 DUP3 ADD SWAP1 PUSH1 0x20 DUP1 DUP3 PUSH1 0x5 SHL DUP6 ADD ADD SWAP8 ADD SWAP2 PUSH0 SWAP1 JUMPDEST DUP3 DUP3 LT PUSH2 0x549 JUMPI PUSH2 0x51B DUP9 DUP9 DUP9 PUSH2 0x40D DUP2 DUP15 SUB PUSH1 0x1F NOT DUP2 ADD DUP4 MSTORE DUP3 PUSH2 0x60E JUMP JUMPDEST PUSH2 0x416 DUP4 PUSH2 0x68B JUMP JUMPDEST MSTORE PUSH2 0x420 DUP3 PUSH2 0x68B JUMP JUMPDEST POP PUSH1 0x40 MLOAD SWAP1 PUSH1 0x20 DUP3 ADD MSTORE ADDRESS PUSH1 0x40 DUP3 ADD MSTORE PUSH0 PUSH1 0x60 DUP3 ADD MSTORE PUSH1 0x60 DUP2 MSTORE PUSH2 0x445 PUSH1 0x80 DUP3 PUSH2 0x60E JUMP JUMPDEST PUSH2 0x44E DUP3 PUSH2 0x69B JUMP JUMPDEST MSTORE PUSH2 0x458 DUP2 PUSH2 0x69B JUMP JUMPDEST POP PUSH2 0x545 PUSH1 0x40 MLOAD SWAP2 PUSH32 0xB00000000000000000000000000000000000000000000000000000000000000 PUSH1 0x20 DUP5 ADD MSTORE PUSH32 0x1000000000000000000000000000000000000000000000000000000000000000 PUSH1 0x21 DUP5 ADD MSTORE PUSH32 0x400000000000000000000000000000000000000000000000000000000000000 PUSH1 0x22 DUP5 ADD MSTORE PUSH1 0x3 DUP4 MSTORE PUSH2 0x4E1 PUSH1 0x23 DUP5 PUSH2 0x60E JUMP JUMPDEST PUSH2 0x537 PUSH2 0x4ED DUP3 PUSH2 0x66A JUMP JUMPDEST MLOAD SWAP2 PUSH2 0x529 PUSH2 0x505 PUSH2 0x4FE DUP4 PUSH2 0x68B JUMP JUMPDEST MLOAD SWAP3 PUSH2 0x69B JUMP JUMPDEST MLOAD SWAP4 PUSH1 0x40 MLOAD SWAP8 DUP9 SWAP8 PUSH1 0x80 DUP10 MSTORE PUSH1 0x80 DUP10 ADD SWAP1 PUSH2 0x5CE JUMP JUMPDEST SWAP1 DUP8 DUP3 SUB PUSH1 0x20 DUP10 ADD MSTORE PUSH2 0x5CE JUMP JUMPDEST SWAP1 DUP6 DUP3 SUB PUSH1 0x40 DUP8 ADD MSTORE PUSH2 0x5CE JUMP JUMPDEST SWAP1 DUP4 DUP3 SUB PUSH1 0x60 DUP6 ADD MSTORE PUSH2 0x5CE JUMP JUMPDEST SUB SWAP1 RETURN JUMPDEST SWAP1 SWAP2 SWAP3 SWAP4 SWAP8 PUSH1 0x20 DUP1 PUSH2 0x567 PUSH1 0x1 SWAP4 PUSH1 0x1F NOT DUP14 DUP3 SUB ADD DUP7 MSTORE DUP9 MLOAD PUSH2 0x5CE JUMP JUMPDEST SWAP11 SWAP7 ADD SWAP5 SWAP4 SWAP2 SWAP1 SWAP2 ADD SWAP2 ADD PUSH2 0x3ED JUMP JUMPDEST SWAP1 POP MLOAD AND PUSH2 0x2BC JUMP JUMPDEST PUSH2 0x2F6 DUP6 DUP6 MLOAD AND PUSH2 0x2BC JUMP JUMPDEST PUSH4 0x4E487B71 PUSH1 0xE0 SHL PUSH0 MSTORE PUSH1 0x41 PUSH1 0x4 MSTORE PUSH1 0x24 PUSH0 REVERT JUMPDEST POP PUSH1 0x1 PUSH1 0x1 PUSH1 0xA0 SHL SUB PUSH20 0x4200000000000000000000000000000000000006 SWAP3 PUSH2 0xE4 JUMP JUMPDEST DUP2 PUSH2 0xD3 JUMP JUMPDEST PUSH0 DUP1 REVERT JUMPDEST DUP1 MLOAD DUP1 DUP4 MSTORE PUSH1 0x20 SWAP3 SWAP2 DUP2 SWAP1 DUP5 ADD DUP5 DUP5 ADD MCOPY PUSH0 DUP3 DUP3 ADD DUP5 ADD MSTORE PUSH1 0x1F ADD PUSH1 0x1F NOT AND ADD ADD SWAP1 JUMP JUMPDEST PUSH1 0xA0 DUP2 ADD SWAP1 DUP2 LT PUSH8 0xFFFFFFFFFFFFFFFF DUP3 GT OR PUSH2 0x58C JUMPI PUSH1 0x40 MSTORE JUMP JUMPDEST SWAP1 PUSH1 0x1F DUP1 NOT SWAP2 ADD AND DUP2 ADD SWAP1 DUP2 LT PUSH8 0xFFFFFFFFFFFFFFFF DUP3 GT OR PUSH2 0x58C JUMPI PUSH1 0x40 MSTORE JUMP JUMPDEST PUSH1 0x40 MLOAD PUSH1 0x80 SWAP2 SWAP1 PUSH2 0x641 DUP4 DUP3 PUSH2 0x60E JUMP JUMPDEST PUSH1 0x3 DUP2 MSTORE SWAP2 PUSH1 0x1F NOT ADD DUP3 PUSH0 JUMPDEST DUP3 DUP2 LT PUSH2 0x659 JUMPI POP POP POP JUMP JUMPDEST DUP1 PUSH1 0x60 PUSH1 0x20 DUP1 SWAP4 DUP6 ADD ADD MSTORE ADD PUSH2 0x64D JUMP JUMPDEST DUP1 MLOAD ISZERO PUSH2 0x677 JUMPI PUSH1 0x20 ADD SWAP1 JUMP JUMPDEST PUSH4 0x4E487B71 PUSH1 0xE0 SHL PUSH0 MSTORE PUSH1 0x32 PUSH1 0x4 MSTORE PUSH1 0x24 PUSH0 REVERT JUMPDEST DUP1 MLOAD PUSH1 0x1 LT ISZERO PUSH2 0x677 JUMPI PUSH1 0x40 ADD SWAP1 JUMP JUMPDEST DUP1 MLOAD PUSH1 0x2 LT ISZERO PUSH2 0x677 JUMPI PUSH1 0x60 ADD SWAP1 JUMP INVALID LOG2 PUSH5 0x6970667358 0x22 SLT KECCAK256 SWAP15 BLOBBASEFEE 0x22 TLOAD CREATE2 CREATE 0xE8 0xD9 0xD3 GASPRICE DUP2 0xCC PUSH12 0x5D8D77F63902B2B0223655BB 0xCF EXTCODECOPY 0xE7 0xCF PUSH1 0x7E 0x4C PUSH5 0x736F6C6343 STOP ADDMOD BYTE STOP CALLER "},"methodIdentifiers":{"getEncoding(address,address,uint128,uint128)":"a48f9b7a"}}}}}