{
  "_format": "hh-sol-artifact-1",
  "contractName": "DelegationFacet",
  "sourceName": "contracts/cabal/diamond/facets/DelegationFacet.sol",
  "abi": [
    {
      "inputs": [],
      "name": "AlreadyDelegatedToThis",
      "type": "error"
    },
    {
      "inputs": [],
      "name": "CabalNotActive",
      "type": "error"
    },
    {
      "inputs": [],
      "name": "CannotDelegateToSelf",
      "type": "error"
    },
    {
      "inputs": [],
      "name": "CannotDelegateToZero",
      "type": "error"
    },
    {
      "anonymous": false,
      "inputs": [
        {
          "indexed": true,
          "internalType": "uint256",
          "name": "cabalId",
          "type": "uint256"
        },
        {
          "indexed": true,
          "internalType": "address",
          "name": "delegator",
          "type": "address"
        },
        {
          "indexed": true,
          "internalType": "address",
          "name": "fromDelegate",
          "type": "address"
        },
        {
          "indexed": false,
          "internalType": "address",
          "name": "toDelegate",
          "type": "address"
        }
      ],
      "name": "DelegateChanged",
      "type": "event"
    },
    {
      "anonymous": false,
      "inputs": [
        {
          "indexed": true,
          "internalType": "uint256",
          "name": "cabalId",
          "type": "uint256"
        },
        {
          "indexed": true,
          "internalType": "address",
          "name": "delegatee",
          "type": "address"
        },
        {
          "indexed": false,
          "internalType": "uint256",
          "name": "previousPower",
          "type": "uint256"
        },
        {
          "indexed": false,
          "internalType": "uint256",
          "name": "newPower",
          "type": "uint256"
        }
      ],
      "name": "DelegatedPowerChanged",
      "type": "event"
    },
    {
      "inputs": [
        {
          "internalType": "uint256",
          "name": "cabalId",
          "type": "uint256"
        },
        {
          "internalType": "address",
          "name": "delegatee",
          "type": "address"
        }
      ],
      "name": "delegate",
      "outputs": [],
      "stateMutability": "nonpayable",
      "type": "function"
    },
    {
      "inputs": [
        {
          "internalType": "uint256",
          "name": "cabalId",
          "type": "uint256"
        },
        {
          "internalType": "address",
          "name": "delegatee",
          "type": "address"
        }
      ],
      "name": "getDelegatedPower",
      "outputs": [
        {
          "internalType": "uint256",
          "name": "",
          "type": "uint256"
        }
      ],
      "stateMutability": "view",
      "type": "function"
    },
    {
      "inputs": [
        {
          "internalType": "uint256",
          "name": "cabalId",
          "type": "uint256"
        },
        {
          "internalType": "address",
          "name": "delegator",
          "type": "address"
        }
      ],
      "name": "getDelegatee",
      "outputs": [
        {
          "internalType": "address",
          "name": "",
          "type": "address"
        }
      ],
      "stateMutability": "view",
      "type": "function"
    },
    {
      "inputs": [
        {
          "internalType": "uint256",
          "name": "cabalId",
          "type": "uint256"
        },
        {
          "internalType": "address",
          "name": "user",
          "type": "address"
        }
      ],
      "name": "hasDelegated",
      "outputs": [
        {
          "internalType": "bool",
          "name": "",
          "type": "bool"
        }
      ],
      "stateMutability": "view",
      "type": "function"
    },
    {
      "inputs": [
        {
          "internalType": "uint256",
          "name": "cabalId",
          "type": "uint256"
        }
      ],
      "name": "undelegate",
      "outputs": [],
      "stateMutability": "nonpayable",
      "type": "function"
    }
  ],
  "bytecode": "0x6080806040523460155761068f908161001a8239f35b5f80fdfe60806040526004361015610011575f80fd5b5f3560e01c806308bbb824146100e35780631cae6ed8146100bf57806335a9e52f1461009e57806355f3985b1461007257636c68c0e114610050575f80fd5b3461006e57602036600319011261006e5761006c600435610339565b005b5f80fd5b3461006e5760206001600160a01b0361009361008d36610306565b906104e8565b161515604051908152f35b3461006e5760206100b76100b136610306565b906105a1565b604051908152f35b3461006e5760206100d261008d36610306565b6001600160a01b0360405191168152f35b3461006e576100f136610306565b906001600160a01b0382169182156102f7573383146102e85760ff6005610117846104a3565b015460a01c1660038110156102d4576001036102c55761013733836104e8565b906001600160a01b038216918483146102b65782846101563382610548565b928261024b575b5061016a915083906105a1565b908101808211610237577fd252d054e704b15790b76d290b3c00b26a39329e24f8de568a45390fbd0d3ce593836101a483604096896105fa565b845160208101907fc3de27a01aa54ffcb04f207e8a4f4a16b583945f9cf1c6868757ca4e0e693152825288878201526bffffffffffffffffffffffff193360601b166060820152605481526101fa60748261046d565b519020558351878152867fda8fcb4c7ecd4c5625ea5caa0e7d6e40323c3fbcde2757215a227c54344532dc60203393a482519182526020820152a3005b634e487b7160e01b5f52601160045260245ffd5b6040816102797fd252d054e704b15790b76d290b3c00b26a39329e24f8de568a45390fbd0d3ce593856105a1565b90868211156102ab5761029861028f888461032c565b80925b876105fa565b82519182526020820152a382848761015d565b6102985f8092610292565b63097fee3760e11b5f5260045ffd5b6307dab7b360e31b5f5260045ffd5b634e487b7160e01b5f52602160045260245ffd5b633be64e5b60e21b5f5260045ffd5b630a47fc2360e01b5f5260045ffd5b604090600319011261006e57600435906024356001600160a01b038116810361006e5790565b9190820391821161023757565b60ff6005610346836104a3565b015460a01c1660038110156102d4576001036102c55761036633826104e8565b906001600160a01b0382169182156104685760407fd252d054e704b15790b76d290b3c00b26a39329e24f8de568a45390fbd0d3ce5916103a63385610548565b906103b181866105a1565b918083111561045c5761028f6103c7918461032c565b5f835160208101907fc3de27a01aa54ffcb04f207e8a4f4a16b583945f9cf1c6868757ca4e0e693152825287868201526bffffffffffffffffffffffff193360601b1660608201526054815261041e60748261046d565b519020558583515f8152867fda8fcb4c7ecd4c5625ea5caa0e7d6e40323c3fbcde2757215a227c54344532dc60203393a482519182526020820152a3565b506103c75f8092610292565b505050565b90601f8019910116810190811067ffffffffffffffff82111761048f57604052565b634e487b7160e01b5f52604160045260245ffd5b60405160208101917fc61520f0fc87f37c054c240fb12fa829a873c4a7f3a227d3cdaf38f732a45b0d83526040820152604081526104e260608261046d565b51902090565b906040519060208201927fc3de27a01aa54ffcb04f207e8a4f4a16b583945f9cf1c6868757ca4e0e693152845260408301526bffffffffffffffffffffffff199060601b1660608201526054815261054160748261046d565b5190205490565b906040519060208201927f8558c73f0b9098e6be43e479b1cf30236e7e64287529940c5fdd38ab47be3e09845260408301526bffffffffffffffffffffffff199060601b1660608201526054815261054160748261046d565b906040519060208201927f0d5b18ea51234f5557964678168b512e7844d6b8406c15c9ac0ae675917d830f845260408301526bffffffffffffffffffffffff199060601b1660608201526054815261054160748261046d565b906040519060208201927f0d5b18ea51234f5557964678168b512e7844d6b8406c15c9ac0ae675917d830f845260408301526bffffffffffffffffffffffff199060601b1660608201526054815261065360748261046d565b5190205556fea264697066735822122062eb4d03f7f1285c28f8cfd1fbb33389c688f79b2105a570f15791eb8346c6cd64736f6c634300081a0033",
  "linkReferences": {},
  "deployedLinkReferences": {}
}