{
  "_format": "hh-sol-artifact-1",
  "contractName": "DelegationFacet",
  "sourceName": "contracts/cabal/diamond/facets/DelegationFacet.sol",
  "abi": [
    {
      "inputs": [],
      "name": "AlreadyDelegatedToThis",
      "type": "error"
    },
    {
      "inputs": [],
      "name": "CabalNotActive",
      "type": "error"
    },
    {
      "inputs": [],
      "name": "CannotDelegateToSelf",
      "type": "error"
    },
    {
      "inputs": [],
      "name": "CannotDelegateToZero",
      "type": "error"
    },
    {
      "anonymous": false,
      "inputs": [
        {
          "indexed": true,
          "internalType": "uint256",
          "name": "cabalId",
          "type": "uint256"
        },
        {
          "indexed": true,
          "internalType": "address",
          "name": "delegator",
          "type": "address"
        },
        {
          "indexed": true,
          "internalType": "address",
          "name": "fromDelegate",
          "type": "address"
        },
        {
          "indexed": false,
          "internalType": "address",
          "name": "toDelegate",
          "type": "address"
        }
      ],
      "name": "DelegateChanged",
      "type": "event"
    },
    {
      "anonymous": false,
      "inputs": [
        {
          "indexed": true,
          "internalType": "uint256",
          "name": "cabalId",
          "type": "uint256"
        },
        {
          "indexed": true,
          "internalType": "address",
          "name": "delegatee",
          "type": "address"
        },
        {
          "indexed": false,
          "internalType": "uint256",
          "name": "previousPower",
          "type": "uint256"
        },
        {
          "indexed": false,
          "internalType": "uint256",
          "name": "newPower",
          "type": "uint256"
        }
      ],
      "name": "DelegatedPowerChanged",
      "type": "event"
    },
    {
      "inputs": [
        {
          "internalType": "uint256",
          "name": "cabalId",
          "type": "uint256"
        },
        {
          "internalType": "address",
          "name": "delegatee",
          "type": "address"
        }
      ],
      "name": "delegate",
      "outputs": [],
      "stateMutability": "nonpayable",
      "type": "function"
    },
    {
      "inputs": [
        {
          "internalType": "uint256",
          "name": "cabalId",
          "type": "uint256"
        },
        {
          "internalType": "address",
          "name": "delegatee",
          "type": "address"
        }
      ],
      "name": "getDelegatedPower",
      "outputs": [
        {
          "internalType": "uint256",
          "name": "",
          "type": "uint256"
        }
      ],
      "stateMutability": "view",
      "type": "function"
    },
    {
      "inputs": [
        {
          "internalType": "uint256",
          "name": "cabalId",
          "type": "uint256"
        },
        {
          "internalType": "address",
          "name": "delegator",
          "type": "address"
        }
      ],
      "name": "getDelegatee",
      "outputs": [
        {
          "internalType": "address",
          "name": "",
          "type": "address"
        }
      ],
      "stateMutability": "view",
      "type": "function"
    },
    {
      "inputs": [
        {
          "internalType": "uint256",
          "name": "cabalId",
          "type": "uint256"
        },
        {
          "internalType": "address",
          "name": "user",
          "type": "address"
        }
      ],
      "name": "hasDelegated",
      "outputs": [
        {
          "internalType": "bool",
          "name": "",
          "type": "bool"
        }
      ],
      "stateMutability": "view",
      "type": "function"
    },
    {
      "inputs": [
        {
          "internalType": "uint256",
          "name": "cabalId",
          "type": "uint256"
        }
      ],
      "name": "undelegate",
      "outputs": [],
      "stateMutability": "nonpayable",
      "type": "function"
    }
  ],
  "bytecode": "0x6080806040523460155761078c908161001a8239f35b5f80fdfe60806040526004361015610011575f80fd5b5f3560e01c806308bbb824146100e35780631cae6ed8146100bf57806335a9e52f1461009e57806355f3985b1461007257636c68c0e114610050575f80fd5b3461006e57602036600319011261006e5761006c600435610326565b005b5f80fd5b3461006e5760206001600160a01b0361009361008d366102d2565b906104d8565b161515604051908152f35b3461006e5760206100b76100b1366102d2565b9061069e565b604051908152f35b3461006e5760206100d261008d366102d2565b6001600160a01b0360405191168152f35b3461006e576100f1366102d2565b906001600160a01b0382169182156102c3573383146102b45761011382610493565b60ff600582015460a01c1660038110156102a0576001036102915761013833846104d8565b6001600160a01b0381169285841461028257837fd252d054e704b15790b76d290b3c00b26a39329e24f8de568a45390fbd0d3ce5948661017b6040963383610538565b9482610238575b506101999150836101929161069e565b9384610319565b916101a58382896106f7565b845160208101907fc3de27a01aa54ffcb04f207e8a4f4a16b583945f9cf1c6868757ca4e0e693152825288878201526bffffffffffffffffffffffff193360601b166060820152605481526101fb60748261045d565b519020558351878152867fda8fcb4c7ecd4c5625ea5caa0e7d6e40323c3fbcde2757215a227c54344532dc60203393a482519182526020820152a3005b86816102458a938561069e565b90888211156102775761026461025b8a846102f8565b80925b876106f7565b82519182526020820152a3808689610182565b6102645f809261025e565b63097fee3760e11b5f5260045ffd5b6307dab7b360e31b5f5260045ffd5b634e487b7160e01b5f52602160045260245ffd5b633be64e5b60e21b5f5260045ffd5b630a47fc2360e01b5f5260045ffd5b604090600319011261006e57600435906024356001600160a01b038116810361006e5790565b9190820391821161030557565b634e487b7160e01b5f52601160045260245ffd5b9190820180921161030557565b61032f81610493565b9060ff600583015460a01c1660038110156102a0576001036102915761035533826104d8565b6001600160a01b038116928315610457577fd252d054e704b15790b76d290b3c00b26a39329e24f8de568a45390fbd0d3ce5916103956040923386610538565b906103a0818661069e565b918083111561044b5761025b6103b691846102f8565b5f835160208101907fc3de27a01aa54ffcb04f207e8a4f4a16b583945f9cf1c6868757ca4e0e693152825287868201526bffffffffffffffffffffffff193360601b1660608201526054815261040d60748261045d565b519020558583515f8152867fda8fcb4c7ecd4c5625ea5caa0e7d6e40323c3fbcde2757215a227c54344532dc60203393a482519182526020820152a3565b506103b65f809261025e565b50505050565b90601f8019910116810190811067ffffffffffffffff82111761047f57604052565b634e487b7160e01b5f52604160045260245ffd5b60405160208101917fc61520f0fc87f37c054c240fb12fa829a873c4a7f3a227d3cdaf38f732a45b0d83526040820152604081526104d260608261045d565b51902090565b906040519060208201927fc3de27a01aa54ffcb04f207e8a4f4a16b583945f9cf1c6868757ca4e0e693152845260408301526bffffffffffffffffffffffff199060601b1660608201526054815261053160748261045d565b5190205490565b6040519160208301907f8558c73f0b9098e6be43e479b1cf30236e7e64287529940c5fdd38ab47be3e0982528260408501526bffffffffffffffffffffffff199060601b16928360608201526054815261059360748261045d565b51902054905f92600160405160208101907ffa7666f901d98d7ddb6dca66654a4b44590f640f4803ecfa6cdcb1bcf243032b8252846040820152836060820152605481526105e260748261045d565b51902054141580610691575b610602575b50506105ff9250610319565b90565b909192506040519060208201927ff9cb95d6bcd70b8f41deb63f6a0973398a369f058485501ab1645d87ca4235428452604083015260608201526054815261064b60748261045d565b51902054916007810154928381029381850414901517156103055760060154801561067d576105ff9204905f806105f3565b634e487b7160e01b5f52601260045260245ffd5b50600685015415156105ee565b906040519060208201927f0d5b18ea51234f5557964678168b512e7844d6b8406c15c9ac0ae675917d830f845260408301526bffffffffffffffffffffffff199060601b1660608201526054815261053160748261045d565b906040519060208201927f0d5b18ea51234f5557964678168b512e7844d6b8406c15c9ac0ae675917d830f845260408301526bffffffffffffffffffffffff199060601b1660608201526054815261075060748261045d565b5190205556fea26469706673582212204b93eb37c833daa121789206df0fd231760d55b289dc0a940075bbb5f2ead92564736f6c634300081a0033",
  "linkReferences": {},
  "deployedLinkReferences": {}
}