{
  "_format": "hh-sol-artifact-1",
  "contractName": "ActivityFacet",
  "sourceName": "contracts/cabal/diamond/facets/ActivityFacet.sol",
  "abi": [
    {
      "inputs": [],
      "name": "getRecentActivities",
      "outputs": [
        {
          "components": [
            {
              "internalType": "uint256",
              "name": "cabalId",
              "type": "uint256"
            },
            {
              "internalType": "address",
              "name": "actor",
              "type": "address"
            },
            {
              "internalType": "enum ActivityType",
              "name": "activityType",
              "type": "uint8"
            },
            {
              "internalType": "uint256",
              "name": "amount",
              "type": "uint256"
            },
            {
              "internalType": "uint256",
              "name": "timestamp",
              "type": "uint256"
            }
          ],
          "internalType": "struct Activity[10]",
          "name": "activities",
          "type": "tuple[10]"
        },
        {
          "internalType": "uint256",
          "name": "count",
          "type": "uint256"
        }
      ],
      "stateMutability": "view",
      "type": "function"
    },
    {
      "inputs": [],
      "name": "getTotalActivityCount",
      "outputs": [
        {
          "internalType": "uint256",
          "name": "",
          "type": "uint256"
        }
      ],
      "stateMutability": "view",
      "type": "function"
    }
  ],
  "bytecode": "0x608080604052346015576103a2908161001a8239f35b5f80fdfe60806040526004361015610011575f80fd5b5f3560e01c8063b21e2cff1461006f5763ebfbcc901461002f575f80fd5b3461006b575f36600319011261006b5760207fe9a1dee022580a06f80b398cb0f2690fb71e0b4cb2e78fb97d5795b2fc75e8d454604051908152f35b5f80fd5b3461006b575f36600319011261006b576100876102fd565b506100906102fd565b7fe9a1dee022580a06f80b398cb0f2690fb71e0b4cb2e78fb97d5795b2fc75e8d454600a8110156102c1575b7fe9a1dee022580a06f80b398cb0f2690fb71e0b4cb2e78fb97d5795b2fc75e8d35460098101808211915f5b848110610183576040518690865f825b600a821061010d576106608484610640820152f35b84518051825273ffffffffffffffffffffffffffffffffffffffff6020820151166020830152604081015190600f82101561016f5782608060a092602094604060019701526060810151606084015201516080820152019501910190936100f8565b634e487b7160e01b5f52602160045260245ffd5b836102ad576009818303018381116102ad57600a9006600a8110156102995760021b906101ae6102c9565b827fe9a1dee022580a06f80b398cb0f2690fb71e0b4cb2e78fb97d5795b2fc75e8ab0154815260ff7fe9a1dee022580a06f80b398cb0f2690fb71e0b4cb2e78fb97d5795b2fc75e8ac84015473ffffffffffffffffffffffffffffffffffffffff8116602084015260a01c16600f81101561016f576001937fe9a1dee022580a06f80b398cb0f2690fb71e0b4cb2e78fb97d5795b2fc75e8ae9160408401527fe9a1dee022580a06f80b398cb0f2690fb71e0b4cb2e78fb97d5795b2fc75e8ad810154606084015201546080820152610287828961035b565b52610292818861035b565b50016100e8565b634e487b7160e01b5f52603260045260245ffd5b634e487b7160e01b5f52601160045260245ffd5b50600a6100bc565b6040519060a0820182811067ffffffffffffffff8211176102e957604052565b634e487b7160e01b5f52604160045260245ffd5b6040519061014082810167ffffffffffffffff8111848210176102e957604052825f5b82811061032c57505050565b6020906103376102c9565b5f81525f838201525f60408201525f60608201525f60808201528184015201610320565b90600a8110156102995760051b019056fea2646970667358221220001ed2009c028b09605e42f5f0c858469b90868b1184b1c9884b617f2728439764736f6c634300081a0033",
  "linkReferences": {},
  "deployedLinkReferences": {}
}