{
  "_format": "hh-sol-artifact-1",
  "contractName": "CabalTBA",
  "sourceName": "contracts/cabal/CabalTBA.sol",
  "abi": [
    {
      "inputs": [],
      "name": "InvalidOperation",
      "type": "error"
    },
    {
      "inputs": [],
      "name": "NotAuthorized",
      "type": "error"
    },
    {
      "inputs": [
        {
          "internalType": "address",
          "name": "to",
          "type": "address"
        },
        {
          "internalType": "uint256",
          "name": "value",
          "type": "uint256"
        },
        {
          "internalType": "bytes",
          "name": "data",
          "type": "bytes"
        },
        {
          "internalType": "uint8",
          "name": "operation",
          "type": "uint8"
        }
      ],
      "name": "execute",
      "outputs": [
        {
          "internalType": "bytes",
          "name": "result",
          "type": "bytes"
        }
      ],
      "stateMutability": "payable",
      "type": "function"
    },
    {
      "inputs": [
        {
          "internalType": "address",
          "name": "to",
          "type": "address"
        },
        {
          "internalType": "uint256",
          "name": "value",
          "type": "uint256"
        },
        {
          "internalType": "bytes",
          "name": "data",
          "type": "bytes"
        }
      ],
      "name": "executeCall",
      "outputs": [
        {
          "internalType": "bytes",
          "name": "result",
          "type": "bytes"
        }
      ],
      "stateMutability": "payable",
      "type": "function"
    },
    {
      "inputs": [
        {
          "internalType": "address",
          "name": "signer",
          "type": "address"
        },
        {
          "internalType": "bytes",
          "name": "",
          "type": "bytes"
        }
      ],
      "name": "isValidSigner",
      "outputs": [
        {
          "internalType": "bytes4",
          "name": "",
          "type": "bytes4"
        }
      ],
      "stateMutability": "view",
      "type": "function"
    },
    {
      "inputs": [
        {
          "internalType": "address",
          "name": "",
          "type": "address"
        },
        {
          "internalType": "address",
          "name": "",
          "type": "address"
        },
        {
          "internalType": "uint256[]",
          "name": "",
          "type": "uint256[]"
        },
        {
          "internalType": "uint256[]",
          "name": "",
          "type": "uint256[]"
        },
        {
          "internalType": "bytes",
          "name": "",
          "type": "bytes"
        }
      ],
      "name": "onERC1155BatchReceived",
      "outputs": [
        {
          "internalType": "bytes4",
          "name": "",
          "type": "bytes4"
        }
      ],
      "stateMutability": "pure",
      "type": "function"
    },
    {
      "inputs": [
        {
          "internalType": "address",
          "name": "",
          "type": "address"
        },
        {
          "internalType": "address",
          "name": "",
          "type": "address"
        },
        {
          "internalType": "uint256",
          "name": "",
          "type": "uint256"
        },
        {
          "internalType": "uint256",
          "name": "",
          "type": "uint256"
        },
        {
          "internalType": "bytes",
          "name": "",
          "type": "bytes"
        }
      ],
      "name": "onERC1155Received",
      "outputs": [
        {
          "internalType": "bytes4",
          "name": "",
          "type": "bytes4"
        }
      ],
      "stateMutability": "pure",
      "type": "function"
    },
    {
      "inputs": [
        {
          "internalType": "address",
          "name": "",
          "type": "address"
        },
        {
          "internalType": "address",
          "name": "",
          "type": "address"
        },
        {
          "internalType": "uint256",
          "name": "",
          "type": "uint256"
        },
        {
          "internalType": "bytes",
          "name": "",
          "type": "bytes"
        }
      ],
      "name": "onERC721Received",
      "outputs": [
        {
          "internalType": "bytes4",
          "name": "",
          "type": "bytes4"
        }
      ],
      "stateMutability": "pure",
      "type": "function"
    },
    {
      "inputs": [],
      "name": "owner",
      "outputs": [
        {
          "internalType": "address",
          "name": "",
          "type": "address"
        }
      ],
      "stateMutability": "view",
      "type": "function"
    },
    {
      "inputs": [],
      "name": "state",
      "outputs": [
        {
          "internalType": "uint256",
          "name": "",
          "type": "uint256"
        }
      ],
      "stateMutability": "view",
      "type": "function"
    },
    {
      "inputs": [
        {
          "internalType": "bytes4",
          "name": "interfaceId",
          "type": "bytes4"
        }
      ],
      "name": "supportsInterface",
      "outputs": [
        {
          "internalType": "bool",
          "name": "",
          "type": "bool"
        }
      ],
      "stateMutability": "pure",
      "type": "function"
    },
    {
      "inputs": [],
      "name": "token",
      "outputs": [
        {
          "internalType": "uint256",
          "name": "chainId",
          "type": "uint256"
        },
        {
          "internalType": "address",
          "name": "tokenContract",
          "type": "address"
        },
        {
          "internalType": "uint256",
          "name": "tokenId",
          "type": "uint256"
        }
      ],
      "stateMutability": "view",
      "type": "function"
    },
    {
      "stateMutability": "payable",
      "type": "receive"
    }
  ],
  "bytecode": "0x6080806040523460155761089e908161001a8239f35b5f80fdfe6080604052600436101561001a575b3615610018575f80fd5b005b5f3560e01c806301ffc9a7146100b9578063150b7a02146100b457806351945447146100af578063523e3260146100aa5780638da5cb5b146100a55780639e5d4c49146100a0578063bc197c811461009b578063c19d93fb14610096578063f23a6e61146100915763fc0c546a0361000e57610647565b6105d4565b6105b8565b610500565b61044f565b610424565b6103b0565b6102a8565b610224565b346101e15760203660031901126101e1576004357fffffffff0000000000000000000000000000000000000000000000000000000081168091036101e157807f01ffc9a70000000000000000000000000000000000000000000000000000000061014e92149081156101b7575b811561018d575b811561017c575b8115610152575b5060405190151581529081906020820190565b0390f35b7f4e2312e0000000000000000000000000000000000000000000000000000000009150145f61013b565b630a85bd0160e11b81149150610134565b7f51945447000000000000000000000000000000000000000000000000000000008114915061012d565b7f6faff5f10000000000000000000000000000000000000000000000000000000081149150610126565b5f80fd5b6001600160a01b038116036101e157565b9181601f840112156101e15782359167ffffffffffffffff83116101e157602083818601950101116101e157565b346101e15760803660031901126101e1576102406004356101e5565b61024b6024356101e5565b60643567ffffffffffffffff81116101e15761026b9036906004016101f6565b50506020604051630a85bd0160e11b8152f35b602060409281835280519182918282860152018484015e5f828201840152601f01601f1916010190565b60803660031901126101e1576004356102c0816101e5565b6024359060443567ffffffffffffffff81116101e1576102e49036906004016101f6565b60649291923560ff81168091036101e15761030f6001600160a01b03610308610769565b1633141590565b61038857610360575f938493610325855461067f565b8555610336604051809481936106a1565b03925af16103426106e9565b90156103585761014e906040519182918261027e565b602081519101fd5b7f398d4d32000000000000000000000000000000000000000000000000000000005f5260045ffd5b7fea8e4eb5000000000000000000000000000000000000000000000000000000005f5260045ffd5b346101e15760403660031901126101e1576004356103cd816101e5565b60243567ffffffffffffffff81116101e1576020916103f36103fa9236906004016101f6565b5050610728565b7fffffffff0000000000000000000000000000000000000000000000000000000060405191168152f35b346101e1575f3660031901126101e157602061043e610769565b6001600160a01b0360405191168152f35b60603660031901126101e157600435610467816101e5565b6024359060443567ffffffffffffffff81116101e15761048b9036906004016101f6565b6001600160a01b0361049e939293610769565b163303610388575f9384936104b3855461067f565b8555826040519384928337810185815203925af16103426106e9565b9181601f840112156101e15782359167ffffffffffffffff83116101e1576020808501948460051b0101116101e157565b346101e15760a03660031901126101e15761051c6004356101e5565b6105276024356101e5565b60443567ffffffffffffffff81116101e1576105479036906004016104cf565b505060643567ffffffffffffffff81116101e1576105699036906004016104cf565b505060843567ffffffffffffffff81116101e15761058b9036906004016101f6565b50506040517fbc197c81000000000000000000000000000000000000000000000000000000008152602090f35b346101e1575f3660031901126101e15760205f54604051908152f35b346101e15760a03660031901126101e1576105f06004356101e5565b6105fb6024356101e5565b60843567ffffffffffffffff81116101e15761061b9036906004016101f6565b505060206040517ff23a6e61000000000000000000000000000000000000000000000000000000008152f35b346101e1575f3660031901126101e15760606001600160a01b03610669610814565b9192906040519384521660208301526040820152f35b5f19811461068d5760010190565b634e487b7160e01b5f52601160045260245ffd5b908092918237015f815290565b634e487b7160e01b5f52604160045260245ffd5b90601f8019910116810190811067ffffffffffffffff8211176106e457604052565b6106ae565b3d15610723573d9067ffffffffffffffff82116106e45760405191610718601f8201601f1916602001846106c2565b82523d5f602084013e565b606090565b6001600160a01b0380610739610769565b16911614610745575f90565b7f523e32600000000000000000000000000000000000000000000000000000000090565b610771610814565b9091460361080e576001600160a01b0391602460209260405194859384927f6352211e0000000000000000000000000000000000000000000000000000000084526004840152165afa908115610803575f916107cb575090565b90506020813d6020116107fb575b816107e6602093836106c2565b810103126101e157516107f8816101e5565b90565b3d91506107d9565b6040513d5f823e3d90fd5b50505f90565b604051906108236080836106c2565b606080835260208301903682376060604d82303c6060838051810103126101e15751906001600160a01b03606060408501519461085f866101e5565b0151929316919056fea2646970667358221220cd0bff9262fa9ab408c18c9d63601b805d629ecb5f0a320004712064f03c4a4564736f6c634300081a0033",
  "linkReferences": {},
  "deployedLinkReferences": {}
}