{
  "_format": "hh-sol-artifact-1",
  "contractName": "TreasuryFacet",
  "sourceName": "contracts/cabal/diamond/facets/TreasuryFacet.sol",
  "abi": [
    {
      "inputs": [],
      "name": "CabalNotActive",
      "type": "error"
    },
    {
      "inputs": [],
      "name": "ClaimFailed",
      "type": "error"
    },
    {
      "anonymous": false,
      "inputs": [
        {
          "indexed": true,
          "internalType": "uint256",
          "name": "cabalId",
          "type": "uint256"
        },
        {
          "indexed": true,
          "internalType": "address",
          "name": "token",
          "type": "address"
        },
        {
          "indexed": false,
          "internalType": "uint256",
          "name": "amount",
          "type": "uint256"
        }
      ],
      "name": "LPFeesClaimed",
      "type": "event"
    },
    {
      "inputs": [
        {
          "internalType": "address",
          "name": "router",
          "type": "address"
        },
        {
          "internalType": "address",
          "name": "",
          "type": "address"
        },
        {
          "internalType": "uint256",
          "name": "ethAmount",
          "type": "uint256"
        },
        {
          "internalType": "uint256",
          "name": "minAmountOut",
          "type": "uint256"
        },
        {
          "internalType": "uint256",
          "name": "deadline",
          "type": "uint256"
        }
      ],
      "name": "buildBuyTokenCalldata",
      "outputs": [
        {
          "internalType": "address",
          "name": "target",
          "type": "address"
        },
        {
          "internalType": "uint256",
          "name": "value",
          "type": "uint256"
        },
        {
          "internalType": "bytes",
          "name": "data",
          "type": "bytes"
        }
      ],
      "stateMutability": "pure",
      "type": "function"
    },
    {
      "inputs": [
        {
          "internalType": "address",
          "name": "diamond",
          "type": "address"
        },
        {
          "internalType": "uint256",
          "name": "targetCabalId",
          "type": "uint256"
        },
        {
          "internalType": "uint256",
          "name": "ethAmount",
          "type": "uint256"
        }
      ],
      "name": "buildInvestInPresaleCalldata",
      "outputs": [
        {
          "internalType": "address",
          "name": "target",
          "type": "address"
        },
        {
          "internalType": "uint256",
          "name": "value",
          "type": "uint256"
        },
        {
          "internalType": "bytes",
          "name": "data",
          "type": "bytes"
        }
      ],
      "stateMutability": "pure",
      "type": "function"
    },
    {
      "inputs": [
        {
          "internalType": "address",
          "name": "to",
          "type": "address"
        },
        {
          "internalType": "uint256",
          "name": "amount",
          "type": "uint256"
        }
      ],
      "name": "buildTransferETHCalldata",
      "outputs": [
        {
          "internalType": "address",
          "name": "target",
          "type": "address"
        },
        {
          "internalType": "uint256",
          "name": "value",
          "type": "uint256"
        },
        {
          "internalType": "bytes",
          "name": "data",
          "type": "bytes"
        }
      ],
      "stateMutability": "pure",
      "type": "function"
    },
    {
      "inputs": [
        {
          "internalType": "address",
          "name": "token",
          "type": "address"
        },
        {
          "internalType": "address",
          "name": "to",
          "type": "address"
        },
        {
          "internalType": "uint256",
          "name": "amount",
          "type": "uint256"
        }
      ],
      "name": "buildTransferTokenCalldata",
      "outputs": [
        {
          "internalType": "address",
          "name": "target",
          "type": "address"
        },
        {
          "internalType": "uint256",
          "name": "value",
          "type": "uint256"
        },
        {
          "internalType": "bytes",
          "name": "data",
          "type": "bytes"
        }
      ],
      "stateMutability": "pure",
      "type": "function"
    },
    {
      "inputs": [
        {
          "internalType": "uint256",
          "name": "cabalId",
          "type": "uint256"
        },
        {
          "internalType": "address",
          "name": "token",
          "type": "address"
        }
      ],
      "name": "claimLPFees",
      "outputs": [],
      "stateMutability": "nonpayable",
      "type": "function"
    },
    {
      "inputs": [
        {
          "internalType": "uint256",
          "name": "cabalId",
          "type": "uint256"
        },
        {
          "internalType": "address",
          "name": "token",
          "type": "address"
        }
      ],
      "name": "getClaimableLPFees",
      "outputs": [
        {
          "internalType": "uint256",
          "name": "",
          "type": "uint256"
        }
      ],
      "stateMutability": "view",
      "type": "function"
    },
    {
      "inputs": [
        {
          "internalType": "uint256",
          "name": "cabalId",
          "type": "uint256"
        }
      ],
      "name": "getOwnTokenBalance",
      "outputs": [
        {
          "internalType": "uint256",
          "name": "",
          "type": "uint256"
        }
      ],
      "stateMutability": "view",
      "type": "function"
    },
    {
      "inputs": [
        {
          "internalType": "uint256",
          "name": "cabalId",
          "type": "uint256"
        }
      ],
      "name": "getTreasuryETHBalance",
      "outputs": [
        {
          "internalType": "uint256",
          "name": "",
          "type": "uint256"
        }
      ],
      "stateMutability": "view",
      "type": "function"
    },
    {
      "inputs": [
        {
          "internalType": "uint256",
          "name": "cabalId",
          "type": "uint256"
        },
        {
          "internalType": "address",
          "name": "token",
          "type": "address"
        }
      ],
      "name": "getTreasuryTokenBalance",
      "outputs": [
        {
          "internalType": "uint256",
          "name": "",
          "type": "uint256"
        }
      ],
      "stateMutability": "view",
      "type": "function"
    }
  ],
  "bytecode": "0x60808060405234601557610859908161001a8239f35b5f80fdfe60806040526004361015610011575f80fd5b5f3560e01c80619e71146105d25780631c96c833146105ac57806327cc95e7146105115780632b3e7b22146102755780633f4a105b146102425780635ff89bd9146102045780636971ada81461014d578063d6c43fcb146100d45763e8ba660d1461007a575f80fd5b346100d05760603660031901126100d057610093610692565b60405163c1cbbca760e01b602082015260248035818301528152906100b96044836106f4565b6100cc60405192839260443590846106cc565b0390f35b5f80fd5b346100d05760603660031901126100d0576001600160a01b036100f5610692565b6100cc61010061067c565b60405163a9059cbb60e01b602082015290841660248201526044803581830152815261012d6064826106f4565b6040519384931683525f60208401526060604084015260608301906106a8565b346100d05760a03660031901126100d057610166610692565b61016e61067c565b5060405190602061017f81846106f4565b5f83525f3681376040518093637ff36ab560e01b8383015260a4820160643560248401526080604484015281518091528360c484019201935f5b8281106101e4575050506100b992505f6064830152608435608483015203601f1981018452836106f4565b85516001600160a01b0316845294810194879450928101926001016101b9565b346100d05760403660031901126100d05761021d610692565b6040519061022c6020836106f4565b5f82526100cc60405192839260243590846106cc565b346100d05760203660031901126100d05760206001600160a01b03600461026981356107de565b01541631604051908152f35b346100d05760403660031901126100d05760043561029161067c565b9061029b816107de565b9160ff600584015460a01c1660038110156104fd576001036104ee5760046001600160a01b03821693016001600160a01b03815416604051926370a0823160e01b8452816004850152602084602481895afa938415610487575f946104ba575b506040516310e059a160e11b60208201526001600160a01b03808416602483015290911660448201525f91829161033f81606481015b03601f1981018352826106f4565b826103316103a36001600160a01b037ff6b912f89c06d8afd06b9fa8bd742c729f30156da50b94481faddbc9d0b4e9e75416936040519283916020830196639e5d4c4960e01b885260248401528560448401526060606484015260848301906106a8565b51925af13d156104b5573d67ffffffffffffffff81116104a157604051906103d5601f8201601f1916602001836106f4565b81525f60203d92013e5b1561049257546040516370a0823160e01b81526001600160a01b03909116600482015290602082602481875afa918215610487575f92610451575b506104486020917f70b58fe861a1579825eb5901fd8654de9da69676f3f962c64576b39c3282b3bd93610716565b604051908152a3005b91506020823d60201161047f575b8161046c602093836106f4565b810103126100d05790519061044861041a565b3d915061045f565b6040513d5f823e3d90fd5b63360e42e160e01b5f5260045ffd5b634e487b7160e01b5f52604160045260245ffd5b6103df565b9093506020813d6020116104e6575b816104d6602093836106f4565b810103126100d05751925f6102fb565b3d91506104c9565b6307dab7b360e31b5f5260045ffd5b634e487b7160e01b5f52602160045260245ffd5b346100d05760403660031901126100d0576001600160a01b03602061053461067c565b602483600461054381356107de565b01546040516370a0823160e01b8152911660048201529384928391165afa8015610487575f90610579575b602090604051908152f35b506020813d6020116105a4575b81610593602093836106f4565b810103126100d0576020905161056e565b3d9150610586565b346100d05760203660031901126100d05760206105ca600435610737565b604051908152f35b346100d05760403660031901126100d05761066160206105f061067c565b6105fb6004356107de565b6001600160a01b036004817ff6b912f89c06d8afd06b9fa8bd742c729f30156da50b94481faddbc9d0b4e9e754169201541660405180958194829363414b29ad60e11b8452600484019092916001600160a01b0360209181604085019616845216910152565b03915afa8015610487575f9061057957602090604051908152f35b602435906001600160a01b03821682036100d057565b600435906001600160a01b03821682036100d057565b805180835260209291819084018484015e5f828201840152601f01601f1916010190565b6106f193926001600160a01b03606093168252602082015281604082015201906106a8565b90565b90601f8019910116810190811067ffffffffffffffff8211176104a157604052565b9190820391821161072357565b634e487b7160e01b5f52601160045260245ffd5b610740906107de565b6001600160a01b036005820154169081156107a35760206001600160a01b036004830154166024604051809581936370a0823160e01b835260048301525afa918215610487575f926107a9575b50600e0154808211156107a3576106f191610716565b50505f90565b9091506020813d6020116107d6575b816107c5602093836106f4565b810103126100d0575190600e61078d565b3d91506107b8565b60405160208101917fc61520f0fc87f37c054c240fb12fa829a873c4a7f3a227d3cdaf38f732a45b0d835260408201526040815261081d6060826106f4565b5190209056fea2646970667358221220e9b14bb7be4e8358ef9c69b4f453e3621e72c5c8b2e10b7e11d0486317c453bf64736f6c634300081a0033",
  "linkReferences": {},
  "deployedLinkReferences": {}
}