{
  "_format": "hh-sol-artifact-1",
  "contractName": "GovernanceFacet",
  "sourceName": "contracts/cabal/diamond/facets/GovernanceFacet.sol",
  "abi": [
    {
      "inputs": [],
      "name": "AlreadyVoted",
      "type": "error"
    },
    {
      "inputs": [],
      "name": "ArrayLengthMismatch",
      "type": "error"
    },
    {
      "inputs": [],
      "name": "CabalNotActive",
      "type": "error"
    },
    {
      "inputs": [],
      "name": "ExecutionFailed",
      "type": "error"
    },
    {
      "inputs": [],
      "name": "InsufficientVotingPower",
      "type": "error"
    },
    {
      "inputs": [],
      "name": "NotProposer",
      "type": "error"
    },
    {
      "inputs": [],
      "name": "ProposalAlreadyExecuted",
      "type": "error"
    },
    {
      "inputs": [],
      "name": "ProposalNotActive",
      "type": "error"
    },
    {
      "inputs": [],
      "name": "ProposalNotSucceeded",
      "type": "error"
    },
    {
      "anonymous": false,
      "inputs": [
        {
          "indexed": true,
          "internalType": "uint256",
          "name": "cabalId",
          "type": "uint256"
        },
        {
          "indexed": true,
          "internalType": "uint256",
          "name": "proposalId",
          "type": "uint256"
        }
      ],
      "name": "ProposalCancelled",
      "type": "event"
    },
    {
      "anonymous": false,
      "inputs": [
        {
          "indexed": true,
          "internalType": "uint256",
          "name": "cabalId",
          "type": "uint256"
        },
        {
          "indexed": true,
          "internalType": "uint256",
          "name": "proposalId",
          "type": "uint256"
        },
        {
          "indexed": true,
          "internalType": "address",
          "name": "proposer",
          "type": "address"
        },
        {
          "indexed": false,
          "internalType": "address[]",
          "name": "targets",
          "type": "address[]"
        },
        {
          "indexed": false,
          "internalType": "uint256[]",
          "name": "values",
          "type": "uint256[]"
        },
        {
          "indexed": false,
          "internalType": "bytes[]",
          "name": "calldatas",
          "type": "bytes[]"
        },
        {
          "indexed": false,
          "internalType": "string",
          "name": "description",
          "type": "string"
        },
        {
          "indexed": false,
          "internalType": "uint256",
          "name": "startBlock",
          "type": "uint256"
        },
        {
          "indexed": false,
          "internalType": "uint256",
          "name": "endBlock",
          "type": "uint256"
        }
      ],
      "name": "ProposalCreated",
      "type": "event"
    },
    {
      "anonymous": false,
      "inputs": [
        {
          "indexed": true,
          "internalType": "uint256",
          "name": "cabalId",
          "type": "uint256"
        },
        {
          "indexed": true,
          "internalType": "uint256",
          "name": "proposalId",
          "type": "uint256"
        }
      ],
      "name": "ProposalExecuted",
      "type": "event"
    },
    {
      "anonymous": false,
      "inputs": [
        {
          "indexed": true,
          "internalType": "uint256",
          "name": "cabalId",
          "type": "uint256"
        },
        {
          "indexed": true,
          "internalType": "uint256",
          "name": "proposalId",
          "type": "uint256"
        },
        {
          "indexed": true,
          "internalType": "address",
          "name": "voter",
          "type": "address"
        },
        {
          "indexed": false,
          "internalType": "bool",
          "name": "support",
          "type": "bool"
        },
        {
          "indexed": false,
          "internalType": "uint256",
          "name": "weight",
          "type": "uint256"
        }
      ],
      "name": "VoteCast",
      "type": "event"
    },
    {
      "inputs": [
        {
          "internalType": "uint256",
          "name": "cabalId",
          "type": "uint256"
        },
        {
          "internalType": "uint256",
          "name": "proposalId",
          "type": "uint256"
        }
      ],
      "name": "cancelProposal",
      "outputs": [],
      "stateMutability": "nonpayable",
      "type": "function"
    },
    {
      "inputs": [
        {
          "internalType": "uint256",
          "name": "cabalId",
          "type": "uint256"
        },
        {
          "internalType": "address[]",
          "name": "targets",
          "type": "address[]"
        },
        {
          "internalType": "uint256[]",
          "name": "values",
          "type": "uint256[]"
        },
        {
          "internalType": "bytes[]",
          "name": "calldatas",
          "type": "bytes[]"
        },
        {
          "internalType": "string",
          "name": "description",
          "type": "string"
        }
      ],
      "name": "createProposal",
      "outputs": [
        {
          "internalType": "uint256",
          "name": "proposalId",
          "type": "uint256"
        }
      ],
      "stateMutability": "nonpayable",
      "type": "function"
    },
    {
      "inputs": [
        {
          "internalType": "uint256",
          "name": "cabalId",
          "type": "uint256"
        },
        {
          "internalType": "uint256",
          "name": "proposalId",
          "type": "uint256"
        }
      ],
      "name": "executeProposal",
      "outputs": [],
      "stateMutability": "nonpayable",
      "type": "function"
    },
    {
      "inputs": [
        {
          "internalType": "uint256",
          "name": "cabalId",
          "type": "uint256"
        }
      ],
      "name": "getNextProposalId",
      "outputs": [
        {
          "internalType": "uint256",
          "name": "",
          "type": "uint256"
        }
      ],
      "stateMutability": "view",
      "type": "function"
    },
    {
      "inputs": [
        {
          "internalType": "uint256",
          "name": "cabalId",
          "type": "uint256"
        },
        {
          "internalType": "uint256",
          "name": "proposalId",
          "type": "uint256"
        }
      ],
      "name": "getProposal",
      "outputs": [
        {
          "internalType": "uint256",
          "name": "id",
          "type": "uint256"
        },
        {
          "internalType": "address",
          "name": "proposer",
          "type": "address"
        },
        {
          "internalType": "uint256",
          "name": "forVotes",
          "type": "uint256"
        },
        {
          "internalType": "uint256",
          "name": "againstVotes",
          "type": "uint256"
        },
        {
          "internalType": "uint256",
          "name": "startBlock",
          "type": "uint256"
        },
        {
          "internalType": "uint256",
          "name": "endBlock",
          "type": "uint256"
        },
        {
          "internalType": "bool",
          "name": "executed",
          "type": "bool"
        },
        {
          "internalType": "bool",
          "name": "cancelled",
          "type": "bool"
        },
        {
          "internalType": "string",
          "name": "description",
          "type": "string"
        }
      ],
      "stateMutability": "view",
      "type": "function"
    },
    {
      "inputs": [
        {
          "internalType": "uint256",
          "name": "cabalId",
          "type": "uint256"
        },
        {
          "internalType": "uint256",
          "name": "proposalId",
          "type": "uint256"
        }
      ],
      "name": "getProposalState",
      "outputs": [
        {
          "internalType": "enum ProposalState",
          "name": "",
          "type": "uint8"
        }
      ],
      "stateMutability": "view",
      "type": "function"
    },
    {
      "inputs": [
        {
          "internalType": "uint256",
          "name": "cabalId",
          "type": "uint256"
        },
        {
          "internalType": "uint256",
          "name": "proposalId",
          "type": "uint256"
        },
        {
          "internalType": "address",
          "name": "voter",
          "type": "address"
        }
      ],
      "name": "hasVoted",
      "outputs": [
        {
          "internalType": "bool",
          "name": "",
          "type": "bool"
        }
      ],
      "stateMutability": "view",
      "type": "function"
    },
    {
      "inputs": [
        {
          "internalType": "uint256",
          "name": "cabalId",
          "type": "uint256"
        },
        {
          "internalType": "uint256",
          "name": "proposalId",
          "type": "uint256"
        },
        {
          "internalType": "bool",
          "name": "support",
          "type": "bool"
        }
      ],
      "name": "vote",
      "outputs": [],
      "stateMutability": "nonpayable",
      "type": "function"
    }
  ],
  "bytecode": "0x608080604052346015576112a3908161001a8239f35b5f80fdfe60806040526004361015610011575f80fd5b5f3560e01c80630d39a1d314610df55780631ab7671214610b805780635ded8b0614610ac55780636a18ff7a1461091057806377df58bf146108e6578063aba210091461079a578063edbca1e9146107705763fdf0decc14610071575f80fd5b346104465760a03660031901126104465760043560243567ffffffffffffffff8111610446576100a5903690600401610e4a565b60443567ffffffffffffffff8111610446576100c5903690600401610e4a565b929060643567ffffffffffffffff8111610446576100e7903690600401610e4a565b906084359167ffffffffffffffff831161044657366023840112156104465782600401359367ffffffffffffffff851161044657366024868601011161044657878714801590610766575b61073e5761013f89611027565b9560ff600588015460a01c16600381101561072a5760010361070257610165338b61115b565b600c880154116106da57600d8701805499905f198b146106c65760018b01905561018f8a8c61106c565b8a815560018101337fffffffffffffffffffffffff00000000000000000000000000000000000000008254161790556002810167ffffffffffffffff8b1161067957680100000000000000008b11610679576101f08b825481845583610f34565b5f9081526020812090845b8c82106106a1575050506003810167ffffffffffffffff8311610679576801000000000000000083116106795761023783825481845583610f34565b84905f5260205f20905f5b84811061068d575050506004810198680100000000000000008611610679578954868b55808710610602575b5086995f5260205f205f601e19893603019b5b88821061050557505050600582016102a38a61029d8354610ea4565b83610f57565b5f601f8b116001146104835789989796959493926102f7926102e660099f9e9d600994819e9082915f92610475575b50508160011b915f199060031b1c19161790565b90555b436008850155015443610efe565b9a8b910155604051988060c08b0160c08c525260e08a0192905f905b80821061044a5750505088820360208a01528082527f07ffffffffffffffffffffffffffffffffffffffffffffffffffffffffffffff81116104465760059794971b809260208301370190806020830160208985030160408a01525260408201916020808360051b830101019680945f925b8484106103e75750505060208a8a818e7fc902582f7dc250e31c31513f817fdb56f99dc64922790c00821d87ddc3cd620a8d6103cd8e8e60248f858403606087015201610f9a565b9443608083015260a08201528033950390a4604051908152f35b90919293949598601f19601f1983830301018752893583811215610446578401906020823592019167ffffffffffffffff8111610446578036038313610446576104376020928392600195610f9a565b9b019701959401929190610385565b5f80fd5b9091938435906001600160a01b03821680920361044657602081600193829352019501920190610313565b602492500101355f8e6102d2565b601f198b1690825f5260205f20915f5b8181106104ea57509260099e9d9c9b9a99989796959491928f938d8d91816102f798106104cc575b50905060018092501b0190556102e9565b60249160f85f199160031b161c19920101351690555f8b8d826104bb565b8c830160240135845560019093019260209283019201610493565b80358d811215610446578a0180359067ffffffffffffffff8211610446578136036020820113610446576105438261053d8754610ea4565b87610f57565b5f90601f83116001146105945792610578836001959460209487965f926105875750508160011b915f199060031b1c19161790565b86555b01930191019091610281565b8692500101355f806102d2565b601f19831691865f5260205f20925f5b8181106105e857509360209360019693879693838895106105cd575b505050811b01865561057b565b018501355f19600384901b60f8161c191690555f80806105c0565b9193602060018192828888010135815501950192016105a4565b8a5f528660205f2091820191015b81811061061d575061026e565b8061062a60019254610ea4565b80610637575b5001610610565b601f8111831461064c57505f81555b5f610630565b61066890825f5283601f60205f20920160051c82019101610f1e565b805f525f6020812081835555610646565b634e487b7160e01b5f52604160045260245ffd5b600190602083359301928185015501610242565b8035916001600160a01b038316830361044657602060019201928185015501906101fb565b634e487b7160e01b5f52601160045260245ffd5b7fcabeb655000000000000000000000000000000000000000000000000000000005f5260045ffd5b7f3ed5bd98000000000000000000000000000000000000000000000000000000005f5260045ffd5b634e487b7160e01b5f52602160045260245ffd5b7fa24a13a6000000000000000000000000000000000000000000000000000000005f5260045ffd5b5081881415610132565b34610446576020366003190112610446576020600d610790600435611027565b0154604051908152f35b34610446576107b16107ab36610e34565b9061106c565b80546001600160a01b0360018301541690600683015460078401549060088501546009860154906005600a880154970193604051935f8654966107f388610ea4565b9081885260208801986001811690815f146108c9575060011461088c575b5050916101409899939161082a8760ff97950388610edc565b6040519a8b998a5260208a015260408901526060880152608087015260a0860152818116151560c086015260081c16151560e0840152610120610100840152518091816101208501528484015e5f828201840152601f01601f19168101030190f35b5f908152602081209092505b8183106108af57505085016020018161082a610811565b6001816020929493945483858c0101520191019190610898565b60ff19168a525050151560051b860160200190508161082a610811565b34610446576108fd6108f736610e34565b906110b2565b604051600682101561072a576020918152f35b346104465760603660031901126104465760043560243560443591821515928381036104465760ff600561094384611027565b015460a01c16600381101561072a5760010361070257610963838361106c565b600881015443108015610ab8575b610a9057610980338585610fba565b610a685761098e338461115b565b9182156106da5760016040516020810190610a06816109f8338b8b8791607493917fac09b7c0e7fcc21a6afeb8ae67a440b6181a1d6eb20bfed0c61498318891d1d48452602084015260408301526bffffffffffffffffffffffff199060601b1660608201520190565b03601f198101835282610edc565b5190205515610a5357600601610a1d828254610efe565b90555b60405193845260208401527fd72a296265de05f7f425107ca376651b68831fa700c5ed272487924e44532dc560403394a4005b600701610a61828254610efe565b9055610a20565b7f7c9a1cf9000000000000000000000000000000000000000000000000000000005f5260045ffd5b7f7becc13f000000000000000000000000000000000000000000000000000000005f5260045ffd5b5060098101544311610971565b3461044657610ad336610e34565b90610ade828261106c565b6001600160a01b036001820154163303610b5857600a01805460ff8116610b305761ff0019166101001790557f5be67b1762c29673dceae3c1de04ecbf702ab0755c93f0fcc8aec5252df5a2b45f80a3005b7f51618d53000000000000000000000000000000000000000000000000000000005f5260045ffd5b7f7d1b73b9000000000000000000000000000000000000000000000000000000005f5260045ffd5b3461044657610b8e36610e34565b90610b9881611027565b9060ff600583015460a01c16600381101561072a5760010361070257610bbe838261106c565b90600a8201805460ff8116610b3057610bd786846110b2565b600681101561072a57600203610dcd5760ff1916600117905592600282019260038301926004908101929101905f5b8554811015610da5576001600160a01b038354166001600160a01b03610c2c8389610e7b565b90549060031b1c16610c3e8388610e7b565b90549060031b1c610c4f8488610e7b565b506040519160208301937f9e5d4c4900000000000000000000000000000000000000000000000000000000855260248401526044830152606060648301525f90805490610c9b82610ea4565b918260848601526001811690815f14610d805750600114610d48575b5050915f82610cd2829694839603601f198101835282610edc565b51925af13d15610d43573d67ffffffffffffffff81116106795760405190610d04601f8201601f191660200183610edc565b81525f60203d92013e5b15610d1b57600101610c06565b7facfdb444000000000000000000000000000000000000000000000000000000005f5260045ffd5b610d0e565b5f908152602081209092505b818310610d69575050810160a4015f82610cb7565b6001816020925460a4868801015201920191610d54565b60ff191660a48087019190915292151560051b850190920192505f9150839050610cb7565b50857ff758fc91e01b00ea6b4a6138756f7f28e021f9bf21db6dbf8c36c88eb737257a5f80a3005b7ffeace5cd000000000000000000000000000000000000000000000000000000005f5260045ffd5b34610446576060366003190112610446576044356001600160a01b038116810361044657610e2a602091602435600435610fba565b6040519015158152f35b6040906003190112610446576004359060243590565b9181601f840112156104465782359167ffffffffffffffff8311610446576020808501948460051b01011161044657565b8054821015610e90575f5260205f2001905f90565b634e487b7160e01b5f52603260045260245ffd5b90600182811c92168015610ed2575b6020831014610ebe57565b634e487b7160e01b5f52602260045260245ffd5b91607f1691610eb3565b90601f8019910116810190811067ffffffffffffffff82111761067957604052565b919082018092116106c657565b818102929181159184041417156106c657565b818110610f29575050565b5f8155600101610f1e565b91818110610f4157505050565b610f55925f5260205f209182019101610f1e565b565b9190601f8111610f6657505050565b610f55925f5260205f20906020601f840160051c83019310610f90575b601f0160051c0190610f1e565b9091508190610f83565b908060209392818452848401375f828201840152601f01601f1916010190565b909161101f6001936109f860405193849260208401968791607493917fac09b7c0e7fcc21a6afeb8ae67a440b6181a1d6eb20bfed0c61498318891d1d48452602084015260408301526bffffffffffffffffffffffff199060601b1660608201520190565b519020541490565b60405160208101917fc61520f0fc87f37c054c240fb12fa829a873c4a7f3a227d3cdaf38f732a45b0d8352604082015260408152611066606082610edc565b51902090565b906040519060208201927ff758d92a70c9bd98cf848af4c9c9b4ab44f3e59fc8a175f26e9ac483510c32ff84526040830152606082015260608152611066608082610edc565b906110c06110c6918361106c565b91611027565b600a82015460ff8160081c166111535760ff1661114c576009820154431115611145576110fc6007600684015493015483610efe565b90612710611113600e830154600a84015490610f0b565b04821061113d5761271091600b61112c92015490610f0b565b04111561113857600390565b600290565b505050600390565b5050600190565b5050600490565b505050600590565b6001600160a01b036040519260208401907f8558c73f0b9098e6be43e479b1cf30236e7e64287529940c5fdd38ab47be3e0982528360408601526bffffffffffffffffffffffff199060601b1693846060820152605481526111be607482610edc565b519020549160405160208101907f0d5b18ea51234f5557964678168b512e7844d6b8406c15c9ac0ae675917d830f825282604082015285606082015260548152611209607482610edc565b51902054936040519060208201927fc3de27a01aa54ffcb04f207e8a4f4a16b583945f9cf1c6868757ca4e0e69315284526040830152606082015260548152611253607482610edc565b5190205416611269579061126691610efe565b90565b509056fea2646970667358221220b77fa31e9f9ad8e3658ba3994e3c42950d54015c855189f0bac8dedbf40b542964736f6c634300081a0033",
  "linkReferences": {},
  "deployedLinkReferences": {}
}