{
  "_format": "hh-sol-artifact-1",
  "contractName": "GovernanceFacet",
  "sourceName": "contracts/cabal/diamond/facets/GovernanceFacet.sol",
  "abi": [
    {
      "inputs": [],
      "name": "AlreadyVoted",
      "type": "error"
    },
    {
      "inputs": [],
      "name": "ArrayLengthMismatch",
      "type": "error"
    },
    {
      "inputs": [],
      "name": "CabalNotActive",
      "type": "error"
    },
    {
      "inputs": [],
      "name": "ExecutionFailed",
      "type": "error"
    },
    {
      "inputs": [],
      "name": "InsufficientVotingPower",
      "type": "error"
    },
    {
      "inputs": [],
      "name": "NotProposer",
      "type": "error"
    },
    {
      "inputs": [],
      "name": "ProposalAlreadyExecuted",
      "type": "error"
    },
    {
      "inputs": [],
      "name": "ProposalNotActive",
      "type": "error"
    },
    {
      "inputs": [],
      "name": "ProposalNotSucceeded",
      "type": "error"
    },
    {
      "anonymous": false,
      "inputs": [
        {
          "indexed": true,
          "internalType": "uint256",
          "name": "cabalId",
          "type": "uint256"
        },
        {
          "indexed": true,
          "internalType": "uint256",
          "name": "proposalId",
          "type": "uint256"
        }
      ],
      "name": "ProposalCancelled",
      "type": "event"
    },
    {
      "anonymous": false,
      "inputs": [
        {
          "indexed": true,
          "internalType": "uint256",
          "name": "cabalId",
          "type": "uint256"
        },
        {
          "indexed": true,
          "internalType": "uint256",
          "name": "proposalId",
          "type": "uint256"
        },
        {
          "indexed": true,
          "internalType": "address",
          "name": "proposer",
          "type": "address"
        },
        {
          "indexed": false,
          "internalType": "address[]",
          "name": "targets",
          "type": "address[]"
        },
        {
          "indexed": false,
          "internalType": "uint256[]",
          "name": "values",
          "type": "uint256[]"
        },
        {
          "indexed": false,
          "internalType": "bytes[]",
          "name": "calldatas",
          "type": "bytes[]"
        },
        {
          "indexed": false,
          "internalType": "string",
          "name": "description",
          "type": "string"
        },
        {
          "indexed": false,
          "internalType": "uint256",
          "name": "startBlock",
          "type": "uint256"
        },
        {
          "indexed": false,
          "internalType": "uint256",
          "name": "endBlock",
          "type": "uint256"
        }
      ],
      "name": "ProposalCreated",
      "type": "event"
    },
    {
      "anonymous": false,
      "inputs": [
        {
          "indexed": true,
          "internalType": "uint256",
          "name": "cabalId",
          "type": "uint256"
        },
        {
          "indexed": true,
          "internalType": "uint256",
          "name": "proposalId",
          "type": "uint256"
        }
      ],
      "name": "ProposalExecuted",
      "type": "event"
    },
    {
      "anonymous": false,
      "inputs": [
        {
          "indexed": true,
          "internalType": "uint256",
          "name": "cabalId",
          "type": "uint256"
        },
        {
          "indexed": true,
          "internalType": "uint256",
          "name": "proposalId",
          "type": "uint256"
        },
        {
          "indexed": true,
          "internalType": "address",
          "name": "voter",
          "type": "address"
        },
        {
          "indexed": false,
          "internalType": "bool",
          "name": "support",
          "type": "bool"
        },
        {
          "indexed": false,
          "internalType": "uint256",
          "name": "weight",
          "type": "uint256"
        }
      ],
      "name": "VoteCast",
      "type": "event"
    },
    {
      "inputs": [
        {
          "internalType": "uint256",
          "name": "cabalId",
          "type": "uint256"
        },
        {
          "internalType": "uint256",
          "name": "proposalId",
          "type": "uint256"
        }
      ],
      "name": "cancelProposal",
      "outputs": [],
      "stateMutability": "nonpayable",
      "type": "function"
    },
    {
      "inputs": [
        {
          "internalType": "uint256",
          "name": "cabalId",
          "type": "uint256"
        },
        {
          "internalType": "address[]",
          "name": "targets",
          "type": "address[]"
        },
        {
          "internalType": "uint256[]",
          "name": "values",
          "type": "uint256[]"
        },
        {
          "internalType": "bytes[]",
          "name": "calldatas",
          "type": "bytes[]"
        },
        {
          "internalType": "string",
          "name": "description",
          "type": "string"
        }
      ],
      "name": "createProposal",
      "outputs": [
        {
          "internalType": "uint256",
          "name": "proposalId",
          "type": "uint256"
        }
      ],
      "stateMutability": "nonpayable",
      "type": "function"
    },
    {
      "inputs": [
        {
          "internalType": "uint256",
          "name": "cabalId",
          "type": "uint256"
        },
        {
          "internalType": "uint256",
          "name": "proposalId",
          "type": "uint256"
        }
      ],
      "name": "executeProposal",
      "outputs": [],
      "stateMutability": "nonpayable",
      "type": "function"
    },
    {
      "inputs": [
        {
          "internalType": "uint256",
          "name": "cabalId",
          "type": "uint256"
        }
      ],
      "name": "getNextProposalId",
      "outputs": [
        {
          "internalType": "uint256",
          "name": "",
          "type": "uint256"
        }
      ],
      "stateMutability": "view",
      "type": "function"
    },
    {
      "inputs": [
        {
          "internalType": "uint256",
          "name": "cabalId",
          "type": "uint256"
        },
        {
          "internalType": "uint256",
          "name": "proposalId",
          "type": "uint256"
        }
      ],
      "name": "getProposal",
      "outputs": [
        {
          "internalType": "uint256",
          "name": "id",
          "type": "uint256"
        },
        {
          "internalType": "address",
          "name": "proposer",
          "type": "address"
        },
        {
          "internalType": "uint256",
          "name": "forVotes",
          "type": "uint256"
        },
        {
          "internalType": "uint256",
          "name": "againstVotes",
          "type": "uint256"
        },
        {
          "internalType": "uint256",
          "name": "startBlock",
          "type": "uint256"
        },
        {
          "internalType": "uint256",
          "name": "endBlock",
          "type": "uint256"
        },
        {
          "internalType": "bool",
          "name": "executed",
          "type": "bool"
        },
        {
          "internalType": "bool",
          "name": "cancelled",
          "type": "bool"
        },
        {
          "internalType": "string",
          "name": "description",
          "type": "string"
        }
      ],
      "stateMutability": "view",
      "type": "function"
    },
    {
      "inputs": [
        {
          "internalType": "uint256",
          "name": "cabalId",
          "type": "uint256"
        },
        {
          "internalType": "uint256",
          "name": "proposalId",
          "type": "uint256"
        }
      ],
      "name": "getProposalState",
      "outputs": [
        {
          "internalType": "enum ProposalState",
          "name": "",
          "type": "uint8"
        }
      ],
      "stateMutability": "view",
      "type": "function"
    },
    {
      "inputs": [
        {
          "internalType": "uint256",
          "name": "cabalId",
          "type": "uint256"
        },
        {
          "internalType": "uint256",
          "name": "proposalId",
          "type": "uint256"
        },
        {
          "internalType": "address",
          "name": "voter",
          "type": "address"
        }
      ],
      "name": "hasVoted",
      "outputs": [
        {
          "internalType": "bool",
          "name": "",
          "type": "bool"
        }
      ],
      "stateMutability": "view",
      "type": "function"
    },
    {
      "inputs": [
        {
          "internalType": "uint256",
          "name": "cabalId",
          "type": "uint256"
        },
        {
          "internalType": "uint256",
          "name": "proposalId",
          "type": "uint256"
        },
        {
          "internalType": "bool",
          "name": "support",
          "type": "bool"
        }
      ],
      "name": "vote",
      "outputs": [],
      "stateMutability": "nonpayable",
      "type": "function"
    }
  ],
  "bytecode": "0x6080806040523461001657611209908161001c8239f35b600080fdfe6080604052600436101561001257600080fd5b60003560e01c80630d39a1d314610c6c5780631ab7671214610a8b5780635ded8b06146109fb5780636a18ff7a146108bb57806377df58bf14610891578063aba21009146107aa578063edbca1e9146107805763fdf0decc1461007457600080fd5b346104445760a0366003190112610444576024356001600160401b038111610444576100a4903690600401610cc1565b6044356001600160401b038111610444576100c3903690600401610cc1565b9190926064356001600160401b038111610444576100e5903690600401610cc1565b6001600160401b036084351161044457366023608435011215610444576001600160401b036084356004013511610444573660246084356004013560843501011161044457848414801590610776575b610764576101446004356110c4565b9560ff600588015460a01c16600381101561074e5760010361073c5761016c33600435610fbb565b600c8801541161072a57600d8701549561018587610cf1565b600d89015561019687600435611117565b8781556001810180546001600160a01b031916331790556001600160401b0387116106db57600160401b87116106db576002810180548882556101db91899190610d40565b85600282016000526020600020906000905b898210610705575050506001600160401b0382116106db57600160401b82116106db576003810161022383825481845583610d40565b839060005260206000209060005b8481106106f157505050600160401b84116106db576004810154846004830155808510610662575b50846004820160005260206000206000915b868310610529575050506102956084356004013561028c6005840154610d65565b60058401610d9f565b600098601f608435600401351160011461048f5760096102f191819b6000906084356004013561047f575b506084356004013560011b906000196084356004013560031b1c19161760058501555b436008850155015443610de4565b9889910155604051958060c0880160c089525260e0870195906000905b8082106104495750505085850360208701528085526001600160fb1b0381116104445760051b93929190849060208501378060208585010160208787870103016040880152526040848401019360408260051b82860101019483946000925b8484106103d75760208a8a818e6103988d848103606086015260843560040135602460843501610df1565b9043608085015260a08401527fc902582f7dc250e31c31513f817fdb56f99dc64922790c00821d87ddc3cd620a339380600435930390a4604051908152f35b90919293949596603f1982840182030184528735601e1988360301811215610444576001600160401b038882013511610444578781013536036020898301011361044457602061043360019383838c8082970135920101610df1565b99019401940192959493919061036d565b600080fd5b91969091908735906001600160a01b0382168203610444576001600160a01b03909116815260209081019701916001019061030e565b60249150608435010135386102c0565b6005820160005260206000209960005b60046084350135601f1916811061050c575060099a6102f1928c9290919060046084350135601f198116106104e7575b5050600160843560040135811b0160058501556102e3565b602460001960f86084356004013560031b161c199160843501013516905538806104cf565b909a60206001819260248f6084350101358155019c01910161049f565b601e198836030181351215610444576001600160401b0381358901351161044457803588018035360360209091011361044457610574813589013561056e8454610d65565b84610d9f565b6000601f82358a0135116001146105d0576020600192839260009082358d01356105c0575b5081358c0135841b906000198d8435013560031b1c19161785555b0192019201919061026b565b83915082358d0101013538610599565b826000528860206000209160005b8435830135601f191681106106425750600193849360209391929091908335820135601f1981161061061e575b5050508281358c0135811b0185556105b4565b849060001960f8863585013560031b161c1992853501010135169055388b8161060b565b916001829460208094819489350101013581550193019101908a916105de565b600482016000526020600020908582015b8183018110610683575050610259565b8061069060019254610d65565b8061069d575b5001610673565b601f9081811184146106b6575050600081555b38610696565b6106d260009284845260208420920160051c8201858301610d29565b818355556106b0565b634e487b7160e01b600052604160045260246000fd5b600190602083359301928185015501610231565b8035916001600160a01b038316830361044457602060019201928185015501906101ed565b60405163cabeb65560e01b8152600490fd5b6040516307dab7b360e31b8152600490fd5b634e487b7160e01b600052602160045260246000fd5b60405163512509d360e11b8152600490fd5b5080851415610135565b34610444576020366003190112610444576020600d6107a06004356110c4565b0154604051908152f35b34610444576107c16107bb36610cab565b90611117565b600581549160ff60018060a01b03600183015416916006810154600782015460088301549060098401549261080c600a86015495610805604051809b819301610e40565b0389610ef1565b604051988952602096878a015260408901526060880152608087015260a0860152818116151560c086015260081c16151560e084015261012091826101008501528051809385015260005b83811061087c5750505081610140916000838284010152601f80199101168101030190f35b81810183015185820161014001528201610857565b34610444576108a86108a236610cab565b90610f12565b604051600682101561074e576020918152f35b346104445760603660031901126104445760043560243560443591821515928381036104445760ff60056108ee846110c4565b015460a01c16600381101561074e5760010361073c5761090e8383611117565b6008810154431080156109ee575b6109dc5761092b3385856111af565b6109ca576109393384610fbb565b91821561072a57600160405160208101906109688161095a338b8b87611161565b03601f198101835282610ef1565b51902055156109b55760060161097f828254610de4565b90555b60405193845260208401527fd72a296265de05f7f425107ca376651b68831fa700c5ed272487924e44532dc560403394a4005b6007016109c3828254610de4565b9055610982565b604051637c9a1cf960e01b8152600490fd5b604051637becc13f60e01b8152600490fd5b506009810154431161091c565b3461044457610a0936610cab565b90610a148282611117565b60018101546001600160a01b03163303610a7957600a01805460ff8116610a675761ff0019166101001790557f5be67b1762c29673dceae3c1de04ecbf702ab0755c93f0fcc8aec5252df5a2b4600080a3005b6040516351618d5360e01b8152600490fd5b604051637d1b73b960e01b8152600490fd5b3461044457610a9936610cab565b90610aa3816110c4565b60ff600582015460a01c16906003918281101561074e57600180910361073c57610acd8585611117565b91600a8301805460ff8116610a6757610ae68888610f12565b600681101561074e57600203610c5a57908380969260ff1916179055600060046002860193019060048387019601945b610b44575b88887ff758fc91e01b00ea6b4a6138756f7f28e021f9bf21db6dbf8c36c88eb737257a600080a3005b8354811015610c555781546001600160a01b0390811690610b658387610e12565b905490861b1c1690610b778389610e12565b905490861b1c90600080610b8b868b610e12565b5092604051948286610bc460209788830194639e5d4c4960e01b865260249b8c8501526044840152606060648401526084830190610e40565b0396610bd8601f1998898101835282610ef1565b51925af1923d15610c4d573d906001600160401b038211610c39575090600091610c0c8260405195601f8401160185610ef1565b83523d92013e5b15610c2757610c2190610cf1565b86610b16565b604051632b3f6d1160e21b8152600490fd5b634e487b7160e01b60009081526041600452fd5b505050610c13565b610b1b565b60405163feace5cd60e01b8152600490fd5b34610444576060366003190112610444576044356001600160a01b038116810361044457610ca16020916024356004356111af565b6040519015158152f35b6040906003190112610444576004359060243590565b9181601f84011215610444578235916001600160401b038311610444576020808501948460051b01011161044457565b6000198114610d005760010190565b634e487b7160e01b600052601160045260246000fd5b81810292918115918404141715610d0057565b818110610d34575050565b60008155600101610d29565b91818110610d4d57505050565b610d639260005260206000209182019101610d29565b565b90600182811c92168015610d95575b6020831014610d7f57565b634e487b7160e01b600052602260045260246000fd5b91607f1691610d74565b9190601f8111610dae57505050565b610d63926000526020600020906020601f840160051c83019310610dda575b601f0160051c0190610d29565b9091508190610dcd565b91908201809211610d0057565b908060209392818452848401376000828201840152601f01601f1916010190565b8054821015610e2a5760005260206000200190600090565b634e487b7160e01b600052603260045260246000fd5b9060009291805491610e5183610d65565b918282526001938481169081600014610eb35750600114610e73575b50505050565b90919394506000526020928360002092846000945b838610610e9f575050505001019038808080610e6d565b805485870183015294019385908201610e88565b9294505050602093945060ff191683830152151560051b01019038808080610e6d565b608081019081106001600160401b038211176106db57604052565b90601f801991011681019081106001600160401b038211176106db57604052565b90610f20610f269183611117565b916110c4565b600a82015460ff8160081c16610fb35760ff16610fac576009820154431115610fa557610f7690610f606007600685015494015484610de4565b600e820154612710938491600a85015490610d16565b048110610f9c57600b610f8b92015490610d16565b041115610f9757600390565b600290565b50505050600390565b5050600190565b5050600490565b505050600590565b60409081519260208401907f8558c73f0b9098e6be43e479b1cf30236e7e64287529940c5fdd38ab47be3e09825282848601526bffffffffffffffffffffffff199060601b16938460608201526054815261101581610ed6565b5190205491805160208101907f0d5b18ea51234f5557964678168b512e7844d6b8406c15c9ac0ae675917d830f825283838201528560608201526054815261105c81610ed6565b519020549381519260208401927fc3de27a01aa54ffcb04f207e8a4f4a16b583945f9cf1c6868757ca4e0e69315284528401526060830152605482526110a182610ed6565b90519020546001600160a01b03166110c057906110bd91610de4565b90565b5090565b60405160208101917fc61520f0fc87f37c054c240fb12fa829a873c4a7f3a227d3cdaf38f732a45b0d8352604082015260408152606081018181106001600160401b038211176106db5760405251902090565b906040519060208201927ff758d92a70c9bd98cf848af4c9c9b4ab44f3e59fc8a175f26e9ac483510c32ff8452604083015260608201526060815261115b81610ed6565b51902090565b91607493917fac09b7c0e7fcc21a6afeb8ae67a440b6181a1d6eb20bfed0c61498318891d1d48452602084015260408301526bffffffffffffffffffffffff199060601b1660608201520190565b90916111cb60019361095a604051938492602084019687611161565b51902054149056fea26469706673582212200a41ad1d7a685d953165a0fee5a33249c235a424abc9c6546b601d2bd513c5db64736f6c63430008140033",
  "linkReferences": {},
  "deployedLinkReferences": {}
}