{
  "_format": "hh-sol-artifact-1",
  "contractName": "ViewFacet",
  "sourceName": "contracts/cabal/diamond/facets/ViewFacet.sol",
  "abi": [
    {
      "inputs": [],
      "name": "getAllCabals",
      "outputs": [
        {
          "internalType": "uint256[]",
          "name": "",
          "type": "uint256[]"
        }
      ],
      "stateMutability": "view",
      "type": "function"
    },
    {
      "inputs": [
        {
          "internalType": "uint256",
          "name": "cabalId",
          "type": "uint256"
        }
      ],
      "name": "getCabal",
      "outputs": [
        {
          "components": [
            {
              "internalType": "uint256",
              "name": "id",
              "type": "uint256"
            },
            {
              "internalType": "address",
              "name": "creator",
              "type": "address"
            },
            {
              "internalType": "string",
              "name": "name",
              "type": "string"
            },
            {
              "internalType": "string",
              "name": "symbol",
              "type": "string"
            },
            {
              "internalType": "string",
              "name": "image",
              "type": "string"
            },
            {
              "internalType": "address",
              "name": "tbaAddress",
              "type": "address"
            },
            {
              "internalType": "address",
              "name": "tokenAddress",
              "type": "address"
            },
            {
              "internalType": "enum CabalPhase",
              "name": "phase",
              "type": "uint8"
            },
            {
              "internalType": "uint256",
              "name": "createdAt",
              "type": "uint256"
            },
            {
              "internalType": "uint256",
              "name": "launchedAt",
              "type": "uint256"
            },
            {
              "internalType": "uint256",
              "name": "totalRaised",
              "type": "uint256"
            },
            {
              "internalType": "uint256",
              "name": "totalTokensReceived",
              "type": "uint256"
            },
            {
              "internalType": "uint256",
              "name": "totalStaked",
              "type": "uint256"
            },
            {
              "internalType": "uint256",
              "name": "contributorCount",
              "type": "uint256"
            },
            {
              "components": [
                {
                  "internalType": "uint256",
                  "name": "votingPeriod",
                  "type": "uint256"
                },
                {
                  "internalType": "uint256",
                  "name": "quorumBps",
                  "type": "uint256"
                },
                {
                  "internalType": "uint256",
                  "name": "majorityBps",
                  "type": "uint256"
                },
                {
                  "internalType": "uint256",
                  "name": "proposalThreshold",
                  "type": "uint256"
                }
              ],
              "internalType": "struct GovernanceSettings",
              "name": "settings",
              "type": "tuple"
            }
          ],
          "internalType": "struct ViewFacet.CabalInfo",
          "name": "",
          "type": "tuple"
        }
      ],
      "stateMutability": "view",
      "type": "function"
    },
    {
      "inputs": [
        {
          "internalType": "uint256[]",
          "name": "cabalIds",
          "type": "uint256[]"
        }
      ],
      "name": "getCabals",
      "outputs": [
        {
          "components": [
            {
              "internalType": "uint256",
              "name": "id",
              "type": "uint256"
            },
            {
              "internalType": "address",
              "name": "creator",
              "type": "address"
            },
            {
              "internalType": "string",
              "name": "name",
              "type": "string"
            },
            {
              "internalType": "string",
              "name": "symbol",
              "type": "string"
            },
            {
              "internalType": "string",
              "name": "image",
              "type": "string"
            },
            {
              "internalType": "address",
              "name": "tbaAddress",
              "type": "address"
            },
            {
              "internalType": "address",
              "name": "tokenAddress",
              "type": "address"
            },
            {
              "internalType": "enum CabalPhase",
              "name": "phase",
              "type": "uint8"
            },
            {
              "internalType": "uint256",
              "name": "createdAt",
              "type": "uint256"
            },
            {
              "internalType": "uint256",
              "name": "launchedAt",
              "type": "uint256"
            },
            {
              "internalType": "uint256",
              "name": "totalRaised",
              "type": "uint256"
            },
            {
              "internalType": "uint256",
              "name": "totalTokensReceived",
              "type": "uint256"
            },
            {
              "internalType": "uint256",
              "name": "totalStaked",
              "type": "uint256"
            },
            {
              "internalType": "uint256",
              "name": "contributorCount",
              "type": "uint256"
            },
            {
              "components": [
                {
                  "internalType": "uint256",
                  "name": "votingPeriod",
                  "type": "uint256"
                },
                {
                  "internalType": "uint256",
                  "name": "quorumBps",
                  "type": "uint256"
                },
                {
                  "internalType": "uint256",
                  "name": "majorityBps",
                  "type": "uint256"
                },
                {
                  "internalType": "uint256",
                  "name": "proposalThreshold",
                  "type": "uint256"
                }
              ],
              "internalType": "struct GovernanceSettings",
              "name": "settings",
              "type": "tuple"
            }
          ],
          "internalType": "struct ViewFacet.CabalInfo[]",
          "name": "",
          "type": "tuple[]"
        }
      ],
      "stateMutability": "view",
      "type": "function"
    },
    {
      "inputs": [
        {
          "internalType": "address",
          "name": "creator",
          "type": "address"
        }
      ],
      "name": "getCabalsByCreator",
      "outputs": [
        {
          "internalType": "uint256[]",
          "name": "",
          "type": "uint256[]"
        }
      ],
      "stateMutability": "view",
      "type": "function"
    },
    {
      "inputs": [
        {
          "internalType": "address",
          "name": "staker",
          "type": "address"
        }
      ],
      "name": "getCabalsByStaker",
      "outputs": [
        {
          "internalType": "uint256[]",
          "name": "",
          "type": "uint256[]"
        }
      ],
      "stateMutability": "view",
      "type": "function"
    },
    {
      "inputs": [
        {
          "internalType": "uint256",
          "name": "offset",
          "type": "uint256"
        },
        {
          "internalType": "uint256",
          "name": "limit",
          "type": "uint256"
        }
      ],
      "name": "getCabalsPaginated",
      "outputs": [
        {
          "components": [
            {
              "internalType": "uint256",
              "name": "id",
              "type": "uint256"
            },
            {
              "internalType": "address",
              "name": "creator",
              "type": "address"
            },
            {
              "internalType": "string",
              "name": "name",
              "type": "string"
            },
            {
              "internalType": "string",
              "name": "symbol",
              "type": "string"
            },
            {
              "internalType": "string",
              "name": "image",
              "type": "string"
            },
            {
              "internalType": "address",
              "name": "tbaAddress",
              "type": "address"
            },
            {
              "internalType": "address",
              "name": "tokenAddress",
              "type": "address"
            },
            {
              "internalType": "enum CabalPhase",
              "name": "phase",
              "type": "uint8"
            },
            {
              "internalType": "uint256",
              "name": "createdAt",
              "type": "uint256"
            },
            {
              "internalType": "uint256",
              "name": "launchedAt",
              "type": "uint256"
            },
            {
              "internalType": "uint256",
              "name": "totalRaised",
              "type": "uint256"
            },
            {
              "internalType": "uint256",
              "name": "totalTokensReceived",
              "type": "uint256"
            },
            {
              "internalType": "uint256",
              "name": "totalStaked",
              "type": "uint256"
            },
            {
              "internalType": "uint256",
              "name": "contributorCount",
              "type": "uint256"
            },
            {
              "components": [
                {
                  "internalType": "uint256",
                  "name": "votingPeriod",
                  "type": "uint256"
                },
                {
                  "internalType": "uint256",
                  "name": "quorumBps",
                  "type": "uint256"
                },
                {
                  "internalType": "uint256",
                  "name": "majorityBps",
                  "type": "uint256"
                },
                {
                  "internalType": "uint256",
                  "name": "proposalThreshold",
                  "type": "uint256"
                }
              ],
              "internalType": "struct GovernanceSettings",
              "name": "settings",
              "type": "tuple"
            }
          ],
          "internalType": "struct ViewFacet.CabalInfo[]",
          "name": "cabals",
          "type": "tuple[]"
        },
        {
          "internalType": "uint256",
          "name": "total",
          "type": "uint256"
        }
      ],
      "stateMutability": "view",
      "type": "function"
    },
    {
      "inputs": [
        {
          "internalType": "uint256",
          "name": "cabalId",
          "type": "uint256"
        },
        {
          "internalType": "address",
          "name": "user",
          "type": "address"
        }
      ],
      "name": "getContribution",
      "outputs": [
        {
          "internalType": "uint256",
          "name": "",
          "type": "uint256"
        }
      ],
      "stateMutability": "view",
      "type": "function"
    },
    {
      "inputs": [],
      "name": "getTotalCabals",
      "outputs": [
        {
          "internalType": "uint256",
          "name": "",
          "type": "uint256"
        }
      ],
      "stateMutability": "view",
      "type": "function"
    },
    {
      "inputs": [
        {
          "internalType": "address",
          "name": "user",
          "type": "address"
        },
        {
          "internalType": "uint256[]",
          "name": "cabalIds",
          "type": "uint256[]"
        }
      ],
      "name": "getUserPositions",
      "outputs": [
        {
          "internalType": "uint256[]",
          "name": "contributions",
          "type": "uint256[]"
        },
        {
          "internalType": "uint256[]",
          "name": "stakedBalances",
          "type": "uint256[]"
        },
        {
          "internalType": "uint256[]",
          "name": "votingPowers",
          "type": "uint256[]"
        },
        {
          "internalType": "bool[]",
          "name": "claimed",
          "type": "bool[]"
        }
      ],
      "stateMutability": "view",
      "type": "function"
    },
    {
      "inputs": [
        {
          "internalType": "uint256",
          "name": "cabalId",
          "type": "uint256"
        },
        {
          "internalType": "address",
          "name": "user",
          "type": "address"
        }
      ],
      "name": "hasClaimed",
      "outputs": [
        {
          "internalType": "bool",
          "name": "",
          "type": "bool"
        }
      ],
      "stateMutability": "view",
      "type": "function"
    }
  ],
  "bytecode": "0x60808060405234601557611184908161001a8239f35b5f80fdfe6080806040526004361015610012575f80fd5b5f3560e01c9081630272d82a1461085b5750806313af8c411461081b578063356213d6146107915780635278c392146106ea5780635c32e52f146105c9578063873f6f9e14610599578063b3b4435814610416578063d29c4e07146100f8578063d98af84a146100bc5763e081dbf91461008a575f80fd5b346100b85760403660031901126100b85760206100b06100a86108e4565b6004356110ee565b604051908152f35b5f80fd5b346100b8575f3660031901126100b85760207ff6b912f89c06d8afd06b9fa8bd742c729f30156da50b94481faddbc9d0b4e9ea54604051908152f35b346100b85760403660031901126100b8576101116108ce565b60243567ffffffffffffffff81116100b857610131903690600401610acf565b61013d81939293611007565b9261014782611007565b61015083611007565b9161015a84610ba6565b936101686040519586610b84565b80855261017481610ba6565b602086019690601f1901368837606081901b6bffffffffffffffffffffffff1916915f5b81811061021a576101c38a8a8a60206101de8c6101d08d60405198899860808a5260808a01906108fa565b90888203868a01526108fa565b9086820360408801526108fa565b91848303606086015251918281520191905f5b8181106101ff575050500390f35b825115158452859450602093840193909201916001016101f1565b610225818387610ff7565b359061023082611046565b918b6102468361024088856110ee565b92610db4565b5260405160208101907f8558c73f0b9098e6be43e479b1cf30236e7e64287529940c5fdd38ab47be3e0982528260408201528760608201526054815261028d607482610b84565b5190205461029b838a610db4565b526102a6858261108b565b6102b0838c610db4565b90151590525f6102c0838c610db4565b511580610409575b6103ab575b600193506102db838a610db4565b51906001600160a01b0360405160208101907f0d5b18ea51234f5557964678168b512e7844d6b8406c15c9ac0ae675917d830f82528560408201528a60608201526054815261032b607482610b84565b519020549360405160208101917fc3de27a01aa54ffcb04f207e8a4f4a16b583945f9cf1c6868757ca4e0e693152835260408201528a606082015260548152610375607482610b84565b5190205416156103935750505b61038c828a610db4565b5201610198565b6103a692916103a191611039565b611039565b610382565b506103b6828d610db4565b51926007810154938481029481860414901517156103f5576006015480156103e157600193046102cd565b634e487b7160e01b5f52601260045260245ffd5b634e487b7160e01b5f52601160045260245ffd5b50600684015415156102c8565b346100b85760203660031901126100b85760043567ffffffffffffffff81116100b857610447903690600401610acf565b61045081610c4e565b905f5b818110610474576040516020808252819061047090820186610a77565b0390f35b61047f818386610ff7565b3561048990611046565b610494828487610ff7565b359080546001600160a01b031660048201546001600160a01b03166005830154600f8401546010850154600686015491600787015493600e880154956008890154976040519a6104e38c610b37565b8b5260208b01526104f660018a01610caa565b60408b015261050760028a01610caa565b60608b015261051860038a01610caa565b60808b015260a08a01526001600160a01b03811660c08a015260a01c60ff1660e089019061054591610d76565b6101008801526101208701526101408601526101608501526101808401526101a083015260090161057590610d82565b6101c08201526105858285610db4565b526105908184610db4565b50600101610453565b346100b85760403660031901126100b85760206105bf6105b76108e4565b60043561108b565b6040519015158152f35b346100b85760203660031901126100b8576004356105e5610bbe565b506105ef81611046565b80546001600160a01b031660048201546001600160a01b03166005830154600f8401546010850154600686015491600787015493600e880154956008890154976040519a61063c8c610b37565b8b5260208b015261064f60018a01610caa565b60408b015261066060028a01610caa565b60608b015261067160038a01610caa565b60808b015260a08a01526001600160a01b03811660c08a015260a01c60ff1660e089019061069e91610d76565b6101008801526101208701526101408601526101608501526101808401526101a08301526009016106ce90610d82565b6101c08201526040518091602082526020820161047091610951565b346100b8575f3660031901126100b8576040517ff6b912f89c06d8afd06b9fa8bd742c729f30156da50b94481faddbc9d0b4e9ea80548083525f91825260208301917f92a07e9b5c0c3259ab73db7fddb759e0795904dcdc9c62a149d91b30ac2f683e91905b81811061077b576104708561076781870382610b84565b6040519182916020835260208301906108fa565b8254845260209093019260019283019201610750565b346100b85760203660031901126100b8576104706108146107676107b36108ce565b60405160208101917fd1261fcbdec2818395983d1051c30776b763075dd8066c02ad3ddcf362b02de283526bffffffffffffffffffffffff199060601b16604082015260348152610805605482610b84565b51902060405192838092610b00565b0382610b84565b346100b85760403660031901126100b85761085161083d602435600435610ddc565b604051928392604084526040840190610a77565b9060208301520390f35b346100b85760203660031901126100b8576108146107676104709261087e6108ce565b9060208101917f286c44e1adb37baad1a43e591cf328daa08f091c9031a161720cadffabab900383526bffffffffffffffffffffffff199060601b16604082015260348152610805605482610b84565b600435906001600160a01b03821682036100b857565b602435906001600160a01b03821682036100b857565b90602080835192838152019201905f5b8181106109175750505090565b825184526020938401939092019160010161090a565b805180835260209291819084018484015e5f828201840152601f01601f1916010190565b90815181526001600160a01b0360208301511660208201526109ae61099c61098a6040850151610240604086015261024085019061092d565b6060850151848203606086015261092d565b6080840151838203608085015261092d565b916001600160a01b0360a08201511660a08301526001600160a01b0360c08201511660c083015260e0810151906003821015610a63576101c06060916102209360e08601526101008101516101008601526101208101516101208601526101408101516101408601526101608101516101608601526101808101516101808601526101a08101516101a0860152015180516101c085015260208101516101e08501526040810151610200850152015191015290565b634e487b7160e01b5f52602160045260245ffd5b9080602083519182815201916020808360051b8301019401925f915b838310610aa257505050505090565b9091929394602080610ac0600193601f198682030187528951610951565b97019301930191939290610a93565b9181601f840112156100b85782359167ffffffffffffffff83116100b8576020808501948460051b0101116100b857565b90602082549182815201915f5260205f20905f5b818110610b215750505090565b8254845260209093019260019283019201610b14565b6101e0810190811067ffffffffffffffff821117610b5457604052565b634e487b7160e01b5f52604160045260245ffd5b6080810190811067ffffffffffffffff821117610b5457604052565b90601f8019910116810190811067ffffffffffffffff821117610b5457604052565b67ffffffffffffffff8111610b545760051b60200190565b60405190610bcb82610b37565b815f81525f602082015260606040820152606080820152606060808201525f60a08201525f60c08201525f60e08201525f6101008201525f6101208201525f6101408201525f6101608201525f6101808201525f6101a08201526101c060405191610c3583610b68565b5f83525f60208401525f60408401525f60608401520152565b90610c5882610ba6565b610c656040519182610b84565b8281528092610c76601f1991610ba6565b01905f5b828110610c8657505050565b602090610c91610bbe565b82828501015201610c7a565b919082039182116103f557565b90604051915f8154908160011c9260018316928315610d6c575b602085108414610d58578487528693908115610d365750600114610cf2575b50610cf092500383610b84565b565b90505f9291925260205f20905f915b818310610d1a575050906020610cf0928201015f610ce3565b6020919350806001915483858901015201910190918492610d01565b905060209250610cf094915060ff191682840152151560051b8201015f610ce3565b634e487b7160e01b5f52602260045260245ffd5b93607f1693610cc4565b6003821015610a635752565b90604051610d8f81610b68565b6060600382948054845260018101546020850152600281015460408501520154910152565b8051821015610dc85760209160051b010190565b634e487b7160e01b5f52603260045260245ffd5b917ff6b912f89c06d8afd06b9fa8bd742c729f30156da50b94481faddbc9d0b4e9ea5491829083851015610fb957610e148585610c9d565b9080821015610fb15750905b610e2982610c4e565b945f5b838110610e395750505050565b5f1986018681116103f55781610e5284610e5793610c9d565b610c9d565b83811015610dc8577ff6b912f89c06d8afd06b9fa8bd742c729f30156da50b94481faddbc9d0b4e9ea5f527f92a07e9b5c0c3259ab73db7fddb759e0795904dcdc9c62a149d91b30ac2f683e0154610eae81611046565b80546001600160a01b031660048201546001600160a01b03166005830154600f8401546010850154600686015491600787015493600e880154956008890154976040519a610efb8c610b37565b8b5260208b0152610f0e60018a01610caa565b60408b0152610f1f60028a01610caa565b60608b0152610f3060038a01610caa565b60808b015260a08a01526001600160a01b03811660c08a015260a01c60ff1660e0890190610f5d91610d76565b6101008801526101208701526101408601526101608501526101808401526101a0830152600901610f8d90610d82565b6101c0820152610f9d8289610db4565b52610fa88188610db4565b50600101610e2c565b905090610e20565b509192509050604051610fcd602082610b84565b5f81525f805b818110610fe05750509190565b602090610feb610bbe565b82828601015201610fd3565b9190811015610dc85760051b0190565b9061101182610ba6565b61101e6040519182610b84565b828152809261102f601f1991610ba6565b0190602036910137565b919082018092116103f557565b60405160208101917fc61520f0fc87f37c054c240fb12fa829a873c4a7f3a227d3cdaf38f732a45b0d8352604082015260408152611085606082610b84565b51902090565b6001916040519060208201927ffa7666f901d98d7ddb6dca66654a4b44590f640f4803ecfa6cdcb1bcf243032b845260408301526bffffffffffffffffffffffff199060601b166060820152605481526110e6607482610b84565b519020541490565b906040519060208201927ff9cb95d6bcd70b8f41deb63f6a0973398a369f058485501ab1645d87ca423542845260408301526bffffffffffffffffffffffff199060601b16606082015260548152611147607482610b84565b519020549056fea26469706673582212207dfe4c58c6e3c22d61dd4d1264f59801947554e5d02f385f95741fd77552edcd64736f6c634300081a0033",
  "linkReferences": {},
  "deployedLinkReferences": {}
}