{
  "_format": "hh-sol-artifact-1",
  "contractName": "ViewFacet",
  "sourceName": "contracts/cabal/diamond/facets/ViewFacet.sol",
  "abi": [
    {
      "inputs": [],
      "name": "getAllCabals",
      "outputs": [
        {
          "internalType": "uint256[]",
          "name": "",
          "type": "uint256[]"
        }
      ],
      "stateMutability": "view",
      "type": "function"
    },
    {
      "inputs": [
        {
          "internalType": "uint256",
          "name": "cabalId",
          "type": "uint256"
        }
      ],
      "name": "getCabal",
      "outputs": [
        {
          "components": [
            {
              "internalType": "uint256",
              "name": "id",
              "type": "uint256"
            },
            {
              "internalType": "address",
              "name": "creator",
              "type": "address"
            },
            {
              "internalType": "string",
              "name": "name",
              "type": "string"
            },
            {
              "internalType": "string",
              "name": "symbol",
              "type": "string"
            },
            {
              "internalType": "string",
              "name": "image",
              "type": "string"
            },
            {
              "internalType": "address",
              "name": "tbaAddress",
              "type": "address"
            },
            {
              "internalType": "address",
              "name": "tokenAddress",
              "type": "address"
            },
            {
              "internalType": "enum CabalPhase",
              "name": "phase",
              "type": "uint8"
            },
            {
              "internalType": "uint256",
              "name": "totalRaised",
              "type": "uint256"
            },
            {
              "internalType": "uint256",
              "name": "totalTokensReceived",
              "type": "uint256"
            },
            {
              "internalType": "uint256",
              "name": "totalStaked",
              "type": "uint256"
            },
            {
              "internalType": "uint256",
              "name": "contributorCount",
              "type": "uint256"
            },
            {
              "components": [
                {
                  "internalType": "uint256",
                  "name": "votingPeriod",
                  "type": "uint256"
                },
                {
                  "internalType": "uint256",
                  "name": "quorumBps",
                  "type": "uint256"
                },
                {
                  "internalType": "uint256",
                  "name": "majorityBps",
                  "type": "uint256"
                },
                {
                  "internalType": "uint256",
                  "name": "proposalThreshold",
                  "type": "uint256"
                }
              ],
              "internalType": "struct GovernanceSettings",
              "name": "settings",
              "type": "tuple"
            }
          ],
          "internalType": "struct ViewFacet.CabalInfo",
          "name": "",
          "type": "tuple"
        }
      ],
      "stateMutability": "view",
      "type": "function"
    },
    {
      "inputs": [
        {
          "internalType": "uint256[]",
          "name": "cabalIds",
          "type": "uint256[]"
        }
      ],
      "name": "getCabals",
      "outputs": [
        {
          "components": [
            {
              "internalType": "uint256",
              "name": "id",
              "type": "uint256"
            },
            {
              "internalType": "address",
              "name": "creator",
              "type": "address"
            },
            {
              "internalType": "string",
              "name": "name",
              "type": "string"
            },
            {
              "internalType": "string",
              "name": "symbol",
              "type": "string"
            },
            {
              "internalType": "string",
              "name": "image",
              "type": "string"
            },
            {
              "internalType": "address",
              "name": "tbaAddress",
              "type": "address"
            },
            {
              "internalType": "address",
              "name": "tokenAddress",
              "type": "address"
            },
            {
              "internalType": "enum CabalPhase",
              "name": "phase",
              "type": "uint8"
            },
            {
              "internalType": "uint256",
              "name": "totalRaised",
              "type": "uint256"
            },
            {
              "internalType": "uint256",
              "name": "totalTokensReceived",
              "type": "uint256"
            },
            {
              "internalType": "uint256",
              "name": "totalStaked",
              "type": "uint256"
            },
            {
              "internalType": "uint256",
              "name": "contributorCount",
              "type": "uint256"
            },
            {
              "components": [
                {
                  "internalType": "uint256",
                  "name": "votingPeriod",
                  "type": "uint256"
                },
                {
                  "internalType": "uint256",
                  "name": "quorumBps",
                  "type": "uint256"
                },
                {
                  "internalType": "uint256",
                  "name": "majorityBps",
                  "type": "uint256"
                },
                {
                  "internalType": "uint256",
                  "name": "proposalThreshold",
                  "type": "uint256"
                }
              ],
              "internalType": "struct GovernanceSettings",
              "name": "settings",
              "type": "tuple"
            }
          ],
          "internalType": "struct ViewFacet.CabalInfo[]",
          "name": "",
          "type": "tuple[]"
        }
      ],
      "stateMutability": "view",
      "type": "function"
    },
    {
      "inputs": [
        {
          "internalType": "address",
          "name": "creator",
          "type": "address"
        }
      ],
      "name": "getCabalsByCreator",
      "outputs": [
        {
          "internalType": "uint256[]",
          "name": "",
          "type": "uint256[]"
        }
      ],
      "stateMutability": "view",
      "type": "function"
    },
    {
      "inputs": [
        {
          "internalType": "address",
          "name": "staker",
          "type": "address"
        }
      ],
      "name": "getCabalsByStaker",
      "outputs": [
        {
          "internalType": "uint256[]",
          "name": "",
          "type": "uint256[]"
        }
      ],
      "stateMutability": "view",
      "type": "function"
    },
    {
      "inputs": [
        {
          "internalType": "uint256",
          "name": "cabalId",
          "type": "uint256"
        },
        {
          "internalType": "address",
          "name": "user",
          "type": "address"
        }
      ],
      "name": "getContribution",
      "outputs": [
        {
          "internalType": "uint256",
          "name": "",
          "type": "uint256"
        }
      ],
      "stateMutability": "view",
      "type": "function"
    },
    {
      "inputs": [],
      "name": "getTotalCabals",
      "outputs": [
        {
          "internalType": "uint256",
          "name": "",
          "type": "uint256"
        }
      ],
      "stateMutability": "view",
      "type": "function"
    },
    {
      "inputs": [
        {
          "internalType": "address",
          "name": "user",
          "type": "address"
        },
        {
          "internalType": "uint256[]",
          "name": "cabalIds",
          "type": "uint256[]"
        }
      ],
      "name": "getUserPositions",
      "outputs": [
        {
          "internalType": "uint256[]",
          "name": "contributions",
          "type": "uint256[]"
        },
        {
          "internalType": "uint256[]",
          "name": "stakedBalances",
          "type": "uint256[]"
        },
        {
          "internalType": "uint256[]",
          "name": "votingPowers",
          "type": "uint256[]"
        },
        {
          "internalType": "bool[]",
          "name": "claimed",
          "type": "bool[]"
        }
      ],
      "stateMutability": "view",
      "type": "function"
    },
    {
      "inputs": [
        {
          "internalType": "uint256",
          "name": "cabalId",
          "type": "uint256"
        },
        {
          "internalType": "address",
          "name": "user",
          "type": "address"
        }
      ],
      "name": "hasClaimed",
      "outputs": [
        {
          "internalType": "bool",
          "name": "",
          "type": "bool"
        }
      ],
      "stateMutability": "view",
      "type": "function"
    }
  ],
  "bytecode": "0x60808060405234601557610db3908161001a8239f35b5f80fdfe6080806040526004361015610012575f80fd5b5f3560e01c9081630272d82a1461078c57508063356213d6146107025780635278c3921461065b5780635c32e52f146105b3578063873f6f9e14610583578063b3b443581461038f578063d29c4e07146100ed578063d98af84a146100b15763e081dbf91461007f575f80fd5b346100ad5760403660031901126100ad5760206100a561009d610815565b600435610d1d565b604051908152f35b5f80fd5b346100ad575f3660031901126100ad5760207ff6b912f89c06d8afd06b9fa8bd742c729f30156da50b94481faddbc9d0b4e9ea54604051908152f35b346100ad5760403660031901126100ad576101066107ff565b60243567ffffffffffffffff81116100ad57610126903690600401610990565b9061013082610c43565b9261013a83610c43565b61014384610c43565b9161014d85610bf3565b9361015b6040519586610a45565b85855261016786610bf3565b602086019690601f1901368837606083901b6bffffffffffffffffffffffff1916905f5b81811061020d576101b68a8a8a60206101d18c6101c38d60405198899860808a5260808a019061082b565b90888203868a015261082b565b90868203604088015261082b565b91848303606086015251918281520191905f5b8181106101f2575050500390f35b825115158452859450602093840193909201916001016101e4565b8061021a86928487610c0b565b358b6102308361022a8685610d1d565b92610c2f565b5260405160208101907f8558c73f0b9098e6be43e479b1cf30236e7e64287529940c5fdd38ab47be3e09825282604082015286606082015260548152610277607482610a45565b51902054610285838a610c2f565b526102908289610c2f565b5160405160208101907f0d5b18ea51234f5557964678168b512e7844d6b8406c15c9ac0ae675917d830f8252836040820152876060820152605481526102d7607482610a45565b51902054906001600160a01b0360405160208101907fc3de27a01aa54ffcb04f207e8a4f4a16b583945f9cf1c6868757ca4e0e69315282528560408201528960608201526054815261032a607482610a45565b51902054161561036357509261034e916001945b610348858d610c2f565b52610cba565b610358828b610c2f565b90151590520161018b565b8094500180931161037b578661034e9160019461033e565b634e487b7160e01b5f52601160045260245ffd5b346100ad5760203660031901126100ad5760043567ffffffffffffffff81116100ad576103c0903690600401610990565b6103c981610bf3565b916103d76040519384610a45565b818352601f196103e683610bf3565b015f5b81811061056c5750505f5b82811061046257836040518091602082016020835281518091526040830190602060408260051b8601019301915f905b82821061043357505050500390f35b919360019193955060206104528192603f198a82030186528851610882565b9601920192018594939192610424565b806104d261054a600961048161047b6001968989610c0b565b35610c75565b61048c858989610c0b565b356001600160a01b038254166001600160a01b03600484015416600584015461052c60ff600687015492600788015494600e8901549660088a0154986040519d8e6109f8565b8d5260208d01526104e48e8a01610ae9565b60408d01526104f560028a01610ae9565b60608d015261050660038a01610ae9565b60808d015260a08c01526001600160a01b03811660c08c015260a01c1660e08a01610bb5565b61010088015261012087015261014086015261016085015201610bc1565b61018082015261055a8287610c2f565b526105658186610c2f565b50016103f4565b602090610577610a67565b828288010152016103e9565b346100ad5760403660031901126100ad5760206105a96105a1610815565b600435610cba565b6040519015158152f35b346100ad5760203660031901126100ad5761065761062a61063d60096004356105da610a67565b506105e481610c75565b906001600160a01b038254166001600160a01b03600484015416600584015461052c60ff600687015492600788015494600e8901549660088a0154986040519d8e6109f8565b8d5260208d01526104e460018a01610ae9565b610180820152604051918291602083526020830190610882565b0390f35b346100ad575f3660031901126100ad576040517ff6b912f89c06d8afd06b9fa8bd742c729f30156da50b94481faddbc9d0b4e9ea80548083525f91825260208301917f92a07e9b5c0c3259ab73db7fddb759e0795904dcdc9c62a149d91b30ac2f683e91905b8181106106ec57610657856106d881870382610a45565b60405191829160208352602083019061082b565b82548452602090930192600192830192016106c1565b346100ad5760203660031901126100ad576106576107856106d86107246107ff565b60405160208101917fd1261fcbdec2818395983d1051c30776b763075dd8066c02ad3ddcf362b02de283526bffffffffffffffffffffffff199060601b16604082015260348152610776605482610a45565b519020604051928380926109c1565b0382610a45565b346100ad5760203660031901126100ad576107856106d8610657926107af6107ff565b9060208101917f286c44e1adb37baad1a43e591cf328daa08f091c9031a161720cadffabab900383526bffffffffffffffffffffffff199060601b16604082015260348152610776605482610a45565b600435906001600160a01b03821682036100ad57565b602435906001600160a01b03821682036100ad57565b90602080835192838152019201905f5b8181106108485750505090565b825184526020938401939092019160010161083b565b805180835260209291819084018484015e5f828201840152601f01601f1916010190565b90815181526001600160a01b0360208301511660208201526108df6108cd6108bb6040850151610200604086015261020085019061085e565b6060850151848203606086015261085e565b6080840151838203608085015261085e565b916001600160a01b0360a08201511660a08301526001600160a01b0360c08201511660c083015260e081015190600382101561097c576101806060916101e09360e08601526101008101516101008601526101208101516101208601526101408101516101408601526101608101516101608601520151805161018085015260208101516101a085015260408101516101c0850152015191015290565b634e487b7160e01b5f52602160045260245ffd5b9181601f840112156100ad5782359167ffffffffffffffff83116100ad576020808501948460051b0101116100ad57565b90602082549182815201915f5260205f20905f5b8181106109e25750505090565b82548452602090930192600192830192016109d5565b6101a0810190811067ffffffffffffffff821117610a1557604052565b634e487b7160e01b5f52604160045260245ffd5b6080810190811067ffffffffffffffff821117610a1557604052565b90601f8019910116810190811067ffffffffffffffff821117610a1557604052565b60405190610a74826109f8565b815f81525f602082015260606040820152606080820152606060808201525f60a08201525f60c08201525f60e08201525f6101008201525f6101208201525f6101408201525f61016082015261018060405191610ad083610a29565b5f83525f60208401525f60408401525f60608401520152565b90604051915f8154908160011c9260018316928315610bab575b602085108414610b97578487528693908115610b755750600114610b31575b50610b2f92500383610a45565b565b90505f9291925260205f20905f915b818310610b59575050906020610b2f928201015f610b22565b6020919350806001915483858901015201910190918492610b40565b905060209250610b2f94915060ff191682840152151560051b8201015f610b22565b634e487b7160e01b5f52602260045260245ffd5b93607f1693610b03565b600382101561097c5752565b90604051610bce81610a29565b6060600382948054845260018101546020850152600281015460408501520154910152565b67ffffffffffffffff8111610a155760051b60200190565b9190811015610c1b5760051b0190565b634e487b7160e01b5f52603260045260245ffd5b8051821015610c1b5760209160051b010190565b90610c4d82610bf3565b610c5a6040519182610a45565b8281528092610c6b601f1991610bf3565b0190602036910137565b60405160208101917fc61520f0fc87f37c054c240fb12fa829a873c4a7f3a227d3cdaf38f732a45b0d8352604082015260408152610cb4606082610a45565b51902090565b6001916040519060208201927ffa7666f901d98d7ddb6dca66654a4b44590f640f4803ecfa6cdcb1bcf243032b845260408301526bffffffffffffffffffffffff199060601b16606082015260548152610d15607482610a45565b519020541490565b906040519060208201927ff9cb95d6bcd70b8f41deb63f6a0973398a369f058485501ab1645d87ca423542845260408301526bffffffffffffffffffffffff199060601b16606082015260548152610d76607482610a45565b519020549056fea2646970667358221220e4a7e60c36288574a13b792a56205d33ef9e0b49d9b33393343d1ce0bcec4fc864736f6c634300081a0033",
  "linkReferences": {},
  "deployedLinkReferences": {}
}